:0400000007EF00F016
:100008005F8213ED29F022EF33F00001EB51D8B4F1
:100018001200100EEB19D8A4A8D3359C020EF919BA
:10002800D8A41ED0FF0E606FFF0E616F01016851EA
:100038000001626F636B60516227615163230101A4
:100048006A510001646F656B6251645D6551800A95
:10005800666F6351800A6659D8B002D001016A2BD5
:10006800030E0001F919D8A418D0FF0E606FFF0E17
:10007800616F4A50626F636B6051622761516323FD
:100088004C50646F656B6251645D6551800A666FA0
:100098006351800A6659D8A04C2A040EF919D8A4CD
:1000A8001ED0FF0E606FFF0E616F010162510001EB
:1000B800626F636B60516227615163230101645170
:1000C8000001646F656B6251645D6551800A666FFB
:1000D8006351800A6659D8B002D00101642B050E1D
:1000E8000001F919D8A418D0FF0E606FFF0E616FD8
:1000F8004150626F636B60516227615163234350C3
:10010800646F656B6251645D6551800A666F635107
:10011800800A6659D8A0432A060EF919D8A418D01F
:10012800FF0E606FFF0E616F3E50626F636B605130
:100138006227615163234050646F656B6251645D4F
:100148006551800A666F6351800A6659D8A0402AB3
:10015800070EF919D8A41ED0FF0E606FFF0E616F4D
:10016800010147510001626F636B60516227615161
:100178006323010149510001646F656B6251645D3D
:100188006551800A666F6351800A6659D8B002D0FB
:100198000101492B090E0001F919D8A418D0FF0E46
:1001A800606FFF0E616F4750626F636B605162272B
:1001B800615163234950646F656B6251645D655199
:1001C800800A666F6351800A6659D8A0492A0A0EC8
:1001D800F919D8A418D0FF0E606FFF0E616F445054
:1001E800626F636B60516227615163234650646F8D
:1001F800656B6251645D6551800A666F6351800A60
:100208006659D8A0462A0B0EF919D8A41ED0FF0E9D
:10021800606FFF0E616F010165510001626F636BD2
:100228006051622761516323010167510001646FC6
:10023800656B6251645D6551800A666F6351800A1F
:100248006659D8B002D00101672B0C0E0001F919CC
:10025800D8A41ED0FF0E606FFF0E616F01015F51C1
:100268000001626F636B6051622761516323010172
:1002780061510001646F656B6251645D6551800A6C
:10028800666F6351800A6659D8B002D00101612BAC
:100298000D0E0001F919D8A41ED0FF0E606FFF0ED5
:1002A800616F01015C510001626F636B60516227ED
:1002B8006151632301015E510001646F656B6251F6
:1002C800645D6551800A666F6351800A6659D8B0CB
:1002D80002D001015E2B0E0E0001F919D8A41ED020
:1002E800FF0E606FFF0E616F010159510001626FCF
:1002F800636B605162276151632301015B51000107
:10030800646F656B6251645D6551800A666F635105
:10031800800A6659D8B002D001015B2B0F0E00018C
:10032800F919D8A41ED0FF0E606FFF0E616F01018E
:1003380056510001626F636B6051622761516323FC
:10034800010158510001646F656B6251645D65512C
:10035800800A666F6351800A6659D8B002D00101DD
:10036800582B180E0001F919D8A406D001013A51EA
:10037800D8A402D0010E3A6F100E0001F919D8A4C2
:1003880006D0560E0101556102D0050E5527110EF3
:100398000001F919D8A41ED0FF0E606FFF0E616F1F
:1003A800010150510001626F636B60516227615116
:1003B8006323010152510001646F656B6251645DF2
:1003C8006551800A666F6351800A6659D8B002D0B9
:1003D8000101522B120E0001F919D8A41ED0FF0EEC
:1003E800606FFF0E616F01014D510001626F636B19
:1003F800605162276151632301014F510001646F0D
:10040800656B6251645D6551800A666F6351800A4D
:100418006659D8B002D001014F2B080E0001F91916
:10042800D8A405D07F0E0101466101D0462B140ED9
:100438000001F919D8A405D00F0E0101436101D0BC
:10044800432B150E0001F919D8A405D00F0E010190
:10045800406101D0402B130E0001F919D8A41ED019
:10046800FF0E606FFF0E616F01014A510001626F5C
:10047800636B605162276151632301014C51000194
:10048800646F656B6251645D6551800A666F635184
:10049800800A6659D8B002D001014C2B160E000113
:1004A800F919D8A41ED0FF0E606FFF0E616F01010D
:1004B8003B510001626F636B605162276151632396
:1004C80001013D510001646F656B6251645D6551C6
:1004D800800A666F6351800A6659D8B002D001015C
:1004E8003D2B170E0001F919D8A418D0FF0E606F24
:1004F800FF0E616FDF51626F636B6051622761515C
:100508006323E151646F656B6251645D6551800AD4
:10051800666F6351800A6659D8A0E12B190EF91944
:10052800D8A418D0FF0E606FFF0E616F3B50626F4A
:10053800636B60516227615163233D50646F656B43
:100548006251645D6551800A666F6351800A66591D
:10055800D8A03D2A1A0EF919D8A403D0010E01011A
:10056800371B1B0E0001F919D8A405D0FA0E01019A
:10057800346101D0342B1C0E0001F919D8A405D020
:10058800040E0101316101D0312B1D0E0001F91952
:10059800D8A41ED0FF0E606FFF0E616F01012C51B1
:1005A8000001626F636B605162276151632301012F
:1005B8002E510001646F656B6251645D6551800A5C
:1005C800666F6351800A6659D8B002D001012E2B9C
:1005D8001E0E0001F919D8A41ED0FF0E606FFF0E81
:1005E800616F010129510001626F636B60516227DD
:1005F8006151632301012B510001646F656B6251E6
:10060800645D6551800A666F6351800A6659D8B087
:1006180002D001012B2B1F0E0001F919D8A41ED0FE
:10062800FF0E606FFF0E616F010126510001626FBE
:10063800636B6051622761516323010128510001F6
:10064800646F656B6251645D6551800A666F6351C2
:10065800800A6659D8B002D00101282B200E00016B
:10066800F919D8A403D0010E0101251B210E0001A0
:10067800F919D8A403D0010E0101221B220E000192
:10068800F919D8A403D0010E01011F1B230E000184
:10069800F919D8A41ED0FF0E606FFF0E616F01011B
:1006A8001A510001626F636B6051622761516323C5
:1006B80001011C510001646F656B6251645D6551F5
:1006C800800A666F6351800A6659D8B002D001016A
:1006D8001C2B240E0001F919D8A403D0010E010126
:1006E800191B250E0001F919D8A403D0010E010128
:1006F800161B260E0001F919D8A418D0FF0E606F3A
:10070800FF0E616FDC51626F636B6051622761514C
:100718006323DE51646F656B6251645D6551800AC5
:10072800666F6351800A6659D8A0DE2B270EF91927
:10073800D8A403D0010E0101131B280E0001F919DA
:10074800D8A403D0010E0101101B290E0001F919CC
:10075800D8A403D0010E01010D1B2A0E0001F919BE
:10076800D8A403D0010E01010A1B200E0001EB19C9
:10077800D8A45FD1359C020EF919D8A404D0010180
:100788006A51D8A46A07030E0001F919D8A403D046
:100798004C50D8A44C06040EF919D8A404D0010171
:1007A8006451D8A46407050E0001F919D8A403D030
:1007B8004350D8A44306060EF919D8A403D04050D4
:1007C800D8A44006070EF919D8A404D0010149514C
:1007D800D8A44907090E0001F919D8A403D0495033
:1007E800D8A449060A0EF919D8A403D04650D8A4AB
:1007F80046060B0EF919D8A404D001016751D8A4F4
:1008080067070C0E0001F919D8A404D00101615141
:10081800D8A461070D0E0001F919D8A404D001016C
:100828005E51D8A45E070E0E0001F919D8A404D0B1
:1008380001015B51D8A45B070F0E0001F919D8A478
:1008480004D001015851D8A45807180E0001F9190D
:10085800D8A406D001013A05D8A402D0000E3A6FF8
:10086800100E0001F919D8A406D00E0E0101556525
:1008780002D0050E555F110E0001F919D8A402D057
:1008880001015207120E0001F919D8A402D0010182
:100898004F07080E0001F919D8A404D001014651E8
:1008A800D8A44607140E0001F919D8A404D00101F0
:1008B8004351D8A44307150E0001F919D8A404D050
:1008C80001014051D8A44007130E0001F919D8A41A
:1008D80002D001014C07160E0001F919D8A404D062
:1008E80001013D51D8A43D07170E0001F919D8A4FC
:1008F80003D0E151D8A4E107190EF919D8A403D0FF
:100908003D50D8A43D061A0EF919D8A403D0010EFB
:100918000101371B1B0E0001F919D8A405D0190EC7
:100928000101346501D034071C0E0001F919D8A45F
:1009380005D0010E0101316501D031071D0E0001FE
:10094800F919D8A404D001012E51D8A42E071E0EDF
:100958000001F919D8A404D001012B51D8A42B0700
:100968001F0E0001F919D8A404D001012851D8A4F8
:100978002807200E0001F919D8A403D0010E01019F
:10098800251B210E0001F919D8A403D0010E01017D
:10099800221B220E0001F919D8A403D0010E01016F
:1009A8001F1B230E0001F919D8A404D001011C5102
:1009B800D8A41C07240E0001F919D8A403D0010EED
:1009C8000101191B250E0001F919D8A403D0010E45
:1009D8000101161B260E0001F919D8A403D0DE5117
:1009E800D8A4DE07270EF919D8A403D0010E0101F7
:1009F800131B280E0001F919D8A403D0010E010118
:100A0800101B290E0001F919D8A403D0010E010109
:100A18000D1B290E0001F919D8A403D0010E0101FC
:100A28000D1B2A0E0001F919D8A403D0010E0101EB
:100A38000A1B000E0001EB6F12000001E551D8B44B
:100A48001200EA51D8B408D0020EEA19D8B404D07A
:100A5800060EEA19D8A4B8D0E951D8B433A426D0E0
:100A68005650800A7F0FD8B033B220D032BE1ED085
:100A7800FF0E186EFF0E196EE5511A6E1B6A18509C
:100A88001A2619501B221A504F24D96E1B50502079
:100A9800DA6EDF501C6E56040C0DF3501C24026EE7
:100AA800FDC003F0F651D8EC48F033940001E90595
:100AB800D8B433A428D05650800A7F0FD8B033B2A8
:100AC80022D032BE20D0FF0E186EFF0E196EE551EF
:100AD8001A6E1B6A18501A2619501B221A504F24D6
:100AE800D96E1B505020DA6EDF501C6EF85100088A
:100AF80056240C0DF3501C24026EFDC003F0F65171
:100B0800D8EC48F0339433A25FD00001E951D8A45F
:100B180020D032BC1DD0FF0E186EFF0E196EE551A5
:100B28001A6E1B6A18501A2619501B221A504F2485
:100B3800D96E1B505020DA6EDF501C6EF8050C0D74
:100B4800F3501C24026EFDC003F0F651D8EC48F0B7
:100B580033920001E905D8A41BD032BC18D0FF0E8F
:100B6800186EFF0E196EE5511A6E1B6A18501A2678
:100B780019501B221A504F24D96E1B505020DA6E80
:100B8800DF50026EFDC003F0F651D8EC48F0339206
:100B980034A613D0010E0001E56503D0010E576E8F
:100BA8003386E505D8A409D0010EF86506D0328E43
:100BB800000E576E560656C0E7F0020E0001EA19FD
:100BC800D8A402D0030EEA6F0001EA05D8B404D015
:100BD800030EEA19D8A4BFD0E951D8B433A424D05D
:100BE80056BE33B221D032BE1FD0FF0E186EFF0E94
:100BF800196EE5511A6E1B6A18501A2619501B22D5
:100C08001A504F24D96E1B505020DA6EDF501C6EDC
:100C18005650F8250C0DF3501C24026EFDC003F04D
:100C2800F651D8EC48F033940001E905D8B433A460
:100C380023D056BE33B220D032BE1ED0FF0E186E5F
:100C4800FF0E196EE5511A6E1B6A18501A261950B4
:100C58001B221A504F24D96E1B505020DA6EDF50D9
:100C68001C6E56280C0DF3501C24026EFDC003F0B8
:100C7800F651D8EC48F0339433A26DD00001E95115
:100C8800D8A424D032BC21D0FF0E186EFF0E196EE6
:100C9800E5511A6E1B6A18501A2619501B221A5051
:100CA8004F24D96E1B505020DA6EDF501C6EF8515D
:100CB800010DF3500008F8250C0DF3501C24026EAA
:100CC800FDC003F0F651D8EC48F033920001E90575
:100CD800D8A425D032BC22D0FF0E186EFF0E196E94
:100CE800E5511A6E1B6A18501A2619501B221A5001
:100CF8004F24D96E1B505020DA6EDF501C6EF8510D
:100D0800010DF35000081D6E1D280C0DF3501C2416
:100D1800026EFDC003F0F651D8EC48F0339234A6C9
:100D280013D0010E0001E56503D0010E576E33861E
:100D3800E505D8A409D0010EF86506D0328E000E5C
:100D4800576E562A56C0E7F0030E0001EA19D8A4D8
:100D580002D0020EEA6F050E0001EA19D8B404D0D9
:100D6800040EEA19D8A456D056C055F033B432BE92
:100D78000BD055500C0DF350E825026EFDC003F062
:100D8800F651D8EC48F033945750D8A433B61ED057
:100D9800FF0E186EFF0E196E57501A6E1B6A185008
:100DA8001A2619501B221A504F24D96E1B50502056
:100DB800DA6EDF501C6E56500C0DF3501C24026E78
:100DC800FDC003F00001F651D8EC48F001EC46F004
:100DD8000DC00FF00EC010F0F8C011F0126A9CECB4
:100DE80042F00F50566E33B815D05750010DF350DE
:100DF8004F24D96EF4505020DA6EDF50186E5650DA
:100E08000C0DF3501824056EFDC006F00001F651D4
:100E1800C9EC46F00001EA51D8B408D0020EEA192C
:100E2800D8B404D0060EEA19D8A47FD0359896EC29
:100E380031F00001E951D8A438D05750D8A433B6BE
:100E48001DD0FF0E186EFF0E196E57501A6E1B6AD2
:100E580018501A2619501B221A504F24D96E1B50AD
:100E68005020DA6EDF501C6E56500C0DF3501C24C7
:100E7800026EFDC003F0F651D8EC48F033B815D037
:100E88005750010DF3504F24D96EF4505020DA6EAC
:100E9800DF50186E56500C0DF3501824056EFDC027
:100EA80006F00001F651C9EC46F00001E905D8A4A6
:100EB8003CD05750D8A433B61FD0FF0E186EFF0E83
:100EC800196E57501A6E1B6A18501A2619501B2291
:100ED8001A504F24D96E1B505020DA6EDF501C6E0A
:100EE800F805000856240C0DF3501C24026EFDC0B2
:100EF80003F0F651D8EC48F033B817D05750010D2D
:100F0800F3504F24D96EF4505020DA6EDF50186E2B
:100F18000001F805000856240C0DF3501824056E3E
:100F2800FDC006F0F651C9EC46F00001EA05D8B458
:100F380004D0030EEA19D8A482D0358896EC31F093
:100F480033980001E951D8A43ED05750D8A433B6FD
:100F580020D0FF0E186EFF0E196E57501A6E1B6ABE
:100F680018501A2619501B221A504F24D96E1B509C
:100F78005020DA6EDF501C6EF85156241D6E1D0489
:100F88000C0DF3501C24026EFDC003F0F651D8EC92
:100F980048F033B818D05750010DF3504F24D96E8C
:100FA800F4505020DA6EDF50186E0001F8515624C4
:100FB800196E19040C0DF3501824056EFDC006F0C7
:100FC800F651C9EC46F00001E905D8A438D05750CD
:100FD800D8A433B61DD0FF0E186EFF0E196E5750E9
:100FE8001A6E1B6A18501A2619501B221A504F24C1
:100FF800D96E1B505020DA6EDF501C6E56500C0D07
:10100800F3501C24026EFDC003F0F651D8EC48F0F2
:1010180033B815D05750010DF3504F24D96EF45002
:101028005020DA6EDF50186E56500C0DF35018240D
:10103800056EFDC006F00001F651C9EC46F05750A8
:10104800010DF3504F24D96EF4505020DA6EDF5062
:101058000001E86F572A3396EA51D8B410D0020E2F
:10106800EA19D8B40CD0050EEA19D8B408D0040E81
:10107800EA19D8B404D0060EEA19D8A439D0E55133
:10108800575CD8A01ED0000E576EEA51D8B407D0CE
:10109800020EEA19D8B403D0060EEA19D8B4562AB3
:1010A8003384329E050EEA19D8B434B802D053EC12
:1010B80045F0040E0001EA19D8B434B802D094EC13
:1010C8003DF00001F851186E196A56C01AF01B6AF3
:1010D8001ABE1B0618501A5C1B50800A1C6E195049
:1010E800800A1C58D8A004D0000E566E3382329C59
:1010F800EA05D8B404D0030EEA19D8A41200E551C1
:10110800575CD8A005D0000E576E56063384329E21
:1011180056C018F0196A18BE1906F851010DF31EC9
:10112800F41EF34AF42A1850F35CF450800A1A6E3D
:101138001950800A1A58D8A01200000E566E338231
:10114800329C1200000E0001CC6F0F0ECC6501D04E
:1011580054D0CC51C6EC40F00001CC51020D600EC9
:10116800F324D96E020EF420DA6E60C0DEFF61C08F
:10117800DDFF0E0ECC19D8B404D00F0ECC19D8A4AC
:1011880024D0FF0EC26F030EC36FCC51020D600E48
:10119800F324D96E020EF420DA6EDECFC4F0DDCF70
:1011A800C5F0C41FC51FC44BC52BC251C427C351AA
:1011B800C523CC51020D600EF324D96E020EF42023
:1011C800DA6EC4C0DEFFC5C0DDFF32B014D0CC512A
:1011D800020D600EF324D96E020EF420DA6ECC51A3
:1011E800020D400EF324E16E020EF420E26EDECF13
:1011F800E6FFDDCFE5FFCC2BA8D7000ECB6F0F0E97
:10120800CB6501D09DD0CB51020D400EF324D96E91
:10121800020EF420DA6EDECF60F0DDCF61F0000E52
:1012280061BFFF0E626F636F010E21EC2FF060C08B
:1012380072F061C073F062C074F063C075F0000EA4
:101248000001A86F000EA96F800EAA6F3F0EAB6F4A
:1012580004C1A0F005C1A1F006C1A2F007C1A3F026
:101268007BEC48F0A0C0A4F0A1C0A5F0A2C0A6F0F5
:10127800A3C0A7F053EC1BF0A4C06EF0A5C06FF09C
:10128800A6C070F0A7C071F0AAEC19F06EC0C7F044
:101298006FC0C8F070C0C9F071C0CAF0C7C0A8F06C
:1012A800C8C0A9F0C9C0AAF0CAC0ABF004C172F0A6
:1012B80005C173F006C174F007C175F00001CB5188
:1012C800020D600EF324D96E020EF420DA6EDECF22
:1012D80060F0DDCF61F0000E61BFFF0E626F636FDB
:1012E800010E21EC2FF060C06EF061C06FF062C09B
:1012F80070F063C071F0AAEC19F06EC0A4F06FC072
:10130800A5F070C0A6F071C0A7F053EC1BF0A4C004
:10131800B8F0A5C0B9F0A6C0BAF0A7C0BBF07AEC87
:1013280034F00001CB51020D400EF324D96E020EA9
:10133800F420DA6EB8C0DEFFB9C0DDFFCB2B5FD773
:10134800000ECD6F0F0ECD6501D026D2010E020121
:101358008027000E81238223832332B015D0000119
:10136800CD51020D400EF324D96E020EF420DA6E30
:10137800CD51020D000EF324E16E020EF420E26E50
:10138800DECFE6FFDDCFE5FF0001CD51020D400EB7
:10139800F324D96E020EF420DA6EDECFC2F0DDCF70
:1013A800C3F0CD51020D000EF324D96E020EF420C5
:1013B800DA6EDECFC4F0DDCFC5F0C41FC51FC44B45
:1013C800C52BC251C427C351C5230101EB510001EC
:1013D800C45DC551800AC66F0101EC51800A000145
:1013E800C659D8B02ED0CD51020D000EF324D96EB7
:1013F800020EF420DA6EDECFC2F0DDCFC3F0CD519D
:10140800020D400EF324D96E020EF420DA6EDECF00
:10141800C4F0DDCFC5F0C41FC51FC44BC52BC251D6
:10142800C427C351C5230101EB510001C45DC55157
:10143800800AC66F0101EC51800A0001C659D8A084
:1014480096D1FA51CD19D8B403D0FA29D8A411D01D
:10145800000E0201806F000E816F000E826F000E79
:10146800836F000E846F000E856F000E866F000E6E
:10147800876F000E0101EC6F080EEB6F0001FA296F
:10148800D8B4CDC0FAF0CD51020D400EF324D96E78
:10149800020EF420DA6ECD51020D200EF324E16E17
:1014A800020EF420E26EDECFE6FFDDCFE5FFCD5180
:1014B800030DAC0EF324D96E020EF420DA6E02018D
:1014C800DFB097D00001CD51020D200EF324D96E64
:1014D800020EF420DA6EDECF7AF0DDCF7BF0000E5C
:1014E8007BBFFF0E7C6F7D6F000E7E6F000E7F6FDF
:1014F800000E806F000E816F500E826F3F0E836F5B
:10150800000E846F000E856F000E866F000E876FC9
:10151800000E886F000E896FFF0E8A6F3F0E8B6F6B
:10152800000E8C6F000E8D6F96EC33F00001CD51DC
:10153800020D200EF324D96E020EF420DA6E7AC062
:10154800DEFF7BC0DDFFCD51020D200EF324D96EE6
:10155800020EF420DA6EDECFC2F0DDCFC3F0C33561
:10156800C333C233C335C333C233C335C333C233C2
:10157800CD51020D200EF324D96E020EF420DA6E3E
:10158800C2C0DEFFC3C0DDFFCD51020D200EF32423
:10159800D96E020EF420DA6E010EDBAE0CD0CD51FE
:1015A800020D200EF324D96E020EF420DA6E000E1E
:1015B800DE6E000EDD6ECD51020D200EF324D96EC5
:1015C800020EF420DA6E010EDBBE13D0010EDB50E2
:1015D80004E1800EDE5CD8A00CD0CD51020D200EA7
:1015E800F324D96E020EF420DA6E7F0EDE6E000E42
:1015F800DD6E0001CD51030DAC0EF324D96E020E41
:10160800F420DA6E0201DFA095D00001CD51020D61
:10161800200EF324D96E020EF420DA6EDECFC2F06B
:10162800DDCFC3F0C23BC33BF00EC317C2510F0B53
:10163800C313F00EC217CD51020D200EF324D96E3C
:10164800020EF420DA6EC2C0DEFFC3C0DDFFCD514A
:10165800020D200EF324D96E020EF420DA6EDECFCE
:101668007AF0DDCF7BF0000E7BBFFF0E7C6F7D6FC5
:10167800500E7E6F000E7F6F000E806F000E816F20
:10168800000E826F3F0E836F000E846F000E856F11
:10169800000E866F000E876F000E886F000E896F30
:1016A800FF0E8A6F3F0E8B6F000E8C6F000E8D6FD2
:1016B80096EC33F00001CD51020D200EF324D96EC3
:1016C800020EF420DA6E7AC0DEFF7BC0DDFFCD515A
:1016D800020D200EF324D96E020EF420DA6E010EEC
:1016E800DBAE0CD0CD51020D200EF324D96E020EC4
:1016F800F420DA6E000EDE6E000EDD6ECD51020DA6
:10170800200EF324D96E020EF420DA6E010EDBBE31
:1017180011D0DE52400EDE5CD8A00CD0CD51020DA7
:10172800200EF324D96E020EF420DA6EFF0EDE6E60
:101738003F0EDD6E0001FA51CD19D8A403D0FA513D
:10174800A4EC1FF00001CD51020D400EF324D96E18
:10175800020EF420DA6ECD51020D000EF324E16E74
:10176800020EF420E26EDECFE6FFDDCFE5FF0201D8
:101778008851845D895185598A5186598B51875979
:10178800D8A007D0000E0101EC6F100EEB6F00011E
:10179800FA690001CD2BD6D5328012000001D8B1EC
:1017A800DBB70AD0D0B108D0000E856F36888551D6
:1017B80023EC32F00001D081D8B3DBB70AD0D0B324
:1017C80008D0010E856F3688855123EC32F0000170
:1017D800D083D8B5DBB70AD0D0B508D0020E856F54
:1017E8003688855123EC32F00001D085D8B7DBB7B5
:1017F8000AD0D0B708D0030E856F3688855123EC00
:1018080032F00001D087D8B9DBB70AD0D0B908D0F8
:10181800040E856F3688855123EC32F00001D0899B
:10182800D8BBDBB70AD0D0BB08D0050E856F368889
:10183800855123EC32F00001D08BD8BDDBB70AD03C
:10184800D0BD08D0060E856F3688855123EC32F05E
:101858000001D08DD8BFDBB70AD0D0BF08D0070EA3
:10186800856F3688855123EC32F00001D08FD9B1CD
:10187800DBB70AD0D1B108D0080E856F36888551FC
:1018880023EC32F00001D181D9B3DBB70AD0D1B350
:1018980008D0090E856F3688855123EC32F0000197
:1018A800D183D9B5DBB70AD0D1B508D00A0E856F78
:1018B8003688855123EC32F00001D185D9B7DBB7E2
:1018C8000AD0D1B708D00B0E856F3688855123EC26
:1018D80032F00001D187D9B9DBB70AD0D1B908D025
:1018E8000C0E856F3688855123EC32F00001D189C2
:1018F800D9BBDBB70AD0D1BB08D00D0E856F3688AF
:10190800855123EC32F00001D18BD9BDDBB70AD069
:10191800D1BD08D00E0E856F3688855123EC32F084
:101928000001D18DD9BFDBB70AD0D1BF08D00F0EC7
:10193800856F3688855123EC32F00001D18FDAB1FA
:10194800DBB70AD0D2B108D0100E856F3688855122
:1019580023EC32F00001D281DAB3DBB70AD0D2B37C
:1019680008D0110E856F3688855123EC32F00001BE
:10197800D283DAB5DBB70AD0D2B508D0120E856F9C
:101988003688855123EC32F00001D285DAB7DBB70F
:101998000AD0D2B708D0130E856F3688855123EC4C
:1019A80032F00001D287DAB9DBB70AD0D2B908D051
:1019B800140E856F3688855123EC32F00001D289E8
:1019C800DABBDBB70AD0D2BB08D0150E856F3688D4
:1019D800855123EC32F00001D28BDABDDBB70AD097
:1019E800D2BD08D0160E856F3688855123EC32F0AB
:1019F8000001D28DDABFDBB70AD0D2BF08D0170EEC
:101A0800856F3688855123EC32F00001D28FDBB127
:101A1800DBB70AD0D3B108D0180E856F3688855148
:101A280023EC32F00001D381D4B1D8B10AD0D0A1CF
:101A380008D0000E856F3698855123EC32F00001EE
:101A4800D091D4B3D8B30AD0D0A308D0010E856FF3
:101A58003698855123EC32F00001D093D4B5D8B52F
:101A68000AD0D0A508D0020E856F3698855123EC90
:101A780032F00001D095D4B7D8B70AD0D0A708D093
:101A8800030E856F3698855123EC32F00001D0970C
:101A9800D4B9D8B90AD0D0A908D0040E856F369821
:101AA800855123EC32F00001D099D4BBD8BB0AD0C1
:101AB800D0AB08D0050E856F3698855123EC32F0EF
:101AC8000001D09BD4BDD8BD0AD0D0AD08D0060E39
:101AD800856F3698855123EC32F00001D09DD4BF34
:101AE800D8BF0AD0D0AF08D0070E856F3698855179
:101AF80023EC32F00001D09FD5B1D9B10AD0D1A1E1
:101B080008D0080E856F3698855123EC32F0000115
:101B1800D191D5B3D9B30AD0D1A308D0090E856F16
:101B28003698855123EC32F00001D193D5B5D9B55B
:101B38000AD0D1A508D00A0E856F3698855123ECB6
:101B480032F00001D195D5B7D9B70AD0D1A708D0BE
:101B58000B0E856F3698855123EC32F00001D19732
:101B6800D5B9D9B90AD0D1A908D00C0E856F369845
:101B7800855123EC32F00001D199D5BBD9BB0AD0ED
:101B8800D1AB08D00D0E856F3698855123EC32F015
:101B98000001D19BD5BDD9BD0AD0D1AD08D00E0E5C
:101BA800856F3698855123EC32F00001D19DD5BF61
:101BB800D9BF0AD0D1AF08D00F0E856F369885519E
:101BC80023EC32F00001D19FD6B1DAB10AD0D2A10C
:101BD80008D0100E856F3698855123EC32F000013D
:101BE800D291D6B3DAB30AD0D2A308D0110E856F3A
:101BF8003698855123EC32F00001D293D6B5DAB588
:101C08000AD0D2A508D0120E856F3698855123ECDC
:101C180032F00001D295D6B7DAB70AD0D2A708D0E9
:101C2800130E856F3698855123EC32F00001D29758
:101C3800D6B9DAB90AD0D2A908D0140E856F369869
:101C4800855123EC32F00001D299D6BBDABB0AD019
:101C5800D2AB08D0150E856F3698855123EC32F03B
:101C68000001D29BD6BDDABD0AD0D2AD08D0160E7F
:101C7800856F3698855123EC32F00001D29DD6BF8E
:101C8800DABF0AD0D2AF08D0170E856F36988551C3
:101C980023EC32F00001D29FD7A11200DBB1120071
:101CA800D3A11200180E856F3698855123EC32F0B7
:101CB8000001D39112000001EEB1DBB733D0ECB1D3
:101CC80031D0EC8132B807D0DFC164F0FDC065F0D7
:101CD800FE5139EC47F032A632A808D0D7C161F0DE
:101CE8007F0E0001626FF651A1EC49F032B832A6BE
:101CF8000AD00001E3B107D0D7C161F07F0E626F4F
:101D0800F651A1EC49F032B832A60AD00001E3A19D
:101D180007D0D7C161F0000E626FF651A1EC49F00F
:101D28000001E371EEB3DBB733D0ECB331D0EC8311
:101D380032B807D0E0C164F0FDC065F0FE5139EC5F
:101D480047F032A632A808D0D8C161F07F0E000152
:101D5800626FF651A1EC49F032B832A60AD0000100
:101D6800E3B307D0D8C161F07F0E626FF651A1ECE2
:101D780049F032B832A60AD00001E3A307D0D8C18F
:101D880061F0000E626FF651A1EC49F00001E373B7
:101D9800EEB5DBB733D0ECB531D0EC8532B807D02F
:101DA800E1C164F0FDC065F0FE5139EC47F032A6A0
:101DB80032A808D0D9C161F07F0E0001626FF651D8
:101DC800A1EC49F032B832A60AD00001E3B507D039
:101DD800D9C161F07F0E626FF651A1EC49F032B8BB
:101DE80032A60AD00001E3A507D0D9C161F0000EE0
:101DF800626FF651A1EC49F00001E375EEB7DBB76D
:101E080033D0ECB731D0EC8732B807D0E2C164F0F8
:101E1800FDC065F0FE5139EC47F032A632A808D073
:101E2800DAC161F07F0E0001626FF651A1EC49F052
:101E380032B832A60AD00001E3B707D0DAC161F0A0
:101E48007F0E626FF651A1EC49F032B832A60AD083
:101E58000001E3A707D0DAC161F0000E626FF65106
:101E6800A1EC49F00001E377EEB9DBB733D0ECB968
:101E780031D0EC8932B807D0E3C164F0FDC065F019
:101E8800FE5139EC47F032A632A808D0DBC161F028
:101E98007F0E0001626FF651A1EC49F032B832A60C
:101EA8000AD00001E3B107D0DBC161F07F0E626F99
:101EB800F651A1EC49F032B832A60AD00001E3A1EC
:101EC80007D0DBC161F0000E626FF651A1EC49F05A
:101ED8000001E379EEBBDBB733D0ECBB31D0EC8B40
:101EE80032B807D0E4C164F0FDC065F0FE5139ECAA
:101EF80047F032A632A808D0DCC161F07F0E00019D
:101F0800626FF651A1EC49F032B832A60AD000014E
:101F1800E3B307D0DCC161F07F0E626FF651A1EC2C
:101F280049F032B832A60AD00001E3A307D0DCC1D9
:101F380061F0000E626FF651A1EC49F00001E37BFD
:101F4800EEBDDBB733D0ECBD31D0EC8D32B807D065
:101F5800E5C164F0FDC065F0FE5139EC47F032A6EA
:101F680032A808D0DDC161F07F0E0001626FF65122
:101F7800A1EC49F032B832A60AD00001E3B507D087
:101F8800DDC161F07F0E626FF651A1EC49F032B805
:101F980032A60AD00001E3A507D0DDC161F0000E2A
:101FA800626FF651A1EC49F00001E37DEEBFDBB7AB
:101FB80033D0ECBF31D0EC8F32B807D0E6C164F033
:101FC800FDC065F0FE5139EC47F032A632A808D0C2
:101FD800DEC161F07F0E0001626FF651A1EC49F09D
:101FE80032B832A60AD00001E3B707D0DEC161F0EB
:101FF8007F0E626FF651A1EC49F032B832A60AD0D2
:102008000001E3A707D0DEC161F0000E626FF65150
:10201800A1EC49F00001E37FEDB1EEB117D0ECA1DE
:1020280015D0EC9132B807D0DFC161F0FDC062F085
:10203800FE5168EC49F032A632A808D0D7C161F049
:10204800000E0001626FF651A1EC49F00001EDB3FA
:10205800EEB317D0ECA315D0EC9332B807D0E0C19B
:1020680061F0FDC062F0FE5168EC49F032A632A87A
:1020780008D0D8C161F0000E0001626FF651A1ECE2
:1020880049F00001EDB5EEB517D0ECA515D0EC95EB
:1020980032B807D0E1C161F0FDC062F0FE5168ECD2
:1020A80049F032A632A808D0D9C161F0000E00016B
:1020B800626FF651A1EC49F00001EDB7EEB717D009
:1020C800ECA715D0EC9732B807D0E2C161F0FDC09B
:1020D80062F0FE5168EC49F032A632A808D0DAC1A5
:1020E80061F0000E0001626FF651A1EC49F00001A9
:1020F800EDB9EEB917D0ECA915D0EC9932B807D0E4
:10210800E3C161F0FDC062F0FE5168EC49F032A60F
:1021180032A808D0DBC161F0000E0001626FF651F1
:10212800A1EC49F00001EDBBEEBB17D0ECAB15D02C
:10213800EC9B32B807D0E4C161F0FDC062F0FE51FB
:1021480068EC49F032A632A808D0DCC161F0000E74
:102158000001626FF651A1EC49F00001EDBDEEBD42
:1021680017D0ECAD15D0EC9D32B807D0E5C161F0C1
:10217800FDC062F0FE5168EC49F032A632A808D0E2
:10218800DDC161F0000E0001626FF651A1EC49F06B
:102198000001EDAF1200EEBF1200ECAF1200EC9F91
:1021A80032B807D0E6C161F0FDC062F0FE5168ECBC
:1021B80049F032B6120032A81200DEC161F0000EFA
:1021C8000001626FF651A1EC49F0120000017B6F2B
:1021D800000E0001F96F359C359E71D235BCCFD108
:1021E800100E0001EB19D8A475D07B51030DAC0E6D
:1021F800F324D96E020EF420DA6E0201DFB03CD06F
:1022080000017B51030D010EF326000EF422AC0EE3
:10221800F324D96E020EF420DA6EDF50800A090F1B
:10222800D8B02AD07B51030D010EF326000EF422FC
:10223800AC0EF324D96E020EF420DA6EDF2A7B513D
:10224800030D010EF326000EF422AC0EF324D96E12
:10225800020EF420DA6EDF50D8A40ED07B51030DA5
:10226800010EF326000EF422AC0EF324D96E020EF2
:10227800F420DA6E400EDF6E00017B51030DAC0EC8
:10228800F324D96E020EF420DA6E0201DFA01FD00B
:1022980000017B51030D020EF326000EF422AC0E52
:1022A800F324D96E020EF420DA6EDF50800A610F33
:1022B800D8B00DD07B51030D020EF326000EF42288
:1022C800AC0EF324D96E020EF420DA6EDF2A000E6B
:1022D8000001EB6F200EEB19D8A4B2D07B51030D8F
:1022E800AC0EF324D96E020EF420DA6E0201DFB0D0
:1022F80079D000017B51030D010EF326000EF42264
:10230800AC0EF324D96E020EF420DA6EDF50800A88
:10231800820FD8A00DD07B51030D010EF326000EBD
:10232800F422AC0EF324D96E020EF420DA6EDF0626
:102338007B51030D010EF326000EF422AC0EF3249C
:10234800D96E020EF420DA6E3D0EDE18D8A40ED037
:102358007B51030D010EF326000EF422AC0EF3247C
:10236800D96E020EF420DA6EFD0EDF6E7B51030D7E
:10237800010EF326000EF422AC0EF324D96E020EE1
:10238800F420DA6E3E0EDE18D8A40ED07B51030D71
:10239800010EF326000EF422AC0EF324D96E020EC1
:1023A800F420DA6EFE0EDF6E7B51030D010EF3266C
:1023B800000EF422AC0EF324D96E020EF420DA6E6D
:1023C8003F0EDE18D8A40ED07B51030D010EF32664
:1023D800000EF422AC0EF324D96E020EF420DA6E4D
:1023E800FF0EDF6E00017B51030DAC0EF324D96E96
:1023F800020EF420DA6E0201DFA01FD000017B512B
:10240800030D020EF326000EF422AC0EF324D96E4F
:10241800020EF420DA6EDF50800A820FD8A00DD0A9
:102428007B51030D020EF326000EF422AC0EF324AA
:10243800D96E020EF420DA6EDF06000E0001EB6F93
:102448007B51030DAC0EF324D96E020EF420DA6E24
:102458000201DFB094D000017B51030D010EF32679
:10246800000EF422AC0EF324D96E020EF420DA6EBC
:10247800000EDBBE2ED07B51030D010EF326000E9D
:10248800F422AC0EF324D96E020EF420DA6EDF507B
:10249800746F756B74BF7507E9EC34F0070E0001B3
:1024A800636F020E26EC45F06B0E00016A6FFD0E9D
:1024B8006B6F0CEC40F00D0E0001636F020E26EC02
:1024C80045F0820E00016A6F010E6B6F0CEC40F054
:1024D80056D000017B51030D010EF326000EF422A5
:1024E800AC0EF324D96E020EF420DA6EDE28D8A4DE
:1024F8000CD0070E636F020E26EC45F09E0E00010D
:102508006A6FFF0E6B6F0CEC40F000017B51030DFE
:10251800010EF326000EF422AC0EF324D96E020E3F
:10252800F420DA6EFE0EDE18D8A40CD0070E636F06
:10253800020E26EC45F0880E00016A6FFF0E6B6FE5
:102548000CEC40F000017B51030D010EF326000E48
:10255800F422AC0EF324D96E020EF420DA6EFD0ECE
:10256800DE18D8A40CD0070E636F020E26EC45F0D7
:10257800930E00016A6FFF0E6B6F0CEC40F00001C8
:102588007B51030DAC0EF324D96E020EF420DA6EE3
:102598000201DFA094D000017B51030D020EF32647
:1025A800000EF422AC0EF324D96E020EF420DA6E7B
:1025B800000EDBBE2ED07B51030D020EF326000E5B
:1025C800F422AC0EF324D96E020EF420DA6EDF503A
:1025D800746F756B74BF7507E9EC34F0070E000172
:1025E800636F020E26EC45F06B0E00016A6FFD0E5C
:1025F8006B6F0CEC40F00D0E0001636F020E26ECC1
:1026080045F0820E00016A6F010E6B6F0CEC40F012
:1026180056D000017B51030D020EF326000EF42262
:10262800AC0EF324D96E020EF420DA6EDE28D8A49C
:102638000CD0070E636F020E26EC45F09E0E0001CB
:102648006A6FFF0E6B6F0CEC40F000017B51030DBD
:10265800020EF326000EF422AC0EF324D96E020EFD
:10266800F420DA6EFE0EDE18D8A40CD0070E636FC5
:10267800020E26EC45F0880E00016A6FFF0E6B6FA4
:102688000CEC40F000017B51030D020EF326000E06
:10269800F422AC0EF324D96E020EF420DA6EFD0E8D
:1026A800DE18D8A40CD0070E636F020E26EC45F096
:1026B800930E00016A6FFF0E6B6F0CEC40F035BE95
:1026C80012008CD535A6F1D00001DBB7EEA10ED0F3
:1026D8003580348A010E5A6EEE0E606F010E616FFE
:1026E800E60E626FFF0E636F31EC48F00001DBB756
:1026F800EEA3A2D035903698F251D8B408D0060E81
:10270800F219D8B404D0090EF219D8A406D0E551AC
:10271800D8B403D0000E23EC32F00001F205D8B48F
:1027280018D0020EF219D8B414D0030EF219D8B486
:1027380010D0070EF219D8B40CD0080EF219D8B47C
:1027480008D00A0EF219D8B404D00B0EF219D8A486
:1027580008D0E551D8B405D0000E7F6F000E96EC76
:1027680015F0040E0001F219D8B404D0050EF219C0
:10277800D8A408D0E551D8B405D0000E776F000E64
:10278800DFEC29F034BE34AA10D0010E0001E56553
:102798000CD0010E5A6EEE0E606F010E616FE10EE5
:1027A800626FFF0E636F31EC48F034AE10D0000159
:1027B800E505D8A40CD0010E5A6EEE0E606F010E1E
:1027C800616FFA0E626FFF0E636F31EC48F034BC34
:1027D80034AA18D034AE02D034AE14D00001E5517A
:1027E800D8A410D0000EE56F000EE46F010E5A6EEB
:1027F800EE0E606F010E616FF00E626FFF0E636F79
:1028080031EC48F035B018D034AE02D034AE14D024
:102818000001E551D8A410D0000EE56F000EE46F5A
:10282800010E5A6EEE0E606F010E616FDC0E626F64
:10283800FF0E636F31EC48F00001DBB7EEA518D04E
:10284800050EEA19D8B4CAEC44F0040E0001EA19DE
:10285800D8B410EC3DF0010E5A6EEE0E0001606F18
:10286800010E616FEB0E626FFF0E636F31EC48F083
:102878000001DBB7EEA719D0000E33BC010EEEEC59
:1028880048F03380C1EC2DF0F5EC47F0000E546EA3
:10289800010E5A6EEE0E0001606F010E616FF50EAB
:1028A800626FFF0E636F31EC48F0040E0001DB1914
:1028B800D811D911DA11D8A43DD0F3C088F0896BAA
:1028C80088BF8907FC51646F656B64BF6507000E9C
:1028D800676F0C0E666F54EC49F00001885164274D
:1028E8008951652365BF06D0655124E13D0E645DBD
:1028F800D8B020D035A00ED0E551D8B40BD0000EFA
:1029080033BE010EEEEC48F033A0C1EC2DF0338657
:10291800328E328C0001FC2BFC51800A780FD8A033
:1029280002D0070EFC6FFC51606F616B60BF6107DE
:102938002FEC4AF0020E0001DB19D811D911DA1177
:10294800D8A43AD0F3C088F0896B88BF8907FC51B6
:10295800646F656B64BF6507000E676F0C0E666F6A
:1029680054EC49F00001885164278951652365BFFB
:1029780023D0655104E10C0E645DD8A01DD035A0AC
:102988000ED0E551D8B40BD0000E33BE010EEEECDC
:1029980048F033A0C1EC2DF03386328E328C000122
:1029A800FC07FCAF02D0000EFC6FFC51606F616B3E
:1029B80060BF61072FEC4AF00C0E0001DB19D8113B
:1029C800D911DA11D8A453D0F3C088F0896B88BF25
:1029D8008907FC51646F656B64BF6507000E676FFC
:1029E8000C0E666F54EC49F0000188516427895138
:1029F800652365BF06D065513AE1480E645DD8B0DD
:102A080036D035A00ED0E551D8B40BD0000E33BE69
:102A1800010EEEEC48F033A0C1EC2DF03386328E77
:102A2800328C35BA09D00001F32BF351800A730FA9
:102A3800D8A002D00C0EF36F35AA11D0070E0001F2
:102A4800F327F3516E6F6F6B6EBF6F07000E716FD8
:102A58000C0E706F2BEC42F000016E51F36F000109
:102A6800F351606F616B60BF61072FEC4AF00A0E8B
:102A78000001DB19D811D911DA11D8A41200F3C05A
:102A880088F0896B88BF8907FC51646F656B64BFE8
:102A98006507000E676F0C0E666F54EC49F0000175
:102AA800885164278951652365BF1200655103E188
:102AB8006405D8A0120035A00ED0E551D8B40BD0CB
:102AC800000E33BE010EEEEC48F033A0C1EC2DF041
:102AD8003386328E328C35BA09D00001F307F351B0
:102AE800800A8C0FD8B002D0F40EF36F35AA11D03B
:102AF800F90E0001F327F3516E6F6F6B6EBF6F070E
:102B0800000E716F0C0E706F2BEC42F000016E51CD
:102B1800F36F0001F351606F616B60BF61072FECC9
:102B28004AF012000001846F1ED0550E0001866F16
:102B3800FD0E17D0460E866FFD0E13D0370E866F2A
:102B4800FD0E0FD0280E866FFD0E0BD0190E866F66
:102B5800FD0E07D00A0E866FFD0E03D0FB0E866FA2
:102B6800FC0E876F17D00001F151000AD8B4DDD7E9
:102B7800010AD8B4DFD7030AD8B4E0D7010AD8B419
:102B8800E1D7070AD8B4E2D7010AD8B4E3D7030AD1
:102B9800D8B4E4D735B6D0D0F205D8A425D036A815
:102BA80010D07F51010D780EF324F66EF30EF42049
:102BB800F76E0800F5CF64F0FDC065F0F65153ECF0
:102BC80046F036B811D000017F51010D780EF3247C
:102BD800F66EF30EF420F76E0800F5CF61F0FDC035
:102BE80062F0F65163EC48F0020E0001F219D8A425
:102BF80025D036A810D07F51010D690EF324F66E4A
:102C0800F30EF420F76E0800F5CF64F0FDC065F010
:102C1800F65153EC46F036B811D000017F51010D42
:102C2800690EF324F66EF30EF420F76E0800F5CF64
:102C380061F0FDC062F0F65163EC48F0030E00014C
:102C4800F219D8A479D07F51D8A431D036A816D09B
:102C58007F51010D86C080F087C081F0F350802736
:102C6800F450812380C0F6FF81C0F7FF0800F5CF3C
:102C780064F0FDC065F0F65153EC46F036B817D055
:102C880000017F51010D86C080F087C081F0F350AC
:102C98008027F450812380C0F6FF81C0F7FF080029
:102CA800F5CF61F0FDC062F0F65163EC48F0000129
:102CB8007F51D8B441D036A81ED07F51010D86C0AF
:102CC80080F087C081F0F3508027F450812380C0C2
:102CD800F6FF81C0F7FF0800F5CF82F086C0F6FF47
:102CE80087C0F7FF0800F5508225646FFDC065F0C6
:102CF800F65153EC46F036B81FD000017F51010D54
:102D080086C080F087C081F0F3508027F45081237B
:102D180080C0F6FF81C0F7FF0800F5CF82F086C0BB
:102D2800F6FF87C0F7FF0800F5508225616FFDC0E8
:102D380062F0F65163EC48F035A6DED00001F205EA
:102D4800D8A40BD07F51010D780EF324F66EF30E44
:102D5800F420F76E0800F5CF85F0020EF219D8A41A
:102D68000BD07F51010D690EF324F66EF30EF4209B
:102D7800F76E0800F5CF85F0030EF219D8A430D00D
:102D88007F51D8A411D07F51010D86C080F087C033
:102D980081F0F3508027F450812380C0F6FF81C072
:102DA800F7FF0800F5CF85F07F51D8B419D07F51CF
:102DB800010D86C080F087C081F0F3508027F45061
:102DC800812380C0F6FF81C0F7FF0800F5CF82F0AD
:102DD80086C0F6FF87C0F7FF0800F5508225856F8B
:102DE80036A824D0D59E85C0E6F0E551D8B40AD0DF
:102DF800000E34B2010EEEEC48F033A0C1EC2DF019
:102E0800000E546E0001F205D8B408D0020EF21973
:102E1800D8B404D0030EF219D8A403D0855151ECCC
:102E28003FF035A0349AD4EC49F0D58E36A835B0A9
:102E380063D0D59E0001E551D8B40AD0000E34B055
:102E4800010EEEEC48F033A0C1EC2DF0000E546EEC
:102E58000001F205D8B408D0020EF219D8B404D093
:102E6800030EF219D8A403D085514AEC48F0E6C005
:102E780080F00001816B80BF81078551826F836B71
:102E88008051821906E181518319D8A402D0000E1D
:102E9800E56F34BC34AA01D03580F205D8B408D027
:102EA800020EF219D8B404D0030EF219D8A407D030
:102EB80034AE34AA04D0000EE56F000EE46F070E9E
:102EC800F219D8B40CD0080EF219D8B408D00A0EEA
:102ED800F219D8B404D00B0EF219D8A40AD034AE23
:102EE80002D034AE06D034AA04D0000EE56F000E2E
:102EF800E46FD4EC49F0D58E070E0001F219D8A47E
:102F080005D07FC077F0845172EC2BF0080E0001D9
:102F1800F219D8A405D07FC077F084519FEC23F034
:102F28000A0E0001F219D8A405D07FC077F08451A9
:102F3800A9EC2AF00B0E0001F219D8A412007FC0E8
:102F480077F08451CEEC24F012000001D8B1DBB741
:102F58000ED0D0B10CD0000E886F000E896F368865
:102F680089C07FF0885196EC15F00001D081D8B562
:102F7800DBB70ED0D0B50CD0020E886F010E896F6A
:102F8800368889C07FF0885196EC15F00001D0850D
:102F9800D8B9DBB70ED0D0B90CD0040E886F020EAA
:102FA800896F368889C07FF0885196EC15F000014A
:102FB800D089D8BBDBB70ED0D0BB0CD0050E886F3C
:102FC800030E896F368889C07FF0885196EC15F01A
:102FD8000001D08BD8BFDBB70ED0D0BF0CD0070E06
:102FE800886F040E896F368889C07FF0885196EC07
:102FF80015F00001D08FD9B3DBB70ED0D1B30CD008
:10300800090E886F050E896F368889C07FF0885150
:1030180096EC15F00001D183D9B7DBB70ED0D1B744
:103028000CD00B0E886F060E896F368889C07FF02A
:10303800885196EC15F00001D187D9B9DBB70ED0CD
:10304800D1B90CD00C0E886F070E896F368889C0ED
:103058007FF0885196EC15F00001D189D9BDDBB716
:103068000ED0D1BD0CD00E0E886F080E896F368831
:1030780089C07FF0885196EC15F00001D18DDAB146
:10308800DBB70ED0D2B10CD0100E886F090E896F45
:10309800368889C07FF0885196EC15F00001D281FE
:1030A800DAB3DBB70ED0D2B30CD0110E886F0A0E8C
:1030B800896F368889C07FF0885196EC15F0000139
:1030C800D283DAB7DBB70ED0D2B70CD0130E886F25
:1030D8000B0E896F368889C07FF0885196EC15F001
:1030E8000001D287DABBDBB70ED0D2BB0CD0150EED
:1030F800886F0C0E896F368889C07FF0885196ECEE
:1031080015F00001D28BDABFDBB70ED0D2BF0CD0DE
:10311800170E886F0D0E896F368889C07FF0885129
:1031280096EC15F00001D28FDBB1DBB70ED0D3B12E
:103138000CD0180E886F0E0E896F368889C07FF004
:10314800885196EC15F00001D381D4B1D8B10ED0D6
:10315800D0A10CD0000E886F000E896F369889C0F8
:103168007FF0885196EC15F00001D091D4B5D8B510
:103178000ED0D0A50CD0020E886F010E896F36983C
:1031880089C07FF0885196EC15F00001D095D4B92C
:10319800D8B90ED0D0A90CD0040E886F020E896F52
:1031A800369889C07FF0885196EC15F00001D099C7
:1031B800D4BBD8BB0ED0D0AB0CD0050E886F030E95
:1031C800896F369889C07FF0885196EC15F0000118
:1031D800D09BD4BFD8BF0ED0D0AF0CD0070E886F0D
:1031E800040E896F369889C07FF0885196EC15F0E7
:1031F8000001D09FD5B3D9B30ED0D1A30CD0090EFE
:10320800886F050E896F369889C07FF0885196ECD3
:1032180015F00001D193D5B7D9B70ED0D1A70CD0EE
:103228000B0E886F060E896F369889C07FF088511B
:1032380096EC15F00001D197D5B9D9B90ED0D1A91E
:103248000CD00C0E886F070E896F369889C07FF0F6
:10325800885196EC15F00001D199D5BDD9BD0ED095
:10326800D1AD0CD00E0E886F080E896F369889C0C4
:103278007FF0885196EC15F00001D19DD6B1DAB1F6
:103288000ED0D2A10CD0100E886F090E896F369817
:1032980089C07FF0885196EC15F00001D291D6B321
:1032A800DAB30ED0D2A30CD0110E886F0A0E896F34
:1032B800369889C07FF0885196EC15F00001D293BA
:1032C800D6B7DAB70ED0D2A70CD0130E886F0B0E74
:1032D800896F369889C07FF0885196EC15F0000107
:1032E800D297D6BBDABB0ED0D2AB0CD0150E886FF6
:1032F8000C0E896F369889C07FF0885196EC15F0CE
:103308000001D29BD6BFDABF0ED0D2AF0CD0170EB9
:10331800886F0D0E896F369889C07FF0885196ECBA
:1033280015F00001D29FD7A11200DBB11200D3A182
:103338001200000E886F0E0E896F369889C07FF0D4
:10334800885196EC15F00001D391120000017151DB
:10335800800B7A6F71517125806F70BF80818051A9
:10336800D8B40DD08029D8A408D0000E6E6F000EF6
:103378006F6F000E706F000E716F708F08D0000EA7
:103388006E6F000E6F6F000E706F000E716F7551CB
:10339800800B7A1B755175257F6F74BF7F817F51B4
:1033A800D8B40DD07F29D8A408D0000E726F000EB3
:1033B800736F000E746F000E756F748F08D0000E57
:1033C800726F000E736F000E746F000E756F7F5171
:1033D800D8B403D08051D8A409D0000E6E6F000E67
:1033E8006F6F000E706F000E716F120074516E03D4
:1033F800F3CF85F0F4CF86F085517B6F7C6B7D6BC6
:103408007E6B8651816F826B836B846B73516F0304
:10341800F3CF85F0F4CF86F085517B27000E7C230F
:103428007D237E2386518127000E822383238423D4
:1034380072517003F3CF85F0F4CF86F085517B2766
:10344800000E7C237D237E2386518127000E822354
:10345800832384237DC07EF07CC07DF07BC07CF01C
:103468007B6B72516F03F3CF85F0F4CF86F08551F3
:103478007B2786517C23000E7D23000E7E2373510B
:103488006E03F3CF85F0F4CF86F085517B27865104
:103498007C23000E7D23000E7E237DC07EF07CC041
:1034A8007DF07BC07CF07B6B72516E03F3CF85F0AF
:1034B800F4CF86F085517B2786517C23000E7D232F
:1034C800000E7E2374516F03F3CF85F0F4CF86F09E
:1034D8008551812786518223000E8323000E842381
:1034E80073517003F3CF85F0F4CF86F085518127AF
:1034F80086518223000E8323000E842374517003A7
:10350800F3CF85F0F4CF86F08551766F8651776FCB
:10351800786B796B78C079F077C078F076C077F0FF
:10352800766B76518127775182237851832379519D
:1035380084237BC076F07CC077F07DC078F07EC0B5
:1035480079F0190E05D0D8907933783377337633FC
:10355800E82EF9D776518127775182237851832332
:10356800795184237DC07EF07CC07DF07BC07CF0E7
:103578007B6B7F5180C076F0776B7627000E7723C0
:10358800820E7625856FFF0E7721866F0FD0D89033
:1035980081378237833784377EBF8181D8907B37E4
:1035A8007C377D377E378507D8A0860783AFEFD76E
:1035B800000E7F6F7EAF16D0FF0E7B15766FFF0E65
:1035C8007C15776FFF0E7D15786F7F0E7E15796FEE
:1035D8007651771178117911D8A402D081A102D03F
:1035E800010E7F6F7F51D8B41FD0010E8127000EC6
:1035F80082238323842384A117D081C076F082C0DC
:1036080077F083C078F084C079F0793579337833EE
:103618007733763376C081F077C082F078C083F054
:1036280079C084F0854B862B86BF0DD0865103E187
:103638008529D8A008D0000E816F000E826F800EF9
:10364800836F7F0E20D086BF05D086510EE1850599
:10365800D8B00BD0000E816F000E826F000E836F02
:10366800000E846F000E7A6F0FD085C080F0FF0EB9
:103678008117FF0E82177F0E8317000E841780B103
:10368800838FD8908031846F7A51841381C06EF013
:1036980082C06FF083C070F084C071F01200000126
:1036A800A751800BB46FA751A725B66FA6BFB681E7
:1036B800B651D8B40DD0B629D8A408D0000EA46F3E
:1036C800000EA56F000EA66F000EA76FA68F06D07E
:1036D800000EA46F000EA56F000EA66F000EA76F58
:1036E800AB51800BB56FB451B519D8A4B48DAB519B
:1036F800AB25B56FAABFB581B551D8B40DD0B529E2
:10370800D8A408D0000EA86F000EA96F000EAA6FEB
:10371800000EAB6FAA8F06D0000EA86F000EA96F1F
:10372800000EAA6F000EAB6FB651B55DD8B022D0AF
:10373800B4AD02D0800EB41BB6C0B7F0B5C0B6F0B9
:10374800B7C0B5F0A4C0B7F0A8C0A4F0B7C0A8F03F
:10375800A5C0B7F0A9C0A5F0B7C0A9F0A6C0B7F03A
:10376800AAC0A6F0B7C0AAF0A7C0B7F0ABC0A7F030
:10377800B7C0ABF0000EB76FB651AC6FAD6BAC1FF6
:10378800AD1FAC4BAD2BB551AE6FAF6BAC51AE2787
:10379800AD51AF23AFBF2CD0AF5104E11A0EAE5DCF
:1037A800D8A026D0A451A511A611A711D8B402D02B
:1037B800010E01D0000EB76F000EA46F000EA56FAA
:1037C800000EA66F000EA76FB5C0B6F015D0B7A152
:1037D80005D0D890B7310109B76F02D0D890B73368
:1037E800A4B1B78FA735A733A633A533A433B62B17
:1037F800B551B65DD8A0EBD7B4BD29D0B651D8A481
:1038080009D0000EA46F000EA56F000EA66F000E63
:10381800A76F1200A851A427A951A523AA51A6232E
:10382800AB51A723A7A183D0B7A106D0D890B733AF
:10383800B7510109B76F02D0D890B733A4B1B78F89
:10384800A735A733A633A533A433B62B70D0A85118
:10385800A45DA951A559AA51A659A751800AAC6FD0
:10386800AB51800AAC59D8B036D0A4C0ACF0A5C0D2
:10387800ADF0A6C0AEF0A7C0AFF0AC1FAD1FAE1F35
:10388800AF1FAC2B000EAD23AE23AF23A851AC2540
:10389800B06FA951AD21B16FAA51AE21B26FAB5132
:1038A800AF21B36FFF0EB025A46FFF0EB121A56F36
:1038B800FF0EB221A66FFF0EB321A76F800EB41BB7
:1038C800B76DB751D8A40FD0010EA427000EA523B9
:1038D800A623A72308D0A851A45FA951A55BAA5184
:1038E800A65BAB51A75BA451A511A611A711D8A43B
:1038F8001CD0B751D8A419D0000EA46F000EA56F24
:10390800000EA66F000EA76F1200D890A437A53737
:10391800A637A737B7BFA481B7A102D0D88001D0F6
:10392800D890B737B651D8A4B607A6AFEED7000ED1
:10393800B56FB7AF0AD0B7C0ACF07F0EAC17D8A43C
:1039480002D0A4A102D0010EB56FB551D8B420D0D1
:10395800010EA427000EA523A623A723A7A118D0EC
:10396800A4C0ACF0A5C0ADF0A6C0AEF0A7C0AFF043
:10397800AF35AF33AE33AD33AC33ACC0A4F0ADC06C
:10398800A5F0AEC0A6F0AFC0A7F0B629D8A4B62B54
:10399800B629D8B403D0B651D8A40DD0000EA46F60
:1039A800000EA56F000EA66F000EA76FB651D8A423
:1039B80002D0000EB46FB6A102D0A68F01D0A69F88
:1039C800D890B631A76FB4BFA78FA4C0A4F0A5C084
:1039D800A5F0A6C0A6F0A7C0A7F0120000018A5162
:1039E800800B936F8A518A259E6F89BF9E819E5155
:1039F800D8B40DD09E29D8A408D0000E876F000E29
:103A0800886F000E896F000E8A6F898F06D0000EAE
:103A1800876F000E886F000E896F000E8A6F8E51B7
:103A2800800B931B8E518E259F6F8DBF9F819F5159
:103A3800D8B40DD09F29D8A408D0000E8B6F000EE3
:103A48008C6F000E8D6F000E8E6F8D8F06D0000E5E
:103A58008B6F000E8C6F000E8D6F000E8E6F8B516A
:103A68008C118D118E11D8A415D0000E876F000E01
:103A7800886F000E896F000E8A6F800E89137F0E83
:103A88008A1387C087F088C088F089C089F08AC007
:103A98008AF012009E51D8A411D0000E876F000E34
:103AA800886F000E896F000E8A6F87C087F088C004
:103AB80088F089C089F08AC08AF012009F518F6F00
:103AC800906B8F1F901F8F4B902B9E51916F926B15
:103AD8008F519127905192237F0E9125986F000E58
:103AE8009221996F87C094F088C095F089C096F0AC
:103AF8008AC097F0000E876F000E886F000E896FDE
:103B0800000E8A6F000E9A6F000E9B6F000E9C6F5E
:103B1800000E9D6F000E9F6F28D09F51D8B411D012
:103B2800D8909437953796379737D890873788370E
:103B380089378A379DBF8781D8909A379B379C37BA
:103B48009D378B51945D8C5195598D5196598E5155
:103B58009759D8A009D09D8D8B51945F8C51955B56
:103B68008D51965B8E51975B9F2B190E9F65D5D70C
:103B78009451951196119711D8B411D09A810FD0FC
:103B8800D8908737883789378A379DBF8781D890FB
:103B98009A379B379C379D379807D8A0990789AFE4
:103BA800EFD7000E9F6F9DAF16D0FF0E9A158F6F3F
:103BB800FF0E9B15906FFF0E9C15916F7F0E9D1544
:103BC800926F8F51901191119211D8A402D087A1B0
:103BD80002D0010E9F6F9F51D8B41FD0010E8727C6
:103BE800000E882389238A238AA117D087C08FF0E3
:103BF80088C090F089C091F08AC092F092359233D3
:103C0800913390338F338FC087F090C088F091C084
:103C180089F092C08AF0984B992B99BF10D099518E
:103C280003E19829D8A00BD0000E996F9869000E6F
:103C3800876F000E886F000E896F000E8A6F99BF1C
:103C480005D0995111E19805D8B00ED0000E996FA2
:103C5800000E986F000E876F000E886F000E896F38
:103C6800000E8A6F000E936F98C09EF09EA102D03E
:103C7800898F01D0899FD8909E318A6F93518A137A
:103C880087C087F088C088F089C089F08AC08AF028
:103C980012000001D8B3DBB70ED0D0B30CD0010EA0
:103CA8007D6F000E7E6F36887EC077F07D51DFEC29
:103CB80029F00001D083D8B7DBB70ED0D0B70CD02D
:103CC800030E7D6F010E7E6F36887EC077F07D51C2
:103CD800DFEC29F00001D087D8BDDBB70ED0D0BD0E
:103CE8000CD0060E7D6F020E7E6F36887EC077F090
:103CF8007D51DFEC29F00001D08DD9B1DBB70ED0B2
:103D0800D1B10CD0080E7D6F030E7E6F36887EC051
:103D180077F07D51DFEC29F00001D181D9B5DBB70F
:103D28000ED0D1B50CD00A0E7D6F040E7E6F36888A
:103D38007EC077F07D51DFEC29F00001D185D9BB39
:103D4800DBB70ED0D1BB0CD00D0E7D6F050E7E6F8C
:103D580036887EC077F07D51DFEC29F00001D18BE9
:103D6800D9BFDBB70ED0D1BF0CD00F0E7D6F060EBA
:103D78007E6F36887EC077F07D51DFEC29F0000138
:103D8800D18FDAB5DBB70ED0D2B50CD0120E7D6F5D
:103D9800070E7E6F36887EC077F07D51DFEC29F004
:103DA8000001D285DAB9DBB70ED0D2B90CD0140E27
:103DB8007D6F080E7E6F36887EC077F07D51DFEC10
:103DC80029F00001D289DABDDBB70ED0D2BD0CD004
:103DD800160E7D6F090E7E6F36887EC077F07D5196
:103DE800DFEC29F00001D28DD4B3D8B30ED0D0A324
:103DF8000CD0010E7D6F000E7E6F36987EC077F076
:103E08007D51DFEC29F00001D093D4B7D8B70ED09C
:103E1800D0A70CD0030E7D6F010E7E6F36987EC042
:103E280077F07D51DFEC29F00001D097D4BDD8BDE3
:103E38000ED0D0AD0CD0060E7D6F020E7E6F369878
:103E48007EC077F07D51DFEC29F00001D09DD5B11F
:103E5800D9B10ED0D1A10CD0080E7D6F030E7E6FA4
:103E680036987EC077F07D51DFEC29F00001D191C2
:103E7800D5B5D9B50ED0D1A50CD00A0E7D6F040EDC
:103E88007E6F36987EC077F07D51DFEC29F0000117
:103E9800D195D5BBD9BB0ED0D1AB0CD00D0E7D6F53
:103EA800050E7E6F36987EC077F07D51DFEC29F0E5
:103EB8000001D19BD5BFD9BF0ED0D1AF0CD00F0E0A
:103EC8007D6F060E7E6F36987EC077F07D51DFECF1
:103ED80029F00001D19FD6B5DAB50ED0D2A50CD005
:103EE800120E7D6F070E7E6F36987EC077F07D517B
:103EF800DFEC29F00001D295D6B9DAB90ED0D2A9F3
:103F08000CD0140E7D6F080E7E6F36987EC077F049
:103F18007D51DFEC29F00001D299D6AD1200DABD4F
:103F28001200D2AD1200160E7D6F090E7E6F369804
:103F38007EC077F07D51DFEC29F00001D29D1200A0
:103F48000001696F00016951020D200EF324D96E3A
:103F5800020EF420DA6EDECF5BF0DDCF5CF0695143
:103F6800030DAC0EF324D96E020EF420DA6E0201B2
:103F7800DFB088D0000E5A6E000E596E00016951EC
:103F8800030D010EF326000EF422AC0EF324D96EB5
:103F9800020EF420DA6E000EDBBE1BD06951030D51
:103FA800010EF326000EF422AC0EF324D96E020E95
:103FB800F420DA6EDF50616F6951020D200EF32490
:103FC800D96E020EF420DA6EDF50626FF651A1EC62
:103FD80049F000016951030D010EF326000EF42289
:103FE800AC0EF324D96E020EF420DA6EDE28D8A4C3
:103FF8000AD06951020D200EF324D96E020EF42066
:10400800DA6EDF50FD6F6951030D010EF326000EC5
:10401800F422AC0EF324D96E020EF420DA6EFE0EF2
:10402800DE18D8A40FD0000E616F6951020D200E62
:10403800F324D96E020EF420DA6EDF50626FF65167
:104048008FEC49F000016951030D010EF326000EB3
:10405800F422AC0EF324D96E020EF420DA6EFD0EB3
:10406800DE18D8A40FD0010E616F6951020D200E21
:10407800F324D96E020EF420DA6EDF50626FF65127
:10408800A1EC49F000016951030DAC0EF324D96E7F
:10409800020EF420DA6E0201DFA01200000E5A6E42
:1040A800020E596E00016951020D200EF324D96EDB
:1040B800020EF420DA6EDF507F0B676F6951020D34
:1040C800200EF324D96E020EF420DA6EDECF64F0EF
:1040D800DDCF65F0070E666F653565336433662F8F
:1040E800FBD764517F0B686F6951030D020EF326ED
:1040F800000EF422AC0EF324D96E020EF420DA6E10
:10410800000EDBBE28D06951030D020EF326000E07
:10411800F422AC0EF324D96E020EF420DA6EDF50CE
:10412800616F68C062F0F651A1EC49F00001695175
:10413800030D020EF326000EF422AC0EF324D96E02
:10414800020EF420DA6EDF50200F616F67C062F054
:10415800F651A1EC49F000016951030D020EF32656
:10416800000EF422AC0EF324D96E020EF420DA6E9F
:10417800DE28D8B468C0FDF06951030D020EF3269D
:10418800000EF422AC0EF324D96E020EF420DA6E7F
:10419800FE0EDE18D8A407D067C061F068C062F0D0
:1041A800F6518FEC49F000016951030D020EF32618
:1041B800000EF422AC0EF324D96E020EF420DA6E4F
:1041C800FD0EDE18D8A41200010E616F68C062F0FF
:1041D800F651A1EC49F0210E0001616F67C062F051
:1041E800F651A1EC49F0120001016B515B1804E192
:1041F8006C515C18D8B4B1D05950D8A462D05CBE08
:1042080004D05BC04DF05CC04EF05CAE0CD05BC01F
:1042180015F05CC016F0151E161E154A162A15C094
:104228004DF016C04EF0030E046EE80E036E4DC03E
:1042380001F04EC002F052EC3DF001C00FF002C098
:1042480010F0000E126E0A0E116E9CEC42F00F5028
:10425800376E000E046E640E036E4DC001F04EC042
:1042680002F052EC3DF001C00FF002C010F0000E59
:10427800126E0A0E116E9CEC42F00F50386E000E52
:10428800046E0A0E036E4DC001F04EC002F052ECEF
:104298003DF001C00FF002C010F0000E126E0A0EC1
:1042A800116E9CEC42F00F50396E4DC00FF04EC0AD
:1042B80010F0000E126E0A0E116E9CEC42F00F50B8
:1042C8003A6E5904D8A422D05BC015F05CC016F031
:1042D8000C0E176E163416321532172EFBD71550E2
:1042E8000F0B376E5C500F0B386E5BC015F05CC05F
:1042F80016F0040E176E163416321532172EFBD729
:1043080015500F0B396E5B500F0B3A6E020E591891
:10431800D8A41FD05B507F0B186E5BC015F05CC033
:1043280016F0070E176E163416321532172EFBD7F5
:1043380015507F0B196E19380F0B070B376E195074
:104348000F0B386E18380F0B070B396E18500F0B00
:104358003A6E5BC06BF15CC06CF15950D8B407D0B1
:104368005904D8B404D0020E5918D8A48AD052508F
:10437800D8A422D082965950D8B45CAE0AD038500E
:10438800D8B403D0400E836E828036AA15D0838EAF
:1043980013D03750010D590EF324F66EF30EF420A6
:1043A800F76E0800F5CF83FF36BA838E3750D8A44E
:1043B80002D0829001D082805204D8A424D0829066
:1043C8003850010D590EF324F66EF30EF420F76EF3
:1043D8000800F5CF83FF36BA838E3750D8A405D0AE
:1043E8003850D8A402D0829201D082825950D8B4D1
:1043F8005CAE09D03950D8B406D03850D8A403D010
:10440800400E836E8282020E5218D8A427D0829260
:104418003950010D590EF324F66EF30EF420F76EA1
:104428000800F5CF83FF36BA838E3750D8A408D05A
:104438003850D8A405D03950D8A402D0829401D0DD
:1044480082845950D8B45CAE09D03A50D8B406D05A
:104458003950D8A403D0400E836E8284030E5218BC
:10446800D8A40FD082943A50010D590EF324F66E59
:10447800F30EF420F76E0800F5CF83FF36BA838E6B
:104488008286522A030E52641200000E526E1200E7
:104498000001D80509E1080EDB19D911DA11D8A4F1
:1044A80003D0F40E536E3284020ED81909E1080EB7
:1044B800DB19D911DA11D8A403D0F50E536E328462
:1044C800040ED81909E1080EDB19D911DA11D8A49C
:1044D80003D0F60E536E3284080ED81909E1080E7F
:1044E800DB19D911DA11D8A403D0F70E536E328430
:1044F800100ED81909E1080EDB19D911DA11D8A460
:1045080003D0F80E536E3284200ED81909E1080E34
:10451800DB19D911DA11D8A403D0F90E536E3284FD
:10452800400ED81909E1080EDB19D911DA11D8A4FF
:1045380003D0FA0E536E3284800ED81909E1080EA2
:10454800DB19D911DA11D8A403D0FB0E536E3284CB
:10455800D90509E1080EDB19D811DA11D8A403D05E
:10456800FC0E536E3284020ED91909E1080EDB19CC
:10457800D811DA11D8A403D0FD0E536E3284040E7C
:10458800D91909E1080EDB19D811DA11D8A403D01A
:10459800FE0E536E3284080ED91908E1080EDB1995
:1045A800D811DA11D8A402D053683284100ED91960
:1045B80009E1080EDB19D811DA11D8A403D0000ECE
:1045C800536E3284200ED91909E1080EDB19D8116F
:1045D800DA11D8A403D0010E536E3284400ED919D3
:1045E80009E1080EDB19D811DA11D8A403D0020E9C
:1045F800536E3284800ED91909E1080EDB19D811DF
:10460800DA11D8A403D0030E536E3284DA0509E117
:10461800080EDB19D811D911D8A403D0040E536E93
:104628003284020EDA1909E1080EDB19D811D91102
:10463800D8A403D0050E536E3284040EDA1909E1AA
:10464800080EDB19D811D911D8A403D0060E536E61
:104658003284080EDA1909E1080EDB19D811D911CC
:10466800D8A403D0070E536E3284100EDA1909E16C
:10467800080EDB19D811D911D8A403D0080E536E2F
:104688003284200EDA1909E1080EDB19D811D91184
:10469800D8A403D0090E536E3284400EDA1909E10A
:1046A800080EDB19D811D911D8A403D00A0E536EFD
:1046B8003284800EDA1909E1080EDB19D811D911F4
:1046C800D8A403D00B0E536E3284090EDB19D8110F
:1046D800D911DA11D8A403D00C0E536E328432A447
:1046E800120035A00ED0E551D8B40BD0000E33BE61
:1046F800010EEEEC48F033A0C1EC2DF03386328E7B
:10470800328C5350800A730FD8A002D00C0E536E0F
:104718005350800A8C0FD8B002D0F40E536E53C099
:10472800F3F00001F351606F616B60BF61072FEC1C
:104738004AF03294120000017C6F35B68BD0000E1F
:1047480000017D6F020E7D6501D084D07D51D8A413
:1047580025D036A810D07751030DE30EF324F66E5A
:10476800F20EF420F76E0800F5CF64F0FDC065F096
:10477800F65153EC46F036B811D000017751030DCD
:10478800E30EF324F66EF20EF420F76E0800F5CF70
:1047980061F0FDC062F0F65163EC48F000017D5114
:1047A800D8B455D036A828D07751030DE30E786FCA
:1047B800F20E796FF3507827F45079237D51010D6B
:1047C800F3507827F450792378C0F6FF79C0F7FFC3
:1047D8000800F5CF7AF07751030DE30EF324F66E57
:1047E800F20EF420F76E0800F5507A25646FFDC0CC
:1047F80065F0F65153EC46F036B829D000017751F0
:10480800030DE30E786FF20E796FF3507827F450AA
:1048180079237D51010DF3507827F450792378C01E
:10482800F6FF79C0F7FF0800F5CF7AF07751030D4E
:10483800E30EF324F66EF20EF420F76E0800F5503E
:104848007A25616FFDC062F0F65163EC48F0000113
:104858007D2B78D735A6120036A866D0D59E7CC0A9
:10486800E6F00001E551D8B40AD0000E34B2010ECA
:10487800EEEC48F033A0C1EC2DF0000E546E000EA3
:1048880000017E6F020E7E6501D046D07E51D8A40D
:1048980013D07751030DE30EF324F66EF20EF420D5
:1048A800F76E7E51010D720EF324D96E010EF420BD
:1048B800DA6E0800F5CFDFFF7E51D8B42BD07E51D9
:1048C800010D720EF324D96E010EF420DA6E7751C1
:1048D800030DE30E786FF20E796FF3507827F450DA
:1048E80079237E51010DF3507827F450792378C04D
:1048F800F6FF79C0F7FF0800F5CF7AF07751030D7E
:10490800E30EF324F66EF20EF420F76E0800F5506D
:104918007A25DF6E7E2BB6D7030EE56F35A0349A65
:10492800D4EC49F0D58E120036B8120035B012001A
:104938000001E551D8B40AD0000E34B0010EEEECF7
:1049480048F033A0C1EC2DF0000E546EE6C078F0AC
:104958000001796B78BF79077C517A6F7B6B78514E
:104968007A1906E179517B19D8A402D0000EE56FB7
:1049780034BC34AA01D0358034AE02D034AE06D06F
:1049880034AA04D0000EE56F000EE46FD4EC49F0B1
:10499800D58E120000017C6F35B68BD0000E000159
:1049A8007D6F030E7D6501D084D07D51D8A425D0BC
:1049B80036A810D07751040D6B0EF324F66EF20E64
:1049C800F420F76E0800F5CF64F0FDC065F0F651ED
:1049D80053EC46F036B811D000017751040D6B0E38
:1049E800F324F66EF20EF420F76E0800F5CF61F0AE
:1049F800FDC062F0F65163EC48F000017D51D8B477
:104A080055D036A828D07751040D6B0E786FF20E6A
:104A1800796FF3507827F45079237D51010DF350C5
:104A28007827F450792378C0F6FF79C0F7FF08009B
:104A3800F5CF7AF07751040D6B0EF324F66EF20E73
:104A4800F420F76E0800F5507A25646FFDC065F014
:104A5800F65153EC46F036B829D000017751040DD1
:104A68006B0E786FF20E796FF3507827F450792334
:104A78007D51010DF3507827F450792378C0F6FF63
:104A880079C0F7FF0800F5CF7AF07751040D6B0E67
:104A9800F324F66EF20EF420F76E0800F5507A252E
:104AA800616FFDC062F0F65163EC48F000017D2BA8
:104AB80078D735A6120036A865D0D59E7CC0E6F01A
:104AC8000001E551D8B40AD0000E34B2010EEEEC64
:104AD80048F033A0C1EC2DF0000E546E000E00011A
:104AE8007E6F030E7E6501D046D07E51D8A413D0C8
:104AF8007751040D6B0EF324F66EF20EF420F76E68
:104B08007E51010D720EF324D96E010EF420DA6E77
:104B18000800F5CFDFFF7E51D8B42BD07E51010DB0
:104B2800720EF324D96E010EF420DA6E7751040D5B
:104B38006B0E786FF20E796FF3507827F450792363
:104B48007E51010DF3507827F450792378C0F6FF91
:104B580079C0F7FF0800F5CF7AF07751040D6B0E96
:104B6800F324F66EF20EF420F76E0800F5507A255D
:104B7800DF6E7E2BB6D7040EE56F35A0349AD4ECE1
:104B880049F0D58E36B8120035B012000001E55153
:104B9800D8B40AD0000E34B0010EEEEC48F033A0C1
:104BA800C1EC2DF0000E546EE6C078F00001796B70
:104BB80078BF79077C517A6F7B6B78517A1906E157
:104BC80079517B19D8A402D0000EE56F34BC34AA01
:104BD80001D0358034AE02D034AE06D034AA04D029
:104BE800000EE56F000EE46FD4EC49F0D58E12008C
:104BF8000101D46F000E0101D36F000ED26FD405EE
:104C0800D8A404D0000ED36F800ED26F020ED41930
:104C1800D8A404D0010ED36F000ED26F030ED4199E
:104C2800D8A404D0010ED36F800ED26F040ED4190D
:104C3800D8A404D0020ED36F000ED26F000ED66F28
:104C4800000ED56FD6511CE117D0870ED525D96E29
:104C5800010ED621DA6ED251D5250001606F01010F
:104C6800D351D6210001616F0EEC4AF0DF6E0101CD
:104C7800D54BD62BD65104E14B0ED55DD8A0E5D740
:104C880087C1F2F088C1F1F089C1F0F08AC1EFF074
:104C98008BA102D0358A01D0359A01018CA102D0AE
:104CA800328801D0329801018DA102D0328601D01C
:104CB80032968EC1DFF18FC1E0F190C1E1F191C16F
:104CC800E2F192C1E3F193C1E4F194C1E5F195C138
:104CD800E6F196C1D7F197C1D8F198C1D9F199C138
:104CE800DAF19AC1DBF19BC1DCF19CC1DDF19DC118
:104CF800DEF101019EA102D0368601D036969FC111
:104D0800ADF2A0C1AEF2A1C1B0F2A2C1B1F2A3C18D
:104D1800B3F2A4C1B4F2A5C1B6F2A6C1B7F2A7C155
:104D2800B9F2A8C1BAF2A9C1BCF2AAC1BDF2ABC11D
:104D3800BFF2ACC1C0F2ADC1C2F2AEC1C3F2AFC1E5
:104D4800C5F2B0C1C6F2B1C1C8F2B2C1C9F2B3C1AD
:104D5800CBF2B4C1CCF2B5C1CEF2B6C1CFF2B7C175
:104D6800D1F2B8C1D2F2B9C1D4F2BAC1D5F2BBC13D
:104D7800D7F2BCC1D8F2BDC1DAF2BEC1DBF2BFC105
:104D8800F6F0C0C1FEF0C1C1FCF0C2C1F3F0C3C16E
:104D980071F10101C4A102D0358601D03596C5C193
:104DA800FFF072EC2EF0C2C06DF1C3C06EF1C6C147
:104DB800F8F0C7C1EAF0C8C1F7F00101C9A102D0F3
:104DC800358001D035900101CAA102D0348C01D0C0
:104DD800349C0101CBA102D0348E01D0349E010154
:104DE800CCA102D0348801D034980101CDA102D0E1
:104DF800348601D034960101CEA102D0348201D08C
:104E080034920101CFA102D0348001D03490010145
:104E1800D0A102D0338E01D0339E0101D1A102D09E
:104E2800338C1200339C1200230E00016B6F010EAD
:104E38006C6F3CD06C51030D010EF326000EF4226A
:104E4800000EF324D96E030EF420DA6EFF0E6C25E3
:104E5800646F656BFF0E6523000E676F030E666F48
:104E680054EC49F0000E00016425E16E030E652143
:104E7800E26EE7506A6FFF0E6C25646F656BFF0E7C
:104E88006523000E676F030E666F54EC49F0010E40
:104E980000016427000E6523000E6425E16E030EF1
:104EA8006521E26EE7506A25DF6E6C2B6B516C5DF5
:104EB800D8A0C0D700C368F101C369F102C36AF181
:104EC80003C34AF004C34BF005C34CF006C347F0D4
:104ED80007C348F008C349F009C344F00AC345F0C2
:104EE8000BC346F00CC365F10DC366F10EC367F141
:104EF8000FC362F110C363F111C364F112C341F02F
:104F080013C342F014C343F015C35FF116C360F135
:104F180017C361F118C35CF119C35DF11AC35EF1DF
:104F28001BC359F11CC35AF11DC35BF11EC33EF0EC
:104F38001FC33FF020C340F021C356F122C357F1ED
:104F480023C358F124C350F125C351F126C352F1AC
:104F580027C34DF128C34EF129C34FF12AC34AF1A3
:104F68002BC34BF12CC34CF12DC347F12EC348F191
:104F78002FC349F130C33BF131C33CF132C33DF19A
:104F880033C3DFF034C3E0F035C3E1F036C338F1A2
:104F980037C339F138C33AF139C33BF03AC33CF06F
:104FA8003BC33DF03CC335F13DC336F13EC337F159
:104FB8003FC32CF140C32DF141C32EF142C329F167
:104FC80043C32AF144C32BF145C326F146C327F155
:104FD80047C328F148C323F149C324F14AC325F143
:104FE8004BC320F14CC321F14DC322F14EC31DF137
:104FF8004FC31EF150C31FF151C31AF152C31BF125
:1050080053C31CF154C317F155C318F156C319F112
:1050180057C314F158C315F159C316F15AC3DCF03C
:105028005BC3DDF05CC3DEF012000001B16F000E5F
:105038000001B06F000EAF6FB105D8A404D0000E08
:10504800B06F800EAF6F020EB119D8A404D0010E54
:10505800B06F000EAF6F030EB119D8A404D0010EC3
:10506800B06F800EAF6F040EB119D8A404D0020E31
:10507800B06F000EAF6FF2C064F0F1C065F0F0C021
:1050880066F0EFC067F0000E35BA010E686F000ECB
:1050980032B8010E696F000E32B6010E6A6FDFC1B9
:1050A8006BF0E0C16CF0E1C16DF0E2C16EF0E3C1FC
:1050B8006FF0E4C170F0E5C171F0E6C172F0D7C1DC
:1050C80073F0D8C174F0D9C175F0DAC176F0DBC1DC
:1050D80077F0DCC178F0DDC179F0DEC17AF0000E3E
:1050E80036B6010E7B6FADC27CF0AEC27DF0B0C2A9
:1050F8007EF0B1C27FF0B3C280F0B4C281F0B6C214
:1051080082F0B7C283F0B9C284F0BAC285F0BCC2DB
:1051180086F0BDC287F0BFC288F0C0C289F0C2C2A3
:105128008AF0C3C28BF0C5C28CF0C6C28DF0C8C26B
:105138008EF0C9C28FF0CBC290F0CCC291F0CEC233
:1051480092F0CFC293F0D1C294F0D2C295F0D4C2FB
:1051580096F0D5C297F0D7C298F0D8C299F0DAC2C3
:105168009AF0DBC29BF0F6C09CF0FEC09DF0FCC03C
:105178009EF0F3C09FF071C1A0F0000E35B6010E8D
:10518800A16FFFC0A2F0F8C0A3F0EAC0A4F0F7C076
:10519800A5F0000E35B0010EA66F000E34BC010E4E
:1051A800A76F000E34BE010EA86F000E34B8010EB2
:1051B800A96F000E34B6010EAA6F000E34B2010EAC
:1051C800AB6F000E34B0010EAC6F000E33BE010E93
:1051D800AD6F000E33BC010EAE6F000EB36F000E44
:1051E800B26FB3511BE14B0EB25DD8B0120055EC53
:1051F8004AF00001AF51B225606FB051B321616F21
:10520800640EB225D96E000EB321DA6EDF50626FDC
:105218005CEC47F00001B24BB32BE3D71200060059
:10522800FACF20F0FBCF21F0E9CF22F0EACF23F02C
:10523800E1CF24F0E2CF25F0D9CF26F0DACF27F05E
:10524800F3CF28F0F4CF29F0F6CF2AF0F7CF2BF0E0
:10525800F8CF2CF0F5CF2DF05FC02EF060C02FF006
:1052680061C030F062C031F09EA20CD025EC4AF04B
:10527800010E02018427000E852386238723830ECF
:10528800CC6E9E92F2A20BD0410E1E6EEE0EE82E50
:10529800FED71E2EFCD700D081A0358EF292F2A048
:1052A80003D015EC3EF0F290F2A45FD0F29A33BA34
:1052B80040D0F7C001F0545003EC49F00009D8A4DD
:1052C80038D0060E0001EA19D8B40DD0EA51D8B486
:1052D8000AD0EA05D8B407D0020EEA19D8B403D028
:1052E800030EEA19D8B456C0E7F035B632AA11D081
:1052F800E551640D57501E6E1F6AF3501E26F45078
:105308001F22010E1E24016E000E1F20026E38ECB3
:105318004AF021EC05F033983396329E329C050E04
:105328000001EA19D8B403D0040EEA19D8B456C05B
:10533800E7F034B433AA0BD0F7C001F0545003ECB3
:1053480049F00009D8A403D0339AF7C054F0542A7E
:105358000001F751545CD8A002D0000E546E6DC104
:10536800D6FF6EC1D7FFF294F28A31C062F030C026
:1053780061F02FC060F02EC05FF02DC0F5FF2CC08B
:10538800F8FF2BC0F7FF2AC0F6FF29C0F4FF28C09A
:10539800F3FF27C0DAFF26C0D9FF25C0E2FF24C0EB
:1053A800E1FF23C0EAFF22C0E9FF21C0FBFF20C0C4
:1053B800FAFF5F92110035B654D0040E0001F219BD
:1053C800D8A425D036A810D07751010D920EF32419
:1053D800F66EF30EF420F76E0800F5CF64F0FDC00A
:1053E80065F0F65153EC46F036B811D0000177510C
:1053F800010D920EF324F66EF30EF420F76E0800FA
:10540800F5CF61F0FDC062F0F65163EC48F0050E8F
:105418000001F219D8A425D036A810D07751010D73
:10542800870EF324F66EF30EF420F76E0800F5CF1E
:1054380064F0FDC065F0F65153EC46F036B811D073
:1054480000017751010D870EF324F66EF30EF42058
:10545800F76E0800F5CF61F0FDC062F0F65163EC1D
:1054680048F035A61200040E0001F219D8A40BD09A
:105478007751010D920EF324F66EF30EF420F76EB9
:105488000800F5CF7CF0050EF219D8A40BD077519F
:10549800010D870EF324F66EF30EF420F76E080064
:1054A800F5CF7CF036A819D0D59E7CC0E6F0E55142
:1054B800D8B40AD0000E34B2010EEEEC48F033A096
:1054C800C1EC2DF0000E546E00017C5151EC3FF000
:1054D80035A0349AD4EC49F0D58E36B8120035B0E0
:1054E8001200D59E0001E551D8B40AD0000E34B0A0
:1054F800010EEEEC48F033A0C1EC2DF0000E546E16
:1055080000017C514AEC48F0E6C078F00001796B64
:1055180078BF79077C517A6F7B6B78517A1906E1ED
:1055280079517B19D8A402D0000EE56F34BC34AA97
:1055380001D0358034AE34AA04D0000EE56F000ED9
:10554800E46FD4EC49F0D58E120000017E6F35B6B9
:1055580049D0000E00017C6F030E7C6501D042D05B
:1055680036A81DD07751040DA70E786FF20E796F0B
:10557800F3507827F45079237C51010DF3507827A4
:10558800F450792378C0F6FF79C0F7FF0800F5508A
:105598007E25646FFDC065F0F65153EC46F036B8D1
:1055A8001ED000017751040DA70E786FF20E796FA7
:1055B800F3507827F45079237C51010DF350782764
:1055C800F450792378C0F6FF79C0F7FF0800F5504A
:1055D8007E25616FFDC062F0F65163EC48F0000172
:1055E8007C2BBAD735A6120036A842D0D59E7EC0ED
:1055F800E6F00001E551D8B40AD0000E34B2010E2D
:10560800EEEC48F033A0C1EC2DF0000E546E000E05
:1056180000017D6F030E7D6501D022D07D51010D03
:10562800720EF324D96E010EF420DA6E7751040D50
:10563800A70E786FF20E796FF3507827F45079231C
:105648007D51010DF3507827F450792378C0F6FF87
:1056580079C0F7FF0800F5507E25DF6E7D2BDAD77D
:10566800040EE56F35A0349AD4EC49F0D58E1200BB
:1056780036B8120035B012000001E551D8B40AD08E
:10568800000E34B0010EEEEC48F033A0C1EC2DF062
:10569800000E546EE6C078F00001796B78BF790788
:1056A8007E517A6F7B6B78517A1906E179517B19B3
:1056B800D8A402D0000EE56F34BC34AA01D03580DE
:1056C80034AE02D034AE06D034AA04D0000EE56F52
:1056D800000EE46FD4EC49F0D58E120000017E6F05
:1056E80035B649D0000E00017C6F020E7C6501D0F2
:1056F80042D036A81DD07751030D100E786FF30EE7
:10570800796FF3507827F45079237C51010DF350C9
:105718007827F450792378C0F6FF79C0F7FF08009E
:10572800F5507E25646FFDC065F0F65153EC46F0E8
:1057380036B81ED000017751030D100E786FF30EA6
:10574800796FF3507827F45079237C51010DF35089
:105758007827F450792378C0F6FF79C0F7FF08005E
:10576800F5507E25616FFDC062F0F65163EC48F09C
:1057780000017C2BBAD735A6120036A841D0D59E99
:105788007EC0E6F00001E551D8B40AD0000E34B26C
:10579800010EEEEC48F033A0C1EC2DF0000E546E73
:1057A800000E00017D6F020E7D6501D022D07D5173
:1057B800010D720EF324D96E010EF420DA6E7751C2
:1057C800030D100E786FF30E796FF3507827F450AD
:1057D80079237D51010DF3507827F450792378C04F
:1057E800F6FF79C0F7FF0800F5507E25DF6E7D2BA8
:1057F800DAD7030EE56F35A0349AD4EC49F0D58E8C
:1058080036B8120035B012000001E551D8B40AD0FC
:10581800000E34B0010EEEEC48F033A0C1EC2DF0D0
:10582800000E546EE6C078F00001796B78BF7907F6
:105838007E517A6F7B6B78517A1906E179517B1921
:10584800D8A402D0000EE56F34BC34AA01D035804C
:1058580034AE02D034AE06D034AA04D0000EE56FC0
:10586800000EE46FD4EC49F0D58E120000017F6F72
:1058780016D0F80E00017B6F020E0FD0F40E7B6F6E
:10588800020E0BD0F00E7B6F020E07D0EC0E7B6F72
:10589800020E03D0E80E7B6F020E7C6F11D0000160
:1058A800EF51000AD8B4E5D7010AD8B4E7D7030AFC
:1058B800D8B4E8D7010AD8B4E9D7070AD8B4EAD7E0
:1058C80035B62ED0000E7D6F030E7D6501D028D031
:1058D80036A810D07D51010DF3507B25D96EF450B8
:1058E8007C21DA6EDF507F25646FFDC065F0F651CC
:1058F80053EC46F036B811D000017D51010DF3503C
:105908007B25D96EF4507C21DA6EDF507F25616FDC
:10591800FDC062F0F65163EC48F000017D2BD4D74E
:1059280035A6120036A834D0D59E7FC0E6F0E551E2
:10593800D8B40AD0000E34B2010EEEEC48F033A011
:10594800C1EC2DF0000E546E000E00017E6F030EA8
:105958007E6501D015D07E51010D720EF324D96EEB
:10596800010EF420DA6E7E51010DF3507B25E16EB5
:10597800F4507C21E26EE7507F25DF6E7E2BE7D75F
:10598800040EE56F35A0349AD4EC49F0D58E120098
:1059980036B8120035B01200E551D8B40AD0000E5E
:1059A80034B0010EEEEC48F033A0C1EC2DF0000E3F
:1059B800546EE6C077F00001786B77BF78077F51A7
:1059C800796F7A6B7751791906E178517A19D8A4E9
:1059D80002D0000EE56F34BC34AA01D0358034AE55
:1059E80002D034AE06D034AA04D0000EE56F000E03
:1059F800E46FD4EC49F0D58E120000017F6F12D00D
:105A0800FC0E00017B6F010E0BD0F90E7B6F010EAF
:105A180007D0F60E7B6F010E03D0F30E7B6F010EDD
:105A28007C6F0ED00001F051000AD8B4E9D7010A02
:105A3800D8B4EBD7030AD8B4ECD7010AD8B4EDD759
:105A480035B62ED0000E7D6F020E7D6501D028D0B0
:105A580036A810D07D51010DF3507B25D96EF45036
:105A68007C21DA6EDF507F25646FFDC065F0F6514A
:105A780053EC46F036B811D000017D51010DF350BA
:105A88007B25D96EF4507C21DA6EDF507F25616F5B
:105A9800FDC062F0F65163EC48F000017D2BD4D7CD
:105AA80035A6120036A834D0D59E7FC0E6F0E55161
:105AB800D8B40AD0000E34B2010EEEEC48F033A090
:105AC800C1EC2DF0000E546E000E00017E6F020E28
:105AD8007E6501D015D07E51010D720EF324D96E6A
