:0400000006EF00F017
:10000800E9ED29F013EE89F022EF36F03550D8B437
:100018001200100E3518D8A4BFD305920590020E11
:100028004E18D8A41FD0FF0E0001606FFF0E616F3D
:10003800010177510001626F636B60516227615162
:100048006323010179510001646F656B6251645D3E
:100058006551800A666F6351800A6659D8B002D02C
:100068000101792B030E4E18D8A41FD0FF0E0001F2
:10007800606FFF0E616F010174510001626F636B65
:100088006051622761516323010176510001646F59
:10009800656B6251645D6551800A666F6351800AC1
:1000A8006659D8B002D00101762B040E4E18D8A498
:1000B8001FD0FF0E0001606FFF0E616F01016851D4
:1000C8000001626F636B6051622761516323010114
:1000D8006A510001646F656B6251645D6551800A05
:1000E800666F6351800A6659D8B002D001016A2B45
:1000F800050E4E18D8A41FD0FF0E0001606FFF0E2A
:10010800616F010165510001626F636B6051622785
:1001180061516323010167510001646F656B62518E
:10012800645D6551800A666F6351800A6659D8B06C
:1001380002D00101672B060E4E18D8A41FD0FF0E5F
:100148000001606FFF0E616F010159510001626F7C
:10015800636B605162276151632301015B510001A8
:10016800646F656B6251645D6551800A666F6351A7
:10017800800A6659D8B002D001015B2B070E4E18D1
:10018800D8A41FD0FF0E0001606FFF0E616F010140
:1001980047510001626F636B6051622761516323AD
:1001A800010149510001646F656B6251645D6551DD
:1001B800800A666F6351800A6659D8B002D001017F
:1001C800492B090E4E18D8A41FD0FF0E0001606FEE
:1001D800FF0E616F010171510001626F636B605125
:1001E800622761516323010173510001646F656BDC
:1001F8006251645D6551800A666F6351800A665971
:10020800D8B002D00101732B0A0E4E18D8A41FD003
:10021800FF0E0001606FFF0E616F01016E5100015A
:10022800626F636B605162276151632301017051F2
:100238000001646F656B6251645D6551800A666F89
:100248006351800A6659D8B002D00101702B0B0E99
:100258004E18D8A41FD0FF0E0001606FFF0E616F0B
:1002680001016B510001626F636B6051622761513C
:10027800632301016D510001646F656B6251645D18
:100288006551800A666F6351800A6659D8B002D0FA
:1002980001016D2B0C0E4E18D8A41FD0FF0E0001C3
:1002A800606FFF0E616F010162510001626F636B45
:1002B8006051622761516323010164510001646F39
:1002C800656B6251645D6551800A666F6351800A8F
:1002D8006659D8B002D00101642B0D0E4E18D8A46F
:1002E8001FD0FF0E0001606FFF0E616F01015F51AB
:1002F8000001626F636B60516227615163230101E2
:1003080061510001646F656B6251645D6551800ADB
:10031800666F6351800A6659D8B002D00101612B1B
:100328000E0E4E18D8A41FD0FF0E0001606FFF0EEE
:10033800616F01015C510001626F636B605162275C
:100348006151632301015E510001646F656B625165
:10035800645D6551800A666F6351800A6659D8B03A
:1003680002D001015E2B0F0E4E18D8A41FD0FF0E2D
:100378000001606FFF0E616F010156510001626F4D
:10038800636B605162276151632301015851000179
:10039800646F656B6251645D6551800A666F635175
:1003A800800A6659D8B002D00101582B180E4E1891
:1003B800D8A406D001013A51D8A402D0010E3A6F50
:1003C800100E4E18D8A406D0560E0101556102D061
:1003D800050E5527110E4E18D8A41FD0FF0E000188
:1003E800606FFF0E616F010150510001626F636B16
:1003F8006051622761516323010152510001646F0A
:10040800656B6251645D6551800A666F6351800A4D
:100418006659D8B002D00101522B120E4E18D8A43A
:100428001FD0FF0E0001606FFF0E616F01014D517B
:100438000001626F636B60516227615163230101A0
:100448004F510001646F656B6251645D6551800AAC
:10045800666F6351800A6659D8B002D001014F2BEC
:10046800080E4E18D8A405D07F0E0101466101D0B0
:10047800462B140E4E18D8A405D00F0E0101436167
:1004880001D0432B150E4E18D8A405D00F0E01012C
:10049800406101D0402B130E4E18D8A41FD0FF0E78
:1004A8000001606FFF0E616F01014A510001626F28
:1004B800636B605162276151632301014C51000154
:1004C800646F656B6251645D6551800A666F635144
:1004D800800A6659D8B002D001014C2B160E4E186E
:1004E800D8A41FD0FF0E0001606FFF0E616F0101DD
:1004F8003B510001626F636B605162276151632356
:1005080001013D510001646F656B6251645D655185
:10051800800A666F6351800A6659D8B002D001011B
:100528003D2B170E4E18D8A419D0FF0E0001606F8E
:10053800FF0E616FE351626F636B60516227615117
:100548006323E551646F656B6251645D6551800A90
:10055800666F6351800A6659D8A0E52B190E4E18AC
:10056800D8A419D0FF0E0001606FFF0E616FE05133
:10057800626F636B6051622761516323E251646F5C
:10058800656B6251645D6551800A666F6351800ACC
:100598006659D8A0E22B1A0E4E18D8A403D0010E23
:1005A8000101371B1B0E4E18D8A405D0FA0E010105
:1005B800346101D0342B1C0E4E18D8A405D0040E7B
:1005C8000101316101D0312B1D0E4E18D8A41FD066
:1005D800FF0E0001606FFF0E616F01012C510001D9
:1005E800626F636B605162276151632301012E5171
:1005F8000001646F656B6251645D6551800A666FC6
:100608006351800A6659D8B002D001012E2B1E0E04
:100618004E18D8A41FD0FF0E0001606FFF0E616F47
:10062800010129510001626F636B605162276151BA
:10063800632301012B510001646F656B6251645D96
:100648006551800A666F6351800A6659D8B002D036
:1006580001012B2B1F0E4E18D8A41FD0FF0E00012E
:10066800606FFF0E616F010126510001626F636BBD
:100678006051622761516323010128510001646FB1
:10068800656B6251645D6551800A666F6351800ACB
:100698006659D8B002D00101282B200E4E18D8A4D4
:1006A80003D0010E0101251B210E4E18D8A403D03A
:1006B800010E0101221B220E4E18D8A403D0010EF0
:1006C80001011F1B230E4E18D8A41FD0FF0E0001D6
:1006D800606FFF0E616F01011A510001626F636B59
:1006E800605162276151632301011C510001646F4D
:1006F800656B6251645D6551800A666F6351800A5B
:100708006659D8B002D001011C2B240E4E18D8A46B
:1007180003D0010E0101191B250E4E18D8A403D0D1
:10072800010E0101161B260E4E18D8A419D0FF0E73
:100738000001606FFF0E616FDD51626F636B605186
:10074800622761516323DF51646F656B6251645D99
:100758006551800A666F6351800A6659D8A0DF2BFD
:10076800270E4E18D8A403D0010E0101131B280E22
:100778004E18D8A403D0010E0101101B290E4E18E3
:10078800D8A403D0010E01010D1B2A0E4E18D8A4BF
:1007980003D0010E01010A1B200E3518D8A447D139
:1007A80005920590020E4E18D8A404D00101795183
:1007B800D8A47907030E4E18D8A404D001017651A5
:1007C800D8A47607040E4E18D8A404D001016A51A3
:1007D800D8A46A07050E4E18D8A404D001016751A1
:1007E800D8A46707060E4E18D8A404D001015B519F
:1007F800D8A45B07070E4E18D8A404D001014951AC
:10080800D8A44907090E4E18D8A404D00101735181
:10081800D8A473070A0E4E18D8A404D00101705149
:10082800D8A470070B0E4E18D8A404D001016D513E
:10083800D8A46D070C0E4E18D8A404D00101645139
:10084800D8A464070D0E4E18D8A404D00101615134
:10085800D8A461070E0E4E18D8A404D001015E5129
:10086800D8A45E070F0E4E18D8A404D00101585121
:10087800D8A45807180E4E18D8A406D001013A0576
:10088800D8A402D0000E3A6F100E4E18D8A406D085
:100898000E0E0101556502D0050E555F110E4E185A
:1008A800D8A402D001015207120E4E18D8A402D0C3
:1008B80001014F07080E4E18D8A404D00101465173
:1008C800D8A44607140E4E18D8A404D001014351E9
:1008D800D8A44307150E4E18D8A404D001014051DE
:1008E800D8A44007130E4E18D8A402D001014C0713
:1008F800160E4E18D8A404D001013D51D8A43D07C6
:10090800170E4E18D8A404D00001E551D8A4E50765
:10091800190E4E18D8A404D00001E251D8A4E20759
:100928001A0E4E18D8A403D0010E0101371B1B0E56
:100938004E18D8A405D0190E0101346501D034072A
:100948001C0E4E18D8A405D0010E0101316501D046
:1009580031071D0E4E18D8A404D001012E51D8A479
:100968002E071E0E4E18D8A404D001012B51D8A46E
:100978002B071F0E4E18D8A404D001012851D8A463
:100988002807200E4E18D8A403D0010E0101251BFC
:10099800210E4E18D8A403D0010E0101221B220EED
:1009A8004E18D8A403D0010E01011F1B230E4E18A8
:1009B800D8A404D001011C51D8A41C07240E4E1839
:1009C800D8A403D0010E0101191B250E4E18D8A476
:1009D80003D0010E0101161B260E4E18D8A404D010
:1009E8000001DF51D8A4DF07270E4E18D8A403D082
:1009F800010E0101131B280E4E18D8A403D0010EB6
:100A08000101101B290E4E18D8A403D0010E0101B4
:100A18000D1B290E4E18D8A403D0010E01010D1B81
:100A28002A0E4E18D8A403D0010E01010A1B000E8D
:100A3800356E1200000E01019E6F0F0E9E6501D0EB
:100A48002BD09E5194EC4BF001019E51020D690E82
:100A5800F324D96E030EF420DA6E000160C0DEFFC5
:100A680061C0DDFF06B015D001019E51020D690E6F
:100A7800F324D96E030EF420DA6E9E51020D400E57
:100A8800F324E96E020EF420EA6EDECFEEFFDDCF2E
:100A9800EDFF01019E2BD1D7000E9D6F0F0E9D65B6
:100AA80001D0A1D09D51020D400EF324D96E020E43
:100AB800F420DA6EDECF60F0DDCF61F00001000EC9
:100AC80061BFFF0E626F636F010E14EC30F060C0FF
:100AD80072F061C073F062C074F063C075F0000E0C
:100AE8000001A86F000EA96F800EAA6F3F0EAB6FB2
:100AF80004C1A0F005C1A1F006C1A2F007C1A3F08E
:100B0800FDEC4BF0A0C0A4F0A1C0A5F0A2C0A6F0D7
:100B1800A3C0A7F0B5EC19F0A4C06EF0A5C06FF0A3
:100B2800A6C070F0A7C071F00CEC18F06EC099F177
:100B38006FC09AF170C09BF171C09CF199C1A8F087
:100B48009AC1A9F09BC1AAF09CC1ABF004C172F094
:100B580005C173F006C174F007C175F001019D511C
:100B6800020D690EF324D96E030EF420DA6EDECF7F
:100B780060F0DDCF61F00001000E61BFFF0E626F13
:100B8800636F010E14EC30F060C06EF061C06FF05E
:100B980062C070F063C071F00CEC18F06EC0A4F085
:100BA8006FC0A5F070C0A6F071C0A7F0B5EC19F041
:100BB800A4C0B8F0A5C0B9F0A6C0BAF0A7C0BBF0F1
:100BC800F3EC37F001019D51020D400EF324D96E6C
:100BD800020EF420DA6E0001B8C0DEFFB9C0DDFFF6
:100BE80001019D2B5BD7000E9F6F0F0E9F6501D0F3
:100BF800D3D2010E02016027000E61236223632312
:100C080006B015D001019F51020D400EF324D96E94
:100C1800020EF420DA6E9F51020D000EF324E96EE5
:100C2800020EF420EA6EDECFEEFFDDCFEDFF01010C
:100C38009F51020D400EF324D96E020EF420DA6E95
:100C4800DECFC2F0DDCFC3F09F51020D000EF324BA
:100C5800D96E020EF420DA6EDECFC4F0DDCFC5F017
:100C68000001C41FC51FC44BC52BC251C427C351A3
:100C7800C5230101F6510001C45DC551800AC66F44
:100C88000101F751800A0001C659D8B030D00101DE
:100C98009F51020D000EF324D96E020EF420DA6E75
:100CA800DECFC2F0DDCFC3F09F51020D400EF3241A
:100CB800D96E020EF420DA6EDECFC4F0DDCFC5F0B7
:100CC8000001C41FC51FC44BC52BC251C427C35143
:100CD800C5230101F6510001C45DC551800AC66FE4
:100CE8000101F751800A0001C659D8A040D2FD5130
:100CF80001019F19D8B404D00001FD29D8A411D04E
:100D0800000E0201606F000E616F000E626F000E30
:100D1800636F000E646F000E656F000E666F000E45
:100D2800676F200E0101F619F711D8A495D09F51CD
:100D3800020D400EF324D96E020EF420DA6EDECFD7
:100D4800C2F0DDCFC3F09F51020D000EF324D96E1F
:100D5800020EF420DA6EDECFC4F0DDCFC5F000015C
:100D6800C41FC51FC44BC52BC251C427C351C523BB
:100D7800C5BF25D0C55104E1200EC45DD8A01FD041
:100D880001019F51020D000EF324D96E020EF420CA
:100D9800DA6EDECFC2F0DDCFC3F0080E0001C22745
:100DA800000EC32301019F51020D400EF324D96E9A
:100DB800020EF420DA6EC2C0DEFFC3C0DDFF0101FF
:100DC8009F51020D000EF324D96E020EF420DA6E44
:100DD800DECFC2F0DDCFC3F09F51020D400EF324E9
:100DE800D96E020EF420DA6EDECFC4F0DDCFC5F086
:100DF8000001C41FC51FC44BC52BC251C427C35112
:100E0800C523C5BF29D0C55104E1200EC45DD8A0B3
:100E180023D0F80EC26FFF0EC36F01019F51020D60
:100E2800000EF324D96E020EF420DA6EDECFC4F081
:100E3800DDCFC5F00001C251C427C351C52301014C
:100E48009F51020D400EF324D96E020EF420DA6E83
:100E5800C4C0DEFFC5C0DDFF000E0101F76F080E3C
:100E6800F66F0001FD29D8B49FC1FDF001019F5123
:100E7800020D400EF324D96E020EF420DA6E9F5153
:100E8800020D200EF324E96E020EF420EA6EDECF86
:100E9800EEFFDDCFEDFF9F51030D880EF324D96ED1
:100EA800020EF420DA6E0201DFB09CD001019F51DE
:100EB800020D200EF324D96E020EF420DA6EDECF76
:100EC8006EF0DDCF6FF00001000E6FBFFF0E706F88
:100ED800716F000E726F000E736F000E746F000E4C
:100EE800756F500E766F3F0E776F000E786F000E9D
:100EF800796F000E7A6F000E7B6F000E7C6F000E0C
:100F08007D6FFF0E7E6F3F0E7F6F000E806F000EAD
:100F1800816FA3EC33F001019F51020D200EF324E1
:100F2800D96E020EF420DA6E00016EC0DEFF6FC0CB
:100F3800DDFF01019F51020D200EF324D96E020E30
:100F4800F420DA6EDECFC2F0DDCFC3F00001C33586
:100F5800C333C233C335C333C233C335C333C233D8
:100F680001019F51020D200EF324D96E020EF420C8
:100F7800DA6EC2C0DEFFC3C0DDFF9F51020D200E36
:100F8800F324D96E020EF420DA6E010EDBAE0CD01B
:100F98009F51020D200EF324D96E020EF420DA6E52
:100FA800000EDE6E000EDD6E9F51020D200EF32442
:100FB800D96E020EF420DA6E010EDBBE13D0010EDC
:100FC800DB5004E1800EDE5CD8A00CD09F51020DEE
:100FD800200EF324D96E020EF420DA6E7F0EDE6E38
:100FE800000EDD6E01019F51030D880EF324D96EAA
:100FF800020EF420DA6E0201DFA09AD001019F519F
:10100800020D200EF324D96E020EF420DA6EDECF24
:10101800C2F0DDCFC3F00001C23BC33BF00EC317E3
:10102800C2510F0BC313F00EC21701019F51020DDD
:10103800200EF324D96E020EF420DA6EC2C0DEFF51
:10104800C3C0DDFF9F51020D200EF324D96E020E9E
:10105800F420DA6EDECF6EF0DDCF6FF00001000E07
:101068006FBFFF0E706F716F500E726F000E736F4F
:10107800000E746F000E756F000E766F3F0E776F5F
:10108800000E786F000E796F000E7A6F000E7B6F7E
:10109800000E7C6F000E7D6FFF0E7E6F3F0E7F6F20
:1010A800000E806F000E816FA3EC33F001019F5199
:1010B800020D200EF324D96E020EF420DA6E000120
:1010C8006EC0DEFF6FC0DDFF01019F51020D200ED3
:1010D800F324D96E020EF420DA6E010EDBAE0CD0CA
:1010E8009F51020D200EF324D96E020EF420DA6E01
:1010F800000EDE6E000EDD6E9F51020D200EF324F1
:10110800D96E020EF420DA6E010EDBBE11D0DE526B
:10111800400EDE5CD8A00CD09F51020D200EF324A7
:10112800D96E020EF420DA6EFF0EDE6E3F0EDD6E13
:101138000001FD5101019F19D8A404D00001FD51FF
:10114800E9EC20F001019F51020D400EF324D96E05
:10115800020EF420DA6E9F51020D000EF324E96EA0
:10116800020EF420EA6EDECFEEFFDDCFEDFF0201C6
:10117800C451645DC5516559C6516659C75167590F
:10118800D8A007D0000E0101F76F200EF66F0001FE
:10119800FD6901019F2B29D5068012002E50D8B475
:1011A80012003450D8B408D0020E3418D8B404D081
:1011B800060E3418D8A4B7D03350D8B402A827D014
:1011C8003150800A7F0FD8B002B621D002B41FD0A8
:1011D8005050E66EFF0E0C6EFF0E0D6E2E500E6E0A
:1011E8000F6A0C500E260D500F220E502A24D96E6D
:1011F8000F502B20DA6EDF50106E31040C0DF350B7
:101208001024E66E3D50E66EA0EC4AF002983304D6
:10121800D8B402A829D03150800A7F0FD8B002B6BE
:1012280023D002B421D05050E66EFF0E0C6EFF0E94
:101238000D6E2E500E6E0F6A0C500E260D500F229A
:101248000E502A24D96E0F502B20DA6EDF50106E04
:101258004D50000831240C0DF3501024E66E3D501B
:10126800E66EA0EC4AF0029802A65DD03350D8A4EE
:1012780021D002B21ED05050E66EFF0E0C6EFF0E4B
:101288000D6E2E500E6E0F6A0C500E260D500F224A
:101298000E502A24D96E0F502B20DA6EDF50106EB4
:1012A8004D040C0DF3501024E66E3D50E66EA0EC94
:1012B8004AF002963304D8A41CD002B219D0505078
:1012C800E66EFF0E0C6EFF0E0D6E2E500E6E0F6A40
:1012D8000C500E260D500F220E502A24D96E0F5096
:1012E8002B20DA6EDF50E66E3D50E66EA0EC4AF039
:1012F800029603AA12D0010E2E6403D0010E326E9C
:10130800028A2E04D8A409D0010E4D6406D00284A6
:10131800000E326E310631C030F0020E3418D8A4F7
:1013280002D0030E346E3404D8B404D0030E34183B
:10133800D8A4BED03350D8B402A825D031BE02B646
:1013480022D002B420D05050E66EFF0E0C6EFF0E75
:101358000D6E2E500E6E0F6A0C500E260D500F2279
:101368000E502A24D96E0F502B20DA6EDF50106EE3
:1013780031504D240C0DF3501024E66E3D50E66EAE
:10138800A0EC4AF002983304D8B402A824D031BEA5
:1013980002B621D002B41FD05050E66EFF0E0C6E7C
:1013A800FF0E0D6E2E500E6E0F6A0C500E260D504D
:1013B8000F220E502A24D96E0F502B20DA6EDF50E0
:1013C800106E31280C0DF3501024E66E3D50E66E79
:1013D800A0EC4AF0029802A66BD03350D8A425D0CE
:1013E80002B222D05050E66EFF0E0C6EFF0E0D6E4C
:1013F8002E500E6E0F6A0C500E260D500F220E50F6
:101408002A24D96E0F502B20DA6EDF50106E4D5003
:10141800010DF35000084D240C0DF3501024E66E16
:101428003D50E66EA0EC4AF002963304D8A426D0CC
:1014380002B223D05050E66EFF0E0C6EFF0E0D6EFA
:101448002E500E6E0F6A0C500E260D500F220E50A5
:101458002A24D96E0F502B20DA6EDF50106E4D50B3
:10146800010DF3500008116E11280C0DF3501024D3
:10147800E66E3D50E66EA0EC4AF0029603AA12D042
:10148800010E2E6403D0010E326E028A2E04D8A4F7
:1014980009D0010E4D6406D00284000E326E312A46
:1014A80031C030F0030E3418D8A402D0020E346EC6
:1014B800050E3418D8B404D0040E3418D8A45AD061
:1014C80031C07EF102B802B40ED05050E66E010170
:1014D8007E510C0DF3500001ED25E66E3D50E66E91
:1014E800A0EC4AF002983250D8A402BA1ED050504C
:1014F800E66EFF0E0C6EFF0E0D6E32500E6E0F6A0A
:101508000C500E260D500F220E502A24D96E0F5063
:101518002B20DA6EDF50106E31500C0DF350102472
:10152800E66E3D50E66EA0EC4AF04D50E66E000EB9
:10153800E66E32EC42F03EC0E6FF3FC0E6FFA8ECA4
:1015480034F03E50316E02BC15D05050E66E325029
:10155800010DF3502A24D96EF4502B20DA6EDF5097
:101568000C6E31500C0DF3500C24E66E3D50E66EB7
:1015780010EC46F03450D8B408D0020E3418D8B461
:1015880004D0060E3418D8A47FD0049C91EC32F015
:101598003350D8A439D03250D8A402BA1ED05050F3
:1015A800E66EFF0E0C6EFF0E0D6E32500E6E0F6A59
:1015B8000C500E260D500F220E502A24D96E0F50B3
:1015C8002B20DA6EDF50106E31500C0DF3501024C2
:1015D800E66E3D50E66EA0EC4AF002BC15D05050C5
:1015E800E66E3250010DF3502A24D96EF4502B20A8
:1015F800DA6EDF500C6E31500C0DF3500C24E66E91
:101608003D50E66E10EC46F03304D8A43DD032507D
:10161800D8A402BA20D05050E66EFF0E0C6EFF0E12
:101628000D6E32500E6E0F6A0C500E260D500F22A2
:101638000E502A24D96E0F502B20DA6EDF50106E10
:101648004D04000831240C0DF3501024E66E3D5073
:10165800E66EA0EC4AF002BC17D05050E66E32504D
:10166800010DF3502A24D96EF4502B20DA6EDF5086
:101678000C6E4D04000831240C0DF3500C24E66E5A
:101688003D50E66E10EC46F03404D8B404D0030E96
:101698003418D8A482D0048C91EC32F0029C3350D8
:1016A800D8A43FD03250D8A402BA21D05050E66E08
:1016B800FF0E0C6EFF0E0D6E32500E6E0F6A0C5040
:1016C8000E260D500F220E502A24D96E0F502B20B3
:1016D800DA6EDF50106E4D503124116E11040C0D6E
:1016E800F3501024E66E3D50E66EA0EC4AF002BCC2
:1016F80018D05050E66E3250010DF3502A24D96E9E
:10170800F4502B20DA6EDF500C6E4D5031240D6EE4
:101718000D040C0DF3500C24E66E3D50E66E10ECF3
:1017280046F03304D8A439D03250D8A402BA1ED017
:101738005050E66EFF0E0C6EFF0E0D6E32500E6EA0
:101748000F6A0C500E260D500F220E502A24D96E07
:101758000F502B20DA6EDF50106E31500C0DF35005
:101768001024E66E3D50E66EA0EC4AF002BC15D09F
:101778005050E66E3250010DF3502A24D96EF450C1
:101788002B20DA6EDF500C6E31500C0DF3500C2408
:10179800E66E3D50E66E10EC46F03250010DF35007
:1017A8002A24D96EF4502B20DA6EDF500001ED6F39
:1017B800322A029A3450D8B410D0020E3418D8B451
:1017C8000CD0050E3418D8B408D0040E3418D8B488
:1017D80004D0060E3418D8A437D02E50325CD8A0C6
:1017E8001DD0000E326E3450D8B407D0020E341813
:1017F800D8B403D0060E3418D8B4312A028802941B
:10180800050E3418D8B403BC02D0D7EC45F0040E4A
:101818003418D8B403BC02D0B4EC3CF04D500C6E74
:101828000D6A31C00EF00F6A0EBE0F060C500E5C2A
:101838000F50800A106E0D50800A1058D8A004D09E
:10184800000E316E028602923404D8B404D0030E1E
:101858003418D8A412002E50325CD8A005D0000E3F
:10186800326E31060288029431C00CF00D6A0CBE4B
:101878000D064D50010DF31EF41EF34AF42A0C50C8
:10188800F35CF450800A0E6E0D50800A0E58D8A0F2
:101898001200000E316E0286029212000001C86F1B
:1018A800000E4E6E0596019485D26FEC49F0E8EC77
:1018B80049F0100E3518D8A476D00001C851030D90
:1018C800880EF324D96E020EF420DA6E0201DFB01E
:1018D8003CD00001C851030D010EF326000EF4227E
:1018E800880EF324D96E020EF420DA6EDF50800AD7
:1018F800090FD8B02AD0C851030D010EF326000EE7
:10190800F422880EF324D96E020EF420DA6EDF2A50
:10191800C851030D010EF326000EF422880EF3249D
:10192800D96E020EF420DA6EDF50D8A40ED0C8515A
:10193800030D010EF326000EF422880EF324D96E4F
:10194800020EF420DA6E400EDF6E0001C851030D5E
:10195800880EF324D96E020EF420DA6E0201DFA09D
:101968001FD00001C851030D020EF326000EF42209
:10197800880EF324D96E020EF420DA6EDF50800A46
:10198800610FD8B00DD0C851030D020EF326000E1A
:10199800F422880EF324D96E020EF420DA6EDF2AC0
:1019A800000E356E0194200E3518D8A4B3D000016E
:1019B800C851030D880EF324D96E020EF420DA6E96
:1019C8000201DFB079D00001C851030D010EF326E2
:1019D800000EF422880EF324D96E020EF420DA6E7B
:1019E800DF50800A820FD8A00DD0C851030D010E18
:1019F800F326000EF422880EF324D96E020EF4208A
:101A0800DA6EDF06C851030D010EF326000EF4222C
:101A1800880EF324D96E020EF420DA6E3D0EDE181D
:101A2800D8A40ED0C851030D010EF326000EF422DF
:101A3800880EF324D96E020EF420DA6EFD0EDF6EE6
:101A4800C851030D010EF326000EF422880EF3246C
:101A5800D96E020EF420DA6E3E0EDE18D8A40ED02F
:101A6800C851030D010EF326000EF422880EF3244C
:101A7800D96E020EF420DA6EFE0EDF6EC851030D29
:101A8800010EF326000EF422880EF324D96E020EFE
:101A9800F420DA6E3F0EDE18D8A40ED0C851030D1C
:101AA800010EF326000EF422880EF324D96E020EDE
:101AB800F420DA6EFF0EDF6E0001C851030D880EA8
:101AC800F324D96E020EF420DA6E0201DFA01FD0D3
:101AD8000001C851030D020EF326000EF422880EF1
:101AE800F324D96E020EF420DA6EDF50800A820FDA
:101AF800D8A00DD0C851030D020EF326000EF42213
:101B0800880EF324D96E020EF420DA6EDF06000E7A
:101B1800356E01940001C851030D880EF324D96E67
:101B2800020EF420DA6E0201DFB09CD00001C85129
:101B3800030D010EF326000EF422880EF324D96E4D
:101B4800020EF420DA6E000EDBBE30D001B48AD06B
:101B5800C851030D010EF326000EF422880EF3245B
:101B6800D96E020EF420DA6EDF50606F616B60BFD1
:101B7800610742EC3BF0070E0001636F020E8AEC2E
:101B880048F06B0E0001686FFD0E696FB8EC42F00B
:101B98000D0E0001636F020E8AEC48F0940E0001EE
:101BA800686F010E696FB8EC42F05BD00001C85154
:101BB800030D010EF326000EF422880EF324D96ECD
:101BC800020EF420DA6EDE28D8B401B40DD0070E68
:101BD800636F020E8AEC48F09E0E0001686FFF0EDC
:101BE800696FB8EC42F001840001C851030D010E81
:101BF800F326000EF422880EF324D96E020EF42088
:101C0800DA6EFE0EDE18D8B401B40DD0070E636F7D
:101C1800020E8AEC48F0880E0001686FFF0E696FAB
:101C2800B8EC42F001840001C851030D010EF326FF
:101C3800000EF422880EF324D96E020EF420DA6E18
:101C4800FD0EDE18D8B401B40DD0070E636F020E76
:101C58008AEC48F0930E0001686FFF0E696FB8ECCC
:101C680042F001840001C851030D880EF324D96E97
:101C7800020EF420DA6E0201DFA09CD00001C851E8
:101C8800030D020EF326000EF422880EF324D96EFB
:101C9800020EF420DA6E000EDBBE30D001B48AD01A
:101CA800C851030D020EF326000EF422880EF32409
:101CB800D96E020EF420DA6EDF50606F616B60BF80
:101CC800610742EC3BF0070E0001636F020E8AECDD
:101CD80048F06B0E0001686FFD0E696FB8EC42F0BA
:101CE8000D0E0001636F020E8AEC48F0940E00019D
:101CF800686F010E696FB8EC42F05BD00001C85103
:101D0800030D020EF326000EF422880EF324D96E7A
:101D1800020EF420DA6EDE28D8B401B40DD0070E16
:101D2800636F020E8AEC48F09E0E0001686FFF0E8A
:101D3800696FB8EC42F001840001C851030D020E2E
:101D4800F326000EF422880EF324D96E020EF42036
:101D5800DA6EFE0EDE18D8B401B40DD0070E636F2C
:101D6800020E8AEC48F0880E0001686FFF0E696F5A
:101D7800B8EC42F001840001C851030D020EF326AD
:101D8800000EF422880EF324D96E020EF420DA6EC7
:101D9800FD0EDE18D8B401B40DD0070E636F020E25
:101DA8008AEC48F0930E0001686FFF0E696FB8EC7B
:101DB80042F0018405B6120078D50001D9B1DCB72C
:101DC8000AD0D1B108D0000E766F0682765126EC83
:101DD80034F00001D181D9B3DCB70AD0D1B308D02F
:101DE800010E766F0682765126EC34F00001D1831D
:101DF800D9B5DCB70AD0D1B508D0020E766F068205
:101E0800765126EC34F00001D185D9B7DCB70AD079
:101E1800D1B708D0030E766F0682765126EC34F0DF
:101E28000001D187D9B9DCB70AD0D1B908D0040EDE
:101E3800766F0682765126EC34F00001D189D9BB41
:101E4800DCB70AD0D1BB08D0050E766F0682765172
:101E580026EC34F00001D18BD9BDDCB70AD0D1BD56
:101E680008D0060E766F0682765126EC34F0000113
:101E7800D18DD9BFDCB70AD0D1BF08D0070E766F95
:101E88000682765126EC34F00001D18FDAB1DCB746
:101E98000AD0D2B108D0080E766F0682765126ECA9
:101EA80034F00001D281DAB3DCB70AD0D2B308D05B
:101EB800090E766F0682765126EC34F00001D28343
:101EC800DAB5DCB70AD0D2B508D00A0E766F06822A
:101ED800765126EC34F00001D285DAB7DCB70AD0A7
:101EE800D2B708D00B0E766F0682765126EC34F006
:101EF8000001D287DAB9DCB70AD0D2B908D00C0E03
:101F0800766F0682765126EC34F00001D289DABB6E
:101F1800DCB70AD0D2BB08D00D0E766F0682765198
:101F280026EC34F00001D28BDABDDCB70AD0D2BD82
:101F380008D00E0E766F0682765126EC34F000013A
:101F4800D28DDABFDCB70AD0D2BF08D00F0E766FB9
:101F58000682765126EC34F00001D28FDBB1DCB773
:101F68000AD0D3B108D0100E766F0682765126ECCF
:101F780034F00001D381DBB3DCB70AD0D3B308D087
:101F8800110E766F0682765126EC34F00001D38369
:101F9800DBB5DCB70AD0D3B508D0120E766F06824F
:101FA800765126EC34F00001D385DBB7DCB70AD0D4
:101FB800D3B708D0130E766F0682765126EC34F02C
:101FC8000001D387DBB9DCB70AD0D3B908D0140E27
:101FD800766F0682765126EC34F00001D389DBBB9C
:101FE800DCB70AD0D3BB08D0150E766F06827651BF
:101FF80026EC34F00001D38BDBBDDCB70AD0D3BDAF
:1020080008D0160E766F0682765126EC34F0000161
:10201800D38DDBBFDCB70AD0D3BF08D0170E766FDD
:102028000682765126EC34F00001D38FDCB1DCB7A0
:102038000AD0D4B108D0180E766F0682765126ECF5
:1020480034F00001D481D5B1D9B10AD0D1A108D0DA
:10205800000E766F0692765126EC34F00001D1918D
:10206800D5B3D9B30AD0D1A308D0010E766F0692A2
:10207800765126EC34F00001D193D5B5D9B50AD004
:10208800D1A508D0020E766F0692765126EC34F070
:102098000001D195D5B7D9B70AD0D1A708D0030E7A
:1020A800766F0692765126EC34F00001D197D5B9B7
:1020B800D9B90AD0D1A908D0040E766F0692765104
:1020C80026EC34F00001D199D5BBD9BB0AD0D1ABED
:1020D80008D0050E766F0692765126EC34F0000192
:1020E800D19BD5BDD9BD0AD0D1AD08D0060E766F2B
:1020F8000692765126EC34F00001D19DD5BFD9BFA8
:102108000AD0D1AF08D0070E766F0692765126EC2A
:1021180034F00001D19FD6B1DAB10AD0D2A108D0EB
:10212800080E766F0692765126EC34F00001D291B3
:10213800D6B3DAB30AD0D2A308D0090E766F0692C6
:10214800765126EC34F00001D293D6B5DAB50AD030
:10215800D2A508D00A0E766F0692765126EC34F096
:102168000001D295D6B7DAB70AD0D2A708D00B0E9D
:10217800766F0692765126EC34F00001D297D6B9E4
:10218800DAB90AD0D2A908D00C0E766F0692765129
:1021980026EC34F00001D299D6BBDABB0AD0D2AB18
:1021A80008D00D0E766F0692765126EC34F00001B9
:1021B800D29BD6BDDABD0AD0D2AD08D00E0E766F4E
:1021C8000692765126EC34F00001D29DD6BFDABFD4
:1021D8000AD0D2AF08D00F0E766F0692765126EC51
:1021E80034F00001D29FD7B1DBB10AD0D3A108D017
:1021F800100E766F0692765126EC34F00001D391DA
:10220800D7B3DBB30AD0D3A308D0110E766F0692EA
:10221800765126EC34F00001D393D7B5DBB50AD05C
:10222800D3A508D0120E766F0692765126EC34F0BC
:102238000001D395D7B7DBB70AD0D3A708D0130EC0
:10224800766F0692765126EC34F00001D397D7B911
:10225800DBB90AD0D3A908D0140E766F069276514E
:1022680026EC34F00001D399D7BBDBBB0AD0D3AB43
:1022780008D0150E766F0692765126EC34F00001E0
:10228800D39BD7BDDBBD0AD0D3AD08D0160E766F71
:102298000692765126EC34F00001D39DD7BFDBBF00
:1022A8000AD0D3AF08D0170E766F0692765126EC77
:1022B80034F00001D39FD8A11200DCB11200D4A1E0
:1022C8001200180E766F0692765126EC34F0000153
:1022D800D491120038A034D00001DCA736B030D039
:1022E800368001BE07D0EAC160F050C061F051509D
:1022F80045EC49F001AC01AE08D0F5C060F07F0EA6
:102308000001616F3D5019EC49F001BE01AC0AD0E3
:102318002CB008D0F5C060F07F0E0001616F3D5011
:1023280019EC49F001BE01AC0AD02CA008D0F5C0C8
:1023380060F0000E0001616F3D5019EC49F02C70FF
:1023480038A234D00001DCA736B230D0368201BEC4
:1023580007D0EBC160F050C061F0515045EC49F036
:1023680001AC01AE08D0F6C060F07F0E0001616FCD
:102378003D5019EC49F001BE01AC0AD02CB208D08E
:10238800F6C060F07F0E0001616F3D5019EC49F016
:1023980001BE01AC0AD02CA208D0F6C060F0000E35
:1023A8000001616F3D5019EC49F02C7238A434D00B
:1023B8000001DCA736B430D0368401BE07D0ECC1AA
:1023C80060F050C061F0515045EC49F001AC01AEED
:1023D80008D0F7C060F07F0E0001616F3D5019EC26
:1023E80049F001BE01AC0AD02CB408D0F7C060F0A7
:1023F8007F0E0001616F3D5019EC49F001BE01AC40
:102408000AD02CA408D0F7C060F0000E0001616F5C
:102418003D5019EC49F02C7438A634D00001DCA7E3
:1024280036B630D0368601BE07D0EDC160F050C058
:1024380061F0515045EC49F001AC01AE08D0F8C04C
:1024480060F07F0E0001616F3D5019EC49F001BE4C
:1024580001AC0AD02CB608D0F8C060F07F0E00019D
:10246800616F3D5019EC49F001BE01AC0AD02CA6B1
:1024780008D0F8C060F0000E0001616F3D5019EC03
:1024880049F02C7638A834D00001DCA736B830D013
:10249800368801BE07D0EEC160F050C061F05150DF
:1024A80045EC49F001AC01AE08D0F9C060F07F0EF0
:1024B8000001616F3D5019EC49F001BE01AC0AD032
:1024C8002CB808D0F9C060F07F0E0001616F3D5054
:1024D80019EC49F001BE01AC0AD02CA808D0F9C00B
:1024E80060F0000E0001616F3D5019EC49F02C7846
:1024F80038AA34D00001DCA736BA30D0368A01BEFB
:1025080007D0EFC160F050C061F0515045EC49F080
:1025180001AC01AE08D0FAC060F07F0E0001616F17
:102528003D5019EC49F001BE01AC0AD02CBA08D0D4
:10253800FAC060F07F0E0001616F3D5019EC49F060
:1025480001BE01AC0AD02CAA08D0FAC060F0000E77
:102558000001616F3D5019EC49F02C7A38AC34D049
:102568000001DCA736BC30D0368C01BE07D0F0C1E4
:1025780060F050C061F0515045EC49F001AC01AE3B
:1025880008D0FBC060F07F0E0001616F3D5019EC70
:1025980049F001BE01AC0AD02CBC08D0FBC060F0E9
:1025A8007F0E0001616F3D5019EC49F001BE01AC8E
:1025B8000AD02CAC08D0FBC060F0000E0001616F9F
:1025C8003D5019EC49F02C7C38AE34D00001DCA722
:1025D80036BE30D0368E01BE07D0F1C160F050C093
:1025E80061F0515045EC49F001AC01AE08D0FCC097
:1025F80060F07F0E0001616F3D5019EC49F001BE9B
:1026080001AC0AD02CBE08D0FCC060F07F0E0001DF
:10261800616F3D5019EC49F001BE01AC0AD02CAEF7
:1026280008D0FCC060F0000E0001616F3D5019EC4D
:1026380049F02C7E37B038B017D036A015D0369078
:1026480001BE07D0EAC160F050C061F05150CAEC39
:102658004BF001AC01AE08D0F5C060F0000E0001EF
:10266800616F3D5019EC49F037B238B217D036A235
:1026780015D0369201BE07D0EBC160F050C061F0B2
:102688005150CAEC4BF001AC01AE08D0F6C060F076
:10269800000E0001616F3D5019EC49F037B438B4B1
:1026A80017D036A415D0369401BE07D0ECC160F01F
:1026B80050C061F05150CAEC4BF001AC01AE08D0EB
:1026C800F7C060F0000E0001616F3D5019EC49F051
:1026D80037B638B617D036A615D0369601BE07D00D
:1026E800EDC160F050C061F05150CAEC4BF001AC44
:1026F80001AE08D0F8C060F0000E0001616F3D50D7
:1027080019EC49F037B838B817D036A815D036982C
:1027180001BE07D0EEC160F050C061F05150CAEC64
:102728004BF001AC01AE08D0F9C060F0000E00011A
:10273800616F3D5019EC49F037BA38BA17D036AA4C
:1027480015D0369A01BE07D0EFC160F050C061F0D5
:102758005150CAEC4BF001AC01AE08D0FAC060F0A1
:10276800000E0001616F3D5019EC49F037BC38BCD0
:1027780017D036AC15D0369C01BE07D0F0C160F03A
:1027880050C061F05150CAEC4BF001AC01AE08D01A
:10279800FBC060F0000E0001616F3D5019EC49F07C
:1027A80037AE120038BE120036AE1200369E01BE99
:1027B80007D0F1C160F050C061F05150CAEC4BF045
:1027C80001BC120001AE1200FCC060F0000E000156
:1027D800616F3D5019EC49F012000001766F1ED070
:1027E800550E0001786FFD0E17D0460E786FFD0E5E
:1027F80013D0370E786FFD0E0FD0280E786FFD0EB0
:102808000BD0190E786FFD0E07D00A0E786FFD0EEB
:1028180003D0FB0E786FFC0E796F17D00001F251D0
:10282800000AD8B4DDD7010AD8B4DFD7030AD8B470
:10283800E0D7010AD8B4E1D7070AD8B4E2D7010A29
:10284800D8B4E3D7030AD8B4E4D704BAD8D0F30588
:10285800D8A427D006A211D05050E66E7151010DB0
:10286800780EF324F66EF30EF420F76E0800F55098
:10287800E66E3D50E66E10EC46F006B212D05050AF
:10288800E66E00017151010D780EF324F66EF30E19
:10289800F420F76E0800F550E66E3D50E66EA0ECA9
:1028A8004AF0020E0001F319D8A427D006A211D0CD
:1028B8005050E66E7151010D690EF324F66EF30E59
:1028C800F420F76E0800F550E66E3D50E66E10EC09
:1028D80046F006B212D05050E66E00017151010D5B
:1028E800690EF324F66EF30EF420F76E0800F55027
:1028F800E66E3D50E66EA0EC4AF0030E0001F319B7
:10290800D8A47DD07151D8A433D006A217D0505086
:10291800E66E7151010D78C072F079C073F0F35012
:102928007227F450732372C0F6FF73C0F7FF0800D4
:10293800F550E66E3D50E66E10EC46F006B218D043
:102948005050E66E00017151010D78C072F079C0E7
:1029580073F0F3507227F450732372C0F6FF73C0FC
:10296800F7FF0800F550E66E3D50E66EA0EC4AF021
:1029780000017151D8B443D006A21FD05050E66E62
:102988007151010D78C072F079C073F0F35072275D
:10299800F450732372C0F6FF73C0F7FF0800F5CF39
:1029A80074F078C0F6FF79C0F7FF0800F550742579
:1029B800E66E3D50E66E10EC46F006B220D0505060
:1029C800E66E00017151010D78C072F079C073F0A4
:1029D800F3507227F450732372C0F6FF73C0F7FFE9
:1029E8000800F5CF74F078C0F6FF79C0F7FF08004B
:1029F800F5507425E66E3D50E66EA0EC4AF004AA48
:102A0800DDD00001F305D8A40BD07151010D780E6B
:102A1800F324F66EF30EF420F76E0800F5CF77F086
:102A2800020EF319D8A40BD07151010D690EF324CD
:102A3800F66EF30EF420F76E0800F5CF77F0030E6C
:102A4800F319D8A430D07151D8A411D07151010D07
:102A580078C072F079C073F0F3507227F450732382
:102A680072C0F6FF73C0F7FF0800F5CF77F0715119
:102A7800D8B419D07151010D78C072F079C073F0D3
:102A8800F3507227F450732372C0F6FF73C0F7FF38
:102A98000800F5CF74F078C0F6FF79C0F7FF08009A
:102AA800F5507425776F06A224D0D59E77C02FF0F5
:102AB8002E50D8B40AD0000E03B6010E43EC4CF0E9
:102AC80052A0A7EC2EF0000E2D6E0001F305D8B42D
:102AD80008D0020EF319D8B404D0030EF319D8A401
:102AE80003D0775128EC35F004A4039ED8EC4CF0C1
:102AF800D58E06A204B462D0D59E2E50D8B40AD082
:102B0800000E03B4010E43EC4CF052A0A7EC2EF0DB
:102B1800000E2D6E0001F305D8B408D0020EF3198B
:102B2800D8B404D0030EF319D8A403D07751B0EC6D
:102B38004BF02FC072F00001736B72BF73077751AF
:102B4800746F756B7251741906E173517519D8A4B5
:102B580002D0000E2E6E04B003AE01D00484F3053B
:102B6800D8B408D0020EF319D8B404D0030EF31960
:102B7800D8A407D004A203AE04D0000E2E6E000E17
:102B8800EC6F070EF319D8B40CD0080EF319D8B4AB
:102B980008D00A0EF319D8B404D00B0EF319D8A430
:102BA8000AD004A202D004A206D003AE04D0000EBC
:102BB8002E6E000EEC6FD8EC4CF0D58E070E00018F
:102BC800F319D8A405D071C061F076511DEC2DF031
:102BD800080E0001F319D8A405D071C061F0765130
:102BE80090EC23F00A0E0001F319D8A405D071C0A7
:102BF80061F076518BEC2BF00B0E0001F319D8A481
:102C0800120071C061F07651C1EC24F0120000018D
:102C1800D9B1DCB70ED0D1B10CD0000E7A6F000E4E
:102C28007B6F06827BC071F07A51F1EC13F00001E2
:102C3800D181D9B5DCB70ED0D1B50CD0020E7A6FE0
:102C4800010E7B6F06827BC071F07A51F1EC13F0B4
:102C58000001D185D9B9DCB70ED0D1B90CD0040E9A
:102C68007A6F020E7B6F06827BC071F07A51F1ECAD
:102C780013F00001D189D9BBDCB70ED0D1BB0CD081
:102C8800050E7A6F030E7B6F06827BC071F07A5156
:102C9800F1EC13F00001D18BD9BFDCB70ED0D1BF56
:102CA8000CD0070E7A6F040E7B6F06827BC071F022
:102CB8007A51F1EC13F00001D18FDAB3DCB70ED002
:102CC800D2B30CD0090E7A6F050E7B6F06827BC0DB
:102CD80071F07A51F1EC13F00001D283DAB7DCB766
:102CE8000ED0D2B70CD00B0E7A6F060E7B6F068211
:102CF8007BC071F07A51F1EC13F00001D287DAB998
:102D0800DCB70ED0D2B90CD00C0E7A6F070E7B6FE1
:102D180006827BC071F07A51F1EC13F00001D28980
:102D2800DABDDCB70ED0D2BD0CD00E0E7A6F080E0D
:102D38007B6F06827BC071F07A51F1EC13F00001D1
:102D4800D28DDBB1DCB70ED0D3B10CD0100E7A6FB8
:102D5800090E7B6F06827BC071F07A51F1EC13F09B
:102D68000001D381DBB3DCB70ED0D3B30CD0110E86
:102D78007A6F0A0E7B6F06827BC071F07A51F1EC94
:102D880013F00001D383DBB7DCB70ED0D3B70CD078
:102D9800130E7A6F0B0E7B6F06827BC071F07A512F
:102DA800F1EC13F00001D387DBBBDCB70ED0D3BB4B
:102DB8000CD0150E7A6F0C0E7B6F06827BC071F0FB
:102DC8007A51F1EC13F00001D38BDBBFDCB70ED0E6
:102DD800D3BF0CD0170E7A6F0D0E7B6F06827BC0A7
:102DE80071F07A51F1EC13F00001D38FDCB1DCB74C
:102DF8000ED0D4B10CD0180E7A6F0E0E7B6F0682EF
:102E08007BC071F07A51F1EC13F00001D481D5B197
:102E1800D9B10ED0D1A10CD0000E7A6F000E7B6F05
:102E280006927BC071F07A51F1EC13F00001D19158
:102E3800D5B5D9B50ED0D1A50CD0020E7A6F010E3A
:102E48007B6F06927BC071F07A51F1EC13F00001B0
:102E5800D195D5B9D9B90ED0D1A90CD0040E7A6FB5
:102E6800020E7B6F06927BC071F07A51F1EC13F081
:102E78000001D199D5BBD9BB0ED0D1AB0CD0050E72
:102E88007A6F030E7B6F06927BC071F07A51F1EC7A
:102E980013F00001D19BD5BFD9BF0ED0D1AF0CD054
:102EA800070E7A6F040E7B6F06927BC071F07A5121
:102EB800F1EC13F00001D19FD6B3DAB30ED0D2A350
:102EC8000CD0090E7A6F050E7B6F06927BC071F0ED
:102ED8007A51F1EC13F00001D293D6B7DAB70ED0DD
:102EE800D2A70CD00B0E7A6F060E7B6F06927BC0B2
:102EF80071F07A51F1EC13F00001D297D6B9DAB932
:102F08000ED0D2A90CD00C0E7A6F070E7B6F0692EA
:102F18007BC071F07A51F1EC13F00001D299D6BD63
:102F2800DABD0ED0D2AD0CD00E0E7A6F080E7B6FC4
:102F380006927BC071F07A51F1EC13F00001D29D3A
:102F4800D7B1DBB10ED0D3A10CD0100E7A6F090E19
:102F58007B6F06927BC071F07A51F1EC13F000019F
:102F6800D391D7B3DBB30ED0D3A30CD0110E7A6FA5
:102F78000A0E7B6F06927BC071F07A51F1EC13F068
:102F88000001D393D7B7DBB70ED0D3A70CD0130E5D
:102F98007A6F0B0E7B6F06927BC071F07A51F1EC61
:102FA80013F00001D397D7BBDBBB0ED0D3AB0CD04B
:102FB800150E7A6F0C0E7B6F06927BC071F07A51FA
:102FC800F1EC13F00001D39BD7BFDBBF0ED0D3AF1A
:102FD8000CD0170E7A6F0D0E7B6F06927BC071F0C6
:102FE8007A51F1EC13F00001D39FD8A11200DCB1A3
:102FF8001200D4A11200000E7A6F0E0E7B6F06929B
:103008007BC071F07A51F1EC13F00001D4911200F9
:1030180000017151800B7A6F71517125806F70BFFB
:1030280080818051D8B40DD08029D8A408D0000E52
:103038006E6F000E6F6F000E706F000E716F708FE5
:1030480008D0000E6E6F000E6F6F000E706F000ECE
:10305800716F7551800B7A1B755175257B6F74BF25
:103068007B817B51D8B40DD07B29D8A408D0000E21
:10307800726F000E736F000E746F000E756F748F91
:1030880008D0000E726F000E736F000E746F000E82
:10309800756F7B51D8B403D08051D8A409D0000EE5
:1030A8006E6F000E6F6F000E706F000E716F120062
:1030B80074516E03F3CF85F0F4CF86F085517C6FA1
:1030C8007D6B7E6B7F6B8651816F826B836B846BAC
:1030D80073516F03F3CF85F0F4CF86F085517C27C9
:1030E800000E7D237E237F2386518127000E8223B5
:1030F8008323842372517003F3CF85F0F4CF86F0D5
:1031080085517C27000E7D237E237F2386518127CE
:10311800000E8223832384237EC07FF07DC07EF04F
:103128007CC07DF07C6B72516F03F3CF85F0F4CFD8
:1031380086F085517C2786517D23000E7E23000E64
:103148007F2373516E03F3CF85F0F4CF86F085515A
:103158007C2786517D23000E7E23000E7F237EC0B0
:103168007FF07DC07EF07CC07DF07C6B72516E0379
:10317800F3CF85F0F4CF86F085517C2786517D23E7
:10318800000E7E23000E7F2374516F03F3CF85F06A
:10319800F4CF86F08551812786518223000E832340
:1031A800000E842373517003F3CF85F0F4CF86F0BB
:1031B8008551812786518223000E8323000E8423A4
:1031C80074517003F3CF85F0F4CF86F08551766F94
:1031D8008651776F786B796B78C079F077C078F023
:1031E80076C077F0766B76518127775182237851B4
:1031F8008323795184237CC076F07DC077F07EC02C
:1032080078F07FC079F0190E05D0D89079337833EB
:1032180077337633E82EF9D7765181277751822391
:1032280078518323795184237EC07FF07DC07EF05E
:103238007CC07DF07C6B7B5180C076F0776B762705
:10324800000E7723820E7625856FFF0E7721866F15
:103258000FD0D89081378237833784377FBF8181F9
:10326800D8907C377D377E377F378507D8A086078B
:1032780083AFEFD7000E7B6F7FAF16D0FF0E7C15A4
:10328800766FFF0E7D15776FFF0E7E15786F7F0EB8
:103298007F15796F7651771178117911D8A402D0FA
:1032A80081A102D0010E7B6F7B51D8B41FD0010ED3
:1032B8008127000E82238323842384A117D081C011
:1032C80076F082C077F083C078F084C079F07935E1
:1032D800793378337733763376C081F077C082F0EC
:1032E80078C083F079C084F0854B862B86BF0DD0DB
:1032F800865103E18529D8A008D0000E816F000E01
:10330800826F800E836F7F0E20D086BF05D08651D6
:103318000EE18505D8B00BD0000E816F000E826FCC
:10332800000E836F000E846F000E7A6F0FD085C079
:1033380080F0FF0E8117FF0E82177F0E8317000E95
:10334800841780B1838FD8908031846F7A51841329
:1033580081C06EF082C06FF083C070F084C071F0DD
:1033680012000001A751800BB46FA751A725B66FB3
:10337800A6BFB681B651D8B40DD0B629D8A408D006
:10338800000EA46F000EA56F000EA66F000EA76FAB
:10339800A68F06D0000EA46F000EA56F000EA66FB4
:1033A800000EA76FAB51800BB56FB451B519D8A4F7
:1033B800B48DAB51AB25B56FAABFB581B551D8B4A3
:1033C8000DD0B529D8A408D0000EA86F000EA96F9B
:1033D800000EAA6F000EAB6FAA8F06D0000EA86F62
:1033E800000EA96F000EAA6F000EAB6FB651B55D47
:1033F800D8B022D0B4AD02D0800EB41BB6C0B7F09E
:10340800B5C0B6F0B7C0B5F0A4C0B7F0A8C0A4F076
:10341800B7C0A8F0A5C0B7F0A9C0A5F0B7C0A9F07B
:10342800A6C0B7F0AAC0A6F0B7C0AAF0A7C0B7F068
:10343800ABC0A7F0B7C0ABF0000EB76FB651AC6F1A
:10344800AD6BAC1FAD1FAC4BAD2BB551AE6FAF6BB9
:10345800AC51AE27AD51AF23AFBF2CD0AF5104E173
:103468001A0EAE5DD8A026D0A451A511A611A71199
:10347800D8B402D0010E01D0000EB76F000EA46FB1
:10348800000EA56F000EA66F000EA76FB5C0B6F0B0
:1034980015D0B7A105D0D890B7310109B76F02D0C0
:1034A800D890B733A4B1B78FA735A733A633A533C0
:1034B800A433B62BB551B65DD8A0EBD7B4BD29D08F
:1034C800B651D8A409D0000EA46F000EA56F000E47
:1034D800A66F000EA76F1200A851A427A951A52313
:1034E800AA51A623AB51A723A7A183D0B7A106D081
:1034F800D890B733B7510109B76F02D0D890B73316
:10350800A4B1B78FA735A733A633A533A433B62BF9
:1035180070D0A851A45DA951A559AA51A659A7517F
:10352800800AAC6FAB51800AAC59D8B036D0A4C071
:10353800ACF0A5C0ADF0A6C0AEF0A7C0AFF0AC1F10
:10354800AD1FAE1FAF1FAC2B000EAD23AE23AF23B4
:10355800A851AC25B06FA951AD21B16FAA51AE21C8
:10356800B26FAB51AF21B36FFF0EB025A46FFF0E42
:10357800B121A56FFF0EB221A66FFF0EB321A76F71
:10358800800EB41BB76DB751D8A40FD0010EA42775
:10359800000EA523A623A72308D0A851A45FA951EC
:1035A800A55BAA51A65BAB51A75BA451A511A611B7
:1035B800A711D8A41CD0B751D8A419D0000EA46F55
:1035C800000EA56F000EA66F000EA76F1200D89010
:1035D800A437A537A637A737B7BFA481B7A102D0AC
:1035E800D88001D0D890B737B651D8A4B607A6AFBF
:1035F800EED7000EB56FB7AF0AD0B7C0ACF07F0EEC
:10360800AC17D8A402D0A4A102D0010EB56FB55151
:10361800D8B420D0010EA427000EA523A623A723E3
:10362800A7A118D0A4C0ACF0A5C0ADF0A6C0AEF05C
:10363800A7C0AFF0AF35AF33AE33AD33AC33ACC0AA
:10364800A4F0ADC0A5F0AEC0A6F0AFC0A7F0B629F3
:10365800D8A4B62BB629D8B403D0B651D8A40DD067
:10366800000EA46F000EA56F000EA66F000EA76FC8
:10367800B651D8A402D0000EB46FB6A102D0A68F5E
:1036880001D0A69FD890B631A76FB4BFA78FA4C0AA
:10369800A4F0A5C0A5F0A6C0A6F0A7C0A7F0120088
:1036A80004AA44D00001DCB738A002D0C8EC4CF022
:1036B8000001DCB738A202D00AEC29F00001DCB71F
:1036C80038A417D0050E3418D8B4D7EC45F0040E3A
:1036D8003418D8B4B4EC3CF0010E0001EF6FFB0EC7
:1036E800606F010E616FEB0E626FFF0E636FE4ECAB
:1036F8004BF00001DCB738A619D0000E03B0010E5C
:1037080043EC4CF05280A7EC2EF0E3EC4AF0000EAC
:103718002D6E010E0001EF6FFB0E606F010E616FE1
:10372800F50E626FFF0E636FE4EC4BF0040E0001C0
:10373800DC19D911DA11DB11D8A43DD03AC07EF0DA
:103748007F6B7EBF7F074F50606F616B60BF610703
:10375800000E636F0C0E626F80EC4CF000017E511E
:1037680060277F51612361BF06D0615124E13D0E7E
:10377800605DD8B020D004A40ED02E50D8B40BD0A1
:10378800000E03B2010E43EC4CF052A0A7EC2EF051
:10379800028A028402824F2A4F50800A780FD8A0EA
:1037A80002D0070E4F6E4F500001606F616B60BF13
:1037B800610722EC4DF0020E0001DC19D911DA1173
:1037C800DB11D8A43AD03AC07EF07F6B7EBF7F076A
:1037D8004F50606F616B60BF6107000E636F0C0E26
:1037E800626F80EC4CF000017E5160277F516123AD
:1037F80061BF23D0615104E10C0E605DD8A01DD0DB
:1038080004A40ED02E50D8B40BD0000E03B2010E73
:1038180043EC4CF052A0A7EC2EF0028A02840282FC
:103828004F064FAE02D0000E4F6E4F500001606F32
:10383800616B60BF610722EC4DF00C0E0001DC19D2
:10384800D911DA11DB11D8A455D03AC07EF07F6BBC
:103858007EBF7F074F50606F616B60BF6107000ECE
:10386800636F0C0E626F80EC4CF000017E51602794
:103878007F51612361BF06D061513CE1480E605D14
:10388800D8B038D004A40ED02E50D8B40BD0000E27
:1038980003B2010E43EC4CF052A0A7EC2EF0028AC2
:1038A8000284028204BE08D03A2A3A50800A730F72
:1038B800D8A002D00C0E3A6E04AE14D00C0EE66EF0
:1038C800000EE66E070E3A263AC07EF000017F6BC6
:1038D8007EBF7F077EC0E6FF7FC0E6FFA8EC34F01E
:1038E8003E503A6E3A500001606F616B60BF6107ED
:1038F80022EC4DF00A0E0001DC19D911DA11DB11A6
:10390800D8A412003AC07EF07F6B7EBF7F074F506D
:10391800606F616B60BF6107000E636F0C0E626FB2
:1039280080EC4CF000017E5160277F51612361BF1C
:103938001200615103E16005D8A0120004A40ED062
:103948002E50D8B40BD0000E03B2010E43EC4CF04D
:1039580052A0A7EC2EF0028A0284028204BE08D08C
:103968003A063A50800A8C0FD8B002D0F40E3A6E5C
:1039780004AE14D00C0EE66E000EE66EF90E3A2672
:103988003AC07EF000017F6B7EBF7F077EC0E6FFF6
:103998007FC0E6FFA8EC34F03E503A6E3A50000182
:1039A800606F616B60BF610722EC4DF0120001018E
:1039B8007A514A1804E17B514B18D8B4B7D0395022
:1039C800D8A466D04BBE04D04AC0E6F04BC0E7F09E
:1039D8004BAE0CD04AC007F04BC008F0071E081EBB
:1039E800074A082A07C0E6F008C0E7F00A0EE66EA4
:1039F800000EE66EE80EE66E030EE66EE6C0E6FF23
:103A0800E7C0E6FFF8EC31F03EC0E6FF3FC0E6FF56
:103A1800A8EC34F03E500001CD6F0A0EE66E000EA1
:103A2800E66E640EE66E000EE66EE6C0E6FFE7C0E0
:103A3800E6FFF8EC31F03EC0E6FF3FC0E6FFA8EC39
:103A480034F03E500001CE6F0A0EE66E000EE66EB0
:103A58000A0EE66E000EE66EE6C0E6FFE7C0E6FF79
:103A6800F8EC31F03EC0E6FF3FC0E6FFA8EC34F0CA
:103A78003E500001CF6F0A0EE66E000EE66EE6C0FD
:103A8800E6FFE7C0E6FFA8EC34F03E500001D06F37
:103A98003904D8A423D04AC007F04BC008F00C0E54
:103AA800096E083408320732092EFBD707500F0B6E
:103AB8000001CD6F4B500F0BCE6F4AC007F04BC0C3
:103AC80008F0040E096E083408320732092EFBD7B5
:103AD80007500F0BCF6F4A500F0BD06F020E3918DB
:103AE800D8A420D04A507F0B0A6E4AC007F04BC0BA
:103AF80008F0070E096E083408320732092EFBD782
:103B080007507F0B0B6E0B380F0B070B0001CD6FA7
:103B18000B500F0BCE6F0A380F0B070BCF6F0A50E5
:103B28000F0BD06F4AC07AF14BC07BF13950D8B433
:103B380007D03904D8B404D0020E3918D8A48BD0D1
:103B48000001EA51D8A422D082963950D8B44BAE9D
:103B58000AD0CE51D8B403D0400E836E828006A41A
:103B680015D0838E13D0CD51010D590EF324F66E66
:103B7800F30EF420F76E0800F5CF83FF06B4838EAA
:103B8800CD51D8A402D0829001D08280EA05D8A471
:103B980024D08290CE51010D590EF324F66EF30E07
:103BA800F420F76E0800F5CF83FF06B4838ECD515D
:103BB800D8A405D0CE51D8A402D0829201D0828256
:103BC8003950D8B44BAE09D0CF51D8B406D0CE5165
:103BD800D8A403D0400E836E8282020EEA19D8A4BC
:103BE80027D08292CF51010D590EF324F66EF30EB1
:103BF800F420F76E0800F5CF83FF06B4838ECD510D
:103C0800D8A408D0CE51D8A405D0CF51D8A402D07A
:103C1800829401D082843950D8B44BAE09D0D051A7
:103C2800D8B406D0CF51D8A403D0400E836E828476
:103C3800030EEA19D8A40FD08294D051010D590E61
:103C4800F324F66EF30EF420F76E0800F5CF83FF29
:103C580006B4838E82860001EA2B030EEA65120001
:103C6800000EEA6F120000018A51800B936F8A518F
:103C78008A259E6F89BF9E819E51D8B40DD09E29FA
:103C8800D8A408D0000E876F000E886F000E896FC9
:103C9800000E8A6F898F06D0000E876F000E886F1E
:103CA800000E896F000E8A6F8E51800B931B8E5108
:103CB8008E259F6F8DBF9F819F51D8B40DD09F29AE
:103CC800D8A408D0000E8B6F000E8C6F000E8D6F7D
:103CD800000E8E6F8D8F06D0000E8B6F000E8C6FCE
:103CE800000E8D6F000E8E6F8B518C118D118E1101
:103CF800D8A415D0000E876F000E886F000E896F4C
:103D0800000E8A6F800E89137F0E8A1387C087F092
:103D180088C088F089C089F08AC08AF012009E5154
:103D2800D8A411D0000E876F000E886F000E896F1F
:103D3800000E8A6F87C087F088C088F089C089F034
:103D48008AC08AF012009F518F6F906B8F1F901F4F
:103D58008F4B902B9E51916F926B8F519127905161
:103D680092237F0E9125986F000E9221996F87C03C
:103D780094F088C095F089C096F08AC097F0000E3C
:103D8800876F000E886F000E896F000E8A6F000E15
:103D98009A6F000E9B6F000E9C6F000E9D6F000EB9
:103DA8009F6F28D09F51D8B411D0D89094379537A9
:103DB80096379737D8908737883789378A379DBF9E
:103DC8008781D8909A379B379C379D378B51945D64
:103DD8008C5195598D5196598E519759D8A009D023
:103DE8009D8D8B51945F8C51955B8D51965B8E5157
:103DF800975B9F2B190E9F65D5D7945195119611F6
:103E08009711D8B411D09A810FD0D89087378837B6
:103E180089378A379DBF8781D8909A379B379C37D7
:103E28009D379807D8A0990789AFEFD7000E9F6FE5
:103E38009DAF16D0FF0E9A158F6FFF0E9B15906FD2
:103E4800FF0E9C15916F7F0E9D15926F8F519011EB
:103E580091119211D8A402D087A102D0010E9F6FB0
:103E68009F51D8B41FD0010E8727000E88238923BD
:103E78008A238AA117D087C08FF088C090F089C0A4
:103E880091F08AC092F092359233913390338F3308
:103E98008FC087F090C088F091C089F092C08AF0F6
:103EA800984B992B99BF10D0995103E19829D8A024
:103EB8000BD0000E996F9869000E876F000E886FFF
:103EC800000E896F000E8A6F99BF05D0995111E1D4
:103ED8009805D8B00ED0000E996F000E986F000E9E
:103EE800876F000E886F000E896F000E8A6F000EB4
:103EF800936F98C09EF09EA102D0898F01D0899FB0
:103F0800D8909E318A6F93518A1387C087F088C0F2
:103F180088F089C089F08AC08AF012000001D9B3FC
:103F2800DCB70ED0D1B30CD0010E776F000E786FCE
:103F3800068278C071F07751BEEC2AF00001D18377
:103F4800D9B7DCB70ED0D1B70CD0030E776F010EFE
:103F5800786F068278C071F07751BEEC2AF00001C4
:103F6800D187D9BDDCB70ED0D1BD0CD0060E776F86
:103F7800020E786F068278C071F07751BEEC2AF095
:103F88000001D18DDAB1DCB70ED0D2B10CD0080E59
:103F9800776F030E786F068278C071F07751BEECA8
:103FA8002AF00001D281DAB5DCB70ED0D2B50CD038
:103FB8000A0E776F040E786F068278C071F0775119
:103FC800BEEC2AF00001D285DABBDCB70ED0D2BB3A
:103FD8000CD00D0E776F050E786F068278C071F0E1
:103FE8007751BEEC2AF00001D28BDABFDCB70ED0D5
:103FF800D2BF0CD00F0E776F060E786F068278C08E
:1040080071F07751BEEC2AF00001D28FDBB5DCB736
:104018000ED0D3B50CD0120E776F070E786F0682CC
:1040280078C071F07751BEEC2AF00001D385DBB976
:10403800DCB70ED0D3B90CD0140E776F080E786F9A
:10404800068278C071F07751BEEC2AF00001D3895E
:10405800DBBDDCB70ED0D3BD0CD0160E776F090EC2
:10406800786F068278C071F07751BEEC2AF00001B3
:10407800D38DD5B3D9B30ED0D1A30CD0010E776FA1
:10408800000E786F069278C071F07751BEEC2AF076
:104098000001D193D5B7D9B70ED0D1A70CD0030E54
:1040A800776F010E786F069278C071F07751BEEC89
:1040B8002AF00001D197D5BDD9BD0ED0D1AD0CD015
:1040C800060E776F020E786F069278C071F07751FE
:1040D800BEEC2AF00001D19DD6B1DAB10ED0D2A142
:1040E8000CD0080E776F030E786F069278C071F0C7
:1040F8007751BEEC2AF00001D291D6B5DAB50ED0D0
:10410800D2A50CD00A0E776F040E786F069278C08D
:1041180071F07751BEEC2AF00001D295D6BBDABB1C
:104128000ED0D2AB0CD00D0E776F050E786F0692BD
:1041380078C071F07751BEEC2AF00001D29BD6BF4F
:10414800DABF0ED0D2AF0CD00F0E776F060E786F95
:10415800069278C071F07751BEEC2AF00001D29F28
:10416800D7B5DBB50ED0D3A50CD0120E776F070EDE
:10417800786F069278C071F07751BEEC2AF0000192
:10418800D395D7B9DBB90ED0D3A90CD0140E776F5D
:10419800080E786F069278C071F07751BEEC2AF05D
:1041A8000001D399D7AD1200DBBD1200D3AD1200C8
:1041B800160E776F090E786F069278C071F07751F6
:1041C800BEEC2AF00001D39D12000001686F0001C7
:1041D8006851020D200EF324D96E020EF420DA6E17
:1041E800DECF4AF0DDCF4BF06851030D880EF32483
:1041F800D96E020EF420DA6E0201DFB088D0000E0C
:104208000001EF6F000E396E6851030D010EF326A1
:10421800000EF422880EF324D96E020EF420DA6E12
:10422800000EDBBE1BD06851030D010EF326000EF5
:10423800F422880EF324D96E020EF420DA6EDF50D1
:10424800606F6851020D200EF324D96E020EF4201F
:10425800DA6EDF50616F3D5019EC49F0000168518A
:10426800030D010EF326000EF422880EF324D96EF6
:10427800020EF420DA6EDE28D8A40AD06851020DA6
:10428800200EF324D96E020EF420DA6EDF50506E41
:104298006851030D010EF326000EF422880EF32454
:1042A800D96E020EF420DA6EFE0EDE18D8A40FD0F6
:1042B800000E606F6851020D200EF324D96E020EB5
:1042C800F420DA6EDF50616F3D507CEC4AF000015B
:1042D8006851030D010EF326000EF422880EF32414
:1042E800D96E020EF420DA6EFD0EDE18D8A40FD0B7
:1042F800010E606F6851020D200EF324D96E020E74
:10430800F420DA6EDF50616F3D5019EC49F000017E
:104318006851030D880EF324D96E020EF420DA6E6C
:104328000201DFA01200000E0001EF6F020E396ECD
:104338006851020D200EF324D96E020EF420DA6EB5
:10434800DF507F0B666F6851020D200EF324D96E83
:10435800020EF420DA6EDECF63F0DDCF64F0070ED4
:10436800656F643564336333652FFBD763517F0B07
:10437800676F6851030D020EF326000EF422880EB3
:10438800F324D96E020EF420DA6E000EDBBE28D0BC
:104398006851030D020EF326000EF422880EF32452
:1043A800D96E020EF420DA6EDF50606F67C061F0DC
:1043B8003D5019EC49F000016851030D020EF32637
:1043C800000EF422880EF324D96E020EF420DA6E61
:1043D800DF50200F606F66C061F03D5019EC49F066
:1043E80000016851030D020EF326000EF422880E18
:1043F800F324D96E020EF420DA6EDE28D8B467C032
:1044080050F06851030D020EF326000EF422880EB8
:10441800F324D96E020EF420DA6EFE0EDE18D8A44C
:1044280007D066C060F067C061F03D507CEC4AF090
:1044380000016851030D020EF326000EF422880EC7
:10444800F324D96E020EF420DA6EFD0EDE18D8A41D
:104458001200010E606F67C061F03D5019EC49F021
:10446800210E0001606F66C061F03D5019EC49F003
:1044780012000001D90509E1080EDC19DA11DB1177
:10448800D8A403D0F40EEB6F018A020ED91909E102
:10449800080EDC19DA11DB11D8A403D0F50EEB6F86
:1044A800018A040ED91909E1080EDC19DA11DB11A9
:1044B800D8A403D0F60EEB6F018A080ED91909E1CA
:1044C800080EDC19DA11DB11D8A403D0F70EEB6F54
:1044D800018A100ED91909E1080EDC19DA11DB116D
:1044E800D8A403D0F80EEB6F018A200ED91909E180
:1044F800080EDC19DA11DB11D8A403D0F90EEB6F22
:10450800018A400ED91909E1080EDC19DA11DB110C
:10451800D8A403D0FA0EEB6F018A800ED91909E1ED
:10452800080EDC19DA11DB11D8A403D0FB0EEB6FEF
:10453800018ADA0509E1080EDC19D911DB11D8A4C2
:1045480003D0FC0EEB6F018A020EDA1909E1080E9E
:10455800DC19D911DB11D8A403D0FD0EEB6F018A49
:10456800040EDA1909E1080EDC19D911DB11D8A4F7
:1045780003D0FE0EEB6F018A080EDA1908E1080E67
:10458800DC19D911DB11D8A402D0EB69018A100E0D
:10459800DA1909E1080EDC19D911DB11D8A403D006
:1045A800000EEB6F018A200EDA1909E1080EDC19FA
:1045B800D911DB11D8A403D0010EEB6F018A400E8C
:1045C800DA1909E1080EDC19D911DB11D8A403D0D6
:1045D800020EEB6F018A800EDA1909E1080EDC1968
:1045E800D911DB11D8A403D0030EEB6F018ADB05C8
:1045F80009E1080EDC19D911DA11D8A403D0040E88
:10460800EB6F018A020EDB1909E1080EDC19D911DA
:10461800DA11D8A403D0050EEB6F018A040EDB195A
:1046280009E1080EDC19D911DA11D8A403D0060E55
:10463800EB6F018A080EDB1909E1080EDC19D911A4
:10464800DA11D8A403D0070EEB6F018A100EDB191C
:1046580009E1080EDC19D911DA11D8A403D0080E23
:10466800EB6F018A200EDB1909E1080EDC19D9115C
:10467800DA11D8A403D0090EEB6F018A400EDB19BA
:1046880009E1080EDC19D911DA11D8A403D00A0EF1
:10469800EB6F018A800EDB1909E1080EDC19D911CC
:1046A800DA11D8A403D00B0EEB6F018A090EDC19BE
:1046B800D911DA11DB11D8A403D00C0EEB6F018AE3
:1046C80001AA120004A40ED02E50D8B40BD0000EAC
:1046D80003B2010E43EC4CF052A0A7EC2EF0028A74
:1046E800028402820001EB51800A730FD8A002D025
:1046F8000C0EEB6FEB51800A8C0FD8B002D0F40E81
:10470800EB6FEBC03AF03A50606F616B60BF6107C6
:1047180022EC4DF0019A12000001666F04BA8FD0A6
:10472800000E0001676F020E676501D088D06751DF
:10473800D8A427D006A211D05050E66E6151030DBF
:10474800E30EF324F66EF20EF420F76E0800F5502F
:10475800E66E3D50E66E10EC46F006B212D05050B0
:10476800E66E00016151030DE30EF324F66EF20EBE
:10477800F420F76E0800F550E66E3D50E66EA0ECAA
:104788004AF000016751D8B457D006A229D050503A
:10479800E66E6151030DE30E626FF20E636FF35024
:1047A8006227F45063236751010DF3506227F450D8
:1047B800632362C0F6FF63C0F7FF0800F5CF64F01B
:1047C8006151030DE30EF324F66EF20EF420F76E3A
:1047D8000800F5506425E66E3D50E66E10EC46F094
:1047E80006B22AD05050E66E00016151030DE30E67
:1047F800626FF20E636FF3506227F45063236751C0
:10480800010DF3506227F450632362C0F6FF63C0C2
:10481800F7FF0800F5CF64F06151030DE30EF324B0
:10482800F66EF20EF420F76E0800F5506425E66E79
:104838003D50E66EA0EC4AF00001672B74D704AA3D
:10484800120006A265D0D59E66C02FF02E50D8B4AF
:104858000AD0000E03B6010E43EC4CF052A0A7ECB0
:104868002EF0000E2D6E000E0001686F020E6865B6
:1048780001D046D06851D8A413D06151030DE30E7E
:10488800F324F66EF20EF420F76E6851010D840ED3
:10489800F324D96E010EF420DA6E0800F5CFDFFF9D
:1048A8006851D8B42BD06851010D840EF324D96E09
:1048B800010EF420DA6E6151030DE30E626FF20E01
:1048C800636FF3506227F45063236851010DF3506E
:1048D8006227F450632362C0F6FF63C0F7FF080045
:1048E800F5CF64F06151030DE30EF324F66EF20E7A
:1048F800F420F76E0800F5506425DF6E682BB6D7F4
:10490800030E2E6E04A4039ED8EC4CF0D58E120034
:1049180006B2120004B412002E50D8B40AD0000E09
:1049280003B4010E43EC4CF052A0A7EC2EF0000E9D
:104938002D6E2FC062F00001636B62BF6307665182
:10494800646F656B6251641906E163516519D8A4F7
:1049580002D0000E2E6E04B003AE01D0048404A26F
:1049680002D004A206D003AE04D0000E2E6E000EB4
:10497800EC6FD8EC4CF0D58E12000001666F04BACB
:104988008FD0000E0001676F030E676501D088D0D5
:104998006751D8A427D006A211D05050E66E6151B5
:1049A800040D6B0EF324F66EF20EF420F76E080079
:1049B800F550E66E3D50E66E10EC46F006B212D0A9
:1049C8005050E66E00016151040D6B0EF324F66E33
:1049D800F20EF420F76E0800F550E66E3D50E66ED4
:1049E800A0EC4AF000016751D8B457D006A229D0EC
:1049F8005050E66E6151040D6B0E626FF20E636FDC
:104A0800F3506227F45063236751010DF350622776
:104A1800F450632362C0F6FF63C0F7FF0800F5CFC8
:104A280064F06151040D6B0EF324F66EF20EF4205F
:104A3800F76E0800F5506425E66E3D50E66E10EC02
:104A480046F006B22AD05050E66E00016151040DBE
:104A58006B0E626FF20E636FF3506227F45063239C
:104A68006751010DF3506227F450632362C0F6FFCB
:104A780063C0F7FF0800F5CF64F06151040D6B0EB9
:104A8800F324F66EF20EF420F76E0800F550642554
:104A9800E66E3D50E66EA0EC4AF00001672B74D735
:104AA80004AA120006A264D0D59E66C02FF02E502C
:104AB800D8B40AD0000E03B6010E43EC4CF052A055
:104AC800A7EC2EF0000E2D6E000E0001686F030E8D
:104AD800686501D046D06851D8A413D06151040D3F
:104AE8006B0EF324F66EF20EF420F76E6851010D8A
:104AF800840EF324D96E010EF420DA6E0800F5CF87
:104B0800DFFF6851D8B42BD06851010D840EF3240F
:104B1800D96E010EF420DA6E6151040D6B0E626FCE
:104B2800F20E636FF3506227F45063236851010D4E
:104B3800F3506227F450632362C0F6FF63C0F7FFA7
:104B48000800F5CF64F06151040D6B0EF324F66E86
:104B5800F20EF420F76E0800F5506425DF6E682B1E
:104B6800B6D7040E2E6E04A4039ED8EC4CF0D58E56
:104B780006B2120004B412002E50D8B40AD0000EA7
:104B880003B4010E43EC4CF052A0A7EC2EF0000E3B
:104B98002D6E2FC062F00001636B62BF6307665120
:104BA800646F656B6251641906E163516519D8A495
:104BB80002D0000E2E6E04B003AE01D0048404A20D
:104BC80002D004A206D003AE04D0000E2E6E000E52
:104BD800EC6FD8EC4CF0D58E12000101E66F000E98
:104BE8000101E56F000EE46FE605D8A404D0000EBD
:104BF800E56F800EE46F020EE619D8A404D0010E0A
:104C0800E56F000EE46F030EE619D8A404D0010E78
:104C1800E56F800EE46F040EE619D8A404D0020EE6
:104C2800E56F000EE46F000EE86F000EE76FE851C5
:104C38001CE117D0990EE725D96E010EE821DA6E2E
:104C4800E451E7250001606F0101E551E821000109
:104C5800616FE7EC4CF0DF6E0101E74BE82BE851A0
:104C680004E14B0EE75DD8A0E5D799C1F3F09AC1EE
:104C7800F2F09BC1F1F09CC1F0F09DA102D0048E2E
:104C880001D0049E01019EA102D0018E01D0019E97
:104C980001019FA102D0018C01D0019CA0C1EAF1C1
:104CA800A1C1EBF1A2C1ECF1A3C1EDF1A4C1EEF1F8
:104CB800A5C1EFF1A6C1F0F1A7C1F1F1A8C1F5F0C6
:104CC800A9C1F6F0AAC1F7F0ABC1F8F0ACC1F9F090
:104CD800ADC1FAF0AEC1FBF0AFC1FCF00101B0A16B
:104CE80002D0058E01D0059EB1C189F2B2C18AF207
:104CF800B3C18CF2B4C18DF2B5C18FF2B6C190F2D6
:104D0800B7C192F2B8C193F2B9C195F2BAC196F29D
:104D1800BBC198F2BCC199F2BDC19BF2BEC19CF265
:104D2800BFC19EF2C0C19FF2C1C1A1F2C2C1A2F22D
:104D3800C3C1A4F2C4C1A5F2C5C1A7F2C6C1A8F2F5
:104D4800C7C1AAF2C8C1ABF2C9C1ADF2CAC1AEF2BD
:104D5800CBC1B0F2CCC1B1F2CDC1B3F2CEC1B4F285
:104D6800CFC1B6F2D0C1B7F2D1C13DF0D2C151F036
:104D7800D3C14FF0D4C13AF0D5C1F4F00101D6A1A6
:104D880002D0048A01D0049AD7C1FFF061EC2FF059
:104D9800C2C07CF1C3C07DF1D8C14DF0D9C134F097
:104DA800DAC14CF00101DBA102D0048401D00494E3
:104DB80004B4038E0101DCA102D0048001D0049068
:104DC8000101DDA102D0048201D004920101DEA11B
:104DD80002D0038C01D0039C0101DFA102D0038A19
:104DE80001D0039A0101E0A102D0038601D0039605
:104DF8000101E1A102D0038401D003940101E2A1E1
:104E080002D0038201D003920101E3A102D0038002
:104E1800120003901200230E0001676F010E686FE5
:104E28003CD06851030D010EF326000EF422000E4B
:104E3800F324D96E030EF420DA6EFF0E6825606F36
:104E4800616BFF0E6123000E636F030E626F80ECCF
:104E58004CF0000E00016025E96E030E6121EA6E38
:104E6800EF50666FFF0E6825606F616BFF0E612360
:104E7800000E636F030E626F80EC4CF0010E0001B0
:104E88006027000E6123000E6025E96E030E612184
:104E9800EA6EEF506625DF6E682B6751685DD8A013
:104EA800C0D700C377F101C378F102C379F103C316
:104EB80074F104C375F105C376F106C371F107C334
:104EC80072F108C373F109C36EF10AC36FF10BC322
:104ED80070F10CC36BF10DC36CF10EC36DF10FC310
:104EE80068F110C369F111C36AF112C365F113C304
:104EF80066F114C367F115C362F116C363F117C3F2
:104F080064F118C35FF119C360F11AC361F11BC3DF
:104F18005CF11CC35DF11DC35EF11EC359F11FC3D3
:104F28005AF120C35BF121C356F122C357F123C3C1
:104F380058F124C350F125C351F126C352F127C3B8
:104F48004DF128C34EF129C34FF12AC34AF12BC3AF
:104F58004BF12CC34CF12DC347F12EC348F12FC39D
:104F680049F130C33BF131C33CF132C33DF133C3A6
:104F7800E3F034C3E4F035C3E5F036C338F137C3A2
:104F880039F138C33AF139C3E0F03AC3E1F03BC331
:104F9800E2F03CC335F13DC336F13EC337F13FC3C0
:104FA8002CF140C32DF141C32EF142C329F143C373
:104FB8002AF144C32BF145C326F146C327F147C361
:104FC80028F148C323F149C324F14AC325F14BC34F
:104FD80020F14CC321F14DC322F14EC31DF14FC343
:104FE8001EF150C31FF151C31AF152C31BF153C331
:104FF8001CF154C317F155C318F156C319F157C31F
:1050080014F158C315F159C316F15AC3DDF05BC347
:10501800DEF05CC3DFF012000001B16F000E00018A
:10502800B06F000EAF6FB105D8A404D0000EB06FFA
:10503800800EAF6F020EB119D8A404D0010EB06F64
:10504800000EAF6F030EB119D8A404D0010EB06FD3
:10505800800EAF6F040EB119D8A404D0020EB06F41
:10506800000EAF6FF3C064F0F2C065F0F1C066F0F7
:10507800F0C067F0000E04BE010E686F000E01BE9E
:10508800010E696F000E01BC010E6A6FEAC16BF078
:10509800EBC16CF0ECC16DF0EDC16EF0EEC16FF0DC
:1050A800EFC170F0F0C171F0F1C172F0F5C073F0AA
:1050B800F6C074F0F7C075F0F8C076F0F9C077F074
:1050C800FAC078F0FBC079F0FCC07AF0000E05BE9B
:1050D800010E7B6F89C27CF08AC27DF08CC27EF0A3
:1050E8008DC27FF08FC280F090C281F092C282F0B0
:1050F80093C283F095C284F096C285F098C286F078
:1051080099C287F09BC288F09CC289F09EC28AF03F
:105118009FC28BF0A1C28CF0A2C28DF0A4C28EF007
:10512800A5C28FF0A7C290F0A8C291F0AAC292F0CF
:10513800ABC293F0ADC294F0AEC295F0B0C296F097
:10514800B1C297F0B3C298F0B4C299F0B6C29AF05F
:10515800B7C29BF03DC09CF051C09DF04FC09EF07F
:105168003AC09FF0F4C0A0F0000E04BA010EA16F7F
:10517800FFC0A2F04DC0A3F034C0A4F04CC0A5F00D
:10518800000E04B4010EA66F000E04B0010EA76F46
:10519800000E04B2010EA86F000E03BC010EA96F29
:1051A800000E03BA010EAA6F000E03B6010EAB6F14
:1051B800000E03B4010EAC6F000E03B2010EAD6F0A
:1051C800000E03B0010EAE6F000EB36F000EB26F8B
:1051D800B3511BE14B0EB25DD8B012004EEC4DF04E
:1051E8000001AF51B225606FB051B321616F640EF9
:1051F800B225D96E000EB321DA6EDF50626FC2ECB1
:105208004AF00001B24BB32BE3D712000494069284
:105218002E50D8B47FD0190E2F6E0001F351D8B498
:1052280008D0060EF319D8B404D0090EF319D8A47F
:105238003DD0060E3418D8B409D0050E3418D8B4A9
:1052480005D0040E3418D8B401B805D00101845132
:1052580026EC34F001883450D8B405D0020E341846
:10526800D8B401B805D00201785126EC34F0018891
:105278003404D8B405D0030E3418D8B401B816D005
:10528800FF0E00017A6FFF0E7B6F2E507C6F7D6BD7
:105298007A517C277B517D23780E7C25D96E020EAE
:1052A8007D21DA6EDF5026EC34F001880001F30529
:1052B800D8B419D0020EF319D8B415D0030EF319C7
:1052C800D8B411D0070EF319D8B40DD0080EF319BD
:1052D800D8B409D00A0EF319D8B405D00B0EF319B7
:1052E800D8B401B806D0000E716F000EF1EC13F0BF
:1052F8000188040E0001F319D8B405D0050EF3197E
:10530800D8B401B806D0000E716F000EBEEC2AF0BA
:105318000188019804B203AE10D0010E2E640DD09E
:10532800010E0001EF6FFB0E606F010E616FE10E61
:10533800626FFF0E636FE4EC4BF004A210D02E04F2
:10534800D8A40DD0010E0001EF6FFB0E606F010EA7
:10535800616FFA0E626FFF0E636FE4EC4BF004B0FE
:1053680003AE18D004A202D004A214D02E50D8A4A0
:1053780011D0000E2E6E000E0001EC6F010EEF6FC3
:10538800FB0E606F010E616FF00E626FFF0E636FB0
:10539800E4EC4BF004B4120004A202D004A2120000
:1053A8002E50D8A41200000E2E6E000E0001EC6FD5
:1053B800010EEF6FFB0E606F010E616FDC0E626F06
:1053C800FF0E636FE4EC4BF012000600E9CF13F018
:1053D800EACF14F0E1CF15F0E2CF16F0D9CF17F0ED
:1053E800DACF18F0F3CF19F0F4CF1AF0F6CF1BF09C
:1053F800F7CF1CF0F8CF1DF0F5CF1EF03EC01FF020
:105408003FC020F040C021F041C022F042C023F04C
:1054180043C024F044C025F045C026F047C027F01B
:1054280048C028F049C029F016EEB2F09EA205D077
:1054380000EC4DF0830ECC6E9E929EA00CD0010E17
:1054480002016427000E652366236723EC0ECF6EE6
:10545800780ECE6E9E90F2A20BD0410E126EEE0E1A
:10546800E82EFED7122EFCD700D081A00586F29236
:10547800F2A003D07CEC43F0F290F2A44CD0F29A64
:1054880002BE2DD04C50E66E2D50E66EA5EC41F0D4
:105498003E50D8A424D0060E3418D8B40DD03450B9
:1054A800D8B40AD03404D8B407D0020E3418D8B40B
:1054B80003D0030E3418D8B431C030F00688D2ECCB
:1054C80008F00698029C029A02940292050E34187B
:1054D800D8B403D0040E3418D8B431C030F003B8AF
:1054E80002AE0CD04C50E66E2D50E66EA5EC41F0A5
:1054F8003E50D8A403D0029E4CC02DF02D2A4C500B
:105508002D5CD8A002D0000E2D6E7CC1D6FF7DC1C7
:10551800D7FFF294F28A29C049F028C048F027C082
:1055280047F026C045F025C044F024C043F023C00E
:1055380042F022C041F021C040F020C03FF01FC01F
:105548003EF01EC0F5FF1DC0F8FF1CC0F7FF1BC0D2
:10555800F6FF1AC0F4FF19C0F3FF18C0DAFF17C02E
:10556800D9FF16C0E2FF15C0E1FF14C0EAFF13C05F
:10557800E9FF110004BA58D0040E0001F319D8A4A9
:1055880027D006A211D05050E66E7151010D920E2F
:10559800F324F66EF30EF420F76E0800F550E66E6D
:1055A8003D50E66E10EC46F006B212D05050E66E52
:1055B80000017151010D920EF324F66EF30EF420E2
:1055C800F76E0800F550E66E3D50E66EA0EC4AF026
:1055D800050E0001F319D8A427D006A211D0505007
:1055E800E66E7151010D870EF324F66EF30EF4206A
:1055F800F76E0800F550E66E3D50E66E10EC46F08A
:1056080006B212D05050E66E00017151010D870E9E
:10561800F324F66EF30EF420F76E0800F550E66EEC
:105628003D50E66EA0EC4AF004AA1200040E0001F8
:10563800F319D8A40BD07151010D920EF324F66E14
:10564800F30EF420F76E0800F5CF76F0050EF31987
:10565800D8A40BD07151010D870EF324F66EF30E0A
:10566800F420F76E0800F5CF76F006A219D0D59E83
:1056780076C02FF02E50D8B40AD0000E03B6010E13
:1056880043EC4CF052A0A7EC2EF0000E2D6E00015A
:10569800765128EC35F004A4039ED8EC4CF0D58E56
:1056A80006B2120004B41200D59E2E50D8B40AD007
:1056B800000E03B4010E43EC4CF052A0A7EC2EF000
:1056C800000E2D6E00017651B0EC4BF02FC072F039
:1056D8000001736B72BF73077651746F756B7251EB
:1056E800741906E173517519D8A402D0000E2E6EF4
:1056F80004B003AE01D0048404A203AE04D0000EAB
:105708002E6E000EEC6FD8EC4CF0D58E1200000116
:10571800686F04BA4BD0000E0001666F030E666511
:1057280001D044D006A21ED05050E66E6151040D3F
:10573800A70E626FF20E636FF3506227F450632373
:105748006651010DF3506227F450632362C0F6FFDF
:1057580063C0F7FF0800F5506825E66E3D50E66E19
:1057680010EC46F006B21FD05050E66E00016151B1
:10577800040DA70E626FF20E636FF3506227F450A8
:1057880063236651010DF3506227F450632362C00E
:10579800F6FF63C0F7FF0800F5506825E66E3D5038
:1057A800E66EA0EC4AF00001662BB8D704AA1200F6
:1057B80006A241D0D59E68C02FF02E50D8B40AD08A
:1057C800000E03B6010E43EC4CF052A0A7EC2EF0ED
:1057D800000E2D6E000E0001676F030E676501D085
:1057E80022D06751010D840EF324D96E010EF420E6
:1057F800DA6E6151040DA70E626FF20E636FF350FB
:105808006227F45063236751010DF3506227F45067
:10581800632362C0F6FF63C0F7FF0800F5506825F0
:10582800DF6E672BDAD7040E2E6E04A4039ED8EC25
:105838004CF0D58E120006B2120004B412002E509D
:10584800D8B40AD0000E03B4010E43EC4CF052A0B9
:10585800A7EC2EF0000E2D6E2FC062F00001636BD6
:1058680062BF63076851646F656B6251641906E132
:1058780063516519D8A402D0000E2E6E04B003AE91
:1058880001D0048404A202D004A206D003AE04D03E
:10589800000E2E6E000EEC6FD8EC4CF0D58E120078
:1058A8000001696F16D0D80E0001656F020E0FD087
:1058B800D40E656F020E0BD0D00E656F020E07D0A6
:1058C800CC0E656F020E03D0C80E656F020E666FB0
:1058D80011D00001F051000AD8B4E5D7010AD8B4B4
:1058E800E7D7030AD8B4E8D7010AD8B4E9D7070A32
:1058F800D8B4EAD704BA30D0000E676F030E6765D4
:1059080001D02AD006A211D05050E66E6751010D81
:10591800F3506525D96EF4506621DA6EDF5069259B
:10592800E66E3D50E66E10EC46F006B212D05050CE
:10593800E66E00016751010DF3506525D96EF450EC
:105948006621DA6EDF506925E66E3D50E66EA0EC02
:105958004AF00001672BD2D704AA120006A234D05D
:10596800D59E69C02FF02E50D8B40AD0000E03B6C9
:10597800010E43EC4CF052A0A7EC2EF0000E2D6E59
:10598800000E0001686F030E686501D015D06851DC
:10599800010D840EF324D96E010EF420DA6E6851DD
:1059A800010DF3506525E96EF4506621EA6EEF505B
:1059B8006925DF6E682BE7D7040E2E6E04A4039EBC
:1059C800D8EC4CF0D58E120006B2120004B41200C6
:1059D8002E50D8B40AD0000E03B4010E43EC4CF09C
:1059E80052A0A7EC2EF0000E2D6E2FC061F0000122
:1059F800626B61BF62076951636F646B61516319C0
:105A080006E162516419D8A402D0000E2E6E04B0CB
:105A180003AE01D0048404A202D004A206D003AECF
:105A280004D0000E2E6E000EEC6FD8EC4CF0D58E24
:105A380012000001686F04BA4BD0000E0001666FB7
:105A4800020E666501D044D006A21ED05050E66E04
:105A58006151030D100E626FF30E636FF3506227EE
:105A6800F45063236651010DF3506227F450632309
:105A780062C0F6FF63C0F7FF0800F5506825E66EC0
:105A88003D50E66E10EC46F006B21FD05050E66E60
:105A980000016151030D100E626FF30E636FF35036
:105AA8006227F45063236651010DF3506227F450C6
:105AB800632362C0F6FF63C0F7FF0800F55068254E
:105AC800E66E3D50E66EA0EC4AF00001662BB8D7B2
:105AD80004AA120006A240D0D59E68C02FF02E500E
