:0400000006EF00F017
:10000800CFED29F013EE89F0EDEF35F03650D8B486
:100018001200100E3618D8A4B9D3049E049C020E00
:100028004F18D8A41FD0FF0E0001606FFF0E616F3C
:10003800010174510001626F636B60516227615165
:100048006323010176510001646F656B6251645D41
:100058006551800A666F6351800A6659D8B002D02C
:100068000101762B030E4F18D8A419D0FF0E0001FA
:10007800606FFF0E616FE551626F636B60516227BD
:1000880061516323E751646F656B6251645D65512B
:10009800800A666F6351800A6659D8A0E72B040E60
:1000A8004F18D8A41FD0FF0E0001606FFF0E616FBC
:1000B800010168510001626F636B605162276151F1
:1000C800632301016A510001646F656B6251645DCD
:1000D8006551800A666F6351800A6659D8B002D0AC
:1000E80001016A2B050E4F18D8A41FD0FF0E00017E
:1000F800606FFF0E616F010165510001626F636BF4
:100108006051622761516323010167510001646FE7
:10011800656B6251645D6551800A666F6351800A40
:100128006659D8B002D00101672B060E4F18D8A423
:100138001FD0FF0E0001606FFF0E616F0101595162
:100148000001626F636B6051622761516323010193
:100158005B510001646F656B6251645D6551800A93
:10016800666F6351800A6659D8B002D001015B2BD3
:10017800070E4F18D8A41FD0FF0E0001606FFF0EA6
:10018800616F010147510001626F636B6051622723
:1001980061516323010149510001646F656B62512C
:1001A800645D6551800A666F6351800A6659D8B0EC
:1001B80002D00101492B090E4F18D8A41FD0FF0EF9
:1001C8000001606FFF0E616F010171510001626FE4
:1001D800636B605162276151632301017351000110
:1001E800646F656B6251645D6551800A666F635127
:1001F800800A6659D8B002D00101732B0A0E4F1835
:10020800D8A41FD0FF0E0001606FFF0E616F0101BF
:100218006E510001626F636B605162276151632305
:10022800010170510001646F656B6251645D655135
:10023800800A666F6351800A6659D8B002D00101FE
:10024800702B0B0E4F18D8A41FD0FF0E0001606F43
:10025800FF0E616F01016B510001626F636B6051AA
:1002680062276151632301016D510001646F656B61
:100278006251645D6551800A666F6351800A6659F0
:10028800D8B002D001016D2B0C0E4F18D8A41FD086
:10029800FF0E0001606FFF0E616F010162510001E6
:1002A800626F636B6051622761516323010164517E
:1002B8000001646F656B6251645D6551800A666F09
:1002C8006351800A6659D8B002D00101642B0D0E23
:1002D8004F18D8A41FD0FF0E0001606FFF0E616F8A
:1002E80001015F510001626F636B605162276151C8
:1002F8006323010161510001646F656B6251645DA4
:100308006551800A666F6351800A6659D8B002D079
:100318000101612B0E0E4F18D8A41FD0FF0E00014B
:10032800606FFF0E616F01015C510001626F636BCA
:10033800605162276151632301015E510001646FBE
:10034800656B6251645D6551800A666F6351800A0E
:100358006659D8B002D001015E2B0F0E4F18D8A4F1
:100368001FD0FF0E0001606FFF0E616F0101565133
:100378000001626F636B6051622761516323010161
:1003880058510001646F656B6251645D6551800A64
:10039800666F6351800A6659D8B002D00101582BA4
:1003A800180E4F18D8A406D001013A51D8A402D08B
:1003B800010E3A6F100E4F18D8A406D0560E010140
:1003C800556102D0050E5527110E4F18D8A41FD01D
:1003D800FF0E0001606FFF0E616F010150510001B7
:1003E800626F636B6051622761516323010152514F
:1003F8000001646F656B6251645D6551800A666FC8
:100408006351800A6659D8B002D00101522B120EEE
:100418004F18D8A41FD0FF0E0001606FFF0E616F48
:1004280001014D510001626F636B60516227615198
:10043800632301014F510001646F656B6251645D74
:100448006551800A666F6351800A6659D8B002D038
:1004580001014F2B080E4F18D8A405D07F0E0101BB
:10046800466101D0462B140E4F18D8A405D00F0EA4
:100478000101436101D0432B150E4F18D8A405D0B4
:100488000F0E0101406101D0402B130E4F18D8A464
:100498001FD0FF0E0001606FFF0E616F01014A510E
:1004A8000001626F636B6051622761516323010130
:1004B8004C510001646F656B6251645D6551800A3F
:1004C800666F6351800A6659D8B002D001014C2B7F
:1004D800160E4F18D8A41FD0FF0E0001606FFF0E34
:1004E800616F01013B510001626F636B60516227CC
:1004F8006151632301013D510001646F656B6251D5
:10050800645D6551800A666F6351800A6659D8B088
:1005180002D001013D2B170E4F18D8A419D0FF0E99
:100528000001606FFF0E616FE251626F636B605193
:10053800622761516323E451646F656B6251645DA6
:100548006551800A666F6351800A6659D8A0E42B0A
:10055800190E4F18D8A419D0FF0E0001606FFF0EB6
:10056800616FDF51626F636B605162276151632372
:10057800E151646F656B6251645D6551800A666F15
:100588006351800A6659D8A0E12B1A0E4F18D8A4D7
:1005980003D0010E0101371B1B0E4F18D8A405D03C
:1005A800FA0E0101346101D0342B1C0E4F18D8A467
:1005B80005D0040E0101316101D0312B1D0E4F18F9
:1005C800D8A41FD0FF0E0001606FFF0E616F0101FC
:1005D8002C510001626F636B605162276151632384
:1005E80001012E510001646F656B6251645D6551B4
:1005F800800A666F6351800A6659D8B002D001013B
:100608002E2B1E0E4F18D8A41FD0FF0E0001606FAE
:10061800FF0E616F010129510001626F636B605128
:1006280062276151632301012B510001646F656BDF
:100638006251645D6551800A666F6351800A66592C
:10064800D8B002D001012B2B1F0E4F18D8A41FD0F1
:10065800FF0E0001606FFF0E616F0101265100015E
:10066800626F636B605162276151632301012851F6
:100678000001646F656B6251645D6551800A666F45
:100688006351800A6659D8B002D00101282B200E88
:100698004F18D8A403D0010E0101251B210E4F18B5
:1006A800D8A403D0010E0101221B220E4F18D8A492
:1006B80003D0010E01011F1B230E4F18D8A41FD011
:1006C800FF0E0001606FFF0E616F01011A510001FA
:1006D800626F636B605162276151632301011C5192
:1006E8000001646F656B6251645D6551800A666FD5
:1006F8006351800A6659D8B002D001011C2B240E20
:100708004F18D8A403D0010E0101191B250E4F184C
:10071800D8A403D0010E0101161B260E4F18D8A429
:1007280019D0FF0E0001606FFF0E616FDC51626F20
:10073800636B6051622761516323DE51646F656B9F
:100748006251645D6551800A666F6351800A66591B
:10075800D8A0DE2B270E4F18D8A403D0010E010114
:10076800131B280E4F18D8A403D0010E0101101B2B
:10077800290E4F18D8A403D0010E01010D1B2A0E13
:100788004F18D8A403D0010E01010A1B200E3618F9
:10079800D8A447D1049E049C020E4F18D8A404D0B4
:1007A80001017651D8A47607030E4F18D8A404D0B7
:1007B8000001E751D8A4E707040E4F18D8A404D0C5
:1007C80001016A51D8A46A07050E4F18D8A404D0AD
:1007D80001016751D8A46707060E4F18D8A404D0A2
:1007E80001015B51D8A45B07070E4F18D8A404D0A9
:1007F80001014951D8A44907090E4F18D8A404D0BB
:1008080001017351D8A473070A0E4F18D8A404D055
:1008180001017051D8A470070B0E4F18D8A404D04A
:1008280001016D51D8A46D070C0E4F18D8A404D03F
:1008380001016451D8A464070D0E4F18D8A404D040
:1008480001016151D8A461070E0E4F18D8A404D035
:1008580001015E51D8A45E070F0E4F18D8A404D02A
:1008680001015851D8A45807180E4F18D8A406D01B
:1008780001013A05D8A402D0000E3A6F100E4F18A5
:10088800D8A406D00E0E0101556502D0050E555F9D
:10089800110E4F18D8A402D001015207120E4F189A
:1008A800D8A402D001014F07080E4F18D8A404D0CD
:1008B80001014651D8A44607140E4F18D8A404D0F5
:1008C80001014351D8A44307150E4F18D8A404D0EA
:1008D80001014051D8A44007130E4F18D8A402D0E4
:1008E80001014C07160E4F18D8A404D001013D5140
:1008F800D8A43D07170E4F18D8A404D00001E4511E
:10090800D8A4E407190E4F18D8A404D00001E15167
:10091800D8A4E1071A0E4F18D8A403D0010E01017C
:10092800371B1B0E4F18D8A405D0190E01013465CA
:1009380001D034071C0E4F18D8A405D0010E0101B0
:10094800316501D031071D0E4F18D8A404D001011C
:100958002E51D8A42E071E0E4F18D8A404D001017A
:100968002B51D8A42B071F0E4F18D8A404D001016F
:100978002851D8A42807200E4F18D8A403D0010E58
:100988000101251B210E4F18D8A403D0010E010127
:10099800221B220E4F18D8A403D0010E01011F1BE1
:1009A800230E4F18D8A404D001011C51D8A41C0749
:1009B800240E4F18D8A403D0010E0101191B250ECF
:1009C8004F18D8A403D0010E0101161B260E4F188C
:1009D800D8A404D00001DE51D8A4DE07270E4F1892
:1009E800D8A403D0010E0101131B280E4F18D8A458
:1009F80003D0010E0101101B290E4F18D8A403D0F3
:100A0800010E01010D1B290E4F18D8A403D0010EA9
:100A180001010D1B2A0E4F18D8A403D0010E0101A5
:100A28000A1B000E366E1200000E01019C6F0F0E9D
:100A38009C6501D02BD09C5140EC4BF001019C519E
:100A4800020D690EF324D96E030EF420DA6E00014C
:100A580060C0DEFF61C0DDFF05BC15D001019C51FF
:100A6800020D690EF324D96E030EF420DA6E9C5140
:100A7800020D400EF324E96E020EF420EA6EDECF7A
:100A8800EEFFDDCFEDFF01019C2BD1D7000E9B6F50
:100A98000F0E9B6501D0A1D09B51020D400EF3248F
:100AA800D96E020EF420DA6EDECF60F0DDCF61F091
:100AB8000001000E61BFFF0E626F636F010EF4EC60
:100AC8002FF060C072F061C073F062C074F063C050
:100AD80075F0000E0001A86F000EA96F800EAA6FB6
:100AE8003F0EAB6F04C1A0F005C1A1F006C1A2F092
:100AF80007C1A3F0A9EC4BF0A0C0A4F0A1C0A5F0D9
:100B0800A2C0A6F0A3C0A7F09BEC19F0A4C06EF099
:100B1800A5C06FF0A6C070F0A7C071F0F2EC17F096
:100B28006EC097F16FC098F170C099F171C09AF1D9
:100B380097C1A8F098C1A9F099C1AAF09AC1ABF0E1
:100B480004C172F005C173F006C174F007C175F0F5
:100B580001019B51020D690EF324D96E030EF42096
:100B6800DA6EDECF60F0DDCF61F00001000E61BF0C
:100B7800FF0E626F636F010EF4EC2FF060C06EF031
:100B880061C06FF062C070F063C071F0F2EC17F0F2
:100B98006EC0A4F06FC0A5F070C0A6F071C0A7F039
:100BA8009BEC19F0A4C0B8F0A5C0B9F0A6C0BAF083
:100BB800A7C0BBF0BEEC37F001019B51020D400EFF
:100BC800F324D96E020EF420DA6E0001B8C0DEFFFD
:100BD800B9C0DDFF01019B2B5BD7000E9D6F0F0E87
:100BE8009D6501D0D3D2010E02016027000E61235A
:100BF8006223632305BC15D001019D51020D400EEF
:100C0800F324D96E020EF420DA6E9D51020D000E07
:100C1800F324E96E020EF420EA6EDECFEEFFDDCF9C
:100C2800EDFF01019D51020D400EF324D96E020E15
:100C3800F420DA6EDECFC2F0DDCFC3F09D51020D95
:100C4800000EF324D96E020EF420DA6EDECFC4F063
:100C5800DDCFC5F00001C41FC51FC44BC52BC25151
:100C6800C427C351C5230101F3510001C45DC55117
:100C7800800AC66F0101F451800A0001C659D8B034
:100C880030D001019D51020D000EF324D96E020EE1
:100C9800F420DA6EDECFC2F0DDCFC3F09D51020D35
:100CA800400EF324D96E020EF420DA6EDECFC4F0C3
:100CB800DDCFC5F00001C41FC51FC44BC52BC251F1
:100CC800C427C351C5230101F3510001C45DC551B7
:100CD800800AC66F0101F451800A0001C659D8A0E4
:100CE80040D2FD5101019D19D8B404D00001FD295D
:100CF800D8A411D0000E0201606F000E616F000EC3
:100D0800626F000E636F000E646F000E656F000E59
:100D1800666F000E676F200E0101F319F411D8A455
:100D280095D09D51020D400EF324D96E020EF42089
:100D3800DA6EDECFC2F0DDCFC3F09D51020D000E9A
:100D4800F324D96E020EF420DA6EDECFC4F0DDCFC4
:100D5800C5F00001C41FC51FC44BC52BC251C42711
:100D6800C351C523C5BF25D0C55104E1200EC45DBC
:100D7800D8A01FD001019D51020D000EF324D96E99
:100D8800020EF420DA6EDECFC2F0DDCFC3F0080E1B
:100D98000001C227000EC32301019D51020D400E20
:100DA800F324D96E020EF420DA6EC2C0DEFFC3C08F
:100DB800DDFF01019D51020D000EF324D96E020ED4
:100DC800F420DA6EDECFC2F0DDCFC3F09D51020D04
:100DD800400EF324D96E020EF420DA6EDECFC4F092
:100DE800DDCFC5F00001C41FC51FC44BC52BC251C0
:100DF800C427C351C523C5BF29D0C55104E1200E5E
:100E0800C45DD8A023D0F80EC26FFF0EC36F0101D6
:100E18009D51020D000EF324D96E020EF420DA6EF5
:100E2800DECFC4F0DDCFC5F00001C251C427C351E5
:100E3800C52301019D51020D400EF324D96E020E07
:100E4800F420DA6EC4C0DEFFC5C0DDFF000E01016C
:100E5800F46F080EF36F0001FD29D8B49DC1FDF0B1
:100E680001019D51020D400EF324D96E020EF420AB
:100E7800DA6E9D51020D200EF324E96E020EF42065
:100E8800EA6EDECFEEFFDDCFEDFF9D51030D880E3C
:100E9800F324D96E020EF420DA6E0201DFB09CD082
:100EA80001019D51020D200EF324D96E020EF4208B
:100EB800DA6EDECF6EF0DDCF6FF00001000E6FBF8F
:100EC800FF0E706F716F000E726F000E736F000E61
:100ED800746F000E756F500E766F3F0E776F000EB1
:100EE800786F000E796F000E7A6F000E7B6F000E20
:100EF8007C6F000E7D6FFF0E7E6F3F0E7F6F000EC2
:100F0800806F000E816F6FEC33F001019D51020D6F
:100F1800200EF324D96E020EF420DA6E00016EC0A2
:100F2800DEFF6FC0DDFF01019D51020D200EF3248D
:100F3800D96E020EF420DA6EDECFC2F0DDCFC3F038
:100F48000001C335C333C233C335C333C233C335DA
:100F5800C333C23301019D51020D200EF324D96E13
:100F6800020EF420DA6EC2C0DEFFC3C0DDFF9D5161
:100F7800020D200EF324D96E020EF420DA6E010E53
:100F8800DBAE0CD09D51020D200EF324D96E020E5B
:100F9800F420DA6E000EDE6E000EDD6E9D51020D3D
:100FA800200EF324D96E020EF420DA6E010EDBBE99
:100FB80013D0010EDB5004E1800EDE5CD8A00CD00B
:100FC8009D51020D200EF324D96E020EF420DA6E24
:100FD8007F0EDE6E000EDD6E01019D51030D880E41
:100FE800F324D96E020EF420DA6E0201DFA09AD043
:100FF80001019D51020D200EF324D96E020EF4203A
:10100800DA6EDECFC2F0DDCFC3F00001C23BC33BD6
:10101800F00EC317C2510F0BC313F00EC217010114
:101028009D51020D200EF324D96E020EF420DA6EC3
:10103800C2C0DEFFC3C0DDFF9D51020D200EF324A8
:10104800D96E020EF420DA6EDECF6EF0DDCF6FF0CF
:101058000001000E6FBFFF0E706F716F500E726F40
:10106800000E736F000E746F000E756F000E766FB2
:101078003F0E776F000E786F000E796F000E7A6F53
:10108800000E7B6F000E7C6F000E7D6FFF0E7E6F73
:101098003F0E7F6F000E806F000E816F6FEC33F094
:1010A80001019D51020D200EF324D96E020EF42089
:1010B800DA6E00016EC0DEFF6FC0DDFF01019D51D9
:1010C800020D200EF324D96E020EF420DA6E010E02
:1010D800DBAE0CD09D51020D200EF324D96E020E0A
:1010E800F420DA6E000EDE6E000EDD6E9D51020DEC
:1010F800200EF324D96E020EF420DA6E010EDBBE48
:1011080011D0DE52400EDE5CD8A00CD09D51020DED
:10111800200EF324D96E020EF420DA6EFF0EDE6E76
:101128003F0EDD6E0001FD5101019D19D8A404D0C8
:101138000001FD51CFEC20F001019D51020D400E40
:10114800F324D96E020EF420DA6E9D51020D000EC2
:10115800F324E96E020EF420EA6EDECFEEFFDDCF57
:10116800EDFF0201C451645DC5516559C651665908
:10117800C7516759D8A007D0000E0101F46F200E9F
:10118800F36F0001FD6901019D2B29D5058C120023
:101198002F50D8B412003550D8B408D0020E3518E4
:1011A800D8B404D0060E3518D8A4B7D03450D8B463
:1011B80002A427D03250800A7F0FD8B002B221D0C3
:1011C80001BE1FD05150E66EFF0E0C6EFF0E0D6E65
:1011D8002F500E6E0F6A0C500E260D500F220E5017
:1011E8002A24D96E0F502B20DA6EDF50106E32048D
:1011F8000C0DF3501024E66E3E50E66E4AEC4AF0B1
:1012080002943404D8B402A429D03250800A7F0F43
:10121800D8B002B223D001BE21D05150E66EFF0EE5
:101228000C6EFF0E0D6E2F500E6E0F6A0C500E26B0
:101238000D500F220E502A24D96E0F502B20DA6E33
:10124800DF50106E4E50000832240C0DF35010245D
:10125800E66E3E50E66E4AEC4AF0029402A25DD079
:101268003450D8A421D001BC1ED05150E66EFF0ED8
:101278000C6EFF0E0D6E2F500E6E0F6A0C500E2660
:101288000D500F220E502A24D96E0F502B20DA6EE3
:10129800DF50106E4E040C0DF3501024E66E3E50D5
:1012A800E66E4AEC4AF002923404D8A41CD001BC81
:1012B80019D05150E66EFF0E0C6EFF0E0D6E2F50BA
:1012C8000E6E0F6A0C500E260D500F220E502A2457
:1012D800D96E0F502B20DA6EDF50E66E3E50E66E68
:1012E8004AEC4AF0029203A612D0010E2F6403D0F2
:1012F800010E336E02862F04D8A409D0010E4E6465
:1013080006D0018E000E336E320632C031F0020E66
:101318003518D8A402D0030E356E3504D8B404D0DD
:10132800030E3518D8A4BED03450D8B402A425D0A2
:1013380032BE02B222D001BE20D05150E66EFF0E5E
:101348000C6EFF0E0D6E2F500E6E0F6A0C500E268F
:101358000D500F220E502A24D96E0F502B20DA6E12
:10136800DF50106E32504E240C0DF3501024E66EF0
:101378003E50E66E4AEC4AF002943404D8B402A413
:1013880024D032BE02B221D001BE1FD05150E66E29
:10139800FF0E0C6EFF0E0D6E2F500E6E0F6A0C5066
:1013A8000E260D500F220E502A24D96E0F502B20D6
:1013B800DA6EDF50106E32280C0DF3501024E66EF2
:1013C8003E50E66E4AEC4AF0029402A26BD03450CA
:1013D800D8A425D001BC22D05150E66EFF0E0C6E69
:1013E800FF0E0D6E2F500E6E0F6A0C500E260D500C
:1013F8000F220E502A24D96E0F502B20DA6EDF50A0
:10140800106E4E50010DF35000084E240C0DF35091
:101418001024E66E3E50E66E4AEC4AF0029234041E
:10142800D8A426D001BC23D05150E66EFF0E0C6E16
:10143800FF0E0D6E2F500E6E0F6A0C500E260D50BB
:101448000F220E502A24D96E0F502B20DA6EDF504F
:10145800106E4E50010DF3500008116E11280C0D3E
:10146800F3501024E66E3E50E66E4AEC4AF00292C3
:1014780003A612D0010E2F6403D0010E336E02862C
:101488002F04D8A409D0010E4E6406D0018E000E98
:10149800336E322A32C031F0030E3518D8A402D088
:1014A800020E356E050E3518D8B404D0040E351862
:1014B800D8A45AD032C07DF102B401BE0ED051502A
:1014C800E66E01017D510C0DF3500001EC25E66E2E
:1014D8003E50E66E4AEC4AF002943350D8A402B665
:1014E8001ED05150E66EFF0E0C6EFF0E0D6E33507F
:1014F8000E6E0F6A0C500E260D500F220E502A2425
:10150800D96E0F502B20DA6EDF50106E32500C0D52
:10151800F3501024E66E3E50E66E4AEC4AF04E5008
:10152800E66E000EE66EF0EC41F03FC0E6FF40C00C
:10153800E6FF74EC34F03F50326E02B815D05150CB
:10154800E66E3350010DF3502A24D96EF4502B2047
:10155800DA6EDF500C6E32500C0DF3500C24E66E30
:101568003E50E66E95EC45F03550D8B408D0020EE2
:101578003518D8B404D0060E3518D8A47FD00498EE
:101588005DEC32F03450D8A439D03350D8A402B628
:101598001ED05150E66EFF0E0C6EFF0E0D6E3350CE
:1015A8000E6E0F6A0C500E260D500F220E502A2474
:1015B800D96E0F502B20DA6EDF50106E32500C0DA2
:1015C800F3501024E66E3E50E66E4AEC4AF002B83C
:1015D80015D05150E66E3350010DF3502A24D96EC0
:1015E800F4502B20DA6EDF500C6E32500C0DF35095
:1015F8000C24E66E3E50E66E95EC45F03404D8A413
:101608003DD03350D8A402B620D05150E66EFF0E1C
:101618000C6EFF0E0D6E33500E6E0F6A0C500E26B8
:101628000D500F220E502A24D96E0F502B20DA6E3F
:10163800DF50106E4E04000832240C0DF3501024B5
:10164800E66E3E50E66E4AEC4AF002B817D05150AA
:10165800E66E3350010DF3502A24D96EF4502B2036
:10166800DA6EDF500C6E4E04000832240C0DF35075
:101678000C24E66E3E50E66E95EC45F03504D8B481
:1016880004D0030E3518D8A482D004885DEC32F05B
:1016980002983450D8A43FD03350D8A402B621D0F1
:1016A8005150E66EFF0E0C6EFF0E0D6E33500E6E2F
:1016B8000F6A0C500E260D500F220E502A24D96E98
:1016C8000F502B20DA6EDF50106E4E503224116E00
:1016D80011040C0DF3501024E66E3E50E66E4AECF1
:1016E8004AF002B818D05150E66E3350010DF3504D
:1016F8002A24D96EF4502B20DA6EDF500C6E4E502F
:1017080032240D6E0D040C0DF3500C24E66E3E5081
:10171800E66E95EC45F03404D8A439D03350D8A4FB
:1017280002B61ED05150E66EFF0E0C6EFF0E0D6E07
:1017380033500E6E0F6A0C500E260D500F220E50AD
:101748002A24D96E0F502B20DA6EDF50106E3250DB
:101758000C0DF3501024E66E3E50E66E4AEC4AF04B
:1017680002B815D05150E66E3350010DF3502A24BB
:10177800D96EF4502B20DA6EDF500C6E32500C0DFF
:10178800F3500C24E66E3E50E66E95EC45F033506F
:10179800010DF3502A24D96EF4502B20DA6EDF5055
:1017A8000001EC6F332A02963550D8B410D0020EDF
:1017B8003518D8B40CD0050E3518D8B408D0040E96
:1017C8003518D8B404D0060E3518D8A437D02F5001
:1017D800335CD8A01DD0000E336E3550D8B407D076
:1017E800020E3518D8B403D0060E3518D8B4322AEC
:1017F8000284019E050E3518D8B403B802D0CEEC89
:1018080045F0040E3518D8B403B802D07CEC3CF08F
:101818004E500C6E0D6A32C00EF00F6A0EBE0F06E7
:101828000C500E5C0F50800A106E0D50800A105834
:10183800D8A004D0000E326E0282019C3504D8B4C0
:1018480004D0030E3518D8A412002F50335CD8A04A
:1018580005D0000E336E32060284019E32C00CF0B1
:101868000D6A0CBE0D064E50010DF31EF41EF34A10
:10187800F42A0C50F35CF450800A0E6E0D50800A66
:101888000E58D8A01200000E326E0282019C12007F
:101898000001D8B1DBB70AD0D0B108D0000E766FFE
:1018A800058E7651F2EC33F00001D081D8B3DBB766
:1018B8000AD0D0B308D0010E766F058E7651F2ECBF
:1018C80033F00001D083D8B5DBB70AD0D0B508D043
:1018D800020E766F058E7651F2EC33F00001D0855A
:1018E800D8B7DBB70AD0D0B708D0030E766F058E0D
:1018F8007651F2EC33F00001D087D8B9DBB70AD0C3
:10190800D0B908D0040E766F058E7651F2EC33F01C
:101918000001D089D8BBDBB70AD0D0BB08D0050EF0
:10192800766F058E7651F2EC33F00001D08BD8BD7E
:10193800DBB70AD0D0BD08D0060E766F058E76517B
:10194800F2EC33F00001D08DD8BFDBB70AD0D0BF9E
:1019580008D0070E766F058E7651F2EC33F0000151
:10196800D08FD9B1DBB70AD0D1B108D0080E766FC5
:10197800058E7651F2EC33F00001D181D9B3DBB793
:101988000AD0D1B308D0090E766F058E7651F2ECE5
:1019980033F00001D183D9B5DBB70AD0D1B508D06F
:1019A8000A0E766F058E7651F2EC33F00001D18580
:1019B800D9B7DBB70AD0D1B708D00B0E766F058E32
:1019C8007651F2EC33F00001D187D9B9DBB70AD0F0
:1019D800D1B908D00C0E766F058E7651F2EC33F043
:1019E8000001D189D9BBDBB70AD0D1BB08D00D0E15
:1019F800766F058E7651F2EC33F00001D18BD9BDAC
:101A0800DBB70AD0D1BD08D00E0E766F058E7651A1
:101A1800F2EC33F00001D18DD9BFDBB70AD0D1BFCA
:101A280008D00F0E766F058E7651F2EC33F0000178
:101A3800D18FDAB1DBB70AD0D2B108D0100E766FE9
:101A4800058E7651F2EC33F00001D281DAB3DBB7C0
:101A58000AD0D2B308D0110E766F058E7651F2EC0B
:101A680033F00001D283DAB5DBB70AD0D2B508D09B
:101A7800120E766F058E7651F2EC33F00001D285A6
:101A8800DAB7DBB70AD0D2B708D0130E766F058E57
:101A98007651F2EC33F00001D287DAB9DBB70AD01D
:101AA800D2B908D0140E766F058E7651F2EC33F069
:101AB8000001D289DABBDBB70AD0D2BB08D0150E39
:101AC800766F058E7651F2EC33F00001D28BDABDD9
:101AD800DBB70AD0D2BD08D0160E766F058E7651C8
:101AE800F2EC33F00001D28DDABFDBB70AD0D2BFF7
:101AF80008D0170E766F058E7651F2EC33F00001A0
:101B0800D28FDBB1DBB70AD0D3B108D0180E766F0D
:101B1800058E7651F2EC33F00001D381D4B1D8B1FF
:101B28000AD0D0A108D0000E766F059E7651F2EC4F
:101B380033F00001D091D4B3D8B30AD0D0A308D0E1
:101B4800010E766F059E7651F2EC33F00001D093CA
:101B5800D4B5D8B50AD0D0A508D0020E766F059EA8
:101B68007651F2EC33F00001D095D4B7D8B70AD04B
:101B7800D0A708D0030E766F059E7651F2EC33F0AD
:101B88000001D097D4B9D8B90AD0D0A908D0040E8A
:101B9800766F059E7651F2EC33F00001D099D4BBF4
:101BA800D8BB0AD0D0AB08D0050E766F059E76510B
:101BB800F2EC33F00001D09BD4BDD8BD0AD0D0AD33
:101BC80008D0060E766F059E7651F2EC33F00001D0
:101BD800D09DD4BFD8BF0AD0D0AF08D0070E766F3B
:101BE800059E7651F2EC33F00001D09FD5B1D9B102
:101BF8000AD0D1A108D0080E766F059E7651F2EC76
:101C080033F00001D191D5B3D9B30AD0D1A308D00C
:101C1800090E766F059E7651F2EC33F00001D193F0
:101C2800D5B5D9B50AD0D1A508D00A0E766F059ECC
:101C38007651F2EC33F00001D195D5B7D9B70AD077
:101C4800D1A708D00B0E766F059E7651F2EC33F0D3
:101C58000001D197D5B9D9B90AD0D1A908D00C0EAD
:101C6800766F059E7651F2EC33F00001D199D5BB21
:101C7800D9BB0AD0D1AB08D00D0E766F059E765130
:101C8800F2EC33F00001D19BD5BDD9BD0AD0D1AD5E
:101C980008D00E0E766F059E7651F2EC33F00001F7
:101CA800D19DD5BFD9BF0AD0D1AF08D00F0E766F5E
:101CB800059E7651F2EC33F00001D19FD6B1DAB12E
:101CC8000AD0D2A108D0100E766F059E7651F2EC9C
:101CD80033F00001D291D6B3DAB30AD0D2A308D038
:101CE800110E766F059E7651F2EC33F00001D29317
:101CF800D6B5DAB50AD0D2A508D0120E766F059EF1
:101D08007651F2EC33F00001D295D6B7DAB70AD0A3
:101D1800D2A708D0130E766F059E7651F2EC33F0F9
:101D28000001D297D6B9DAB90AD0D2A908D0140ED0
:101D3800766F059E7651F2EC33F00001D299D6BB4E
:101D4800DABB0AD0D2AB08D0150E766F059E765155
:101D5800F2EC33F00001D29BD6BDDABD0AD0D2AD89
:101D680008D0160E766F059E7651F2EC33F000011E
:101D7800D29DD6BFDABF0AD0D2AF08D0170E766F81
:101D8800059E7651F2EC33F00001D29FD7A11200E4
:101D9800DBB11200D3A11200180E766F059E7651A2
:101DA800F2EC33F00001D391120039A034D00001D5
:101DB800DBA737B030D0378001B807D0E7C160F073
:101DC80051C061F05250F5EC48F001A601A808D0C6
:101DD800F5C060F07F0E0001616F3E50C9EC48F01D
:101DE80001B801A60AD02DB008D0F5C060F07F0E6A
:101DF8000001616F3E50C9EC48F001B801A60AD055
:101E08002DA008D0F5C060F0000E0001616F3E50B3
:101E1800C9EC48F02D7039A234D00001DBA737B2E5
:101E280030D0378201B807D0E8C160F051C061F006
:101E38005250F5EC48F001A601A808D0F6C060F0B1
:101E48007F0E0001616F3E50C9EC48F001B801A651
:101E58000AD02DB208D0F6C060F07F0E0001616F85
:101E68003E50C9EC48F001B801A60AD02DA208D00E
:101E7800F6C060F0000E0001616F3E50C9EC48F0FA
:101E88002D7239A434D00001DBA737B430D03784A1
:101E980001B807D0E9C160F051C061F05250F5ECCB
:101EA80048F001A601A808D0F7C060F07F0E000135
:101EB800616F3E50C9EC48F001B801A60AD02DB4B4
:101EC80008D0F7C060F07F0E0001616F3E50C9EC8A
:101ED80048F001B801A60AD02DA408D0F7C060F0D8
:101EE800000E0001616F3E50C9EC48F02D7439A610
:101EF80034D00001DBA737B630D0378601B807D019
:101F0800EAC160F051C061F05250F5EC48F001A60A
:101F180001A808D0F8C060F07F0E0001616F3E5044
:101F2800C9EC48F001B801A60AD02DB608D0F8C00F
:101F380060F07F0E0001616F3E50C9EC48F001B8B7
:101F480001A60AD02DA608D0F8C060F0000E000146
:101F5800616F3E50C9EC48F02D7639A834D00001A5
:101F6800DBA737B830D0378801B807D0EBC160F0AD
:101F780051C061F05250F5EC48F001A601A808D014
:101F8800F9C060F07F0E0001616F3E50C9EC48F067
:101F980001B801A60AD02DB008D0F9C060F07F0EB4
:101FA8000001616F3E50C9EC48F001B801A60AD0A3
:101FB8002DA008D0F9C060F0000E0001616F3E50FE
:101FC800C9EC48F02D7839AA34D00001DBA737BA1C
:101FD80030D0378A01B807D0ECC160F051C061F049
:101FE8005250F5EC48F001A601A808D0FAC060F0FC
:101FF8007F0E0001616F3E50C9EC48F001B801A6A0
:102008000AD02DB208D0FAC060F07F0E0001616FCF
:102018003E50C9EC48F001B801A60AD02DA208D05C
:10202800FAC060F0000E0001616F3E50C9EC48F044
:102038002D7A39AC34D00001DBA737BC30D0378CCF
:1020480001B807D0EDC160F051C061F05250F5EC15
:1020580048F001A601A808D0FBC060F07F0E00017F
:10206800616F3E50C9EC48F001B801A60AD02DB402
:1020780008D0FBC060F07F0E0001616F3E50C9ECD4
:1020880048F001B801A60AD02DA408D0FBC060F022
:10209800000E0001616F3E50C9EC48F02D7C39AE4E
:1020A80034D00001DBA737BE30D0378E01B807D057
:1020B800EEC160F051C061F05250F5EC48F001A655
:1020C80001A808D0FCC060F07F0E0001616F3E508F
:1020D800C9EC48F001B801A60AD02DB608D0FCC05A
:1020E80060F07F0E0001616F3E50C9EC48F001B806
:1020F80001A60AD02DA608D0FCC060F0000E000191
:10210800616F3E50C9EC48F02D7E38B039B017D019
:1021180037A015D0379001B807D0E7C160F051C09B
:1021280061F0525076EC4BF001A601A808D0F5C03A
:1021380060F0000E0001616F3E50C9EC48F038B203
:1021480039B217D037A215D0379201B807D0E8C1F5
:1021580060F051C061F0525076EC4BF001A601A836
:1021680008D0F6C060F0000E0001616F3E50C9EC67
:1021780048F038B439B417D037A415D0379401B81B
:1021880007D0E9C160F051C061F0525076EC4BF0D5
:1021980001A601A808D0F7C060F0000E0001616F29
:1021A8003E50C9EC48F038B639B617D037A615D026
:1021B800379601B807D0EAC160F051C061F05250BB
:1021C80076EC4BF001A601A808D0F8C060F0000E2C
:1021D8000001616F3E50C9EC48F038B839B817D0E3
:1021E80037A815D0379801B807D0EBC160F051C0B7
:1021F80061F0525076EC4BF001A601A808D0F9C066
:1022080060F0000E0001616F3E50C9EC48F038BA2A
:1022180039BA17D037AA15D0379A01B807D0ECC108
:1022280060F051C061F0525076EC4BF001A601A865
:1022380008D0FAC060F0000E0001616F3E50C9EC92
:1022480048F038BC39BC17D037AC15D0379C01B82A
:1022580007D0EDC160F051C061F0525076EC4BF000
:1022680001A601A808D0FBC060F0000E0001616F54
:102278003E50C9EC48F038AE120039BE120037AEF5
:102288001200379E01B807D0EEC160F051C061F06E
:10229800525076EC4BF001B6120001A81200FCC0B7
:1022A80060F0000E0001616F3E50C9EC48F012006A
:1022B80000016F6F000E4F6E049E059271D204BE2E
:1022C800CFD1100E3618D8A475D000016F51030D68
:1022D800880EF324D96E020EF420DA6E0201DFB004
:1022E8003CD000016F51030D010EF326000EF422BD
:1022F800880EF324D96E020EF420DA6EDF50800ABD
:10230800090FD8B02AD06F51030D010EF326000E25
:10231800F422880EF324D96E020EF420DA6EDF2A36
:102328006F51030D010EF326000EF422880EF324DC
:10233800D96E020EF420DA6EDF50D8A40ED06F5199
:10234800030D010EF326000EF422880EF324D96E35
:10235800020EF420DA6E400EDF6E00016F51030D9D
:10236800880EF324D96E020EF420DA6E0201DFA083
:102378001FD000016F51030D020EF326000EF42248
:10238800880EF324D96E020EF420DA6EDF50800A2C
:10239800610FD8B00DD06F51030D020EF326000E59
:1023A800F422880EF324D96E020EF420DA6EDF2AA6
:1023B800000E366E200E3618D8A4B2D000016F5128
:1023C800030D880EF324D96E020EF420DA6E020192
:1023D800DFB079D000016F51030D010EF326000E16
:1023E800F422880EF324D96E020EF420DA6EDF5040
:1023F800800A820FD8A00DD06F51030D010EF3266D
:10240800000EF422880EF324D96E020EF420DA6E40
:10241800DF066F51030D010EF326000EF422880E1D
:10242800F324D96E020EF420DA6E3D0EDE18D8A41D
:102438000ED06F51030D010EF326000EF422880E04
:10244800F324D96E020EF420DA6EFD0EDF6E6F51A2
:10245800030D010EF326000EF422880EF324D96E24
:10246800020EF420DA6E3E0EDE18D8A40ED06F519C
:10247800030D010EF326000EF422880EF324D96E04
:10248800020EF420DA6EFE0EDF6E6F51030D010EA0
:10249800F326000EF422880EF324D96E020EF420DF
:1024A800DA6E3F0EDE18D8A40ED06F51030D010E60
:1024B800F326000EF422880EF324D96E020EF420BF
:1024C800DA6EFF0EDF6E00016F51030D880EF324E4
:1024D800D96E020EF420DA6E0201DFA01FD00001CF
:1024E8006F51030D020EF326000EF422880EF3241A
:1024F800D96E020EF420DA6EDF50800A820FD8A05F
:102508000DD06F51030D020EF326000EF422880E33
:10251800F324D96E020EF420DA6EDF06000E366E52
:1025280000016F51030D880EF324D96E020EF420BA
:10253800DA6E0201DFB094D000016F51030D010E75
:10254800F326000EF422880EF324D96E020EF4202E
:10255800DA6E000EDBBE2ED06F51030D010EF3268E
:10256800000EF422880EF324D96E020EF420DA6EDF
:10257800DF50606F616B60BF61070AEC3BF0070ECC
:102588000001636F020EDFEC47F06B0E0001686F0D
:10259800FD0E696F76EC42F00D0E0001636F020EBE
:1025A800DFEC47F0920E0001686F010E696F76EC60
:1025B80042F056D000016F51030D010EF326000EB4
:1025C800F422880EF324D96E020EF420DA6EDE2887
:1025D800D8A40CD0070E636F020EDFEC47F09E0EF6
:1025E8000001686FFF0E696F76EC42F000016F51D1
:1025F800030D010EF326000EF422880EF324D96E83
:10260800020EF420DA6EFE0EDE18D8A40CD0070EE7
:10261800636F020EDFEC47F0880E0001686FFF0E53
:10262800696F76EC42F000016F51030D010EF3263D
:10263800000EF422880EF324D96E020EF420DA6E0E
:10264800FD0EDE18D8A40CD0070E636F020EDFEC67
:1026580047F0930E0001686FFF0E696F76EC42F049
:1026680000016F51030D880EF324D96E020EF42079
:10267800DA6E0201DFA094D000016F51030D020E43
:10268800F326000EF422880EF324D96E020EF420ED
:10269800DA6E000EDBBE2ED06F51030D020EF3264C
:1026A800000EF422880EF324D96E020EF420DA6E9E
:1026B800DF50606F616B60BF61070AEC3BF0070E8B
:1026C8000001636F020EDFEC47F06B0E0001686FCC
:1026D800FD0E696F76EC42F00D0E0001636F020E7D
:1026E800DFEC47F0920E0001686F010E696F76EC1F
:1026F80042F056D000016F51030D020EF326000E72
:10270800F422880EF324D96E020EF420DA6EDE2845
:10271800D8A40CD0070E636F020EDFEC47F09E0EB4
:102728000001686FFF0E696F76EC42F000016F518F
:10273800030D020EF326000EF422880EF324D96E40
:10274800020EF420DA6EFE0EDE18D8A40CD0070EA6
:10275800636F020EDFEC47F0880E0001686FFF0E12
:10276800696F76EC42F000016F51030D020EF326FB
:10277800000EF422880EF324D96E020EF420DA6ECD
:10278800FD0EDE18D8A40CD0070E636F020EDFEC26
:1027980047F0930E0001686FFF0E696F76EC42F008
:1027A80005B212008CD50001766F1ED0550E0001BF
:1027B800786FFD0E17D0460E786FFD0E13D0370ECA
:1027C800786FFD0E0FD0280E786FFD0E0BD0190E06
:1027D800786FFD0E07D00A0E786FFD0E03D0FB0E42
:1027E800786FFC0E796F17D00001F151000AD8B448
:1027F800DDD7010AD8B4DFD7030AD8B4E0D7010A75
:10280800D8B4E1D7070AD8B4E2D7010AD8B4E3D7D5
:10281800030AD8B4E4D704B6D8D0F205D8A427D090
:1028280005AE11D05150E66E7151010D780EF324AA
:10283800F66EF30EF420F76E0800F550E66E3E5083
:10284800E66E95EC45F005BE12D05150E66E0001DB
:102858007151010D780EF324F66EF30EF420F76E25
:102868000800F550E66E3E50E66E4AEC4AF0020E5D
:102878000001F219D8A427D005AE11D05150E66E48
:102888007151010D690EF324F66EF30EF420F76E04
:102898000800F550E66E3E50E66E95EC45F005BE34
:1028A80012D05150E66E00017151010D690EF324EA
:1028B800F66EF30EF420F76E0800F550E66E3E5003
:1028C800E66E4AEC4AF0030E0001F219D8A47DD056
:1028D8007151D8A433D005AE17D05150E66E71515E
:1028E800010D78C072F079C073F0F3507227F4507C
:1028F800732372C0F6FF73C0F7FF0800F550E66E49
:102908003E50E66E95EC45F005BE18D05150E66E87
:1029180000017151010D78C072F079C073F0F35065
:102928007227F450732372C0F6FF73C0F7FF0800D4
:10293800F550E66E3E50E66E4AEC4AF000017151E1
:10294800D8B443D005AE1FD05150E66E7151010D79
:1029580078C072F079C073F0F3507227F450732383
:1029680072C0F6FF73C0F7FF0800F5CF74F078C0A7
:10297800F6FF79C0F7FF0800F5507425E66E3E5063
:10298800E66E95EC45F005BE20D05150E66E00018C
:102998007151010D78C072F079C073F0F35072274D
:1029A800F450732372C0F6FF73C0F7FF0800F5CF29
:1029B80074F078C0F6FF79C0F7FF0800F550742569
:1029C800E66E3E50E66E4AEC4AF004A6DDD0000101
:1029D800F205D8A40BD07151010D780EF324F66ED0
:1029E800F30EF420F76E0800F5CF77F0020EF21917
:1029F800D8A40BD07151010D690EF324F66EF30EB5
:102A0800F420F76E0800F5CF77F0030EF219D8A47A
:102A180030D07151D8A411D07151010D78C072F025
:102A280079C073F0F3507227F450732372C0F6FF25
:102A380073C0F7FF0800F5CF77F07151D8B419D0FB
:102A48007151010D78C072F079C073F0F35072279C
:102A5800F450732372C0F6FF73C0F7FF0800F5CF78
:102A680074F078C0F6FF79C0F7FF0800F5507425B8
:102A7800776F05AE24D0D59E77C030F02F50D8B4EC
:102A88000AD0000E03B2010EEFEC4BF002A08DEC61
:102A98002EF0000E2E6E0001F205D8B408D0020EFA
:102AA800F219D8B404D0030EF219D8A403D0775180
:102AB800F4EC34F004A0039A84EC4CF0D58E05AE07
:102AC80004B062D0D59E2F50D8B40AD0000E03B0FF
:102AD800010EEFEC4BF002A08DEC2EF0000E2E6EE6
:102AE8000001F205D8B408D0020EF219D8B404D007
:102AF800030EF219D8A403D077515CEC4BF030C028
:102B080072F00001736B72BF73077751746F756B46
:102B18007251741906E173517519D8A402D0000EC8
:102B28002F6E03BC03AA01D00480F205D8B408D0E4
:102B3800020EF219D8B404D0030EF219D8A407D0A3
:102B480003AE03AA04D0000E2F6E000EEB6F070E23
:102B5800F219D8B40CD0080EF219D8B408D00A0E5D
:102B6800F219D8B404D00B0EF219D8A40AD003AEC7
:102B780002D003AE06D003AA04D0000E2F6E000EBA
:102B8800EB6F84EC4CF0D58E070E0001F219D8A437
:102B980005D071C061F0765103EC2DF0080E0001EC
:102BA800F219D8A405D071C061F0765176EC23F003
:102BB8000A0E0001F219D8A405D071C061F076514F
:102BC80071EC2BF00B0E0001F219D8A4120071C0A1
:102BD80061F07651A7EC24F012000001D8B1DBB700
:102BE8000ED0D0B10CD0000E7A6F000E7B6F058E20
:102BF8007BC071F07A51D7EC13F00001D081D8B5C1
:102C0800DBB70ED0D0B50CD0020E7A6F010E7B6FF9
:102C1800058E7BC071F07A51D7EC13F00001D08596
:102C2800D8B9DBB70ED0D0B90CD0040E7A6F020E2B
:102C38007B6F058E7BC071F07A51D7EC13F00001E1
:102C4800D089D8BBDBB70ED0D0BB0CD0050E7A6FBD
:102C5800030E7B6F058E7BC071F07A51D7EC13F0B1
:102C68000001D08BD8BFDBB70ED0D0BF0CD0070E79
:102C78007A6F040E7B6F058E7BC071F07A51D7ECAA
:102C880013F00001D08FD9B3DBB70ED0D1B30CD07D
:102C9800090E7A6F050E7B6F058E7BC071F07A5135
:102CA800D7EC13F00001D183D9B7DBB70ED0D1B779
:102CB8000CD00B0E7A6F060E7B6F058E7BC071F001
:102CC8007A51D7EC13F00001D187D9B9DBB70ED010
:102CD800D1B90CD00C0E7A6F070E7B6F058E7BC0B6
:102CE80071F07A51D7EC13F00001D189D9BDDBB767
:102CF8000ED0D1BD0CD00E0E7A6F080E7B6F058EEC
:102D08007BC071F07A51D7EC13F00001D18DDAB1A4
:102D1800DBB70ED0D2B10CD0100E7A6F090E7B6FD4
:102D2800058E7BC071F07A51D7EC13F00001D28187
:102D3800DAB3DBB70ED0D2B30CD0110E7A6F0A0E0D
:102D48007B6F058E7BC071F07A51D7EC13F00001D0
:102D5800D283DAB7DBB70ED0D2B70CD0130E7A6FA6
:102D68000B0E7B6F058E7BC071F07A51D7EC13F098
:102D78000001D287DABBDBB70ED0D2BB0CD0150E60
:102D88007A6F0C0E7B6F058E7BC071F07A51D7EC91
:102D980013F00001D28BDABFDBB70ED0D2BF0CD054
:102DA800170E7A6F0D0E7B6F058E7BC071F07A510E
:102DB800D7EC13F00001D28FDBB1DBB70ED0D3B163
:102DC8000CD0180E7A6F0E0E7B6F058E7BC071F0DB
:102DD8007A51D7EC13F00001D381D4B1D8B10ED019
:102DE800D0A10CD0000E7A6F000E7B6F059E7BC0C1
:102DF80071F07A51D7EC13F00001D091D4B5D8B561
:102E08000ED0D0A50CD0020E7A6F010E7B6F059EF6
:102E18007BC071F07A51D7EC13F00001D095D4B98A
:102E2800D8B90ED0D0A90CD0040E7A6F020E7B6FE1
:102E3800059E7BC071F07A51D7EC13F00001D09950
:102E4800D4BBD8BB0ED0D0AB0CD0050E7A6F030E16
:102E58007B6F059E7BC071F07A51D7EC13F00001AF
:102E6800D09BD4BFD8BF0ED0D0AF0CD0070E7A6F8E
:102E7800040E7B6F059E7BC071F07A51D7EC13F07E
:102E88000001D09FD5B3D9B30ED0D1A30CD0090E71
:102E98007A6F050E7B6F059E7BC071F07A51D7EC77
:102EA80013F00001D193D5B7D9B70ED0D1A70CD064
:102EB8000B0E7A6F060E7B6F059E7BC071F07A5100
:102EC800D7EC13F00001D197D5B9D9B90ED0D1A953
:102ED8000CD00C0E7A6F070E7B6F059E7BC071F0CD
:102EE8007A51D7EC13F00001D199D5BDD9BD0ED0D8
:102EF800D1AD0CD00E0E7A6F080E7B6F059E7BC08D
:102F080071F07A51D7EC13F00001D19DD6B1DAB146
:102F18000ED0D2A10CD0100E7A6F090E7B6F059ED1
:102F28007BC071F07A51D7EC13F00001D291D6B37F
:102F3800DAB30ED0D2A30CD0110E7A6F0A0E7B6FC3
:102F4800059E7BC071F07A51D7EC13F00001D29343
:102F5800D6B7DAB70ED0D2A70CD0130E7A6F0B0EF5
:102F68007B6F059E7BC071F07A51D7EC13F000019E
:102F7800D297D6BBDABB0ED0D2AB0CD0150E7A6F77
:102F88000C0E7B6F059E7BC071F07A51D7EC13F065
:102F98000001D29BD6BFDABF0ED0D2AF0CD0170E2D
:102FA8007A6F0D0E7B6F059E7BC071F07A51D7EC5E
:102FB80013F00001D29FD7A11200DBB11200D3A1F8
:102FC8001200000E7A6F0E0E7B6F059E7BC071F0AB
:102FD8007A51D7EC13F00001D3911200000171511E
:102FE800800B7A6F71517125806F70BF808180511D
:102FF800D8B40DD08029D8A408D0000E6E6F000E6A
:103008006F6F000E706F000E716F708F08D0000E1A
:103018006E6F000E6F6F000E706F000E716F75513E
:10302800800B7A1B755175257B6F74BF7B817B5133
:10303800D8B40DD07B29D8A408D0000E726F000E2A
:10304800736F000E746F000E756F748F08D0000ECA
:10305800726F000E736F000E746F000E756F7B51E8
:10306800D8B403D08051D8A409D0000E6E6F000EDA
:103078006F6F000E706F000E716F120074516E0347
:10308800F3CF85F0F4CF86F085517C6F7D6B7E6B36
:103098007F6B8651816F826B836B846B73516F0377
:1030A800F3CF85F0F4CF86F085517C27000E7D2381
:1030B8007E237F2386518127000E82238323842346
:1030C80072517003F3CF85F0F4CF86F085517C27D9
:1030D800000E7D237E237F2386518127000E8223C5
:1030E800832384237EC07FF07DC07EF07CC07DF08A
:1030F8007C6B72516F03F3CF85F0F4CF86F0855166
:103108007C2786517D23000E7E23000E7F2373517A
:103118006E03F3CF85F0F4CF86F085517C27865176
:103128007D23000E7E23000E7F237EC07FF07DC0AE
:103138007EF07CC07DF07C6B72516E03F3CF85F01E
:10314800F4CF86F085517C2786517D23000E7E239F
:10315800000E7F2374516F03F3CF85F0F4CF86F010
:103168008551812786518223000E8323000E8423F4
:1031780073517003F3CF85F0F4CF86F08551812722
:1031880086518223000E8323000E8423745170031A
:10319800F3CF85F0F4CF86F08551766F8651776F3F
:1031A800786B796B78C079F077C078F076C077F073
:1031B800766B765181277751822378518323795111
:1031C80084237CC076F07DC077F07EC078F07FC025
:1031D80079F0190E05D0D890793378337733763370
:1031E800E82EF9D7765181277751822378518323A6
:1031F800795184237EC07FF07DC07EF07CC07DF055
:103208007C6B7B5180C076F0776B7627000E772336
:10321800820E7625856FFF0E7721866F0FD0D890A6
:1032280081378237833784377FBF8181D8907C3755
:103238007D377E377F378507D8A0860783AFEFD7DE
:10324800000E7B6F7FAF16D0FF0E7C15766FFF0EDA
:103258007D15776FFF0E7E15786F7F0E7F15796F5E
:103268007651771178117911D8A402D081A102D0B2
:10327800010E7B6F7B51D8B41FD0010E8127000E41
:1032880082238323842384A117D081C076F082C04F
:1032980077F083C078F084C079F079357933783362
:1032A8007733763376C081F077C082F078C083F0C8
:1032B80079C084F0854B862B86BF0DD0865103E1FB
:1032C8008529D8A008D0000E816F000E826F800E6D
:1032D800836F7F0E20D086BF05D086510EE185050D
:1032E800D8B00BD0000E816F000E826F000E836F76
:1032F800000E846F000E7A6F0FD085C080F0FF0E2D
:103308008117FF0E82177F0E8317000E841780B176
:10331800838FD8908031846F7A51841381C06EF086
:1033280082C06FF083C070F084C071F01200000199
:10333800A751800BB46FA751A725B66FA6BFB6815A
:10334800B651D8B40DD0B629D8A408D0000EA46FB1
:10335800000EA56F000EA66F000EA76FA68F06D0F1
:10336800000EA46F000EA56F000EA66F000EA76FCB
:10337800AB51800BB56FB451B519D8A4B48DAB510E
:10338800AB25B56FAABFB581B551D8B40DD0B52955
:10339800D8A408D0000EA86F000EA96F000EAA6F5F
:1033A800000EAB6FAA8F06D0000EA86F000EA96F93
:1033B800000EAA6F000EAB6FB651B55DD8B022D023
:1033C800B4AD02D0800EB41BB6C0B7F0B5C0B6F02D
:1033D800B7C0B5F0A4C0B7F0A8C0A4F0B7C0A8F0B3
:1033E800A5C0B7F0A9C0A5F0B7C0A9F0A6C0B7F0AE
:1033F800AAC0A6F0B7C0AAF0A7C0B7F0ABC0A7F0A4
:10340800B7C0ABF0000EB76FB651AC6FAD6BAC1F69
:10341800AD1FAC4BAD2BB551AE6FAF6BAC51AE27FA
:10342800AD51AF23AFBF2CD0AF5104E11A0EAE5D42
:10343800D8A026D0A451A511A611A711D8B402D09E
:10344800010E01D0000EB76F000EA46F000EA56F1D
:10345800000EA66F000EA76FB5C0B6F015D0B7A1C5
:1034680005D0D890B7310109B76F02D0D890B733DB
:10347800A4B1B78FA735A733A633A533A433B62B8A
:10348800B551B65DD8A0EBD7B4BD29D0B651D8A4F4
:1034980009D0000EA46F000EA56F000EA66F000ED7
:1034A800A76F1200A851A427A951A523AA51A623A2
:1034B800AB51A723A7A183D0B7A106D0D890B73323
:1034C800B7510109B76F02D0D890B733A4B1B78FFD
:1034D800A735A733A633A533A433B62B70D0A8518C
:1034E800A45DA951A559AA51A659A751800AAC6F44
:1034F800AB51800AAC59D8B036D0A4C0ACF0A5C046
:10350800ADF0A6C0AEF0A7C0AFF0AC1FAD1FAE1FA8
:10351800AF1FAC2B000EAD23AE23AF23A851AC25B3
:10352800B06FA951AD21B16FAA51AE21B26FAB51A5
:10353800AF21B36FFF0EB025A46FFF0EB121A56FA9
:10354800FF0EB221A66FFF0EB321A76F800EB41B2A
:10355800B76DB751D8A40FD0010EA427000EA5232C
:10356800A623A72308D0A851A45FA951A55BAA51F7
:10357800A65BAB51A75BA451A511A611A711D8A4AE
:103588001CD0B751D8A419D0000EA46F000EA56F97
:10359800000EA66F000EA76F1200D890A437A537AB
:1035A800A637A737B7BFA481B7A102D0D88001D06A
:1035B800D890B737B651D8A4B607A6AFEED7000E45
:1035C800B56FB7AF0AD0B7C0ACF07F0EAC17D8A4B0
:1035D80002D0A4A102D0010EB56FB551D8B420D045
:1035E800010EA427000EA523A623A723A7A118D060
:1035F800A4C0ACF0A5C0ADF0A6C0AEF0A7C0AFF0B7
:10360800AF35AF33AE33AD33AC33ACC0A4F0ADC0DF
:10361800A5F0AEC0A6F0AFC0A7F0B629D8A4B62BC7
:10362800B629D8B403D0B651D8A40DD0000EA46FD3
:10363800000EA56F000EA66F000EA76FB651D8A496
:1036480002D0000EB46FB6A102D0A68F01D0A69FFB
:10365800D890B631A76FB4BFA78FA4C0A4F0A5C0F7
:10366800A5F0A6C0A6F0A7C0A7F0120004A644D0F3
:103678000001DBB739A002D074EC4CF00001DBB7D5
:1036880039A202D0F0EC28F00001DBB739A417D03A
:10369800050E3518D8B4CEEC45F0040E3518D8B45C
:1036A8007CEC3CF0010E0001EE6FF80E606F010E2D
:1036B800616FEB0E626FFF0E636F90EC4BF00001D1
:1036C800DBB739A619D0000E02BC010EEFEC4BF0A7
:1036D80002808DEC2EF08FEC4AF0000E2E6E010E5B
:1036E8000001EE6FF80E606F010E616FF50E626FEC
:1036F800FF0E636F90EC4BF0040E0001DB19D8113C
:10370800D911DA11D8A43DD03BC07EF07F6B7EBFC3
:103718007F075050606F616B60BF6107000E636F79
:103728000C0E626F2CEC4CF000017E5160277F512B
:10373800612361BF06D0615124E13D0E605DD8B0C0
:1037480020D004A00ED02F50D8B40BD0000E02BE4B
:10375800010EEFEC4BF002A08DEC2EF00286018EEC
:10376800018C502A5050800A780FD8A002D0070E3A
:10377800506E50500001606F616B60BF6107D0EC04
:103788004CF0020E0001DB19D811D911DA11D8A4B6
:103798003AD03BC07EF07F6B7EBF7F075050606F92
:1037A800616B60BF6107000E636F0C0E626F2CECDB
:1037B8004CF000017E5160277F51612361BF23D007
:1037C800615104E10C0E605DD8A01DD004A00ED09C
:1037D8002F50D8B40BD0000E02BE010EEFEC4BF008
:1037E80002A08DEC2EF00286018E018C500650AEA0
:1037F80002D0000E506E50500001606F616B60BFC8
:103808006107D0EC4CF00C0E0001DB19D811D9116E
:10381800DA11D8A455D03BC07EF07F6B7EBF7F07FE
:103828005050606F616B60BF6107000E636F0C0ED4
:10383800626F2CEC4CF000017E5160277F516123B0
:1038480061BF06D061513CE1480E605DD8B038D008
:1038580004A00ED02F50D8B40BD0000E02BE010E1B
:10386800EFEC4BF002A08DEC2EF00286018E018C5D
:1038780004BA08D03B2A3B50800A730FD8A002D064
:103888000C0E3B6E04AA14D00C0EE66E000EE66E0B
:10389800070E3B263BC07EF000017F6B7EBF7F0793
:1038A8007EC0E6FF7FC0E6FF74EC34F03F503B6E0D
:1038B8003B500001606F616B60BF6107D0EC4CF05A
:1038C8000A0E0001DB19D811D911DA11D8A4120097
:1038D8003BC07EF07F6B7EBF7F075050606F616B8F
:1038E80060BF6107000E636F0C0E626F2CEC4CF02A
:1038F80000017E5160277F51612361BF1200615131
:1039080003E16005D8A0120004A00ED02F50D8B44F
:103918000BD0000E02BE010EEFEC4BF002A08DECB6
:103928002EF00286018E018C04BA08D03B063B506B
:10393800800A8C0FD8B002D0F40E3B6E04AA14D0C3
:103948000C0EE66E000EE66EF90E3B263BC07EF0CE
:1039580000017F6B7EBF7F077EC0E6FF7FC0E6FF6A
:1039680074EC34F03F503B6E3B500001606F616B6C
:1039780060BF6107D0EC4CF01200010179514B187F
:1039880004E17A514C18D8B4B7D03A50D8A466D0CC
:103998004CBE04D04BC077F14CC078F14CAE0CD083
:1039A8004BC007F04CC008F0071E081E074A082A3B
:1039B80007C077F108C078F10A0EE66E000EE66ED1
:1039C800E80EE66E030EE66E77C1E6FF78C1E6FF05
:1039D8009EEC30F03FC0E6FF40C0E6FF74EC34F0E8
:1039E8003F500001CC6F0A0EE66E000EE66E640EC4
:1039F800E66E000EE66E77C1E6FF78C1E6FF9EEC44
:103A080030F03FC0E6FF40C0E6FF74EC34F03F50B2
:103A18000001CD6F0A0EE66E000EE66E0A0EE66E27
:103A2800000EE66E77C1E6FF78C1E6FF9EEC30F047
:103A38003FC0E6FF40C0E6FF74EC34F03F500001A1
:103A4800CE6F0A0EE66E000EE66E77C1E6FF78C10D
:103A5800E6FF74EC34F03F500001CF6F3A04D8A46D
:103A680023D04BC007F04CC008F00C0E096E083488
:103A780008320732092EFBD707500F0B0001CC6F15
:103A88004C500F0BCD6F4BC007F04CC008F0040E24
:103A9800096E083408320732092EFBD707500F0B7E
:103AA800CE6F4B500F0BCF6F020E3A18D8A420D010
:103AB8004B507F0B0A6E4BC007F04CC008F0070E46
:103AC800096E083408320732092EFBD707507F0BDE
:103AD8000B6E0B380F0B070B0001CC6F0B500F0B45
:103AE800CD6F0A380F0B070BCE6F0A500F0BCF6F35
:103AF8004BC079F14CC07AF13A50D8B407D03A04A7
:103B0800D8B404D0020E3A18D8A48BD00001E951D9
:103B1800D8A422D082963A50D8B44CAE0AD0CD510F
:103B2800D8B403D0400E836E828006A015D0838E51
:103B380013D0CC51010D590EF324F66EF30EF42078
:103B4800F76E0800F5CF83FF06B0838ECC51D8A45A
:103B580002D0829001D08280E905D8A424D0829036
:103B6800CD51010D590EF324F66EF30EF420F76EC5
:103B78000800F5CF83FF06B0838ECC51D8A405D0BA
:103B8800CD51D8A402D0829201D082823A50D8B4C2
:103B98004CAE09D0CE51D8B406D0CD51D8A403D05C
:103BA800400E836E8282020EE919D8A427D0829231
:103BB800CE51010D590EF324F66EF30EF420F76E74
:103BC8000800F5CF83FF06B0838ECC51D8A408D067
:103BD800CD51D8A405D0CE51D8A402D0829401D01A
:103BE80082843A50D8B44CAE09D0CF51D8B406D05C
:103BF800CE51D8A403D0400E836E8284030EE919F7
:103C0800D8A40FD08294CF51010D590EF324F66E2B
:103C1800F30EF420F76E0800F5CF83FF06B0838E0D
:103C280082860001E92B030EE9651200000EE96F98
:103C3800120000018A51800B936F8A518A259E6F6A
:103C480089BF9E819E51D8B40DD09E29D8A408D092
:103C5800000E876F000E886F000E896F000E8A6F46
:103C6800898F06D0000E876F000E886F000E896F4F
:103C7800000E8A6F8E51800B931B8E518E259F6F7D
:103C88008DBF9F819F51D8B40DD09F29D8A408D04B
:103C9800000E8B6F000E8C6F000E8D6F000E8E6FF6
:103CA8008D8F06D0000E8B6F000E8C6F000E8D6FFF
:103CB800000E8E6F8B518C118D118E11D8A415D0DA
:103CC800000E876F000E886F000E896F000E8A6FD6
:103CD800800E89137F0E8A1387C087F088C088F00A
:103CE80089C089F08AC08AF012009E51D8A411D0E8
:103CF800000E876F000E886F000E896F000E8A6FA6
:103D080087C087F088C088F089C089F08AC08AF0A7
:103D180012009F518F6F906B8F1F901F8F4B902BAE
:103D28009E51916F926B8F519127905192237F0EE4
:103D38009125986F000E9221996F87C094F088C0E2
:103D480095F089C096F08AC097F0000E876F000E34
:103D5800886F000E896F000E8A6F000E9A6F000E32
:103D68009B6F000E9C6F000E9D6F000E9F6F28D0FA
:103D78009F51D8B411D0D890943795379637973744
:103D8800D8908737883789378A379DBF8781D890F9
:103D98009A379B379C379D378B51945D8C51955939
:103DA8008D5196598E519759D8A009D09D8D8B5118
:103DB800945F8C51955B8D51965B8E51975B9F2BD1
:103DC800190E9F65D5D79451951196119711D8B4AE
:103DD80011D09A810FD0D8908737883789378A379A
:103DE8009DBF8781D8909A379B379C379D37980716
:103DF800D8A0990789AFEFD7000E9F6F9DAF16D057
:103E0800FF0E9A158F6FFF0E9B15906FFF0E9C1576
:103E1800916F7F0E9D15926F8F5190119111921194
:103E2800D8A402D087A102D0010E9F6F9F51D8B4A9
:103E38001FD0010E8727000E882389238A238AA191
:103E480017D087C08FF088C090F089C091F08AC0E1
:103E580092F092359233913390338F338FC087F03D
:103E680090C088F091C089F092C08AF0984B992B45
:103E780099BF10D0995103E19829D8A00BD0000E12
:103E8800996F9869000E876F000E886F000E896F12
:103E9800000E8A6F99BF05D0995111E19805D8B0E5
:103EA8000ED0000E996F000E986F000E876F000EEF
:103EB800886F000E896F000E8A6F000E936F98C08E
:103EC8009EF09EA102D0898F01D0899FD8909E3103
:103ED8008A6F93518A1387C087F088C088F089C099
:103EE80089F08AC08AF012000001D8B3DBB70ED07F
:103EF800D0B30CD0010E776F000E786F058E78C0A6
:103F080071F07751A4EC2AF00001D083D8B7DBB761
:103F18000ED0D0B70CD0030E776F010E786F058ED8
:103F280078C071F07751A4EC2AF00001D087D8BD91
:103F3800DBB70ED0D0BD0CD0060E776F020E786FAF
:103F4800058E78C071F07751A4EC2AF00001D08D6D
:103F5800D9B1DBB70ED0D1B10CD0080E776F030EF4
:103F6800786F058E78C071F07751A4EC2AF00001C3
:103F7800D181D9B5DBB70ED0D1B50CD00A0E776F89
:103F8800040E786F058E78C071F07751A4EC2AF092
:103F98000001D185D9BBDBB70ED0D1BB0CD00D0E3B
:103FA800776F050E786F058E78C071F07751A4ECA5
:103FB8002AF00001D18BD9BFDBB70ED0D1BF0CD00E
:103FC8000F0E776F060E786F058E78C071F07751F7
:103FD800A4EC2AF00001D18FDAB5DBB70ED0D2B548
:103FE8000CD0120E776F070E786F058E78C071F0BF
:103FF8007751A4EC2AF00001D285DAB9DBB70ED0EC
:10400800D2B90CD0140E776F080E786F058E78C071
:1040180071F07751A4EC2AF00001D289DABDDBB740
:104028000ED0D2BD0CD0160E776F090E786F058EA4
:1040380078C071F07751A4EC2AF00001D28DD4B386
:10404800D8B30ED0D0A30CD0010E776F000E786FC6
:10405800059E78C071F07751A4EC2AF00001D09346
:10406800D4B7D8B70ED0D0A70CD0030E776F010EF7
:10407800786F059E78C071F07751A4EC2AF00001A2
:10408800D097D4BDD8BD0ED0D0AD0CD0060E776F6A
:10409800020E786F059E78C071F07751A4EC2AF073
:1040A8000001D09DD5B1D9B10ED0D1A10CD0080E48
:1040B800776F030E786F059E78C071F07751A4EC86
:1040C8002AF00001D191D5B5D9B50ED0D1A50CD023
:1040D8000A0E776F040E786F059E78C071F07751DD
:1040E800A4EC2AF00001D195D5BBD9BB0ED0D1AB39
:1040F8000CD00D0E776F050E786F059E78C071F0A5
:104108007751A4EC2AF00001D19BD5BFD9BF0ED0BE
:10411800D1AF0CD00F0E776F060E786F059E78C062
:1041280071F07751A4EC2AF00001D19FD6B5DAB529
:104138000ED0D2A50CD0120E776F070E786F059EA1
:1041480078C071F07751A4EC2AF00001D295D6B965
:10415800DAB90ED0D2A90CD0140E776F080E786F8A
:10416800059E78C071F07751A4EC2AF00001D2992D
:10417800D6AD1200DABD1200D2AD1200160E776F5E
:10418800090E786F059E78C071F07751A4EC2AF07B
:104198000001D29D12000001686F00016851020DF4
:1041A800200EF324D96E020EF420DA6EDECF4BF027
:1041B800DDCF4CF06851030D880EF324D96E020E42
:1041C800F420DA6E0201DFB088D0000E0001EE6F35
:1041D800000E3A6E6851030D010EF326000EF4220C
:1041E800880EF324D96E020EF420DA6E000EDBBEC0
:1041F8001BD06851030D010EF326000EF422880E21
:10420800F324D96E020EF420DA6EDF50606F685125
:10421800020D200EF324D96E020EF420DA6EDF5060
:10422800616F3E50C9EC48F000016851030D010E62
:10423800F326000EF422880EF324D96E020EF42021
:10424800DA6EDE28D8A40AD06851020D200EF324B5
:10425800D96E020EF420DA6EDF50516E6851030DEC
:10426800010EF326000EF422880EF324D96E020EF6
:10427800F420DA6EFE0EDE18D8A40FD0000E606FA0
:104288006851020D200EF324D96E020EF420DA6E66
:10429800DF50616F3E5026EC4AF000016851030D73
:1042A800010EF326000EF422880EF324D96E020EB6
:1042B800F420DA6EFD0EDE18D8A40FD0010E606F60
:1042C8006851020D200EF324D96E020EF420DA6E26
:1042D800DF50616F3E50C9EC48F000016851030D92
:1042E800880EF324D96E020EF420DA6E0201DFA0E4
:1042F8001200000E0001EE6F020E3A6E6851020DB8
:10430800200EF324D96E020EF420DA6EDF507F0BF4
:10431800666F6851020D200EF324D96E020EF42048
:10432800DA6EDECF63F0DDCF64F0070E656F6435BB
:1043380064336333652FFBD763517F0B676F685115
:10434800030D020EF326000EF422880EF324D96E14
:10435800020EF420DA6E000EDBBE28D06851030D81
:10436800020EF326000EF422880EF324D96E020EF4
:10437800F420DA6EDF50606F67C061F03E50C9EC20
:1043880048F000016851030D020EF326000EF422D6
:10439800880EF324D96E020EF420DA6EDF50200F57
:1043A800606F66C061F03E50C9EC48F0000168518A
:1043B800030D020EF326000EF422880EF324D96EA4
:1043C800020EF420DA6EDE28D8B467C051F06851C6
:1043D800030D020EF326000EF422880EF324D96E84
:1043E800020EF420DA6EFE0EDE18D8A407D066C0DE
:1043F80060F067C061F03E5026EC4AF00001685159
:10440800030D020EF326000EF422880EF324D96E53
:10441800020EF420DA6EFD0EDE18D8A41200010E8A
:10442800606F67C061F03E50C9EC48F0210E000192
:10443800606F66C061F03E50C9EC48F012000001A0
:10444800D80509E1080EDB19D911DA11D8A403D06F
:10445800F40EEA6F0184020ED81909E1080EDB197F
:10446800D911DA11D8A403D0F50EEA6F0184040E2D
:10447800D81909E1080EDB19D911DA11D8A403D02B
:10448800F60EEA6F0184080ED81909E1080EDB1947
:10449800D911DA11D8A403D0F70EEA6F0184100EEF
:1044A800D81909E1080EDB19D911DA11D8A403D0FB
:1044B800F80EEA6F0184200ED81909E1080EDB19FD
:1044C800D911DA11D8A403D0F90EEA6F0184400E8D
:1044D800D81909E1080EDB19D911DA11D8A403D0CB
:1044E800FA0EEA6F0184800ED81909E1080EDB196B
:1044F800D911DA11D8A403D0FB0EEA6F0184D905CB
:1045080009E1080EDB19D811DA11D8A403D0FC0E82
:10451800EA6F0184020ED91909E1080EDB19D811D6
:10452800DA11D8A403D0FD0EEA6F0184040ED9195C
:1045380009E1080EDB19D811DA11D8A403D0FE0E50
:10454800EA6F0184080ED91908E1080EDB19D811A1
:10455800DA11D8A402D0EA690184100ED91909E148
:10456800080EDB19D811DA11D8A403D0000EEA6FAF
:104578000184200ED91909E1080EDB19D811DA11C6
:10458800D8A403D0010EEA6F0184400ED91909E1BD
:10459800080EDB19D811DA11D8A403D0020EEA6F7D
:1045A8000184800ED91909E1080EDB19D811DA1136
:1045B800D8A403D0030EEA6F0184DA0509E1080ED6
:1045C800DB19D811D911D8A403D0040EEA6F0184DD
:1045D800020EDA1909E1080EDB19D811D911D8A48D
:1045E80003D0050EEA6F0184040EDA1909E1080EFA
:1045F800DB19D811D911D8A403D0060EEA6F0184AB
:10460800080EDA1909E1080EDB19D811D911D8A456
:1046180003D0070EEA6F0184100EDA1909E1080EBB
:10462800DB19D811D911D8A403D0080EEA6F018478
:10463800200EDA1909E1080EDB19D811D911D8A40E
:1046480003D0090EEA6F0184400EDA1909E1080E59
:10465800DB19D811D911D8A403D00A0EEA6F018446
:10466800800EDA1909E1080EDB19D811D911D8A47E
:1046780003D00B0EEA6F0184090EDB19D811D9118A
:10468800DA11D8A403D00C0EEA6F018401A4120039
:1046980004A00ED02F50D8B40BD0000E02BE010ECD
:1046A800EFEC4BF002A08DEC2EF00286018E018C0F
:1046B8000001EA51800A730FD8A002D00C0EEA6FED
:1046C800EA51800A8C0FD8B002D0F40EEA6FEAC023
:1046D8003BF03B50606F616B60BF6107D0EC4CF002
:1046E800019412000001666F04B68FD0000E00011D
:1046F800676F020E676501D088D06751D8A427D0AC
:1047080005AE11D05150E66E6151030DE30EF3244E
:10471800F66EF20EF420F76E0800F550E66E3E5085
:10472800E66E95EC45F005BE12D05150E66E0001DC
:104738006151030DE30EF324F66EF20EF420F76ECA
:104748000800F550E66E3E50E66E4AEC4AF000016D
:104758006751D8B457D005AE29D05150E66E615193
:10476800030DE30E626FF20E636FF3506227F4508D
:1047780063236751010DF3506227F450632362C02D
:10478800F6FF63C0F7FF0800F5CF64F06151030D31
:10479800E30EF324F66EF20EF420F76E0800F550DF
:1047A8006425E66E3E50E66E95EC45F005BE2AD0CF
:1047B8005150E66E00016151030DE30E626FF20E77
:1047C800636FF3506227F45063236751010DF35070
:1047D8006227F450632362C0F6FF63C0F7FF080046
:1047E800F5CF64F06151030DE30EF324F66EF20E7B
:1047F800F420F76E0800F5506425E66E3E50E66E2C
:104808004AEC4AF00001672B74D704A6120005AEE3
:1048180065D0D59E66C030F02F50D8B40AD0000EAF
:1048280003B2010EEFEC4BF002A08DEC2EF0000E5F
:104838002E6E000E0001686F020E686501D046D02A
:104848006851D8A413D06151030DE30EF324F66E1A
:10485800F20EF420F76E6851010D820EF324D96E22
:10486800010EF420DA6E0800F5CFDFFF6851D8B4E6
:104878002BD06851010D820EF324D96E010EF4205D
:10488800DA6E6151030DE30E626FF20E636FF3503F
:104898006227F45063236851010DF3506227F450E6
:1048A800632362C0F6FF63C0F7FF0800F5CF64F02A
:1048B8006151030DE30EF324F66EF20EF420F76E49
:1048C8000800F5506425DF6E682BB6D7030E2F6EEF
:1048D80004A0039A84EC4CF0D58E120005BE120099
:1048E80004B012002F50D8B40AD0000E03B0010E45
:1048F800EFEC4BF002A08DEC2EF0000E2E6E30C0C7
:1049080062F00001636B62BF63076651646F656B99
:104918006251641906E163516519D8A402D0000EEA
:104928002F6E03BC03AA01D0048003AE02D003AEED
:1049380006D003AA04D0000E2F6E000EEB6F84EC95
:104948004CF0D58E12000001666F04B68FD0000EB1
:104958000001676F030E676501D088D06751D8A43E
:1049680027D005AE11D05150E66E6151040D6B0E83
:10497800F324F66EF20EF420F76E0800F550E66E9A
:104988003E50E66E95EC45F005BE12D05150E66EED
:1049980000016151040D6B0EF324F66EF20EF42043
:1049A800F76E0800F550E66E3E50E66E4AEC4AF0A7
:1049B80000016751D8B457D005AE29D05150E66EE2
:1049C8006151040D6B0E626FF20E636FF350622734
:1049D800F45063236751010DF3506227F4506323A9
:1049E80062C0F6FF63C0F7FF0800F5CF64F06151BD
:1049F800040D6B0EF324F66EF20EF420F76E080029
:104A0800F5506425E66E3E50E66E95EC45F005BE21
:104A18002AD05150E66E00016151040D6B0E626F91
:104A2800F20E636FF3506227F45063236751010D50
:104A3800F3506227F450632362C0F6FF63C0F7FFA8
:104A48000800F5CF64F06151040D6B0EF324F66E87
:104A5800F20EF420F76E0800F5506425E66E3E501D
:104A6800E66E4AEC4AF00001672B74D704A61200E0
:104A780005AE64D0D59E66C030F02F50D8B40AD0A9
:104A8800000E03B2010EEFEC4BF002A08DEC2EF0FD
:104A9800000E2E6E000E0001686F030E686501D0CF
:104AA80046D06851D8A413D06151040D6B0EF3247D
:104AB800F66EF20EF420F76E6851010D820EF324A3
:104AC800D96E010EF420DA6E0800F5CFDFFF6851C9
:104AD800D8B42BD06851010D820EF324D96E010E83
:104AE800F420DA6E6151040D6B0E626FF20E636F83
:104AF800F3506227F45063236851010DF350622785
:104B0800F450632362C0F6FF63C0F7FF0800F5CFD7
:104B180064F06151040D6B0EF324F66EF20EF4206E
:104B2800F76E0800F5506425DF6E682BB6D7040EC3
:104B38002F6E04A0039A84EC4CF0D58E05BE1200AB
:104B480004B012002F50D8B40AD0000E03B0010EE2
:104B5800EFEC4BF002A08DEC2EF0000E2E6E30C064
:104B680062F00001636B62BF63076651646F656B37
:104B78006251641906E163516519D8A402D0000E88
:104B88002F6E03BC03AA01D0048003AE02D003AE8B
:104B980006D003AA04D0000E2F6E000EEB6F84EC33
:104BA8004CF0D58E12000101E46F000E0101E36F95
:104BB800000EE26FE405D8A404D0000EE36F800E67
:104BC800E26F020EE419D8A404D0010EE36F000EC0
:104BD800E26F030EE419D8A404D0010EE36F800E2F
:104BE800E26F040EE419D8A404D0020EE36F000E9D
:104BF800E26F000EE66F000EE56FE6511CE117D07C
:104C0800970EE525D96E010EE621DA6EE251E5250B
:104C18000001606F0101E351E6210001616F93EC2F
:104C28004CF0DF6E0101E54BE62BE65104E14B0E3B
:104C3800E55DD8A0E5D797C1F2F098C1F1F099C128
:104C4800F0F09AC1EFF09BA102D0048A01D0049A37
:104C580001019CA102D0018801D0019801019DA108
:104C680002D0018601D001969EC1E7F19FC1E8F10B
:104C7800A0C1E9F1A1C1EAF1A2C1EBF1A3C1ECF134
:104C8800A4C1EDF1A5C1EEF1A6C1F5F0A7C1F6F0FA
:104C9800A8C1F7F0A9C1F8F0AAC1F9F0ABC1FAF0C0
:104CA800ACC1FBF0ADC1FCF00101AEA102D0058A98
:104CB80001D0059AAFC189F2B0C18AF2B1C18CF2B4
:104CC800B2C18DF2B3C18FF2B4C190F2B5C192F204
:104CD800B6C193F2B7C195F2B8C196F2B9C198F2CC
:104CE800BAC199F2BBC19BF2BCC19CF2BDC19EF294
:104CF800BEC19FF2BFC1A1F2C0C1A2F2C1C1A4F25C
:104D0800C2C1A5F2C3C1A7F2C4C1A8F2C5C1AAF223
:104D1800C6C1ABF2C7C1ADF2C8C1AEF2C9C1B0F2EB
:104D2800CAC1B1F2CBC1B3F2CCC1B4F2CDC1B6F2B3
:104D3800CEC1B7F2CFC13EF0D0C152F0D1C150F0D0
:104D4800D2C13BF0D3C1F3F00101D4A102D0048653
:104D580001D00496D5C1FFF041EC2FF0C2C07BF121
:104D6800C3C07CF1D6C14EF0D7C135F0D8C14DF0E3
:104D78000101D9A102D0048001D0049004B0038AB3
:104D88000101DAA102D0038C01D0039C0101DBA14F
:104D980002D0038E01D0039E0101DCA102D003885A
:104DA80001D003980101DDA102D0038601D003964A
:104DB8000101DEA102D0038201D003920101DFA12B
:104DC80002D0038001D003900101E0A102D0028E3D
:104DD80001D0029E0101E1A102D0028C1200029CC6
:104DE8001200230E0001676F010E686F3CD06851F6
:104DF800030D010EF326000EF422000EF324D96EE3
:104E0800030EF420DA6EFF0E6825606F616BFF0EEB
:104E18006123000E636F030E626F2CEC4CF0000EE2
:104E280000016025E96E030E6121EA6EEF50666F9E
:104E3800FF0E6825606F616BFF0E6123000E636FC4
:104E4800030E626F2CEC4CF0010E00016027000E7F
:104E58006123000E6025E96E030E6121EA6EEF50B2
:104E68006625DF6E682B6751685DD8A0C0D700C380
:104E780074F101C375F102C376F103C3E5F004C30D
:104E8800E6F005C3E7F006C371F107C372F108C382
:104E980073F109C36EF10AC36FF10BC370F10CC350
:104EA8006BF10DC36CF10EC36DF10FC368F110C344
:104EB80069F111C36AF112C365F113C366F114C332
:104EC80067F115C362F116C363F117C364F118C320
:104ED8005FF119C360F11AC361F11BC35CF11CC314
:104EE8005DF11DC35EF11EC359F11FC35AF120C302
:104EF8005BF121C356F122C357F123C358F124C3F0
:104F080050F125C351F126C352F127C34DF128C3EF
:104F18004EF129C34FF12AC34AF12BC34BF12CC3DD
:104F28004CF12DC347F12EC348F12FC349F130C3CB
:104F38003BF131C33CF132C33DF133C3E2F034C33A
:104F4800E3F035C3E4F036C338F137C339F138C379
:104F58003AF139C3DFF03AC3E0F03BC3E1F03CC3B8
:104F680035F13DC336F13EC337F13FC32CF140C3A1
:104F78002DF141C32EF142C329F143C32AF144C3A1
:104F88002BF145C326F146C327F147C328F148C38F
:104F980023F149C324F14AC325F14BC320F14CC383
:104FA80021F14DC322F14EC31DF14FC31EF150C371
:104FB8001FF151C31AF152C31BF153C31CF154C35F
:104FC80017F155C318F156C319F157C314F158C353
:104FD80015F159C316F15AC3DCF05BC3DDF05CC3AD
:104FE800DEF012000001B16F000E0001B06F000E7C
:104FF800AF6FB105D8A404D0000EB06F800EAF6FAC
:10500800020EB119D8A404D0010EB06F000EAF6F14
:10501800030EB119D8A404D0010EB06F800EAF6F83
:10502800040EB119D8A404D0020EB06F000EAF6FF1
:10503800F2C064F0F1C065F0F0C066F0EFC067F050
:10504800000E04BA010E686F000E01B8010E696FF8
:10505800000E01B6010E6A6FE7C16BF0E8C16CF093
:10506800E9C16DF0EAC16EF0EBC16FF0ECC170F010
:10507800EDC171F0EEC172F0F5C073F0F6C074F0D6
:10508800F7C075F0F8C076F0F9C077F0FAC078F09C
:10509800FBC079F0FCC07AF0000E05BA010E7B6FF8
:1050A80089C27CF08AC27DF08CC27EF08DC27FF00E
:1050B8008FC280F090C281F092C282F093C283F0D6
:1050C80095C284F096C285F098C286F099C287F09E
:1050D8009BC288F09CC289F09EC28AF09FC28BF066
:1050E800A1C28CF0A2C28DF0A4C28EF0A5C28FF02E
:1050F800A7C290F0A8C291F0AAC292F0ABC293F0F6
:10510800ADC294F0AEC295F0B0C296F0B1C297F0BD
:10511800B3C298F0B4C299F0B6C29AF0B7C29BF085
:105128003EC09CF052C09DF050C09EF03BC09FF026
:10513800F3C0A0F0000E04B6010EA16FFFC0A2F0EC
:105148004EC0A3F035C0A4F04DC0A5F0000E04B0C9
:10515800010EA66F000E03BC010EA76F000E03BE62
:10516800010EA86F000E03B8010EA96F000E03B65A
:10517800010EAA6F000E03B2010EAB6F000E03B052
:10518800010EAC6F000E02BE010EAD6F000E02BC28
:10519800010EAE6F000EB36F000EB26FB3511BE17C
:1051A8004B0EB25DD8B01200FCEC4CF00001AF51D0
:1051B800B225606FB051B321616F640EB225D96E0C
:1051C800000EB321DA6EDF50626F6EEC4AF0000118
:1051D800B24BB32BE3D712000490059E2F50D8B4DE
:1051E8007FD0190E306E0001F251D8B408D0060EE7
:1051F800F219D8B404D0090EF219D8A43DD0060E7D
:105208003518D8B409D0050E3518D8B405D0040E11
:105218003518D8B401B205D001018251F2EC33F04F
:1052280001823550D8B405D0020E3518D8B401B271
:1052380005D002017851F2EC33F001823504D8B47C
:1052480005D0030E3518D8B401B216D0FF0E0001F0
:105258007A6FFF0E7B6F2F507C6F7D6B7A517C27A6
:105268007B517D23780E7C25D96E020E7D21DA6E66
:10527800DF50F2EC33F001820001F205D8B419D006
:10528800020EF219D8B415D0030EF219D8B411D001
:10529800070EF219D8B40DD0080EF219D8B409D0F7
:1052A8000A0EF219D8B405D00B0EF219D8B401B20F
:1052B80006D0000E716F000ED7EC13F00182040EB9
:1052C8000001F219D8B405D0050EF219D8B401B20C
:1052D80006D0000E716F000EA4EC2AF00182019234
:1052E80003BE03AA10D0010E2F640DD0010E0001D9
:1052F800EE6FF80E606F010E616FE10E626FFF0EC8
:10530800636F90EC4BF003AE10D02F04D8A40DD0EF
:10531800010E0001EE6FF80E606F010E616FFA0E5C
:10532800626FFF0E636F90EC4BF003BC03AA18D0BA
:1053380003AE02D003AE14D02F50D8A411D0000E63
:105348002F6E000E0001EB6F010EEE6FF80E606F0E
:10535800010E616FF00E626FFF0E636F90EC4BF001
:1053680004B0120003AE02D003AE12002F50D8A42E
:105378001200000E2F6E000E0001EB6F010EEE6F93
:10538800F80E606F010E616FDC0E626FFF0E636FC7
:1053980090EC4BF012000600E9CF13F0EACF14F0BE
:1053A800E1CF15F0E2CF16F0D9CF17F0DACF18F029
:1053B800F3CF19F0F4CF1AF0F6CF1BF0F7CF1CF0AB
:1053C800F8CF1DF0F5CF1EF03FC01FF040C020F011
:1053D80041C021F042C022F043C023F044C024F071
:1053E80045C025F046C026F048C027F049C028F03F
:1053F8004AC029F016EEB2F09EA205D0B9EC4CF0E6
:10540800830ECC6E9E929EA00CD0010E02016427E2
:10541800000E652366236723EC0ECF6E780ECE6EE2
:105428009E90F2A20BD0410E126EEE0EE82EFED721
:10543800122EFCD700D081A00582F292F2A003D0F0
:105448003AEC43F0F290F2A44CD0F29A02BA2DD082
:105458004D50E66E2E50E66E63EC41F03F50D8A4F6
:1054680024D0060E3518D8B40DD03550D8B40AD08B
:105478003504D8B407D0020E3518D8B403D0030EBB
:105488003518D8B432C031F00684CCEC08F0069454
:1054980002980296019E019C050E3518D8B403D0D7
:1054A800040E3518D8B432C031F003B402AA0CD0B7
:1054B8004D50E66E2E50E66E63EC41F03F50D8A496
:1054C80003D0029A4DC02EF02E2A4D502E5CD8A043
:1054D80002D0000E2E6E7BC1D6FF7CC1D7FFF2949E
:1054E800F28A29C04AF028C049F027C048F026C0EF
:1054F80046F025C045F024C044F023C043F022C044
:1055080042F021C041F020C040F01FC03FF01EC053
:10551800F5FF1DC0F8FF1CC0F7FF1BC0F6FF1AC03F
:10552800F4FF19C0F3FF18C0DAFF17C0D9FF16C07F
:10553800E2FF15C0E1FF14C0EAFF13C0E9FF110044
:1055480004B658D0040E0001F219D8A427D005AE2D
:1055580011D05150E66E7151010D920EF324F66E82
:10556800F30EF420F76E0800F550E66E3E50E66E36
:1055780095EC45F005BE12D05150E66E0001715110
:10558800010D920EF324F66EF30EF420F76E080068
:10559800F550E66E3E50E66E4AEC4AF0050E000104
:1055A800F219D8A427D005AE11D05150E66E71512A
:1055B800010D870EF324F66EF30EF420F76E080043
:1055C800F550E66E3E50E66E95EC45F005BE12D0FD
:1055D8005150E66E00017151010D870EF324F66EED
:1055E800F30EF420F76E0800F550E66E3E50E66EB6
:1055F8004AEC4AF004A61200040E0001F219D8A4DD
:105608000BD07151010D920EF324F66EF30EF420B7
:10561800F76E0800F5CF76F0050EF219D8A40BD076
:105628007151010D870EF324F66EF30EF420F76E18
:105638000800F5CF76F005AE19D0D59E76C030F0CB
:105648002F50D8B40AD0000E03B2010EEFEC4BF085
:1056580002A08DEC2EF0000E2E6E00017651F4ECB7
:1056680034F004A0039A84EC4CF0D58E05BE1200E9
:1056780004B01200D59E2F50D8B40AD0000E03B043
:10568800010EEFEC4BF002A08DEC2EF0000E2E6E0A
:10569800000176515CEC4BF030C072F00001736B86
:1056A80072BF73077651746F756B7251741906E186
:1056B80073517519D8A402D0000E2F6E03BC03AA2B
:1056C80001D0048003AE03AA04D0000E2F6E000E92
:1056D800EB6F84EC4CF0D58E12000001686F04B6B5
:1056E8004BD0000E0001666F030E666501D044D0F2
:1056F80005AE1ED05150E66E6151040DA70E626FC3
:10570800F20E636FF3506227F45063236651010D64
:10571800F3506227F450632362C0F6FF63C0F7FFBB
:105728000800F5506825E66E3E50E66E95EC45F0AB
:1057380005BE1FD05150E66E00016151040DA70E41
:10574800626FF20E636FF3506227F4506323665161
:10575800010DF3506227F450632362C0F6FF63C063
:10576800F7FF0800F5506825E66E3E50E66E4AECF5
:105778004AF00001662BB8D704A6120005AE41D046
:10578800D59E68C030F02F50D8B40AD0000E03B2AE
:10579800010EEFEC4BF002A08DEC2EF0000E2E6EF9
:1057A800000E0001676F030E676501D022D06751B4
:1057B800010D820EF324D96E010EF420DA6E6151C8
:1057C800040DA70E626FF20E636FF3506227F45058
:1057D80063236751010DF3506227F450632362C0BD
:1057E800F6FF63C0F7FF0800F5506825DF6E672BEA
:1057F800DAD7040E2F6E04A0039A84EC4CF0D58EF1
:10580800120005BE120004B012002F50D8B40AD0FE
:10581800000E03B0010EEFEC4BF002A08DEC2EF061
:10582800000E2E6E30C062F00001636B62BF63072A
:105838006851646F656B6251641906E163516519BB
:10584800D8A402D0000E2F6E03BC03AA01D0048096
:1058580003AE02D003AE06D003AA04D0000E2F6E0A
:10586800000EEB6F84EC4CF0D58E12000001696FCE
:1058780016D0D80E0001656F020E0FD0D40E656FDA
:10588800020E0BD0D00E656F020E07D0CC0E656FDE
:10589800020E03D0C80E656F020E666F11D00001AC
:1058A800EF51000AD8B4E5D7010AD8B4E7D7030AFC
:1058B800D8B4E8D7010AD8B4E9D7070AD8B4EAD7E0
:1058C80004B630D0000E676F030E676501D02AD08A
:1058D80005AE11D05150E66E6751010DF3506525A4
:1058E800D96EF4506621DA6EDF506925E66E3E50B7
:1058F800E66E95EC45F005BE12D05150E66E0001FB
:105908006751010DF3506525D96EF4506621DA6EA2
:10591800DF506925E66E3E50E66E4AEC4AF000011B
:10592800672BD2D704A6120005AE34D0D59E69C025
:1059380030F02F50D8B40AD0000E03B2010EEFECAD
:105948004BF002A08DEC2EF0000E2E6E000E000122
:10595800686F030E686501D015D06851010D820E7D
:10596800F324D96E010EF420DA6E6851010DF3505C
:105978006525E96EF4506621EA6EEF506925DF6E01
:10598800682BE7D7040E2F6E04A0039A84EC4CF022
:10599800D58E120005BE120004B012002F50D8B4E4
:1059A8000AD0000E03B0010EEFEC4BF002A08DEC14
:1059B8002EF0000E2E6E30C061F00001626B61BFE8
:1059C80062076951636F646B6151631906E1625143
:1059D8006419D8A402D0000E2F6E03BC03AA01D00C
:1059E800048003AE02D003AE06D003AA04D0000E92
:1059F8002F6E000EEB6F84EC4CF0D58E1200000178
:105A0800686F04B64BD0000E0001666F020E666523
:105A180001D044D005AE1ED05150E66E6151030D41
:105A2800100E626FF30E636FF3506227F450632316
:105A38006651010DF3506227F450632362C0F6FFEC
:105A480063C0F7FF0800F5506825E66E3E50E66E25
:105A580095EC45F005BE1FD05150E66E000161512E
:105A6800030D100E626FF30E636FF3506227F4504C
:105A780063236651010DF3506227F450632362C01B
:105A8800F6FF63C0F7FF0800F5506825E66E3E5044
:105A9800E66E4AEC4AF00001662BB8D704A612005D
:105AA80005AE40D0D59E68C030F02F50D8B40AD08B
:105AB800000E03B2010EEFEC4BF002A08DEC2EF0BD
:105AC800000E2E6E000E0001676F020E676501D092
:105AD80022D06751010D820EF324D96E010EF420F5
