:0400000006EF00F017
:1000080038ED2AF013EED9F077EF36F00001E5511C
:10001800D8B41200100EE519D8A4B8D305920590EB
:10002800020E4D18D8A41ED0FF0E606FFF0E616F30
:10003800010174510001626F636B60516227615165
:100048006323010176510001646F656B6251645D41
:100058006551800A666F6351800A6659D8B002D02C
:100068000101762B030E4D18D8A419D0FF0E0001FC
:10007800606FFF0E616FD851626F636B60516227CA
:1000880061516323DA51646F656B6251645D655138
:10009800800A666F6351800A6659D8A0DA2B040E6D
:1000A8004D18D8A41FD0FF0E0001606FFF0E616FBE
:1000B800010168510001626F636B605162276151F1
:1000C800632301016A510001646F656B6251645DCD
:1000D8006551800A666F6351800A6659D8B002D0AC
:1000E80001016A2B050E4D18D8A41FD0FF0E000180
:1000F800606FFF0E616F010165510001626F636BF4
:100108006051622761516323010167510001646FE7
:10011800656B6251645D6551800A666F6351800A40
:100128006659D8B002D00101672B060E4D18D8A425
:100138001FD0FF0E0001606FFF0E616F0101595162
:100148000001626F636B6051622761516323010193
:100158005B510001646F656B6251645D6551800A93
:10016800666F6351800A6659D8B002D001015B2BD3
:10017800070E4D18D8A41FD0FF0E0001606FFF0EA8
:10018800616F010147510001626F636B6051622723
:1001980061516323010149510001646F656B62512C
:1001A800645D6551800A666F6351800A6659D8B0EC
:1001B80002D00101492B090E4D18D8A41FD0FF0EFB
:1001C8000001606FFF0E616F010171510001626FE4
:1001D800636B605162276151632301017351000110
:1001E800646F656B6251645D6551800A666F635127
:1001F800800A6659D8B002D00101732B0A0E4D1837
:10020800D8A41FD0FF0E0001606FFF0E616F0101BF
:100218006E510001626F636B605162276151632305
:10022800010170510001646F656B6251645D655135
:10023800800A666F6351800A6659D8B002D00101FE
:10024800702B0B0E4D18D8A41FD0FF0E0001606F45
:10025800FF0E616F01016B510001626F636B6051AA
:1002680062276151632301016D510001646F656B61
:100278006251645D6551800A666F6351800A6659F0
:10028800D8B002D001016D2B0C0E4D18D8A41FD088
:10029800FF0E0001606FFF0E616F010162510001E6
:1002A800626F636B6051622761516323010164517E
:1002B8000001646F656B6251645D6551800A666F09
:1002C8006351800A6659D8B002D00101642B0D0E23
:1002D8004D18D8A41FD0FF0E0001606FFF0E616F8C
:1002E80001015F510001626F636B605162276151C8
:1002F8006323010161510001646F656B6251645DA4
:100308006551800A666F6351800A6659D8B002D079
:100318000101612B0E0E4D18D8A41FD0FF0E00014D
:10032800606FFF0E616F01015C510001626F636BCA
:10033800605162276151632301015E510001646FBE
:10034800656B6251645D6551800A666F6351800A0E
:100358006659D8B002D001015E2B0F0E4D18D8A4F3
:100368001FD0FF0E0001606FFF0E616F0101565133
:100378000001626F636B6051622761516323010161
:1003880058510001646F656B6251645D6551800A64
:10039800666F6351800A6659D8B002D00101582BA4
:1003A800180E4D18D8A406D001013A51D8A402D08D
:1003B800010E3A6F100E4D18D8A406D0560E010142
:1003C800556102D0050E5527110E4D18D8A41FD01F
:1003D800FF0E0001606FFF0E616F010150510001B7
:1003E800626F636B6051622761516323010152514F
:1003F8000001646F656B6251645D6551800A666FC8
:100408006351800A6659D8B002D00101522B120EEE
:100418004D18D8A41FD0FF0E0001606FFF0E616F4A
:1004280001014D510001626F636B60516227615198
:10043800632301014F510001646F656B6251645D74
:100448006551800A666F6351800A6659D8B002D038
:1004580001014F2B080E4D18D8A405D07F0E0101BD
:10046800466101D0462B140E4D18D8A405D00F0EA6
:100478000101436101D0432B150E4D18D8A405D0B6
:100488000F0E0101406101D0402B130E4D18D8A466
:100498001FD0FF0E0001606FFF0E616F01014A510E
:1004A8000001626F636B6051622761516323010130
:1004B8004C510001646F656B6251645D6551800A3F
:1004C800666F6351800A6659D8B002D001014C2B7F
:1004D800160E4D18D8A41FD0FF0E0001606FFF0E36
:1004E800616F01013B510001626F636B60516227CC
:1004F8006151632301013D510001646F656B6251D5
:10050800645D6551800A666F6351800A6659D8B088
:1005180002D001013D2B170E4D18D8A419D0FF0E9B
:100528000001606FFF0E616FD551626F636B6051A0
:10053800622761516323D751646F656B6251645DB3
:100548006551800A666F6351800A6659D8A0D72B17
:10055800190E4D18D8A419D0FF0E0001606FFF0EB8
:10056800616FD251626F636B60516227615163237F
:10057800D451646F656B6251645D6551800A666F22
:100588006351800A6659D8A0D42B1A0E4D18D8A4E6
:1005980003D0010E0101371B1B0E4D18D8A405D03E
:1005A800FA0E0101346101D0342B1C0E4D18D8A469
:1005B80005D0040E0101316101D0312B1D0E4D18FB
:1005C800D8A41FD0FF0E0001606FFF0E616F0101FC
:1005D8002C510001626F636B605162276151632384
:1005E80001012E510001646F656B6251645D6551B4
:1005F800800A666F6351800A6659D8B002D001013B
:100608002E2B1E0E4D18D8A41FD0FF0E0001606FB0
:10061800FF0E616F010129510001626F636B605128
:1006280062276151632301012B510001646F656BDF
:100638006251645D6551800A666F6351800A66592C
:10064800D8B002D001012B2B1F0E4D18D8A41FD0F3
:10065800FF0E0001606FFF0E616F0101265100015E
:10066800626F636B605162276151632301012851F6
:100678000001646F656B6251645D6551800A666F45
:100688006351800A6659D8B002D00101282B200E88
:100698004D18D8A403D0010E0101251B210E4D18B9
:1006A800D8A403D0010E0101221B220E4D18D8A494
:1006B80003D0010E01011F1B230E4D18D8A41FD013
:1006C800FF0E0001606FFF0E616F01011A510001FA
:1006D800626F636B605162276151632301011C5192
:1006E8000001646F656B6251645D6551800A666FD5
:1006F8006351800A6659D8B002D001011C2B240E20
:100708004D18D8A403D0010E0101191B250E4D1850
:10071800D8A403D0010E0101161B260E4D18D8A42B
:1007280019D0FF0E0001606FFF0E616FCF51626F2D
:10073800636B6051622761516323D151646F656BAC
:100748006251645D6551800A666F6351800A66591B
:10075800D8A0D12B270E4D18D8A403D0010E010123
:10076800131B280E4D18D8A403D0010E0101101B2D
:10077800290E4D18D8A403D0010E01010D1B2A0E15
:100788004D18D8A403D0010E01010A1B200E000148
:10079800E519D8A447D105920590020E4D18D8A4A2
:1007A80004D001017651D8A47607030E4D18D8A4B9
:1007B80004D00001DA51D8A4DA07040E4D18D8A4E1
:1007C80004D001016A51D8A46A07050E4D18D8A4AF
:1007D80004D001016751D8A46707060E4D18D8A4A4
:1007E80004D001015B51D8A45B07070E4D18D8A4AB
:1007F80004D001014951D8A44907090E4D18D8A4BD
:1008080004D001017351D8A473070A0E4D18D8A457
:1008180004D001017051D8A470070B0E4D18D8A44C
:1008280004D001016D51D8A46D070C0E4D18D8A441
:1008380004D001016451D8A464070D0E4D18D8A442
:1008480004D001016151D8A461070E0E4D18D8A437
:1008580004D001015E51D8A45E070F0E4D18D8A42C
:1008680004D001015851D8A45807180E4D18D8A41F
:1008780006D001013A05D8A402D0000E3A6F100E36
:100888004D18D8A406D00E0E0101556502D0050EEC
:10089800555F110E4D18D8A402D001015207120E4F
:1008A8004D18D8A402D001014F07080E4D18D8A43E
:1008B80004D001014651D8A44607140E4D18D8A4F7
:1008C80004D001014351D8A44307150E4D18D8A4EC
:1008D80004D001014051D8A44007130E4D18D8A4E4
:1008E80002D001014C07160E4D18D8A404D00101FE
:1008F8003D51D8A43D07170E4D18D8A404D00001C7
:10090800D751D8A4D707190E4D18D8A404D0000180
:10091800D451D8A4D4071A0E4D18D8A403D0010E68
:100928000101371B1B0E4D18D8A405D0190E010163
:10093800346501D034071C0E4D18D8A405D0010E1B
:100948000101316501D031071D0E4D18D8A404D01E
:1009580001012E51D8A42E071E0E4D18D8A404D07C
:1009680001012B51D8A42B071F0E4D18D8A404D071
:1009780001012851D8A42807200E4D18D8A403D067
:10098800010E0101251B210E4D18D8A403D0010E1C
:100998000101221B220E4D18D8A403D0010E01011B
:1009A8001F1B230E4D18D8A404D001011C51D8A434
:1009B8001C07240E4D18D8A403D0010E0101191BE1
:1009C800250E4D18D8A403D0010E0101161B260EC2
:1009D8004D18D8A404D00001D151D8A4D107270EAE
:1009E8004D18D8A403D0010E0101131B280E4D1871
:1009F800D8A403D0010E0101101B290E4D18D8A44C
:100A080003D0010E01010D1B290E4D18D8A403D0E7
:100A1800010E01010D1B2A0E4D18D8A403D0010E9A
:100A280001010A1B000E0001E56F1200000E010112
:100A3800B36F0F0EB36501D05AD0B3519CEC43F09D
:100A48000101B351020DB90EF324D96E030EF4203F
:100A5800DA6E000160C0DEFF61C0DDFF0E0E01012D
:100A6800B319D8B404D00F0EB319D8A428D0FF0EE8
:100A78000001C26F030EC36F0101B351020DB90E1D
:100A8800F324D96E030EF420DA6EDECFC4F0DDCF86
:100A9800C5F00001C41FC51FC44BC52BC251C427D4
:100AA800C351C5230101B351020DB90EF324D96E08
:100AB800030EF420DA6EC4C0DEFFC5C0DDFF06B049
:100AC80014D0B351020DB90EF324D96E030EF420DD
:100AD800DA6EB351020D400EF324E96E020EF420D3
:100AE800EA6EDECFEEFFDDCFEDFFB32BA2D7000E0F
:100AF800B26F0F0EB26501D0A1D0B251020D400EF7
:100B0800F324D96E020EF420DA6EDECF60F0DDCF6A
:100B180061F00001000E61BFFF0E626F636F010E8E
:100B28006BEC30F060C072F061C073F062C074F0BA
:100B380063C075F0000E0001A86F000EA96F800E4B
:100B4800AA6F3F0EAB6F04C1A0F005C1A1F006C1AA
:100B5800A2F007C1A3F0B6EC4BF0A0C0A4F0A1C06E
:100B6800A5F0A2C0A6F0A3C0A7F0EAEC19F0A4C0B3
:100B78006EF0A5C06FF0A6C070F0A7C071F041EC90
:100B880018F06EC0AEF16FC0AFF170C0B0F171C0B7
:100B9800B1F1AEC1A8F0AFC1A9F0B0C1AAF0B1C11E
:100BA800ABF004C172F005C173F006C174F007C15F
:100BB80075F00101B251020DB90EF324D96E030E7E
:100BC800F420DA6EDECF60F0DDCF61F00001000EB8
:100BD80061BFFF0E626F636F010E6BEC30F060C097
:100BE8006EF061C06FF062C070F063C071F041ECEC
:100BF80018F06EC0A4F06FC0A5F070C0A6F071C068
:100C0800A7F0EAEC19F0A4C0B8F0A5C0B9F0A6C0E6
:100C1800BAF0A7C0BBF0D6EC37F00101B251020D13
:100C2800400EF324D96E020EF420DA6E0001B8C02B
:100C3800DEFFB9C0DDFF0101B22B5BD7000EB46F38
:100C48000F0EB46501D0D3D2010E02016027000E49
:100C580061236223632306B015D00101B451020D4C
:100C6800400EF324D96E020EF420DA6EB451020D50
:100C7800000EF324E96E020EF420EA6EDECFEEFFDA
:100C8800DDCFEDFF0101B451020D400EF324D96E02
:100C9800020EF420DA6EDECFC2F0DDCFC3F0B4511D
:100CA800020D000EF324D96E020EF420DA6EDECFA8
:100CB800C4F0DDCFC5F00001C41FC51FC44BC52B50
:100CC800C251C427C351C5230101A4510001C45D09
:100CD800C551800AC66F0101A551800A0001C65995
:100CE800D8B030D00101B451020D000EF324D96EF2
:100CF800020EF420DA6EDECFC2F0DDCFC3F0B451BD
:100D0800020D400EF324D96E020EF420DA6EDECF07
:100D1800C4F0DDCFC5F00001C41FC51FC44BC52BEF
:100D2800C251C427C351C5230101A4510001C45DA8
:100D3800C551800AC66F0101A551800A0001C65934
:100D4800D8A040D2FC510101B419D8B404D0000194
:100D5800FC29D8A411D0000E0201606F000E616F4B
:100D6800000E626F000E636F000E646F000E656FF9
:100D7800000E666F000E676F200E0101A419A51101
:100D8800D8A495D0B451020D400EF324D96E020EAA
:100D9800F420DA6EDECFC2F0DDCFC3F0B451020D1D
:100DA800000EF324D96E020EF420DA6EDECFC4F002
:100DB800DDCFC5F00001C41FC51FC44BC52BC251F0
:100DC800C427C351C523C5BF25D0C55104E1200E92
:100DD800C45DD8A01FD00101B451020D000EF32448
:100DE800D96E020EF420DA6EDECFC2F0DDCFC3F08A
:100DF800080E0001C227000EC3230101B451020DE1
:100E0800400EF324D96E020EF420DA6EC2C0DEFF63
:100E1800C3C0DDFF0101B451020D000EF324D96EE9
:100E2800020EF420DA6EDECFC2F0DDCFC3F0B4518B
:100E3800020D400EF324D96E020EF420DA6EDECFD6
:100E4800C4F0DDCFC5F00001C41FC51FC44BC52BBE
:100E5800C251C427C351C523C5BF29D0C55104E118
:100E6800200EC45DD8A023D0F80EC26FFF0EC36F4A
:100E78000101B451020D000EF324D96E020EF420C4
:100E8800DA6EDECFC4F0DDCFC5F00001C251C42751
:100E9800C351C5230101B451020D400EF324D96E8C
:100EA800020EF420DA6EC4C0DEFFC5C0DDFF000EFE
:100EB8000101A56F080EA46F0001FC29D8B4B4C1C4
:100EC800FCF00101B451020D400EF324D96E020E5C
:100ED800F420DA6EB451020D200EF324E96E020EEE
:100EE800F420EA6EDECFEEFFDDCFEDFFB451030D47
:100EF800880EF324D96E020EF420DA6E0201DFB0F8
:100F08009CD00101B451020D200EF324D96E020EBB
:100F1800F420DA6EDECF6EF0DDCF6FF00001000E48
:100F28006FBFFF0E706F716F000E726F000E736FE0
:100F3800000E746F000E756F500E766F3F0E776F50
:100F4800000E786F000E796F000E7A6F000E7B6FBF
:100F5800000E7C6F000E7D6FFF0E7E6F3F0E7F6F61
:100F6800000E806F000E816F7AEC34F00101B451ED
:100F7800020D200EF324D96E020EF420DA6E000161
:100F88006EC0DEFF6FC0DDFF0101B451020D200EFF
:100F9800F324D96E020EF420DA6EDECFC2F0DDCF74
:100FA800C3F00001C335C333C233C335C333C233BF
:100FB800C335C333C2330101B451020D200EF324EB
:100FC800D96E020EF420DA6EC2C0DEFFC3C0DDFFA8
:100FD800B451020D200EF324D96E020EF420DA6EFD
:100FE800010EDBAE0CD0B451020D200EF324D96EE5
:100FF800020EF420DA6E000EDE6E000EDD6EB451C5
:10100800020D200EF324D96E020EF420DA6E010EC2
:10101800DBBE13D0010EDB5004E1800EDE5CD8A0ED
:101028000CD0B451020D200EF324D96E020EF42018
:10103800DA6E7F0EDE6E000EDD6E0101B451030D17
:10104800880EF324D96E020EF420DA6E0201DFA0B6
:101058009AD00101B451020D200EF324D96E020E6C
:10106800F420DA6EDECFC2F0DDCFC3F00001C23B60
:10107800C33BF00EC317C2510F0BC313F00EC217B8
:101088000101B451020D200EF324D96E020EF42092
:10109800DA6EC2C0DEFFC3C0DDFFB451020D200E00
:1010A800F324D96E020EF420DA6EDECF6EF0DDCFB7
:1010B8006FF00001000E6FBFFF0E706F716F500E62
:1010C800726F000E736F000E746F000E756F000E56
:1010D800766F3F0E776F000E786F000E796F000EF7
:1010E8007A6F000E7B6F000E7C6F000E7D6FFF0E17
:1010F8007E6F3F0E7F6F000E806F000E816F7AEC5F
:1011080034F00101B451020D200EF324D96E020E01
:10111800F420DA6E00016EC0DEFF6FC0DDFF010152
:10112800B451020D200EF324D96E020EF420DA6EAB
:10113800010EDBAE0CD0B451020D200EF324D96E93
:10114800020EF420DA6E000EDE6E000EDD6EB45173
:10115800020D200EF324D96E020EF420DA6E010E71
:10116800DBBE11D0DE52400EDE5CD8A00CD0B451EC
:10117800020D200EF324D96E020EF420DA6EFF0E53
:10118800DE6E3F0EDD6E0001FC510101B419D8A4DA
:1011980004D00001FC5187EC22F00101B451020D8A
:1011A800400EF324D96E020EF420DA6EB451020D0B
:1011B800000EF324E96E020EF420EA6EDECFEEFF95
:1011C800DDCFEDFF0201C451645DC5516559C651BB
:1011D8006659C7516759D8A007D0000E0101A56FFD
:1011E800200EA46F0001FC690101B42B29D50680EB
:1011F80012003750D8B412003B50D8B408D0020EB1
:101208003B18D8B404D0060E3B18D8A4B7D03A502F
:10121800D8B402A827D03850800A7F0FD8B002B6B9
:1012280021D002B41FD04E50E66EFF0E0C6EFF0E9A
:101238000D6E37500E6E0F6A0C500E260D500F2291
:101248000E503524D96E0F503620DA6EDF50106EEE
:1012580038040C0DF3501024E66E3F50E66E68EC2F
:101268004BF002983A04D8B402A829D03850800A22
:101278007F0FD8B002B623D002B421D04E50E66E0C
:10128800FF0E0C6EFF0E0D6E37500E6E0F6A0C506F
:101298000E260D500F220E503524D96E0F503620D1
:1012A800DA6EDF50106E4C50000838240C0DF350E5
:1012B8001024E66E3F50E66E68EC4BF0029802A6EA
:1012C8005DD03A50D8A421D002B21ED04E50E66E5E
:1012D800FF0E0C6EFF0E0D6E37500E6E0F6A0C501F
:1012E8000E260D500F220E503524D96E0F50362081
:1012F800DA6EDF50106E4C040C0DF3501024E66EBD
:101308003F50E66E68EC4BF002963A04D8A41CD025
:1013180002B219D04E50E66EFF0E0C6EFF0E0D6E27
:1013280037500E6E0F6A0C500E260D500F220E50BD
:101338003524D96E0F503620DA6EDF50E66E3F50F6
:10134800E66E68EC4BF0029603AA12D0010E3764E1
:1013580003D0010E396E028A3704D8A409D0010ED1
:101368004C6406D00284000E396E380638C0E3F0AB
:10137800020E3B18D8A402D0030E3B6E3B04D8B42F
:1013880004D0030E3B18D8A4BED03A50D8B402A853
:1013980025D038BE02B622D002B420D04E50E66E18
:1013A800FF0E0C6EFF0E0D6E37500E6E0F6A0C504E
:1013B8000E260D500F220E503524D96E0F503620B0
:1013C800DA6EDF50106E38504C240C0DF350102498
:1013D800E66E3F50E66E68EC4BF002983A04D8B4DB
:1013E80002A824D038BE02B621D002B41FD04E5075
:1013F800E66EFF0E0C6EFF0E0D6E37500E6E0F6A06
:101408000C500E260D500F220E503524D96E0F5059
:101418003620DA6EDF50106E38280C0DF350102489
:10142800E66E3F50E66E68EC4BF0029802A66BD071
:101438003A50D8A425D002B222D04E50E66EFF0E04
:101448000C6EFF0E0D6E37500E6E0F6A0C500E2686
:101458000D500F220E503524D96E0F503620DA6EFB
:10146800DF50106E4C50010DF35000084C240C0D49
:10147800F3501024E66E3F50E66E68EC4BF002968F
:101488003A04D8A426D002B223D04E50E66EFF0EFE
:101498000C6EFF0E0D6E37500E6E0F6A0C500E2636
:1014A8000D500F220E503524D96E0F503620DA6EAB
:1014B800DF50106E4C50010DF3500008116E1128CA
:1014C8000C0DF3501024E66E3F50E66E68EC4BF0BE
:1014D800029603AA12D0010E376403D0010E396EAA
:1014E800028A3704D8A409D0010E4C6406D00284BD
:1014F800000E396E382A38C0E3F0030E3B18D8A422
:1015080002D0020E3B6E050E3B18D8B404D0040E70
:101518003B18D8A45AD038C07DF102B802B40ED016
:101528004E50E66E01017D510C0DF3500001E4258B
:10153800E66E3F50E66E68EC4BF002983950D8A43E
:1015480002BA1ED04E50E66EFF0E0C6EFF0E0D6EE8
:1015580039500E6E0F6A0C500E260D500F220E5089
:101568003524D96E0F503620DA6EDF50106E3850A1
:101578000C0DF3501024E66E3F50E66E68EC4BF00D
:101588004C50E66E000EE66E12EC42F040C0E6FFEC
:1015980041C0E6FFFDEC34F04050386E02BC15D077
:1015A8004E50E66E3950010DF3503524D96EF45083
:1015B8003620DA6EDF500C6E38500C0DF3500C24C8
:1015C800E66E3F50E66ECDEC48F03B50D8B408D0FC
:1015D800020E3B18D8B404D0060E3B18D8A47FD00E
:1015E800049CE4EC32F03A50D8A439D03950D8A44D
:1015F80002BA1ED04E50E66EFF0E0C6EFF0E0D6E38
:1016080039500E6E0F6A0C500E260D500F220E50D8
:101618003524D96E0F503620DA6EDF50106E3850F0
:101628000C0DF3501024E66E3F50E66E68EC4BF05C
:1016380002BC15D04E50E66E3950010DF3503524DA
:10164800D96EF4503620DA6EDF500C6E38500C0D1F
:10165800F3500C24E66E3F50E66ECDEC48F03A04A9
:10166800D8A43DD03950D8A402BA20D04E50E66E46
:10167800FF0E0C6EFF0E0D6E39500E6E0F6A0C5079
:101688000E260D500F220E503524D96E0F503620DD
:10169800DA6EDF50106E4C04000838240C0DF3503D
:1016A8001024E66E3F50E66E68EC4BF002BC17D093
:1016B8004E50E66E3950010DF3503524D96EF45072
:1016C8003620DA6EDF500C6E4C04000838240C0DFE
:1016D800F3500C24E66E3F50E66ECDEC48F03B0428
:1016E800D8B404D0030E3B18D8A482D0048CE4EC00
:1016F80032F0029C3A50D8A43FD03950D8A402BA4C
:1017080021D04E50E66EFF0E0C6EFF0E0D6E395056
:101718000E6E0F6A0C500E260D500F220E503524F7
:10172800D96E0F503620DA6EDF50106E4C503824C8
:10173800116E11040C0DF3501024E66E3F50E66E46
:1017480068EC4BF002BC18D04E50E66E3950010DD3
:10175800F3503524D96EF4503620DA6EDF500C6E13
:101768004C5038240D6E0D040C0DF3500C24E66E0D
:101778003F50E66ECDEC48F03A04D8A439D0395041
:10178800D8A402BA1ED04E50E66EFF0E0C6EFF0EA5
:101798000D6E39500E6E0F6A0C500E260D500F222A
:1017A8000E503524D96E0F503620DA6EDF50106E89
:1017B80038500C0DF3501024E66E3F50E66E68EC7E
:1017C8004BF002BC15D04E50E66E3950010DF35067
:1017D8003524D96EF4503620DA6EDF500C6E38504E
:1017E8000C0DF3500C24E66E3F50E66ECDEC48F03D
:1017F8003950010DF3503524D96EF4503620DA6E85
:10180800DF500001E46F392A029A3B50D8B410D057
:10181800020E3B18D8B40CD0050E3B18D8B408D02B
:10182800040E3B18D8B404D0060E3B18D8A437D001
:101838003750395CD8A01DD0000E396E3B50D8B453
:1018480007D0020E3B18D8B403D0060E3B18D8B404
:10185800382A02880294050E3B18D8B403BC02D07B
:10186800F4EC45F0040E3B18D8B403BC02D092EC5B
:101878003CF04C500C6E0D6A38C00EF00F6A0EBE6C
:101888000F060C500E5C0F50800A106E0D50800A27
:101898001058D8A004D0000E386E028602923B047D
:1018A800D8B404D0030E3B18D8A412003750395CC2
:1018B800D8A005D0000E396E38060288029438C0C8
:1018C8000CF00D6A0CBE0D064C50010DF31EF41EF3
:1018D800F34AF42A0C50F35CF450800A0E6E0D5053
:1018E800800A0E58D8A01200000E386E02860292A6
:1018F80012000001C86F000E4D6E0596019485D246
:1019080056EC49F02BEC49F0100E0001E519D8A46B
:1019180076D0C851030D880EF324D96E020EF42038
:10192800DA6E0201DFB03CD00001C851030D010E90
:10193800F326000EF422880EF324D96E020EF4204A
:10194800DA6EDF50800A090FD8B02AD0C851030DCB
:10195800010EF326000EF422880EF324D96E020E2F
:10196800F420DA6EDF2AC851030D010EF326000EAB
:10197800F422880EF324D96E020EF420DA6EDF50BA
:10198800D8A40ED0C851030D010EF326000EF42280
:10199800880EF324D96E020EF420DA6E400EDF6E44
:1019A8000001C851030D880EF324D96E020EF420ED
:1019B800DA6E0201DFA01FD00001C851030D020E2C
:1019C800F326000EF422880EF324D96E020EF420BA
:1019D800DA6EDF50800A610FD8B00DD0C851030D00
:1019E800020EF326000EF422880EF324D96E020E9E
:1019F800F420DA6EDF2A000E0001E56F0194200E54
:101A0800E519D8A4B3D0C851030D880EF324D96EB4
:101A1800020EF420DA6E0201DFB079D00001C8515D
:101A2800030D010EF326000EF422880EF324D96E5E
:101A3800020EF420DA6EDF50800A820FD8A00DD093
:101A4800C851030D010EF326000EF422880EF3246C
:101A5800D96E020EF420DA6EDF06C851030D010EAE
:101A6800F326000EF422880EF324D96E020EF42019
:101A7800DA6E3D0EDE18D8A40ED0C851030D010E43
:101A8800F326000EF422880EF324D96E020EF420F9
:101A9800DA6EFD0EDF6EC851030D010EF326000E3F
:101AA800F422880EF324D96E020EF420DA6E3E0E6C
:101AB800DE18D8A40ED0C851030D010EF326000E6F
:101AC800F422880EF324D96E020EF420DA6EFE0E8C
:101AD800DF6EC851030D010EF326000EF422880EA6
:101AE800F324D96E020EF420DA6E3F0EDE18D8A465
:101AF8000ED0C851030D010EF326000EF422880EF5
:101B0800F324D96E020EF420DA6EFF0EDF6E0001A8
:101B1800C851030D880EF324D96E020EF420DA6E34
:101B28000201DFA01FD00001C851030D020EF326E9
:101B3800000EF422880EF324D96E020EF420DA6E19
:101B4800DF50800A820FD8A00DD0C851030D020EB5
:101B5800F326000EF422880EF324D96E020EF42028
:101B6800DA6EDF06000E0001E56F0194C851030D1F
:101B7800880EF324D96E020EF420DA6E0201DFB06B
:101B88009CD00001C851030D010EF326000EF4226B
:101B9800880EF324D96E020EF420DA6E000EDBBE36
:101BA80030D001B48AD0C851030D010EF326000EBF
:101BB800F422880EF324D96E020EF420DA6EDF5078
:101BC800606F616B60BF610720EC3BF0070E00019E
:101BD800636F020E6CEC48F06B0E0001686FFD0E2F
:101BE800696F98EC42F00D0E0001636F020E6CEC09
:101BF80048F0930E0001686F010E696F98EC42F08F
:101C08005BD00001C851030D010EF326000EF4222B
:101C1800880EF324D96E020EF420DA6EDE28D8B4CA
:101C280001B40DD0070E636F020E6CEC48F09E0EE7
:101C38000001686FFF0E696F98EC42F001840001A3
:101C4800C851030D010EF326000EF422880EF3246A
:101C5800D96E020EF420DA6EFE0EDE18D8B401B486
:101C68000DD0070E636F020E6CEC48F0880E000171
:101C7800686FFF0E696F98EC42F001840001C8514B
:101C8800030D010EF326000EF422880EF324D96EFC
:101C9800020EF420DA6EFD0EDE18D8B401B40DD0B1
:101CA800070E636F020E6CEC48F0930E0001686F2C
:101CB800FF0E696F98EC42F001840001C851030DD2
:101CC800880EF324D96E020EF420DA6E0201DFA02A
:101CD8009CD00001C851030D020EF326000EF42219
:101CE800880EF324D96E020EF420DA6E000EDBBEE5
:101CF80030D001B48AD0C851030D020EF326000E6D
:101D0800F422880EF324D96E020EF420DA6EDF5026
:101D1800606F616B60BF610720EC3BF0070E00014C
:101D2800636F020E6CEC48F06B0E0001686FFD0EDD
:101D3800696F98EC42F00D0E0001636F020E6CECB7
:101D480048F0930E0001686F010E696F98EC42F03D
:101D58005BD00001C851030D020EF326000EF422D9
:101D6800880EF324D96E020EF420DA6EDE28D8B479
:101D780001B40DD0070E636F020E6CEC48F09E0E96
:101D88000001686FFF0E696F98EC42F00184000152
:101D9800C851030D020EF326000EF422880EF32418
:101DA800D96E020EF420DA6EFE0EDE18D8B401B435
:101DB8000DD0070E636F020E6CEC48F0880E000120
:101DC800686FFF0E696F98EC42F001840001C851FA
:101DD800030D020EF326000EF422880EF324D96EAA
:101DE800020EF420DA6EFD0EDE18D8B401B40DD060
:101DF800070E636F020E6CEC48F0930E0001686FDB
:101E0800FF0E696F98EC42F0018405B6120078D590
:101E180031B034B60AD029B008D0000E0001766F70
:101E280006827651F6EC33F0298031B234B60AD006
:101E380029B208D0010E0001766F06827651F6ECC1
:101E480033F0298231B434B60AD029B408D0020E4E
:101E58000001766F06827651F6EC33F0298431B6AC
:101E680034B60AD029B608D0030E0001766F068270
:101E78007651F6EC33F0298631B834B60AD029B851
:101E880008D0040E0001766F06827651F6EC33F026
:101E9800298831BA34B60AD029BA08D0050E00010B
:101EA800766F06827651F6EC33F0298A31BC34B667
:101EB8000AD029BC08D0060E0001766F068276513A
:101EC800F6EC33F0298C31BE34B60AD029BE08D0DE
:101ED800070E0001766F06827651F6EC33F0298EF4
:101EE80032B034B60AD02AB008D0080E0001766F96
:101EF80006827651F6EC33F02A8032B234B60AD034
:101F08002AB208D0090E0001766F06827651F6ECE7
:101F180033F02A8232B434B60AD02AB408D00A0E72
:101F28000001766F06827651F6EC33F02A8432B6D9
:101F380034B60AD02AB608D00B0E0001766F068296
:101F48007651F6EC33F02A8632B834B60AD02AB87D
:101F580008D00C0E0001766F06827651F6EC33F04D
:101F68002A8832BA34B60AD02ABA08D00D0E00012F
:101F7800766F06827651F6EC33F02A8A32BC34B694
:101F88000AD02ABC08D00E0E0001766F0682765160
:101F9800F6EC33F02A8C32BE34B60AD02ABE08D00A
:101FA8000F0E0001766F06827651F6EC33F02A8E1A
:101FB80033B034B60AD02BB008D0100E0001766FBB
:101FC80006827651F6EC33F02B8033B234B60AD061
:101FD8002BB208D0110E0001766F06827651F6EC0E
:101FE80033F02B8233B434B60AD02BB408D0120E97
:101FF8000001766F06827651F6EC33F02B8433B607
:1020080034B60AD02BB608D0130E0001766F0682BC
:102018007651F6EC33F02B8633B834B60AD02BB8A9
:1020280008D0140E0001766F06827651F6EC33F074
:102038002B8833BA34B60AD02BBA08D0150E000153
:10204800766F06827651F6EC33F02B8A33BC34B6C1
:102058000AD02BBC08D0160E0001766F0682765186
:10206800F6EC33F02B8C33BE34B60AD02BBE08D036
:10207800170E0001766F06827651F6EC33F02B8E40
:1020880034B034B60AD02CB008D0180E0001766FE0
:1020980006827651F6EC33F02C802DB031B00AD0A0
:1020A80029A008D0000E0001766F06927651F6EC52
:1020B80033F029902DB231B20AD029A208D0010EEE
:1020C8000001766F06927651F6EC33F029922DB422
:1020D80031B40AD029A408D0020E0001766F069206
:1020E8007651F6EC33F029942DB631B60AD029A6EC
:1020F80008D0030E0001766F06927651F6EC33F0A5
:1021080029962DB831B80AD029A808D0040E0001A4
:10211800766F06927651F6EC33F029982DBA31BADB
:102128000AD029AA08D0050E0001766F06927651CA
:10213800F6EC33F0299A2DBC31BC0AD029AC08D072
:10214800060E0001766F06927651F6EC33F0299C64
:102158002DBE31BE0AD029AE08D0070E0001766F19
:1021680006927651F6EC33F0299E2EB032B00AD0A2
:102178002AA008D0080E0001766F06927651F6EC78
:1021880033F02A902EB232B20AD02AA208D0090E11
:102198000001766F06927651F6EC33F02A922EB44F
:1021A80032B40AD02AA408D00A0E0001766F06922B
:1021B8007651F6EC33F02A942EB632B60AD02AA617
:1021C80008D00B0E0001766F06927651F6EC33F0CC
:1021D8002A962EB832B80AD02AA808D00C0E0001C8
:1021E800766F06927651F6EC33F02A982EBA32BA08
:1021F8000AD02AAA08D00D0E0001766F06927651F1
:10220800F6EC33F02A9A2EBC32BC0AD02AAC08D09D
:102218000E0E0001766F06927651F6EC33F02A9C8A
:102228002EBE32BE0AD02AAE08D00F0E0001766F3D
:1022380006927651F6EC33F02A9E2FB033B00AD0CE
:102248002BA008D0100E0001766F06927651F6EC9E
:1022580033F02B902FB233B20AD02BA208D0110E34
:102268000001766F06927651F6EC33F02B922FB47C
:1022780033B40AD02BA408D0120E0001766F069250
:102288007651F6EC33F02B942FB633B60AD02BA642
:1022980008D0130E0001766F06927651F6EC33F0F3
:1022A8002B962FB833B80AD02BA808D0140E0001EB
:1022B800766F06927651F6EC33F02B982FBA33BA34
:1022C8000AD02BAA08D0150E0001766F0692765117
:1022D800F6EC33F02B9A2FBC33BC0AD02BAC08D0C9
:1022E800160E0001766F06927651F6EC33F02B9CB1
:1022F8002FBE33BE0AD02BAE08D0170E0001766F62
:1023080006927651F6EC33F02B9E30A0120034B0D2
:1023180012002CA01200180E0001766F069276515A
:10232800F6EC33F02C9012003DB034B633D03CB00C
:1023380031D03C8001BE07D098C160F04EC061F03A
:102348004F503DEC4AF001AC01AE08D0F1C060F04E
:102358007F0E0001616F3F5019EC4AF001BE01ACDD
:102368000AD00001DFB107D0F1C060F07F0E616FC5
:102378003F5019EC4AF001BE01AC0AD00001DFA1C0
:1023880007D0F1C060F0000E616F3F5019EC4AF0C1
:102398000001DF713DB234B633D03CB231D03C825B
:1023A80001BE07D099C160F04EC061F04F503DECBE
:1023B8004AF001AC01AE08D0F2C060F07F0E000117
:1023C800616F3F5019EC4AF001BE01AC0AD0000120
:1023D800DFB307D0F2C060F07F0E616F3F5019EC99
:1023E8004AF001BE01AC0AD00001DFA307D0F2C059
:1023F80060F0000E616F3F5019EC4AF00001DF7386
:102408003DB434B633D03CB431D03C8401BE07D09F
:102418009AC160F04EC061F04F503DEC4AF001ACFB
:1024280001AE08D0F3C060F07F0E0001616F3F502D
:1024380019EC4AF001BE01AC0AD00001DFB507D0A3
:10244800F3C060F07F0E616F3F5019EC4AF001BE97
:1024580001AC0AD00001DFA507D0F3C060F0000E80
:10246800616F3F5019EC4AF00001DF753DB634B694
:1024780033D03CB631D03C8601BE07D09BC160F05A
:102488004EC061F04F503DEC4AF001AC01AE08D0AF
:10249800F4C060F07F0E0001616F3F5019EC4AF004
:1024A80001BE01AC0AD00001DFB707D0F4C060F06C
:1024B8007F0E616F3F5019EC4AF001BE01AC0AD0A3
:1024C8000001DFA707D0F4C060F0000E616F3F5035
:1024D80019EC4AF00001DF773DB834B633D03CB888
:1024E80031D03C8801BE07D09CC160F04EC061F07D
:1024F8004F503DEC4AF001AC01AE08D0F5C060F099
:102508007F0E0001616F3F5019EC4AF001BE01AC2B
:102518000AD00001DFB907D0F5C060F07F0E616F07
:102528003F5019EC4AF001BE01AC0AD00001DFA906
:1025380007D0F5C060F0000E616F3F5019EC4AF00B
:102548000001DF793DBA34B633D03CBA31D03C8A89
:1025580001BE07D09DC160F04EC061F04F503DEC08
:102568004AF001AC01AE08D0F6C060F07F0E000161
:10257800616F3F5019EC4AF001BE01AC0AD000016E
:10258800DFBB07D0F6C060F07F0E616F3F5019ECDB
:102598004AF001BE01AC0AD00001DFAB07D0F6C09B
:1025A80060F0000E616F3F5019EC4AF00001DF7BCC
:1025B8003DBC34B633D03CBC31D03C8C01BE07D0D6
:1025C8009EC160F04EC061F04F503DEC4AF001AC46
:1025D80001AE08D0F7C060F07F0E0001616F3F5078
:1025E80019EC4AF001BE01AC0AD00001DFBD07D0EA
:1025F800F7C060F07F0E616F3F5019EC4AF001BEE2
:1026080001AC0AD00001DFAD07D0F7C060F0000EC2
:10261800616F3F5019EC4AF00001DF7D3DBE34B6D2
:1026280033D03CBE31D03C8E01BE07D09FC160F094
:102638004EC061F04F503DEC4AF001AC01AE08D0FD
:10264800F8C060F07F0E0001616F3F5019EC4AF04E
:1026580001BE01AC0AD00001DFBF07D0F8C060F0AE
:102668007F0E616F3F5019EC4AF001BE01AC0AD0F1
:102678000001DFAF07D0F8C060F0000E616F3F5077
:1026880019EC4AF00001DF7F0001E7B13DB017D037
:102698003CA015D03C9001BE07D098C160F04EC058
:1026A80061F04F5072EC4CF001AC01AE08D0F1C0B3
:1026B80060F0000E0001616F3F5019EC4AF0000114
:1026C800E7B33DB217D03CA215D03C9201BE07D06B
:1026D80099C160F04EC061F04F5072EC4CF001AC03
:1026E80001AE08D0F2C060F0000E0001616F3F50EB
:1026F80019EC4AF00001E7B53DB417D03CA415D059
:102708003C9401BE07D09AC160F04EC061F04F50B2
:1027180072EC4CF001AC01AE08D0F3C060F0000ED2
:102728000001616F3F5019EC4AF00001E7B73DB670
:1027380017D03CA615D03C9601BE07D09BC160F0CF
:102748004EC061F04F5072EC4CF001AC01AE08D0B5
:10275800F4C060F0000E0001616F3F5019EC4AF0C0
:102768000001E7B93DB817D03CA815D03C9801BE88
:1027780007D09CC160F04EC061F04F5072EC4CF035
:1027880001AC01AE08D0F5C060F0000E0001616F29
:102798003F5019EC4AF00001E7BB3DBA17D03CAAFC
:1027A80015D03C9A01BE07D09DC160F04EC061F0C3
:1027B8004F5072EC4CF001AC01AE08D0F6C060F09E
:1027C800000E0001616F3F5019EC4AF00001E7BDAF
:1027D8003DBC17D03CAC15D03C9C01BE07D09EC177
:1027E80060F04EC061F04F5072EC4CF001AC01AE9D
:1027F80008D0F7C060F0000E0001616F3F5019EC7F
:102808004AF00001E7AF12003DBE12003CAE1200D4
:102818003C9E01BE07D09FC160F04EC061F04F5092
:1028280072EC4CF001BC120001AE1200F8C060F06E
:10283800000E0001616F3F5019EC4AF012000001D0
:10284800766F1ED0550E0001786FFD0E17D0460E1C
:10285800786FFD0E13D0370E786FFD0E0FD0280E4F
:10286800786FFD0E0BD0190E786FFD0E07D00A0E8B
:10287800786FFD0E03D0FB0E786FFC0E796F17D0C2
:102888000001EC51000AD8B4DDD7010AD8B4DFD76B
:10289800030AD8B4E0D7010AD8B4E1D7070AD8B4F4
:1028A800E2D7010AD8B4E3D7030AD8B4E4D704BA04
:1028B800D8D03E04D8A427D006A211D04E50E66E38
:1028C8007151010D780EF324F66EF30EF420F76EB5
:1028D8000800F550E66E3F50E66ECDEC48F006B2C3
:1028E80012D04E50E66E00017151010D780EF3249E
:1028F800F66EF30EF420F76E0800F550E66E3F50C2
:10290800E66E68EC4BF0020E3E18D8A428D006A25A
:1029180012D04E50E66E00017151010D690EF3247C
:10292800F66EF30EF420F76E0800F550E66E3F5091
:10293800E66ECDEC48F006B212D04E50E66E0001BD
:102948007151010D690EF324F66EF30EF420F76E43
:102958000800F550E66E3F50E66E68EC4BF0030E4B
:102968003E18D8A47ED000017151D8A433D006A255
:1029780017D04E50E66E7151010D78C072F079C0D3
:1029880073F0F3507227F450732372C0F6FF73C0CC
:10299800F7FF0800F550E66E3F50E66ECDEC48F0C4
:1029A80006B218D04E50E66E00017151010D78C084
:1029B80072F079C073F0F3507227F450732372C029
:1029C800F6FF73C0F7FF0800F550E66E3F50E66E5D
:1029D80068EC4BF000017151D8B443D006A21FD067
:1029E8004E50E66E7151010D78C072F079C073F0E7
:1029F800F3507227F450732372C0F6FF73C0F7FFC9
:102A08000800F5CF74F078C0F6FF79C0F7FF08002A
:102A1800F5507425E66E3F50E66ECDEC48F006B2F0
:102A280020D04E50E66E00017151010D78C072F051
:102A380079C073F0F3507227F450732372C0F6FF15
:102A480073C0F7FF0800F5CF74F078C0F6FF79C0BF
:102A5800F7FF0800F5507425E66E3F50E66E68EC07
:102A68004BF004AAE1D03E04D8A40CD00001715167
:102A7800010D780EF324F66EF30EF420F76E0800BD
:102A8800F5CF77F0020E3E18D8A40CD00001715192
:102A9800010D690EF324F66EF30EF420F76E0800AC
:102AA800F5CF77F0030E3E18D8A431D0000171514C
:102AB800D8A411D07151010D78C072F079C073F0AB
:102AC800F3507227F450732372C0F6FF73C0F7FFF8
:102AD8000800F5CF77F07151D8B419D07151010DB4
:102AE80078C072F079C073F0F3507227F4507323F2
:102AF80072C0F6FF73C0F7FF0800F5CF74F078C016
:102B0800F6FF79C0F7FF0800F5507425776F06A225
:102B180025D0D59E77C0E2F03750D8B40BD0000E40
:102B280003B6010EFCEC4BF050A0FCEC2EF0000EAE
:102B38000001E06F3E04D8B408D0020E3E18D8B4A5
:102B480004D0030E3E18D8A404D0000177517DECC0
:102B580035F004A4039EA3EC4CF0D58E06A204B471
:102B680063D0D59E3750D8B40BD0000E03B4010EF5
:102B7800FCEC4BF050A0FCEC2EF0000E0001E06FD6
:102B88003E04D8B408D0020E3E18D8B404D0030EC0
:102B98003E18D8A404D00001775183EC4BF0E2C072
:102BA80072F00001736B72BF73077751746F756BA6
:102BB8007251741906E173517519D8A402D0000E28
:102BC800376E04B003AE01D004843E04D8B408D0F4
:102BD800020E3E18D8B404D0030E3E18D8A407D06D
:102BE80004A203AE04D0000E376E000EE16F070E8C
:102BF8003E18D8B40CD0080E3E18D8B408D00A0E27
:102C08003E18D8B404D00B0E3E18D8A40AD004A29B
:102C180002D004A206D003AE04D0000E376E000E18
:102C2800E16FA3EC4CF0D58E070E3E18D8A406D061
:102C380071C061F000017651A7EC2CF0080E3E1827
:102C4800D8A406D071C061F000017651DBEC23F006
:102C58000A0E3E18D8A406D071C061F00001765162
:102C6800DCEC2BF00B0E3E18D8A4120071C061F0FA
:102C7800000176510EEC25F0120031B034B60ED0BA
:102C880029B00CD0000E00017A6F000E7B6F06820F
:102C98007BC071F07A5123EC14F0298031B434B63A
:102CA8000ED029B40CD0020E00017A6F010E7B6F92
:102CB80006827BC071F07A5123EC14F0298431B874
:102CC80034B60ED029B80CD0040E00017A6F020E6B
:102CD8007B6F06827BC071F07A5123EC14F029884F
:102CE80031BA34B60ED029BA0CD0050E00017A6F6D
:102CF800030E7B6F06827BC071F07A5123EC14F0CF
:102D0800298A31BE34B60ED029BE0CD0070E000178
:102D18007A6F040E7B6F06827BC071F07A5123ECC8
:102D280014F0298E32B234B60ED02AB20CD0090E65
:102D380000017A6F050E7B6F06827BC071F07A51B5
:102D480023EC14F02A8232B634B60ED02AB60CD050
:102D58000B0E00017A6F060E7B6F06827BC071F046
:102D68007A5123EC14F02A8632B834B60ED02AB839
:102D78000CD00C0E00017A6F070E7B6F06827BC0A9
:102D880071F07A5123EC14F02A8832BC34B60ED094
:102D98002ABC0CD00E0E00017A6F080E7B6F0682DB
:102DA8007BC071F07A5123EC14F02A8C33B034B61E
:102DB8000ED02BB00CD0100E00017A6F090E7B6F6D
:102DC80006827BC071F07A5123EC14F02B8033B269
:102DD80034B60ED02BB20CD0110E00017A6F0A0E49
:102DE8007B6F06827BC071F07A5123EC14F02B8242
:102DF80033B634B60ED02BB60CD0130E00017A6F52
:102E08000B0E7B6F06827BC071F07A5123EC14F0B5
:102E18002B8633BA34B60ED02BBA0CD0150E00015F
:102E28007A6F0C0E7B6F06827BC071F07A5123ECAF
:102E380014F02B8A33BE34B60ED02BBE0CD0170E2E
:102E480000017A6F0D0E7B6F06827BC071F07A519C
:102E580023EC14F02B8E34B034B60ED02CB00CD03A
:102E6800180E00017A6F0E0E7B6F06827BC071F020
:102E78007A5123EC14F02C802DB031B00ED029A05B
:102E88000CD0000E00017A6F000E7B6F06927BC09B
:102E980071F07A5123EC14F029902DB431B40ED08E
:102EA80029A40CD0020E00017A6F010E7B6F0692E6
:102EB8007BC071F07A5123EC14F029942DB831B805
:102EC8000ED029A80CD0040E00017A6F020E7B6F79
:102ED80006927BC071F07A5123EC14F029982DBA30
:102EE80031BA0ED029AA0CD0050E00017A6F030E54
:102EF8007B6F06927BC071F07A5123EC14F0299A0B
:102F08002DBE31BE0ED029AE0CD0070E00017A6F4F
:102F1800040E7B6F06927BC071F07A5123EC14F09B
:102F2800299E2EB232B20ED02AA20CD0090E000170
:102F38007A6F050E7B6F06927BC071F07A5123EC95
:102F480014F02A922EB632B60ED02AA60CD00B0E4A
:102F580000017A6F060E7B6F06927BC071F07A5182
:102F680023EC14F02A962EB832B80ED02AA80CD02A
:102F78000C0E00017A6F070E7B6F06927BC071F012
:102F88007A5123EC14F02A982EBC32BC0ED02AAC0D
:102F98000CD00E0E00017A6F080E7B6F06927BC074
:102FA80071F07A5123EC14F02A9C2FB033B00ED074
:102FB8002BA00CD0100E00017A6F090E7B6F0692C1
:102FC8007BC071F07A5123EC14F02B902FB233B2FE
:102FD8000ED02BA20CD0110E00017A6F0A0E7B6F57
:102FE80006927BC071F07A5123EC14F02B922FB625
:102FF80033B60ED02BA60CD0130E00017A6F0B0E31
:103008007B6F06927BC071F07A5123EC14F02B96FB
:103018002FBA33BA0ED02BAA0CD0150E00017A6F36
:103028000C0E7B6F06927BC071F07A5123EC14F082
:103038002B9A2FBE33BE0ED02BAE0CD0170E00012C
:103048007A6F0D0E7B6F06927BC071F07A5123EC7C
:1030580014F02B9E30A0120034B012002CA01200E5
:10306800000E00017A6F0E0E7B6F06927BC071F026
:103078007A5123EC14F02C90120000017151800B4E
:103088007A6F71517125806F70BF80818051D8B47B
:103098000DD08029D8A408D0000E6E6F000E6F6F77
:1030A800000E706F000E716F708F08D0000E6E6F7B
:1030B800000E6F6F000E706F000E716F7551800BF0
:1030C8007A1B755175257B6F74BF7B817B51D8B492
:1030D8000DD07B29D8A408D0000E726F000E736F34
:1030E800000E746F000E756F748F08D0000E726F2B
:1030F800000E736F000E746F000E756F7B51D8B49D
:1031080003D08051D8A409D0000E6E6F000E6F6FE7
:10311800000E706F000E716F120074516E03F3CFC2
:1031280085F0F4CF86F085517C6F7D6B7E6B7F6B6D
:103138008651816F826B836B846B73516F03F3CFFE
:1031480085F0F4CF86F085517C27000E7D237E2301
:103158007F2386518127000E822383238423725183
:103168007003F3CF85F0F4CF86F085517C27000EED
:103178007D237E237F2386518127000E822383238C
:1031880084237EC07FF07DC07EF07CC07DF07C6BA8
:1031980072516F03F3CF85F0F4CF86F085517C2709
:1031A80086517D23000E7E23000E7F2373516E030C
:1031B800F3CF85F0F4CF86F085517C2786517D23A7
:1031C800000E7E23000E7F237EC07FF07DC07EF040
:1031D8007CC07DF07C6B72516E03F3CF85F0F4CF29
:1031E80086F085517C2786517D23000E7E23000EB4
:1031F8007F2374516F03F3CF85F0F4CF86F08551A8
:10320800812786518223000E8323000E8423735165
:103218007003F3CF85F0F4CF86F08551812786516E
:103228008223000E8323000E842374517003F3CF8E
:1032380085F0F4CF86F08551766F8651776F786B7D
:10324800796B78C079F077C078F076C077F0766BD4
:1032580076518127775182237851832379518423AA
:103268007CC076F07DC077F07EC078F07FC079F0C2
:10327800190E05D0D8907933783377337633E82E22
:10328800F9D7765181277751822378518323795151
:1032980084237EC07FF07DC07EF07CC07DF07C6B97
:1032A8007B5180C076F0776B7627000E7723820EED
:1032B8007625856FFF0E7721866F0FD0D8908137DE
:1032C8008237833784377FBF8181D8907C377D37B9
:1032D8007E377F378507D8A0860783AFEFD7000EE4
:1032E8007B6F7FAF16D0FF0E7C15766FFF0E7D15B6
:1032F800776FFF0E7E15786F7F0E7F15796F765189
:10330800771178117911D8A402D081A102D0010EC9
:103318007B6F7B51D8B41FD0010E8127000E82230A
:103328008323842384A117D081C076F082C077F0EC
:1033380083C078F084C079F079357933783377337E
:10334800763376C081F077C082F078C083F079C098
:1033580084F0854B862B86BF0DD0865103E18529E5
:10336800D8A008D0000E816F000E826F800E836F88
:103378007F0E20D086BF05D086510EE18505D8B0D6
:103388000BD0000E816F000E826F000E836F000E4F
:10339800846F000E7A6F0FD085C080F0FF0E811702
:1033A800FF0E82177F0E8317000E841780B1838F5C
:1033B800D8908031846F7A51841381C06EF082C0B6
:1033C8006FF083C070F084C071F012000001A75143
:1033D800800BB46FA751A725B66FA6BFB681B651AB
:1033E800D8B40DD0B629D8A408D0000EA46F000E0A
:1033F800A56F000EA66F000EA76FA68F06D0000E51
:10340800A46F000EA56F000EA66F000EA76FAB513C
:10341800800BB56FB451B519D8A4B48DAB51AB2599
:10342800B56FAABFB581B551D8B40DD0B529D8A408
:1034380008D0000EA86F000EA96F000EAA6F000E2C
:10344800AB6FAA8F06D0000EA86F000EA96F000EF2
:10345800AA6F000EAB6FB651B55DD8B022D0B4AD2F
:1034680002D0800EB41BB6C0B7F0B5C0B6F0B7C076
:10347800B5F0A4C0B7F0A8C0A4F0B7C0A8F0A5C024
:10348800B7F0A9C0A5F0B7C0A9F0A6C0B7F0AAC008
:10349800A6F0B7C0AAF0A7C0B7F0ABC0A7F0B7C0F6
:1034A800ABF0000EB76FB651AC6FAD6BAC1FAD1F74
:1034B800AC4BAD2BB551AE6FAF6BAC51AE27AD5128
:1034C800AF23AFBF2CD0AF5104E11A0EAE5DD8A028
:1034D80026D0A451A511A611A711D8B402D0010E67
:1034E80001D0000EB76F000EA46F000EA56F000E7E
:1034F800A66F000EA76FB5C0B6F015D0B7A105D05E
:10350800D890B7310109B76F02D0D890B733A4B1BA
:10351800B78FA735A733A633A533A433B62BB55138
:10352800B65DD8A0EBD7B4BD29D0B651D8A409D080
:10353800000EA46F000EA56F000EA66F000EA76FF9
:103548001200A851A427A951A523AA51A623AB511B
:10355800A723A7A183D0B7A106D0D890B733B75176
:103568000109B76F02D0D890B733A4B1B78FA73588
:10357800A733A633A533A433B62B70D0A851A45DC6
:10358800A951A559AA51A659A751800AAC6FAB51A8
:10359800800AAC59D8B036D0A4C0ACF0A5C0ADF004
:1035A800A6C0AEF0A7C0AFF0AC1FAD1FAE1FAF1FD7
:1035B800AC2B000EAD23AE23AF23A851AC25B06FC2
:1035C800A951AD21B16FAA51AE21B26FAB51AF2154
:1035D800B36FFF0EB025A46FFF0EB121A56FFF0ECC
:1035E800B221A66FFF0EB321A76F800EB41BB76D73
:1035F800B751D8A40FD0010EA427000EA523A623E7
:10360800A72308D0A851A45FA951A55BAA51A65B1E
:10361800AB51A75BA451A511A611A711D8A41CD022
:10362800B751D8A419D0000EA46F000EA56F000ED4
:10363800A66F000EA76F1200D890A437A537A6373B
:10364800A737B7BFA481B7A102D0D88001D0D8903E
:10365800B737B651D8A4B607A6AFEED7000EB56FE8
:10366800B7AF0AD0B7C0ACF07F0EAC17D8A402D061
:10367800A4A102D0010EB56FB551D8B420D0010E67
:10368800A427000EA523A623A723A7A118D0A4C06A
:10369800ACF0A5C0ADF0A6C0AEF0A7C0AFF0AF3596
:1036A800AF33AE33AD33AC33ACC0A4F0ADC0A5F08E
:1036B800AEC0A6F0AFC0A7F0B629D8A4B62BB629DD
:1036C800D8B403D0B651D8A40DD0000EA46F000E04
:1036D800A56F000EA66F000EA76FB651D8A402D032
:1036E800000EB46FB6A102D0A68F01D0A69FD890C5
:1036F800B631A76FB4BFA78FA4C0A4F0A5C0A5F02A
:10370800A6C0A6F0A7C0A7F0120004AA40D034B6FD
:103718003DA002D093EC4CF034B63DA202D059EC57
:1037280029F034B63DA417D0050E3B18D8B4F4ECF4
:1037380045F0040E3B18D8B492EC3CF0010E0001A1
:10374800E96FA90E606F010E616FEB0E626FFF0EDD
:10375800636F9DEC4BF034B63DA619D0000E03B054
:10376800010EFCEC4BF05080FCEC2EF07FEC4AF0A4
:10377800000E0001E06F010EE96FA90E606F010EE7
:10378800616FF50E626FFF0E636F9DEC4BF0040ED8
:103798003418311032103310D8A43ED0EDC07EF06A
:1037A80000017F6B7EBF7F07FE51606F616B60BF5A
:1037B8006107000E636F0C0E626F3AEC4CF000016B
:1037C8007E5160277F51612361BF06D0615124E19A
:1037D8003D0E605DD8B020D004A40ED03750D8B4C8
:1037E8000BD0000E03B2010EFCEC4BF050A0FCEC29
:1037F8002EF0028A028402820001FE2BFE51800A0A
:10380800780FD8A002D0070EFE6FFE51606F616B73
:1038180060BF6107EEEC4CF0020E34183110321024
:103828003310D8A43BD0EDC07EF000017F6B7EBF83
:103838007F07FE51606F616B60BF6107000E636FA9
:103848000C0E626F3AEC4CF000017E5160277F51FC
:10385800612361BF23D0615104E10C0E605DD8A0E3
:103868001DD004A40ED03750D8B40BD0000E03B22C
:10387800010EFCEC4BF050A0FCEC2EF0028A028406
:1038880002820001FE07FEAF02D0000EFE6FFE515D
:10389800606F616B60BF6107EEEC4CF00C0E341882
:1038A800311032103310D8A458D0EDC07EF000018A
:1038B8007F6B7EBF7F07FE51606F616B60BF6107E2
:1038C800000E636F0C0E626F3AEC4CF000017E51F3
:1038D80060277F51612361BF06D061513EE1480EE8
:1038E800605DD8B03AD004A40ED03750D8B40BD00D
:1038F800000E03B2010EFCEC4BF050A0FCEC2EF0D5
:10390800028A0284028204BE09D00001ED2BED5127
:10391800800A730FD8A002D00C0EED6F04AE15D03C
:103928000C0EE66E000EE66E070E0001ED27EDC0E8
:103938007EF07F6B7EBF7F077EC0E6FF7FC0E6FF1D
:10394800FDEC34F040500001ED6F0001ED51606F67
:10395800616B60BF6107EEEC4CF00A0E3418311051
:1039680032103310D8A41200EDC07EF000017F6B36
:103978007EBF7F07FE51606F616B60BF6107000EFD
:10398800636F0C0E626F3AEC4CF000017E516027B9
:103998007F51612361BF1200615103E16005D8A026
:1039A800120004A40ED03750D8B40BD0000E03B2C6
:1039B800010EFCEC4BF050A0FCEC2EF0028A0284C5
:1039C800028204BE09D00001ED07ED51800A8C0F78
:1039D800D8B002D0F40EED6F04AE15D00C0EE66E22
:1039E800000EE66EF90E0001ED27EDC07EF07F6B4C
:1039F8007EBF7F077EC0E6FF7FC0E6FFFDEC34F0A8
:103A080040500001ED6F0001ED51606F616B60BFC8
:103A18006107EEEC4CF0120031040AE1080E34188C
:103A280032103310D8A404D0F40E0001DE6F018ADE
:103A3800020E31180AE1080E341832103310D8A4D7
:103A480004D0F50E0001DE6F018A040E31180AE178
:103A5800080E341832103310D8A404D0F60E000122
:103A6800DE6F018A080E31180AE1080E3418321088
:103A78003310D8A404D0F70E0001DE6F018A100EAF
:103A880031180AE1080E341832103310D8A404D0C3
:103A9800F80E0001DE6F018A200E31180AE1080EC7
:103AA800341832103310D8A404D0F90E0001DE6F98
:103AB800018A400E31180AE1080E3418321033100A
:103AC800D8A404D0FA0E0001DE6F018A800E3118E6
:103AD8000AE1080E341832103310D8A404D0FB0EB3
:103AE8000001DE6F018A32040AE1080E3418311031
:103AF8003310D8A404D0FC0E0001DE6F018A020E38
:103B080032180AE1080E341831103310D8A404D042
:103B1800FD0E0001DE6F018A040E32180AE1080E5C
:103B2800341831103310D8A404D0FE0E0001DE6F13
:103B3800018A080E321809E1080E341831103310C2
:103B4800D8A403D00001DE69018A100E32180AE1F8
:103B5800080E341831103310D8A404D0000E000118
:103B6800DE6F018A200E32180AE1080E341831106F
:103B78003310D8A404D0010E0001DE6F018A400E74
:103B880032180AE1080E341831103310D8A404D0C2
:103B9800020E0001DE6F018A800E32180AE1080E5B
:103BA800341831103310D8A404D0030E0001DE6F8E
:103BB800018A33040AE1080E341831103210D8A4EF
:103BC80004D0040E0001DE6F018A020E33180AE1E8
:103BD800080E341831103210D8A404D0050E000194
:103BE800DE6F018A040E33180AE1080E341831100A
:103BF8003210D8A404D0060E0001DE6F018A080E28
:103C080033180AE1080E341831103210D8A404D041
:103C1800070E0001DE6F018A100E33180AE1080E44
:103C2800341831103210D8A404D0080E0001DE6F09
:103C3800018A200E33180AE1080E341831103210A8
:103C4800D8A404D0090E0001DE6F018A400E331893
:103C58000AE1080E341831103210D8A404D00A0E24
:103C68000001DE6F018A800E33180AE1080E34184D
:103C780031103210D8A404D00B0E0001DE6F018A77
:103C8800090E3418311032103310D8A404D00C0E99
:103C98000001DE6F018A01AA120004A40ED0375079
:103CA800D8B40BD0000E03B2010EFCEC4BF050A0C0
:103CB800FCEC2EF0028A028402820001DE51800AA6
:103CC800730FD8A002D00C0EDE6FDE51800A8C0F65
:103CD800D8B002D0F40EDE6FDEC0EDF0ED51606FAB
:103CE800616B60BF6107EEEC4CF0019A12000001B5
:103CF8008A51800B936F8A518A259E6F89BF9E8156
:103D08009E51D8B40DD09E29D8A408D0000E876F34
:103D1800000E886F000E896F000E8A6F898F06D09B
:103D2800000E876F000E886F000E896F000E8A6F75
:103D38008E51800B931B8E518E259F6F8DBF9F8157
:103D48009F51D8B40DD09F29D8A408D0000E8B6FEE
:103D5800000E8C6F000E8D6F000E8E6F8D8F06D04B
:103D6800000E8B6F000E8C6F000E8D6F000E8E6F25
:103D78008B518C118D118E11D8A415D0000E876F20
:103D8800000E886F000E896F000E8A6F800E8913EF
:103D98007F0E8A1387C087F088C088F089C089F0B1
:103DA8008AC08AF012009E51D8A411D0000E876FE5
:103DB800000E886F000E896F000E8A6F87C087F02B
:103DC80088C088F089C089F08AC08AF012009F51A3
:103DD8008F6F906B8F1F901F8F4B902B9E51916F01
:103DE800926B8F519127905192237F0E9125986F56
:103DF800000E9221996F87C094F088C095F089C011
:103E080096F08AC097F0000E876F000E886F000E3C
:103E1800896F000E8A6F000E9A6F000E9B6F000E5E
:103E28009C6F000E9D6F000E9F6F28D09F51D8B4D5
:103E380011D0D8909437953796379737D8908737D9
:103E4800883789378A379DBF8781D8909A379B37BB
:103E58009C379D378B51945D8C5195598D5196594E
:103E68008E519759D8A009D09D8D8B51945F8C5154
:103E7800955B8D51965B8E51975B9F2B190E9F65B5
:103E8800D5D79451951196119711D8B411D09A811C
:103E98000FD0D8908737883789378A379DBF878171
:103EA800D8909A379B379C379D379807D8A09907A1
:103EB80089AFEFD7000E9F6F9DAF16D0FF0E9A15F2
:103EC8008F6FFF0E9B15906FFF0E9C15916F7F0EE5
:103ED8009D15926F8F51901191119211D8A402D013
:103EE80087A102D0010E9F6F9F51D8B41FD0010E39
:103EF8008727000E882389238A238AA117D087C0A1
:103F08008FF088C090F089C091F08AC092F0923505
:103F18009233913390338F338FC087F090C088F0FD
:103F280091C089F092C08AF0984B992B99BF10D014
:103F3800995103E19829D8A00BD0000E996F986980
:103F4800000E876F000E886F000E896F000E8A6F53
:103F580099BF05D0995111E19805D8B00ED0000E3F
:103F6800996F000E986F000E876F000E886F000E15
:103F7800896F000E8A6F000E936F98C09EF09EA105
:103F880002D0898F01D0899FD8909E318A6F935132
:103F98008A1387C087F088C088F089C089F08AC0F2
:103FA8008AF01200010179510001F91906E10101B5
:103FB8007A510001FA19D8B4B5D0E851D8A466D01E
:103FC800FABF04D0F9C077F1FAC078F1FAAF0CD093
:103FD800F9C007F0FAC008F0071E081E074A082AA9
:103FE80007C077F108C078F10A0EE66E000EE66E9B
:103FF800E80EE66E030EE66E77C1E6FF78C1E6FFCF
:104008004BEC32F040C0E6FF41C0E6FFFDEC34F077
:1040180040500001CB6F0A0EE66E000EE66E640E8D
:10402800E66E000EE66E77C1E6FF78C1E6FF4BEC60
:1040380032F040C0E6FF41C0E6FFFDEC34F04050EE
:104048000001CC6F0A0EE66E000EE66E0A0EE66EF2
:10405800000EE66E77C1E6FF78C1E6FF4BEC32F062
:1040680040C0E6FF41C0E6FFFDEC34F040500001DF
:10407800CD6F0A0EE66E000EE66E77C1E6FF78C1D8
:10408800E6FFFDEC34F040500001CE6FE805D8A4FF
:1040980022D0F9C007F0FAC008F00C0E096E0834F7
:1040A80008320732092EFBD707500F0BCB6FFA5196
:1040B8000F0BCC6FF9C007F0FAC008F0040E096EB8
:1040C800083408320732092EFBD707500F0BCD6F83
:1040D800F9510F0BCE6F020EE819D8A41FD0F95171
:1040E8007F0B0A6EF9C007F0FAC008F0070E096ED8
:1040F800083408320732092EFBD707507F0B0B6EA6
:104108000B380F0B070BCB6F0B500F0BCC6F0A380C
:104118000F0B070BCD6F0A500F0BCE6FF9C079F15B
:10412800FAC07AF1E851D8B407D0E805D8B404D079
:10413800020EE819D8A48AD0DD51D8A422D08296DC
:10414800E851D8B4FAAF0AD0CC51D8B403D0400E55
:10415800836E828006A415D0838E13D0CB51010DB7
:10416800590EF324F66EF30EF420F76E0800F5CF1F
:1041780083FF06B4838ECB51D8A402D0829001D09D
:104188008280DD05D8A424D08290CC51010D590E2F
:10419800F324F66EF30EF420F76E0800F5CF83FFD4
:1041A80006B4838ECB51D8A405D0CC51D8A402D064
:1041B800829201D08282E851D8B4FAAF09D0CD51A9
:1041C800D8B406D0CC51D8A403D0400E836E8282D6
:1041D800020EDD19D8A427D08292CD51010D590EB7
:1041E800F324F66EF30EF420F76E0800F5CF83FF84
:1041F80006B4838ECB51D8A408D0CC51D8A405D00E
:10420800CD51D8A402D0829401D08284E851D8B488
:10421800FAAF09D0CE51D8B406D0CD51D8A403D026
:10422800400E836E8284030EDD19D8A40FD08294C9
:10423800CE51010D590EF324F66EF30EF420F76EED
:104248000800F5CF83FF06B4838E8286DD2B030E2C
:10425800DD651200000EDD6F120031B234B60ED0EB
:1042680029B20CD0010E0001776F000E786F06821C
:1042780078C071F077510CEC2BF0298231B634B646
:104288000ED029B60CD0030E0001776F010E786F9F
:10429800068278C071F077510CEC2BF0298631BC7E
:1042A80034B60ED029BC0CD0060E0001776F020E72
:1042B800786F068278C071F077510CEC2BF0298C5E
:1042C80032B034B60ED02AB00CD0080E0001776F89
:1042D800030E786F068278C071F077510CEC2BF0E2
:1042E8002A8032B434B60ED02AB40CD00A0E00019B
:1042F800776F040E786F068278C071F077510CECF6
:104308002BF02A8432BA34B60ED02ABA0CD00D0E4D
:104318000001776F050E786F068278C071F07751CB
:104328000CEC2BF02A8A32BE34B60ED02ABE0CD042
:104338000F0E0001776F060E786F068278C071F055
:1043480077510CEC2BF02A8E33B434B60ED02BB444
:104358000CD0120E0001776F070E786F068278C0B6
:1043680071F077510CEC2BF02B8433B834B60ED0A7
:104378002BB80CD0140E0001776F080E786F0682E8
:1043880078C071F077510CEC2BF02B8833BC34B625
:104398000ED02BBC0CD0160E0001776F090E786F6B
:1043A800068278C071F077510CEC2BF02B8C2DB273
:1043B80031B20ED029A20CD0010E0001776F000E89
:1043C800786F069278C071F077510CEC2BF0299237
:1043D8002DB631B60ED029A60CD0030E0001776F8A
:1043E800010E786F069278C071F077510CEC2BF0C3
:1043F80029962DBC31BC0ED029AC0CD0060E00017C
:10440800776F020E786F069278C071F077510CECD6
:104418002BF0299C2EB032B00ED02AA00CD0080E5A
:104428000001776F030E786F069278C071F07751AC
:104438000CEC2BF02A902EB432B40ED02AA40CD057
:104448000A0E0001776F040E786F069278C071F03B
:1044580077510CEC2BF02A942EBA32BA0ED02AAA35
:104468000CD00D0E0001776F050E786F069278C09C
:1044780071F077510CEC2BF02A9A2EBE32BE0ED07A
:104488002AAE0CD00F0E0001776F060E786F0692D9
:1044980078C071F077510CEC2BF02A9E2FB433B40E
:1044A8000ED02BA40CD0120E0001776F070E786F78
:1044B800069278C071F077510CEC2BF02B942FB842
:1044C80033B80ED02BA80CD0140E0001776F080E4D
:1044D800786F069278C071F077510CEC2BF02B981E
:1044E8002FAC120033BC12002BAC1200160E0001C8
:1044F800776F090E786F069278C071F077510CECDF
:104508002BF02B9C12000001686F00016851020D0E
:10451800200EF324D96E020EF420DA6EDECFF9F005
:10452800DDCFFAF06851030D880EF324D96E020E20
:10453800F420DA6E0201DFB088D0000E0001E96FC6
:10454800000EE86F6851030D010EF326000EF422E9
:10455800880EF324D96E020EF420DA6E000EDBBE4C
:104568001BD06851030D010EF326000EF422880EAD
:10457800F324D96E020EF420DA6EDF50606F6851B2
:10458800020D200EF324D96E020EF420DA6EDF50ED
:10459800616F3F5019EC4AF000016851030D010E9C
:1045A800F326000EF422880EF324D96E020EF420AE
:1045B800DA6EDE28D8A40AD06851020D200EF32442
:1045C800D96E020EF420DA6EDF504E6E6851030D7C
:1045D800010EF326000EF422880EF324D96E020E83
:1045E800F420DA6EFE0EDE18D8A40FD0000E606F2D
:1045F8006851020D200EF324D96E020EF420DA6EF3
:10460800DF50616F3F504CEC4BF000016851030DD7
:10461800010EF326000EF422880EF324D96E020E42
:10462800F420DA6EFD0EDE18D8A40FD0010E606FEC
:104638006851020D200EF324D96E020EF420DA6EB2
:10464800DF50616F3F5019EC4AF000016851030DCB
:10465800880EF324D96E020EF420DA6E0201DFA070
:104668001200000E0001E96F020EE86F6851020D9A
:10467800200EF324D96E020EF420DA6EDF507F0B81
:10468800666F6851020D200EF324D96E020EF420D5
:10469800DA6EDECF63F0DDCF64F0070E656F643548
:1046A80064336333652FFBD763517F0B676F6851A2
:1046B800030D020EF326000EF422880EF324D96EA1
:1046C800020EF420DA6E000EDBBE28D06851030D0E
:1046D800020EF326000EF422880EF324D96E020E81
:1046E800F420DA6EDF50606F67C061F03F5019EC5C
:1046F8004AF000016851030D020EF326000EF42261
:10470800880EF324D96E020EF420DA6EDF50200FE3
:10471800606F66C061F03F5019EC4AF000016851C3
:10472800030D020EF326000EF422880EF324D96E30
:10473800020EF420DA6EDE28D8B467C04EF0685155
:10474800030D020EF326000EF422880EF324D96E10
:10475800020EF420DA6EFE0EDE18D8A407D066C06A
:1047680060F067C061F03F504CEC4BF000016851BD
:10477800030D020EF326000EF422880EF324D96EE0
:10478800020EF420DA6EFD0EDE18D8A41200010E17
:10479800606F67C061F03F5019EC4AF0210E0001CC
:1047A800606F66C061F03F5019EC4AF012000001DA
:1047B800666F04BA8FD0000E0001676F020E67653E
:1047C80001D088D06751D8A427D006A211D04E5066
:1047D800E66E6151030DE30EF324F66EF20EF4203B
:1047E800F76E0800F550E66E3F50E66ECDEC48F0E7
:1047F80006B212D04E50E66E00016151030DE30E71
:10480800F324F66EF20EF420F76E0800F550E66E0B
:104818003F50E66E68EC4BF000016751D8B457D0B2
:1048280006A229D04E50E66E6151030DE30E626F69
:10483800F20E636FF3506227F45063236751010D42
:10484800F3506227F450632362C0F6FF63C0F7FF9A
:104858000800F5CF64F06151030DE30EF324F66E02
:10486800F20EF420F76E0800F5506425E66E3F500E
:10487800E66ECDEC48F006B22AD04E50E66E000146
:104888006151030DE30E626FF20E636FF3506227FE
:10489800F45063236751010DF3506227F4506323EA
:1048A80062C0F6FF63C0F7FF0800F5CF64F06151FE
:1048B800030DE30EF324F66EF20EF420F76E0800F3
:1048C800F5506425E66E3F50E66E68EC4BF000014B
:1048D800672B74D704AA120006A266D0D59E66C0BC
:1048E800E2F03750D8B40BD0000E03B6010EFCEC42
:1048F8004BF050A0FCEC2EF0000E0001E06F000E13
:104908000001686F020E686501D046D06851D8A4CE
:1049180013D06151030DE30EF324F66EF20EF4206A
:10492800F76E6851010D830EF324D96E010EF42041
:10493800DA6E0800F5CFDFFF6851D8B42BD0685184
:10494800010D830EF324D96E010EF420DA6E615145
:10495800030DE30E626FF20E636FF3506227F4509B
:1049680063236851010DF3506227F450632362C03A
:10497800F6FF63C0F7FF0800F5CF64F06151030D3F
:10498800E30EF324F66EF20EF420F76E0800F550ED
:104998006425DF6E682BB6D7030E376E04A4039E1A
:1049A800A3EC4CF0D58E120006B2120004B412002B
:1049B8003750D8B40BD0000E03B4010EFCEC4BF00A
:1049C80050A0FCEC2EF0000E0001E06FE2C062F097
:1049D8000001636B62BF63076651646F656B625168
:1049E800641906E163516519D8A402D0000E376E28
:1049F80004B003AE01D0048404A202D004A206D0FD
:104A080003AE04D0000E376E000EE16FA3EC4CF03D
:104A1800D58E12000001666F04BA8FD0000E000117
:104A2800676F030E676501D088D06751D8A427D077
:104A380006A211D04E50E66E6151040D6B0EF324A0
:104A4800F66EF20EF420F76E0800F550E66E3F5051
:104A5800E66ECDEC48F006B212D04E50E66E00017C
:104A68006151040D6B0EF324F66EF20EF420F76E0E
:104A78000800F550E66E3F50E66E68EC4BF000011A
:104A88006751D8B457D006A229D04E50E66E61516E
:104A9800040D6B0E626FF20E636FF3506227F450D1
:104AA80063236751010DF3506227F450632362C0FA
:104AB800F6FF63C0F7FF0800F5CF64F06151040DFD
:104AC8006B0EF324F66EF20EF420F76E0800F55024
:104AD8006425E66E3F50E66ECDEC48F006B22AD06B
:104AE8004E50E66E00016151040D6B0E626FF20EBE
:104AF800636FF3506227F45063236751010DF3503D
:104B08006227F450632362C0F6FF63C0F7FF080012
:104B1800F5CF64F06151040D6B0EF324F66EF20EBE
:104B2800F420F76E0800F5506425E66E3F50E66EF7
:104B380068EC4BF00001672B74D704AA120006A298
:104B480065D0D59E66C0E2F03750D8B40BD0000EC1
:104B580003B6010EFCEC4BF050A0FCEC2EF0000E5E
:104B68000001E06F000E0001686F030E686501D058
:104B780046D06851D8A413D06151040D6B0EF324AC
:104B8800F66EF20EF420F76E6851010D830EF324D1
:104B9800D96E010EF420DA6E0800F5CFDFFF6851F8
:104BA800D8B42BD06851010D830EF324D96E010EB1
:104BB800F420DA6E6151040D6B0E626FF20E636FB2
:104BC800F3506227F45063236851010DF3506227B4
:104BD800F450632362C0F6FF63C0F7FF0800F5CF07
:104BE80064F06151040D6B0EF324F66EF20EF4209E
:104BF800F76E0800F5506425DF6E682BB6D7040EF3
:104C0800376E04A4039EA3EC4CF0D58E06B21200B6
:104C180004B412003750D8B40BD0000E03B4010E00
:104C2800FCEC4BF050A0FCEC2EF0000E0001E06F05
:104C3800E2C062F00001636B62BF63076651646F94
:104C4800656B6251641906E163516519D8A402D0F5
:104C5800000E376E04B003AE01D0048404A202D063
:104C680004A206D003AE04D0000E376E000EE16F2A
:104C7800A3EC4CF0D58E12000301B66F000E0301B1
:104C8800B56F000EB46FB605D8A404D0000EB56F8A
:104C9800800EB46F020EB619D8A404D0010EB56FF9
:104CA800000EB46F030EB619D8A404D0010EB56F68
:104CB800800EB46F040EB619D8A404D0020EB56FD6
:104CC800000EB46F000EB86F000EB76FB8511CE13C
:104CD80017D0690EB725D96E030EB821DA6EB45114
:104CE800B7250001606F0301B551B8210001616F5C
:104CF800B3EC4CF0DF6E0301B74BB82BB85104E1AD
:104D08004B0EB75DD8A0E5D769C33EF06AC3ECF097
:104D18006BC3EBF06CC3EAF06DA102D0048E01D036
:104D2800049E03016EA102D0018E01D0019E0301F1
:104D38006FA102D0018C01D0019C70C398F171C39E
:104D480099F172C39AF173C39BF174C39CF175C353
:104D58009DF176C39EF177C39FF178C3F1F079C3D3
:104D6800F2F07AC3F3F07BC3F4F07CC3F5F07DC3B3
:104D7800F6F07EC3F7F07FC3F8F0030180A102D0FC
:104D8800058E01D0059E81C389F282C38AF283C34E
:104D98008CF284C38DF285C38FF286C390F287C3E9
:104DA80092F288C393F289C395F28AC396F28BC3B1
:104DB80098F28CC399F28DC39BF28EC39CF28FC379
:104DC8009EF290C39FF291C3A1F292C3A2F293C341
:104DD800A4F294C3A5F295C3A7F296C3A8F297C309
:104DE800AAF298C3ABF299C3ADF29AC3AEF29BC3D1
:104DF800B0F29CC3B1F29DC3B3F29EC3B4F29FC399
:104E0800B6F2A0C3B7F2A1C33FF0A2C34FF0A3C349
:104E1800FEF0A4C3EDF0A5C3EEF00301A6A102D0F5
:104E2800048A01D0049AA7C3FFF0B8EC2FF0C2C0DF
:104E38007BF1C3C07CF1A8C34CF0A9C33BF0AAC363
:104E4800FBF00301ABA102D0048401D0049404B4A4
:104E5800038E0301ACA102D0048001D004900301A9
:104E6800ADA102D0048201D004920301AEA102D008
:104E7800038C01D0039C0301AFA102D0038A01D0A7
:104E8800039A0301B0A102D0038601D0039603015F
:104E9800B1A102D0038401D003940301B2A102D0CE
:104EA800038201D003920301B3A102D00380120050
:104EB80003901200230E0001676F010E686F3CD04B
:104EC8006851030D010EF326000EF422000EF324A0
:104ED800D96E030EF420DA6EFF0E6825606F616BE1
:104EE800FF0E6123000E636F030E626F3AEC4CF005
:104EF800000E00016025E96E030E6121EA6EEF5095
:104F0800666FFF0E6825606F616BFF0E6123000EF0
:104F1800636F030E626F3AEC4CF0010E00016027DC
:104F2800000E6123000E6025E96E030E6121EA6E12
:104F3800EF506625DF6E682B6751685DD8A0C0D733
:104F480000C374F101C375F102C376F103C3D8F04D
:104F580004C3D9F005C3DAF006C371F107C372F1CF
:104F680008C373F109C36EF10AC36FF10BC370F183
:104F78000CC36BF10DC36CF10EC36DF10FC368F177
:104F880010C369F111C36AF112C365F113C366F165
:104F980014C367F115C362F116C363F117C364F153
:104FA80018C35FF119C360F11AC361F11BC35CF147
:104FB8001CC35DF11DC35EF11EC359F11FC35AF135
:104FC80020C35BF121C356F122C357F123C358F123
:104FD80024C350F125C351F126C352F127C34DF123
:104FE80028C34EF129C34FF12AC34AF12BC34BF111
:104FF8002CC34CF12DC347F12EC348F12FC349F1FF
:1050080030C33BF131C33CF132C33DF133C3D5F07A
:1050180034C3D6F035C3D7F036C338F137C339F1C6
:1050280038C33AF139C3D2F03AC3D3F03BC3D4F012
:105038003CC335F13DC336F13EC337F13FC32CF1D4
:1050480040C32DF141C32EF142C329F143C32AF1D4
:1050580044C32BF145C326F146C327F147C328F1C2
:1050680048C323F149C324F14AC325F14BC320F1B6
:105078004CC321F14DC322F14EC31DF14FC31EF1A4
:1050880050C31FF151C31AF152C31BF153C31CF192
:1050980054C317F155C318F156C319F157C314F186
:1050A80058C315F159C316F15AC3CFF05BC3D0F0FA
:1050B8005CC3D1F012000001B16F000E0001B06FA7
:1050C800000EAF6FB105D8A404D0000EB06F800EEB
:1050D800AF6F020EB119D8A404D0010EB06F000E44
:1050E800AF6F030EB119D8A404D0010EB06F800EB3
:1050F800AF6F040EB119D8A404D0020EB06F000E21
:10510800AF6F3EC064F0ECC065F0EBC066F0EAC07B
:1051180067F0000E04BE010E686F000E01BE010E9E
:10512800696F000E01BC010E6A6F98C16BF099C1DE
:105138006CF09AC16DF09BC16EF09CC16FF09DC17F
:1051480070F09EC171F09FC172F0F1C073F0F2C0AF
:1051580074F0F3C075F0F4C076F0F5C077F0F6C0DF
:1051680078F0F7C079F0F8C07AF0000E05BE010EAD
:105178007B6F89C27CF08AC27DF08CC27EF08DC2C2
:105188007FF08FC280F090C281F092C282F093C209
:1051980083F095C284F096C285F098C286F099C2D1
:1051A80087F09BC288F09CC289F09EC28AF09FC299
:1051B8008BF0A1C28CF0A2C28DF0A4C28EF0A5C261
:1051C8008FF0A7C290F0A8C291F0AAC292F0ABC229
:1051D80093F0ADC294F0AEC295F0B0C296F0B1C2F1
:1051E80097F0B3C298F0B4C299F0B6C29AF0B7C2B9
:1051F8009BF03FC09CF04FC09DF0FEC09EF0EDC0FC
:105208009FF0EEC0A0F0000E04BA010EA16FFFC01F
:10521800A2F04CC0A3F03BC0A4F0FBC0A5F0000E68
:1052280004B4010EA66F000E04B0010EA76F000EA5
:1052380004B2010EA86F000E03BC010EA96F000E88
:1052480003BA010EAA6F000E03B6010EAB6F000E73
:1052580003B4010EAC6F000E03B2010EAD6F000E69
:1052680003B0010EAE6F000EB36F000EB26FB351F4
:105278001BE14B0EB25DD8B0120018EC4DF00001E6
:10528800AF51B225606FB051B321616F640EB22582
:10529800D96E000EB321DA6EDF50626F5EEC4AF011
:1052A8000001B24BB32BE3D7120004940692375097
:1052B800D8B47FD0190E0001E26F3E50D8B408D0A0
:1052C800060E3E18D8B404D0090E3E18D8A43DD016
:1052D800060E3B18D8B409D0050E3B18D8B405D033
:1052E800040E3B18D8B401B805D001018351F6EC7F
:1052F80033F001883B50D8B405D0020E3B18D8B41F
:1053080001B805D002017851F6EC33F001883B046E
:10531800D8B405D0030E3B18D8B401B816D0FF0E88
:1053280000017A6FFF0E7B6F37507C6F7D6B7A516F
:105338007C277B517D23780E7C25D96E020E7D213A
:10534800DA6EDF50F6EC33F001883E04D8B419D099
:10535800020E3E18D8B415D0030E3E18D8B411D09A
:10536800070E3E18D8B40DD0080E3E18D8B409D090
:105378000A0E3E18D8B405D00B0E3E18D8B401B8A2
:1053880007D0000E0001716F000E23EC14F00188A5
:10539800040E3E18D8B405D0050E3E18D8B401B88E
:1053A80007D0000E0001716F000E0CEC2BF0018885
:1053B800019804B203AE10D0010E37640DD0010E6F
:1053C8000001E96FA90E606F010E616FE10E626F57
:1053D800FF0E636F9DEC4BF004A210D03704D8A4E5
:1053E8000DD0010E0001E96FA90E606F010E616F0B
:1053F800FA0E626FFF0E636F9DEC4BF004B003AEC4
:1054080018D004A202D004A214D03750D8A411D0C6
:10541800000E376E000E0001E16F010EE96FA90E54
:10542800606F010E616FF00E626FFF0E636F9DEC8F
:105438004BF004B4120004A202D004A212003750A8
:10544800D8A41200000E376E000E0001E16F010EA5
:10545800E96FA90E606F010E616FDC0E626FFF0EBF
:10546800636F9DEC4BF012000600E9CF13F0EACF12
:1054780014F0E1CF15F0E2CF16F0D9CF17F0DACF5C
:1054880018F0F3CF19F0F4CF1AF0F6CF1BF0F7CFDE
:105498001CF0F8CF1DF0F5CF1EF040C01FF041C042
:1054A80020F042C021F043C022F044C023F045C0A0
:1054B80024F046C025F047C026F04AC027F04BC06C
:1054C80028F016EEE6F09EA205D0CCEC4CF0830E48
:1054D800CC6E9E929EA00CD0010E02016427000E95
:1054E800652366236723EC0ECF6E780ECE6E9E90F2
:1054F800F2A20BD0410E126EEE0EE82EFED7122E3F
:10550800FCD700D081A00586F292F2A003D05CEC13
:1055180043F0F290F2A44FD0F29A02BE2ED00001CE
:10552800FB51E66EE051E66E85EC41F04050D8A4A0
:1055380024D0060E3B18D8B40DD03B50D8B40AD0AE
:105548003B04D8B407D0020E3B18D8B403D0030EDE
:105558003B18D8B438C0E3F00688FDEC08F006988C
:10556800029C029A02940292050E3B18D8B403D00A
:10557800040E3B18D8B438C0E3F003B802AE0DD01F
:105588000001FB51E66EE051E66E85EC41F04050BB
:10559800D8A403D0029EFBC0E0F00001E02BFB5131
:1055A800E05DD8A002D0000EE06F7BC1D6FF7CC1C1
:1055B800D7FFF294F28A28C04BF027C04AF026C0E1
:1055C80047F025C046F024C045F023C044F022C06F
:1055D80043F021C042F020C041F01FC040F01EC07F
:1055E800F5FF1DC0F8FF1CC0F7FF1BC0F6FF1AC06F
:1055F800F4FF19C0F3FF18C0DAFF17C0D9FF16C0AF
:10560800E2FF15C0E1FF14C0EAFF13C0E9FF110073
:1056180004BA58D0040E3E18D8A428D006A212D036
:105628004E50E66E00017151010D920EF324F66E94
:10563800F30EF420F76E0800F550E66E3F50E66E64
:10564800CDEC48F006B212D04E50E66E0001715112
:10565800010D920EF324F66EF30EF420F76E080097
:10566800F550E66E3F50E66E68EC4BF0050E3E18BE
:10567800D8A428D006A212D04E50E66E000171516F
:10568800010D870EF324F66EF30EF420F76E080072
:10569800F550E66E3F50E66ECDEC48F006B212D0FB
:1056A8004E50E66E00017151010D870EF324F66E1F
:1056B800F30EF420F76E0800F550E66E3F50E66EE4
:1056C80068EC4BF004AA1200040E3E18D8A40CD0C3
:1056D80000017151010D920EF324F66EF30EF420C1
:1056E800F76E0800F5CF76F0050E3E18D8A40CD05A
:1056F80000017151010D870EF324F66EF30EF420AC
:10570800F76E0800F5CF76F006A21AD0D59E76C0BF
:10571800E2F03750D8B40BD0000E03B6010EFCEC03
:105728004BF050A0FCEC2EF0000E0001E06F0001E1
:1057380076517DEC35F004A4039EA3EC4CF0D58E95
:1057480006B2120004B41200D59E3750D8B40BD05C
:10575800000E03B4010EFCEC4BF050A0FCEC2EF054
:10576800000E0001E06F0001765183EC4BF0E2C0BF
:1057780072F00001736B72BF73077651746F756BAB
:105788007251741906E173517519D8A402D0000E2C
:10579800376E04B003AE01D0048404A203AE04D073
:1057A800000E376E000EE16FA3EC4CF0D58E1200A0
:1057B8000001686F04BA4BD0000E0001666F030E3B
:1057C800666501D044D006A21ED04E50E66E6151E7
:1057D800040DA70E626FF20E636FF3506227F45048
:1057E80063236651010DF3506227F450632362C0AE
:1057F800F6FF63C0F7FF0800F5506825E66E3F50D6
:10580800E66ECDEC48F006B21FD04E50E66E0001B1
:105818006151040DA70E626FF20E636FF350622799
:10582800F45063236651010DF3506227F45063234B
:1058380062C0F6FF63C0F7FF0800F5506825E66E02
:105848003F50E66E68EC4BF00001662BB8D704AA0F
:10585800120006A242D0D59E68C0E2F03750D8B4F4
:105868000BD0000E03B6010EFCEC4BF050A0FCEC84
:105878002EF0000E0001E06F000E0001676F030EAE
:10588800676501D022D06751010D830EF324D96ECC
:10589800010EF420DA6E6151040DA70E626FF20E4C
:1058A800636FF3506227F45063236751010DF3507F
:1058B8006227F450632362C0F6FF63C0F7FF080055
:1058C800F5506825DF6E672BDAD7040E376E04A40F
:1058D800039EA3EC4CF0D58E120006B2120004B45D
:1058E80012003750D8B40BD0000E03B4010EFCECF4
:1058F8004BF050A0FCEC2EF0000E0001E06FE2C06F
:1059080062F00001636B62BF63076851646F656B87
:105918006251641906E163516519D8A402D0000EDA
:10592800376E04B003AE01D0048404A202D004A2EE
:1059380006D003AE04D0000E376E000EE16FA3EC64
:105948004CF0D58E12000001686F04BA4BD0000EDF
:105958000001666F020E666501D044D006A21ED013
:105968004E50E66E6151030D100E626FF30E636FB9
:10597800F3506227F45063236651010DF3506227F8
:10598800F450632362C0F6FF63C0F7FF0800F550C8
:105998006825E66E3F50E66ECDEC48F006B21FD0A3
:1059A8004E50E66E00016151030D100E626FF30E4A
:1059B800636FF3506227F45063236651010DF3506F
:1059C8006227F450632362C0F6FF63C0F7FF080044
:1059D800F5506825E66E3F50E66E68EC4BF0000126
:1059E800662BB8D704AA120006A241D0D59E68C07B
:1059F800E2F03750D8B40BD0000E03B6010EFCEC21
:105A08004BF050A0FCEC2EF0000E0001E06F000EF1
:105A18000001676F020E676501D022D06751010D42
:105A2800830EF324D96E010EF420DA6E6151030D52
:105A3800100E626FF30E636FF3506227F450632306
:105A48006751010DF3506227F450632362C0F6FFDB
:105A580063C0F7FF0800F5506825DF6E672BDAD7BB
:105A6800030E376E04A4039EA3EC4CF0D58E06B249
:105A7800120004B412003750D8B40BD0000E03B48F
:105A8800010EFCEC4BF050A0FCEC2EF0000E0001D7
:105A9800E06FE2C062F00001636B62BF63076851A8
:105AA800646F656B6251641906E163516519D8A486
:105AB80002D0000E376E04B003AE01D0048404A2F5
:105AC80002D004A206D003AE04D0000E376E000E3A
:105AD800E16FA3EC4CF0D58E12000001696F16D06F
