:0400000006EF00F017
:100008001CED2AF013EED9F046EF36F00001E55169
:10001800D8B41200100EE519D8A4B8D3049E049CD5
:10002800020E4E18D8A41ED0FF0E606FFF0E616F2F
:10003800010174510001626F636B60516227615165
:100048006323010176510001646F656B6251645D41
:100058006551800A666F6351800A6659D8B002D02C
:100068000101762B030E4E18D8A419D0FF0E0001FB
:10007800606FFF0E616FD751626F636B60516227CB
:1000880061516323D951646F656B6251645D655139
:10009800800A666F6351800A6659D8A0D92B040E6E
:1000A8004E18D8A41FD0FF0E0001606FFF0E616FBD
:1000B800010168510001626F636B605162276151F1
:1000C800632301016A510001646F656B6251645DCD
:1000D8006551800A666F6351800A6659D8B002D0AC
:1000E80001016A2B050E4E18D8A41FD0FF0E00017F
:1000F800606FFF0E616F010165510001626F636BF4
:100108006051622761516323010167510001646FE7
:10011800656B6251645D6551800A666F6351800A40
:100128006659D8B002D00101672B060E4E18D8A424
:100138001FD0FF0E0001606FFF0E616F0101595162
:100148000001626F636B6051622761516323010193
:100158005B510001646F656B6251645D6551800A93
:10016800666F6351800A6659D8B002D001015B2BD3
:10017800070E4E18D8A41FD0FF0E0001606FFF0EA7
:10018800616F010147510001626F636B6051622723
:1001980061516323010149510001646F656B62512C
:1001A800645D6551800A666F6351800A6659D8B0EC
:1001B80002D00101492B090E4E18D8A41FD0FF0EFA
:1001C8000001606FFF0E616F010171510001626FE4
:1001D800636B605162276151632301017351000110
:1001E800646F656B6251645D6551800A666F635127
:1001F800800A6659D8B002D00101732B0A0E4E1836
:10020800D8A41FD0FF0E0001606FFF0E616F0101BF
:100218006E510001626F636B605162276151632305
:10022800010170510001646F656B6251645D655135
:10023800800A666F6351800A6659D8B002D00101FE
:10024800702B0B0E4E18D8A41FD0FF0E0001606F44
:10025800FF0E616F01016B510001626F636B6051AA
:1002680062276151632301016D510001646F656B61
:100278006251645D6551800A666F6351800A6659F0
:10028800D8B002D001016D2B0C0E4E18D8A41FD087
:10029800FF0E0001606FFF0E616F010162510001E6
:1002A800626F636B6051622761516323010164517E
:1002B8000001646F656B6251645D6551800A666F09
:1002C8006351800A6659D8B002D00101642B0D0E23
:1002D8004E18D8A41FD0FF0E0001606FFF0E616F8B
:1002E80001015F510001626F636B605162276151C8
:1002F8006323010161510001646F656B6251645DA4
:100308006551800A666F6351800A6659D8B002D079
:100318000101612B0E0E4E18D8A41FD0FF0E00014C
:10032800606FFF0E616F01015C510001626F636BCA
:10033800605162276151632301015E510001646FBE
:10034800656B6251645D6551800A666F6351800A0E
:100358006659D8B002D001015E2B0F0E4E18D8A4F2
:100368001FD0FF0E0001606FFF0E616F0101565133
:100378000001626F636B6051622761516323010161
:1003880058510001646F656B6251645D6551800A64
:10039800666F6351800A6659D8B002D00101582BA4
:1003A800180E4E18D8A406D001013A51D8A402D08C
:1003B800010E3A6F100E4E18D8A406D0560E010141
:1003C800556102D0050E5527110E4E18D8A41FD01E
:1003D800FF0E0001606FFF0E616F010150510001B7
:1003E800626F636B6051622761516323010152514F
:1003F8000001646F656B6251645D6551800A666FC8
:100408006351800A6659D8B002D00101522B120EEE
:100418004E18D8A41FD0FF0E0001606FFF0E616F49
:1004280001014D510001626F636B60516227615198
:10043800632301014F510001646F656B6251645D74
:100448006551800A666F6351800A6659D8B002D038
:1004580001014F2B080E4E18D8A405D07F0E0101BC
:10046800466101D0462B140E4E18D8A405D00F0EA5
:100478000101436101D0432B150E4E18D8A405D0B5
:100488000F0E0101406101D0402B130E4E18D8A465
:100498001FD0FF0E0001606FFF0E616F01014A510E
:1004A8000001626F636B6051622761516323010130
:1004B8004C510001646F656B6251645D6551800A3F
:1004C800666F6351800A6659D8B002D001014C2B7F
:1004D800160E4E18D8A41FD0FF0E0001606FFF0E35
:1004E800616F01013B510001626F636B60516227CC
:1004F8006151632301013D510001646F656B6251D5
:10050800645D6551800A666F6351800A6659D8B088
:1005180002D001013D2B170E4E18D8A419D0FF0E9A
:100528000001606FFF0E616FD451626F636B6051A1
:10053800622761516323D651646F656B6251645DB4
:100548006551800A666F6351800A6659D8A0D62B18
:10055800190E4E18D8A419D0FF0E0001606FFF0EB7
:10056800616FD151626F636B605162276151632380
:10057800D351646F656B6251645D6551800A666F23
:100588006351800A6659D8A0D32B1A0E4E18D8A4E6
:1005980003D0010E0101371B1B0E4E18D8A405D03D
:1005A800FA0E0101346101D0342B1C0E4E18D8A468
:1005B80005D0040E0101316101D0312B1D0E4E18FA
:1005C800D8A41FD0FF0E0001606FFF0E616F0101FC
:1005D8002C510001626F636B605162276151632384
:1005E80001012E510001646F656B6251645D6551B4
:1005F800800A666F6351800A6659D8B002D001013B
:100608002E2B1E0E4E18D8A41FD0FF0E0001606FAF
:10061800FF0E616F010129510001626F636B605128
:1006280062276151632301012B510001646F656BDF
:100638006251645D6551800A666F6351800A66592C
:10064800D8B002D001012B2B1F0E4E18D8A41FD0F2
:10065800FF0E0001606FFF0E616F0101265100015E
:10066800626F636B605162276151632301012851F6
:100678000001646F656B6251645D6551800A666F45
:100688006351800A6659D8B002D00101282B200E88
:100698004E18D8A403D0010E0101251B210E4E18B7
:1006A800D8A403D0010E0101221B220E4E18D8A493
:1006B80003D0010E01011F1B230E4E18D8A41FD012
:1006C800FF0E0001606FFF0E616F01011A510001FA
:1006D800626F636B605162276151632301011C5192
:1006E8000001646F656B6251645D6551800A666FD5
:1006F8006351800A6659D8B002D001011C2B240E20
:100708004E18D8A403D0010E0101191B250E4E184E
:10071800D8A403D0010E0101161B260E4E18D8A42A
:1007280019D0FF0E0001606FFF0E616FCE51626F2E
:10073800636B6051622761516323D051646F656BAD
:100748006251645D6551800A666F6351800A66591B
:10075800D8A0D02B270E4E18D8A403D0010E010123
:10076800131B280E4E18D8A403D0010E0101101B2C
:10077800290E4E18D8A403D0010E01010D1B2A0E14
:100788004E18D8A403D0010E01010A1B200E000147
:10079800E519D8A447D1049E049C020E4E18D8A48B
:1007A80004D001017651D8A47607030E4E18D8A4B8
:1007B80004D00001D951D8A4D907040E4E18D8A4E2
:1007C80004D001016A51D8A46A07050E4E18D8A4AE
:1007D80004D001016751D8A46707060E4E18D8A4A3
:1007E80004D001015B51D8A45B07070E4E18D8A4AA
:1007F80004D001014951D8A44907090E4E18D8A4BC
:1008080004D001017351D8A473070A0E4E18D8A456
:1008180004D001017051D8A470070B0E4E18D8A44B
:1008280004D001016D51D8A46D070C0E4E18D8A440
:1008380004D001016451D8A464070D0E4E18D8A441
:1008480004D001016151D8A461070E0E4E18D8A436
:1008580004D001015E51D8A45E070F0E4E18D8A42B
:1008680004D001015851D8A45807180E4E18D8A41E
:1008780006D001013A05D8A402D0000E3A6F100E36
:100888004E18D8A406D00E0E0101556502D0050EEB
:10089800555F110E4E18D8A402D001015207120E4E
:1008A8004E18D8A402D001014F07080E4E18D8A43C
:1008B80004D001014651D8A44607140E4E18D8A4F6
:1008C80004D001014351D8A44307150E4E18D8A4EB
:1008D80004D001014051D8A44007130E4E18D8A4E3
:1008E80002D001014C07160E4E18D8A404D00101FD
:1008F8003D51D8A43D07170E4E18D8A404D00001C6
:10090800D651D8A4D607190E4E18D8A404D0000181
:10091800D351D8A4D3071A0E4E18D8A403D0010E69
:100928000101371B1B0E4E18D8A405D0190E010162
:10093800346501D034071C0E4E18D8A405D0010E1A
:100948000101316501D031071D0E4E18D8A404D01D
:1009580001012E51D8A42E071E0E4E18D8A404D07B
:1009680001012B51D8A42B071F0E4E18D8A404D070
:1009780001012851D8A42807200E4E18D8A403D066
:10098800010E0101251B210E4E18D8A403D0010E1B
:100998000101221B220E4E18D8A403D0010E01011A
:1009A8001F1B230E4E18D8A404D001011C51D8A433
:1009B8001C07240E4E18D8A403D0010E0101191BE0
:1009C800250E4E18D8A403D0010E0101161B260EC1
:1009D8004E18D8A404D00001D051D8A4D007270EAF
:1009E8004E18D8A403D0010E0101131B280E4E186F
:1009F800D8A403D0010E0101101B290E4E18D8A44B
:100A080003D0010E01010D1B290E4E18D8A403D0E6
:100A1800010E01010D1B2A0E4E18D8A403D0010E99
:100A280001010A1B000E0001E56F1200000E010112
:100A3800B46F0F0EB46501D05AD0B4515FEC43F0D7
:100A48000101B451020DB90EF324D96E030EF4203E
:100A5800DA6E000160C0DEFF61C0DDFF0E0E01012D
:100A6800B419D8B404D00F0EB419D8A428D0FF0EE6
:100A78000001C26F030EC36F0101B451020DB90E1C
:100A8800F324D96E030EF420DA6EDECFC4F0DDCF86
:100A9800C5F00001C41FC51FC44BC52BC251C427D4
:100AA800C351C5230101B451020DB90EF324D96E07
:100AB800030EF420DA6EC4C0DEFFC5C0DDFF05BC3E
:100AC80014D0B451020DB90EF324D96E030EF420DC
:100AD800DA6EB451020D400EF324E96E020EF420D2
:100AE800EA6EDECFEEFFDDCFEDFFB42BA2D7000E0E
:100AF800B36F0F0EB36501D0A1D0B351020D400EF4
:100B0800F324D96E020EF420DA6EDECF60F0DDCF6A
:100B180061F00001000E61BFFF0E626F636F010E8E
:100B28004FEC30F060C072F061C073F062C074F0D6
:100B380063C075F0000E0001A86F000EA96F800E4B
:100B4800AA6F3F0EAB6F04C1A0F005C1A1F006C1AA
:100B5800A2F007C1A3F066EC4BF0A0C0A4F0A1C0BE
:100B6800A5F0A2C0A6F0A3C0A7F0CEEC19F0A4C0CF
:100B78006EF0A5C06FF0A6C070F0A7C071F025ECAC
:100B880018F06EC0AFF16FC0B0F170C0B1F171C0B4
:100B9800B2F1AFC1A8F0B0C1A9F0B1C1AAF0B2C119
:100BA800ABF004C172F005C173F006C174F007C15F
:100BB80075F00101B351020DB90EF324D96E030E7D
:100BC800F420DA6EDECF60F0DDCF61F00001000EB8
:100BD80061BFFF0E626F636F010E4FEC30F060C0B3
:100BE8006EF061C06FF062C070F063C071F025EC08
:100BF80018F06EC0A4F06FC0A5F070C0A6F071C068
:100C0800A7F0CEEC19F0A4C0B8F0A5C0B9F0A6C002
:100C1800BAF0A7C0BBF0A5EC37F00101B351020D43
:100C2800400EF324D96E020EF420DA6E0001B8C02B
:100C3800DEFFB9C0DDFF0101B32B5BD7000EB56F36
:100C48000F0EB56501D0D3D2010E02016027000E48
:100C580061236223632305BC15D00101B551020D40
:100C6800400EF324D96E020EF420DA6EB551020D4F
:100C7800000EF324E96E020EF420EA6EDECFEEFFDA
:100C8800DDCFEDFF0101B551020D400EF324D96E01
:100C9800020EF420DA6EDECFC2F0DDCFC3F0B5511C
:100CA800020D000EF324D96E020EF420DA6EDECFA8
:100CB800C4F0DDCFC5F00001C41FC51FC44BC52B50
:100CC800C251C427C351C5230101A2510001C45D0B
:100CD800C551800AC66F0101A351800A0001C65997
:100CE800D8B030D00101B551020D000EF324D96EF1
:100CF800020EF420DA6EDECFC2F0DDCFC3F0B551BC
:100D0800020D400EF324D96E020EF420DA6EDECF07
:100D1800C4F0DDCFC5F00001C41FC51FC44BC52BEF
:100D2800C251C427C351C5230101A2510001C45DAA
:100D3800C551800AC66F0101A351800A0001C65936
:100D4800D8A040D2FC510101B519D8B404D0000193
:100D5800FC29D8A411D0000E0201606F000E616F4B
:100D6800000E626F000E636F000E646F000E656FF9
:100D7800000E666F000E676F200E0101A219A31105
:100D8800D8A495D0B551020D400EF324D96E020EA9
:100D9800F420DA6EDECFC2F0DDCFC3F0B551020D1C
:100DA800000EF324D96E020EF420DA6EDECFC4F002
:100DB800DDCFC5F00001C41FC51FC44BC52BC251F0
:100DC800C427C351C523C5BF25D0C55104E1200E92
:100DD800C45DD8A01FD00101B551020D000EF32447
:100DE800D96E020EF420DA6EDECFC2F0DDCFC3F08A
:100DF800080E0001C227000EC3230101B551020DE0
:100E0800400EF324D96E020EF420DA6EC2C0DEFF63
:100E1800C3C0DDFF0101B551020D000EF324D96EE8
:100E2800020EF420DA6EDECFC2F0DDCFC3F0B5518A
:100E3800020D400EF324D96E020EF420DA6EDECFD6
:100E4800C4F0DDCFC5F00001C41FC51FC44BC52BBE
:100E5800C251C427C351C523C5BF29D0C55104E118
:100E6800200EC45DD8A023D0F80EC26FFF0EC36F4A
:100E78000101B551020D000EF324D96E020EF420C3
:100E8800DA6EDECFC4F0DDCFC5F00001C251C42751
:100E9800C351C5230101B551020D400EF324D96E8B
:100EA800020EF420DA6EC4C0DEFFC5C0DDFF000EFE
:100EB8000101A36F080EA26F0001FC29D8B4B5C1C7
:100EC800FCF00101B551020D400EF324D96E020E5B
:100ED800F420DA6EB551020D200EF324E96E020EED
:100EE800F420EA6EDECFEEFFDDCFEDFFB551030D46
:100EF800880EF324D96E020EF420DA6E0201DFB0F8
:100F08009CD00101B551020D200EF324D96E020EBA
:100F1800F420DA6EDECF6EF0DDCF6FF00001000E48
:100F28006FBFFF0E706F716F000E726F000E736FE0
:100F3800000E746F000E756F500E766F3F0E776F50
:100F4800000E786F000E796F000E7A6F000E7B6FBF
:100F5800000E7C6F000E7D6FFF0E7E6F3F0E7F6F61
:100F6800000E806F000E816F4AEC34F00101B5511C
:100F7800020D200EF324D96E020EF420DA6E000161
:100F88006EC0DEFF6FC0DDFF0101B551020D200EFE
:100F9800F324D96E020EF420DA6EDECFC2F0DDCF74
:100FA800C3F00001C335C333C233C335C333C233BF
:100FB800C335C333C2330101B551020D200EF324EA
:100FC800D96E020EF420DA6EC2C0DEFFC3C0DDFFA8
:100FD800B551020D200EF324D96E020EF420DA6EFC
:100FE800010EDBAE0CD0B551020D200EF324D96EE4
:100FF800020EF420DA6E000EDE6E000EDD6EB551C4
:10100800020D200EF324D96E020EF420DA6E010EC2
:10101800DBBE13D0010EDB5004E1800EDE5CD8A0ED
:101028000CD0B551020D200EF324D96E020EF42017
:10103800DA6E7F0EDE6E000EDD6E0101B551030D16
:10104800880EF324D96E020EF420DA6E0201DFA0B6
:101058009AD00101B551020D200EF324D96E020E6B
:10106800F420DA6EDECFC2F0DDCFC3F00001C23B60
:10107800C33BF00EC317C2510F0BC313F00EC217B8
:101088000101B551020D200EF324D96E020EF42091
:10109800DA6EC2C0DEFFC3C0DDFFB551020D200EFF
:1010A800F324D96E020EF420DA6EDECF6EF0DDCFB7
:1010B8006FF00001000E6FBFFF0E706F716F500E62
:1010C800726F000E736F000E746F000E756F000E56
:1010D800766F3F0E776F000E786F000E796F000EF7
:1010E8007A6F000E7B6F000E7C6F000E7D6FFF0E17
:1010F8007E6F3F0E7F6F000E806F000E816F4AEC8F
:1011080034F00101B551020D200EF324D96E020E00
:10111800F420DA6E00016EC0DEFF6FC0DDFF010152
:10112800B551020D200EF324D96E020EF420DA6EAA
:10113800010EDBAE0CD0B551020D200EF324D96E92
:10114800020EF420DA6E000EDE6E000EDD6EB55172
:10115800020D200EF324D96E020EF420DA6E010E71
:10116800DBBE11D0DE52400EDE5CD8A00CD0B551EB
:10117800020D200EF324D96E020EF420DA6EFF0E53
:10118800DE6E3F0EDD6E0001FC510101B519D8A4D9
:1011980004D00001FC516BEC22F00101B551020DA5
:1011A800400EF324D96E020EF420DA6EB551020D0A
:1011B800000EF324E96E020EF420EA6EDECFEEFF95
:1011C800DDCFEDFF0201C451645DC5516559C651BB
:1011D8006659C7516759D8A007D0000E0101A36FFF
:1011E800200EA26F0001FC690101B52B29D5058CE1
:1011F80012003850D8B412003C50D8B408D0020EAF
:101208003C18D8B404D0060E3C18D8A4B7D03B502C
:10121800D8B402A427D03950800A7F0FD8B002B2C0
:1012280021D001BE1FD04F50E66EFF0E0C6EFF0E90
:101238000D6E38500E6E0F6A0C500E260D500F2290
:101248000E503524D96E0F503620DA6EDF50106EEE
:1012580039040C0DF3501024E66E4050E66E17EC7E
:101268004BF002943B04D8B402A429D03950800A28
:101278007F0FD8B002B223D001BE21D04F50E66E06
:10128800FF0E0C6EFF0E0D6E38500E6E0F6A0C506E
:101298000E260D500F220E503524D96E0F503620D1
:1012A800DA6EDF50106E4D50000839240C0DF350E3
:1012B8001024E66E4050E66E17EC4BF0029402A242
:1012C8005DD03B50D8A421D001BC1ED04F50E66E53
:1012D800FF0E0C6EFF0E0D6E38500E6E0F6A0C501E
:1012E8000E260D500F220E503524D96E0F50362081
:1012F800DA6EDF50106E4D040C0DF3501024E66EBC
:101308004050E66E17EC4BF002923B04D8A41CD078
:1013180001BC19D04F50E66EFF0E0C6EFF0E0D6E1D
:1013280038500E6E0F6A0C500E260D500F220E50BC
:101338003524D96E0F503620DA6EDF50E66E4050F5
:10134800E66E17EC4BF0029203A612D0010E386439
:1013580003D0010E3A6E02863804D8A409D0010ED3
:101368004D6406D0018E000E3A6E390639C0E3F09E
:10137800020E3C18D8A402D0030E3C6E3C04D8B42C
:1013880004D0030E3C18D8A4BED03B50D8B402A455
:1013980025D039BE02B222D001BE20D04F50E66E11
:1013A800FF0E0C6EFF0E0D6E38500E6E0F6A0C504D
:1013B8000E260D500F220E503524D96E0F503620B0
:1013C800DA6EDF50106E39504D240C0DF350102496
:1013D800E66E4050E66E17EC4BF002943B04D8B42E
:1013E80002A424D039BE02B221D001BE1FD04F5072
:1013F800E66EFF0E0C6EFF0E0D6E38500E6E0F6A05
:101408000C500E260D500F220E503524D96E0F5059
:101418003620DA6EDF50106E39280C0DF350102488
:10142800E66E4050E66E17EC4BF0029402A26BD0C9
:101438003B50D8A425D001BC22D04F50E66EFF0EF9
:101448000C6EFF0E0D6E38500E6E0F6A0C500E2685
:101458000D500F220E503524D96E0F503620DA6EFB
:10146800DF50106E4D50010DF35000084D240C0D47
:10147800F3501024E66E4050E66E17EC4BF00292E3
:101488003B04D8A426D001BC23D04F50E66EFF0EF3
:101498000C6EFF0E0D6E38500E6E0F6A0C500E2635
:1014A8000D500F220E503524D96E0F503620DA6EAB
:1014B800DF50106E4D50010DF3500008116E1128C9
:1014C8000C0DF3501024E66E4050E66E17EC4BF00E
:1014D800029203A612D0010E386403D0010E3A6EB0
:1014E80002863804D8A409D0010E4D6406D0018EB6
:1014F800000E3A6E392A39C0E3F0030E3C18D8A41E
:1015080002D0020E3C6E050E3C18D8B404D0040E6E
:101518003C18D8A45AD039C07BF102B401BE0ED011
:101528004F50E66E01017B510C0DF3500001E4258C
:10153800E66E4050E66E17EC4BF002943A50D8A491
:1015480002B61ED04F50E66EFF0E0C6EFF0E0D6EEB
:101558003A500E6E0F6A0C500E260D500F220E5088
:101568003524D96E0F503620DA6EDF50106E3950A0
:101578000C0DF3501024E66E4050E66E17EC4BF05D
:101588004D50E66E000EE66ED5EC41F041C0E6FF28
:1015980042C0E6FFCDEC34F04150396E02B815D0A8
:1015A8004F50E66E3A50010DF3503524D96EF45081
:1015B8003620DA6EDF500C6E39500C0DF3500C24C7
:1015C800E66E4050E66E94EC47F03C50D8B408D034
:1015D800020E3C18D8B404D0060E3C18D8A47FD00C
:1015E8000498B4EC32F03B50D8A439D03A50D8A47F
:1015F80002B61ED04F50E66EFF0E0C6EFF0E0D6E3B
:101608003A500E6E0F6A0C500E260D500F220E50D7
:101618003524D96E0F503620DA6EDF50106E3950EF
:101628000C0DF3501024E66E4050E66E17EC4BF0AC
:1016380002B815D04F50E66E3A50010DF3503524DC
:10164800D96EF4503620DA6EDF500C6E39500C0D1E
:10165800F3500C24E66E4050E66E94EC47F03B04E1
:10166800D8A43DD03A50D8A402B620D04F50E66E48
:10167800FF0E0C6EFF0E0D6E3A500E6E0F6A0C5078
:101688000E260D500F220E503524D96E0F503620DD
:10169800DA6EDF50106E4D04000839240C0DF3503B
:1016A8001024E66E4050E66E17EC4BF002B817D0E7
:1016B8004F50E66E3A50010DF3503524D96EF45070
:1016C8003620DA6EDF500C6E4D04000839240C0DFC
:1016D800F3500C24E66E4050E66E94EC47F03C0460
:1016E800D8B404D0030E3C18D8A482D00488B4EC33
:1016F80032F002983B50D8A43FD03A50D8A402B652
:1017080021D04F50E66EFF0E0C6EFF0E0D6E3A5054
:101718000E6E0F6A0C500E260D500F220E503524F7
:10172800D96E0F503620DA6EDF50106E4D503924C6
:10173800116E11040C0DF3501024E66E4050E66E45
:1017480017EC4BF002B818D04F50E66E3A50010D26
:10175800F3503524D96EF4503620DA6EDF500C6E13
:101768004D5039240D6E0D040C0DF3500C24E66E0B
:101778004050E66E94EC47F03B04D8A439D03A5078
:10178800D8A402B61ED04F50E66EFF0E0C6EFF0EA8
:101798000D6E3A500E6E0F6A0C500E260D500F2229
:1017A8000E503524D96E0F503620DA6EDF50106E89
:1017B80039500C0DF3501024E66E4050E66E17ECCD
:1017C8004BF002B815D04F50E66E3A50010DF35069
:1017D8003524D96EF4503620DA6EDF500C6E39504D
:1017E8000C0DF3500C24E66E4050E66E94EC47F076
:1017F8003A50010DF3503524D96EF4503620DA6E84
:10180800DF500001E46F3A2A02963C50D8B410D059
:10181800020E3C18D8B40CD0050E3C18D8B408D029
:10182800040E3C18D8B404D0060E3C18D8A437D0FF
:1018380038503A5CD8A01DD0000E3A6E3C50D8B44F
:1018480007D0020E3C18D8B403D0060E3C18D8B402
:10185800392A0284019E050E3C18D8B403B802D078
:10186800B7EC45F0040E3C18D8B403B802D060ECCD
:101878003CF04D500C6E0D6A39C00EF00F6A0EBE6A
:101888000F060C500E5C0F50800A106E0D50800A27
:101898001058D8A004D0000E396E0282019C3C0476
:1018A800D8B404D0030E3C18D8A4120038503A5CBF
:1018B800D8A005D0000E3A6E39060284019E39C0C0
:1018C8000CF00D6A0CBE0D064D50010DF31EF41EF2
:1018D800F34AF42A0C50F35CF450800A0E6E0D5053
:1018E800800A0E58D8A01200000E396E0282019CA0
:1018F800120031B034B60AD029B008D0000E000169
:10190800766F058E7651C6EC33F0298031B234B645
:101918000AD029B208D0010E0001766F058E7651E3
:10192800C6EC33F0298231B434B60AD029B408D0D1
:10193800020E0001766F058E7651C6EC33F02984CD
:1019480031B634B60AD029B608D0030E0001766F36
:10195800058E7651C6EC33F0298631B834B60AD0F4
:1019680029B808D0040E0001766F058E7651C6ECB2
:1019780033F0298831BA34B60AD029BA08D0050E0E
:101988000001766F058E7651C6EC33F0298A31BC9A
:1019980034B60AD029BC08D0060E0001766F058E31
:1019A8007651C6EC33F0298C31BE34B60AD029BE44
:1019B80008D0070E0001766F058E7651C6EC33F01D
:1019C800298E32B034B60AD02AB008D0080E0001E9
:1019D800766F058E7651C6EC33F02A8032B234B673
:1019E8000AD02AB208D0090E0001766F058E76510A
:1019F800C6EC33F02A8232B434B60AD02AB408D0FE
:101A08000A0E0001766F058E7651C6EC33F02A84F3
:101A180032B634B60AD02AB608D00B0E0001766F5B
:101A2800058E7651C6EC33F02A8632B834B60AD021
:101A38002AB808D00C0E0001766F058E7651C6ECD8
:101A480033F02A8832BA34B60AD02ABA08D00D0E32
:101A58000001766F058E7651C6EC33F02A8A32BCC7
:101A680034B60AD02ABC08D00E0E0001766F058E57
:101A78007651C6EC33F02A8C32BE34B60AD02ABE70
:101A880008D00F0E0001766F058E7651C6EC33F044
:101A98002A8E33B034B60AD02BB008D0100E00010D
:101AA800766F058E7651C6EC33F02B8033B234B6A0
:101AB8000AD02BB208D0110E0001766F058E765130
:101AC800C6EC33F02B8233B434B60AD02BB408D02A
:101AD800120E0001766F058E7651C6EC33F02B841A
:101AE80033B634B60AD02BB608D0130E0001766F81
:101AF800058E7651C6EC33F02B8633B834B60AD04F
:101B08002BB808D0140E0001766F058E7651C6ECFE
:101B180033F02B8833BA34B60AD02BBA08D0150E56
:101B28000001766F058E7651C6EC33F02B8A33BCF4
:101B380034B60AD02BBC08D0160E0001766F058E7D
:101B48007651C6EC33F02B8C33BE34B60AD02BBE9C
:101B580008D0170E0001766F058E7651C6EC33F06B
:101B68002B8E34B034B60AD02CB008D0180E000131
:101B7800766F058E7651C6EC33F02C802DB031B0DF
:101B88000AD029A008D0000E0001766F059E765174
:101B9800C6EC33F029902DB231B20AD029A208D070
:101BA800010E0001766F059E7651C6EC33F029923E
:101BB8002DB431B40AD029A408D0020E0001766FE2
:101BC800059E7651C6EC33F029942DB631B60AD06D
:101BD80029A608D0030E0001766F059E7651C6EC43
:101BE80033F029962DB831B80AD029A808D0040EA8
:101BF8000001766F059E7651C6EC33F029982DBA10
:101C080031BA0AD029AA08D0050E0001766F059EC0
:101C18007651C6EC33F0299A2DBC31BC0AD029ACD8
:101C280008D0060E0001766F059E7651C6EC33F09B
:101C3800299C2DBE31BE0AD029AE08D0070E00015E
:101C4800766F059E7651C6EC33F0299E2EB032B0E1
:101C58000AD02AA008D0080E0001766F059E76519A
:101C6800C6EC33F02A902EB232B20AD02AA208D09B
:101C7800090E0001766F059E7651C6EC33F02A9264
:101C88002EB432B40AD02AA408D00A0E0001766F06
:101C9800059E7651C6EC33F02A942EB632B60AD099
:101CA8002AA608D00B0E0001766F059E7651C6EC69
:101CB80033F02A962EB832B80AD02AA808D00C0ECB
:101CC8000001766F059E7651C6EC33F02A982EBA3D
:101CD80032BA0AD02AAA08D00D0E0001766F059EE6
:101CE8007651C6EC33F02A9A2EBC32BC0AD02AAC04
:101CF80008D00E0E0001766F059E7651C6EC33F0C3
:101D08002A9C2EBE32BE0AD02AAE08D00F0E000181
:101D1800766F059E7651C6EC33F02A9E2FB033B00D
:101D28000AD02BA008D0100E0001766F059E7651C0
:101D3800C6EC33F02B902FB233B20AD02BA208D0C6
:101D4800110E0001766F059E7651C6EC33F02B928A
:101D58002FB433B40AD02BA408D0120E0001766F2A
:101D6800059E7651C6EC33F02B942FB633B60AD0C5
:101D78002BA608D0130E0001766F059E7651C6EC8F
:101D880033F02B962FB833B80AD02BA808D0140EEE
:101D98000001766F059E7651C6EC33F02B982FBA6A
:101DA80033BA0AD02BAA08D0150E0001766F059E0B
:101DB8007651C6EC33F02B9A2FBC33BC0AD02BAC2F
:101DC80008D0160E0001766F059E7651C6EC33F0EA
:101DD8002B9C2FBE33BE0AD02BAE08D0170E0001A5
:101DE800766F059E7651C6EC33F02B9E30A012001C
:101DF80034B012002CA01200180E0001766F059E58
:101E08007651C6EC33F02C9012003EB034B632D086
:101E18003DB030D03D8001B807D096C160F04FC0CA
:101E280061F05050ECEC49F001A601A808D0F1C0CF
:101E380060F07F0E0001616F4050C8EC49F001B8B6
:101E480001A60AD037B008D0F1C060F07F0E0001BB
:101E5800616F4050C8EC49F001B801A60AD037A01C
:101E680008D0F1C060F0000E0001616F4050C8EC6E
:101E780049F037703EB234B632D03DB230D03D82F0
:101E880001B807D097C160F04FC061F05050ECEC3A
:101E980049F001A601A808D0F2C060F07F0E000149
:101EA800616F4050C8EC49F001B801A60AD037B2BA
:101EB80008D0F2C060F07F0E0001616F4050C8EC9E
:101EC80049F001B801A60AD037A208D0F2C060F0E4
:101ED800000E0001616F4050C8EC49F037723EB403
:101EE80034B632D03DB430D03D8401B807D098C163
:101EF80060F04FC061F05050ECEC49F001A601A829
:101F080008D0F3C060F07F0E0001616F4050C8EC4C
:101F180049F001B801A60AD037B408D0F3C060F080
:101F28007F0E0001616F4050C8EC49F001B801A66E
:101F38000AD037A408D0F3C060F0000E0001616F2A
:101F48004050C8EC49F037743EB634B632D03DB68E
:101F580030D03D8601B807D099C160F04FC061F01C
:101F68005050ECEC49F001A601A808D0F4C060F08C
:101F78007F0E0001616F4050C8EC49F001B801A61E
:101F88000AD037B608D0F4C060F07F0E0001616F48
:101F98004050C8EC49F001B801A60AD037A608D0CD
:101FA800F4C060F0000E0001616F4050C8EC49F0C9
:101FB80037763EB834B632D03DB830D03D8801B817
:101FC80007D09AC160F04FC061F05050ECEC49F076
:101FD80001A601A808D0F5C060F07F0E0001616F6E
:101FE8004050C8EC49F001B801A60AD037B008D073
:101FF800F5C060F07F0E0001616F4050C8EC49F0F9
:1020080001B801A60AD037A008D0F5C060F0000ECC
:102018000001616F4050C8EC49F037783EBA34B6D9
:1020280032D03DBA30D03D8A01B807D09BC160F0AC
:102038004FC061F05050ECEC49F001A601A808D05F
:10204800F6C060F07F0E0001616F4050C8EC49F0A7
:1020580001B801A60AD037B208D0F6C060F07F0EEA
:102068000001616F4050C8EC49F001B801A60AD0E0
:1020780037A208D0F6C060F0000E0001616F405032
:10208800C8EC49F0377A3EBC34B632D03DBC30D0CB
:102098003D8C01B807D09CC160F04FC061F0505032
:1020A800ECEC49F001A601A808D0F7C060F07F0E5B
:1020B8000001616F4050C8EC49F001B801A60AD090
:1020C80037B408D0F7C060F07F0E0001616F405050
:1020D800C8EC49F001B801A60AD037A408D0F7C067
:1020E80060F0000E0001616F4050C8EC49F0377C89
:1020F8003EBE34B632D03DBE30D03D8E01B807D09A
:102108009DC160F04FC061F05050ECEC49F001A661
:1021180001A808D0F8C060F07F0E0001616F405040
:10212800C8EC49F001B801A60AD037B608D0F8C003
:1021380060F07F0E0001616F4050C8EC49F001B8B3
:1021480001A60AD037A608D0F8C060F0000E00013A
:10215800616F4050C8EC49F0377E0001E7B13EB0EE
:1021680017D03DA015D03D9001B807D096C160F0BA
:102178004FC061F0505022EC4CF001A601A808D0E5
:10218800F1C060F0000E0001616F4050C8EC49F0EA
:102198000001E7B33EB217D03DA215D03D9201B879
:1021A80007D097C160F04FC061F0505022EC4CF05E
:1021B80001A601A808D0F2C060F0000E0001616F0E
:1021C8004050C8EC49F00001E7B53EB417D03DA433
:1021D80015D03D9401B807D098C160F04FC061F0A8
:1021E800505022EC4CF001A601A808D0F3C060F0D2
:1021F800000E0001616F4050C8EC49F00001E7B7DC
:102208003EB617D03DA615D03D9601B807D099C166
:1022180060F04FC061F0505022EC4CF001A601A8CC
:1022280008D0F4C060F0000E0001616F4050C8ECA7
:1022380049F00001E7B93EB817D03DA815D03D9840
:1022480001B807D09AC160F04FC061F0505022EC3D
:102258004CF001A601A808D0F5C060F0000E0001FE
:10226800616F4050C8EC49F00001E7BB3EBA17D097
:102278003DAA15D03D9A01B807D09BC160F04FC068
:1022880061F0505022EC4CF001A601A808D0F6C02D
:1022980060F0000E0001616F4050C8EC49F0000189
:1022A800E7BD3EBC17D03DAC15D03D9C01B807D06A
:1022B8009CC160F04FC061F0505022EC4CF001A678
:1022C80001A808D0F7C060F0000E0001616F40500F
:1022D800C8EC49F00001E7AF12003EBE12003DAE67
:1022E80012003D9E01B807D09DC160F04FC061F05B
:1022F800505022EC4CF001B6120001A81200F8C0B0
:1023080060F0000E0001616F4050C8EC49F0120007
:1023180000016F6F000E4E6E049E059271D204BECE
:10232800CFD1100E0001E519D8A475D06F51030D57
:10233800880EF324D96E020EF420DA6E0201DFB0A3
:102348003CD000016F51030D010EF326000EF4225C
:10235800880EF324D96E020EF420DA6EDF50800A5C
:10236800090FD8B02AD06F51030D010EF326000EC5
:10237800F422880EF324D96E020EF420DA6EDF2AD6
:102388006F51030D010EF326000EF422880EF3247C
:10239800D96E020EF420DA6EDF50D8A40ED06F5139
:1023A800030D010EF326000EF422880EF324D96ED5
:1023B800020EF420DA6E400EDF6E00016F51030D3D
:1023C800880EF324D96E020EF420DA6E0201DFA023
:1023D8001FD000016F51030D020EF326000EF422E8
:1023E800880EF324D96E020EF420DA6EDF50800ACC
:1023F800610FD8B00DD06F51030D020EF326000EF9
:10240800F422880EF324D96E020EF420DA6EDF2A45
:10241800000E0001E56F200EE519D8A4B2D06F5167
:10242800030D880EF324D96E020EF420DA6E020131
:10243800DFB079D000016F51030D010EF326000EB5
:10244800F422880EF324D96E020EF420DA6EDF50DF
:10245800800A820FD8A00DD06F51030D010EF3260C
:10246800000EF422880EF324D96E020EF420DA6EE0
:10247800DF066F51030D010EF326000EF422880EBD
:10248800F324D96E020EF420DA6E3D0EDE18D8A4BD
:102498000ED06F51030D010EF326000EF422880EA4
:1024A800F324D96E020EF420DA6EFD0EDF6E6F5142
:1024B800030D010EF326000EF422880EF324D96EC4
:1024C800020EF420DA6E3E0EDE18D8A40ED06F513C
:1024D800030D010EF326000EF422880EF324D96EA4
:1024E800020EF420DA6EFE0EDF6E6F51030D010E40
:1024F800F326000EF422880EF324D96E020EF4207F
:10250800DA6E3F0EDE18D8A40ED06F51030D010EFF
:10251800F326000EF422880EF324D96E020EF4205E
:10252800DA6EFF0EDF6E00016F51030D880EF32483
:10253800D96E020EF420DA6E0201DFA01FD000016E
:102548006F51030D020EF326000EF422880EF324B9
:10255800D96E020EF420DA6EDF50800A820FD8A0FE
:102568000DD06F51030D020EF326000EF422880ED3
:10257800F324D96E020EF420DA6EDF06000E000195
:10258800E56F6F51030D880EF324D96E020EF42007
:10259800DA6E0201DFB094D000016F51030D010E15
:1025A800F326000EF422880EF324D96E020EF420CE
:1025B800DA6E000EDBBE2ED06F51030D010EF3262E
:1025C800000EF422880EF324D96E020EF420DA6E7F
:1025D800DF50606F616B60BF6107EEEC3AF0070E89
:1025E8000001636F020EF6EC47F06B0E0001686F96
:1025F800FD0E696F5BEC42F00D0E0001636F020E79
:10260800F6EC47F0910E0001686F010E696F5BEC04
:1026180042F056D000016F51030D010EF326000E53
:10262800F422880EF324D96E020EF420DA6EDE2826
:10263800D8A40CD0070E636F020EF6EC47F09E0E7E
:102648000001686FFF0E696F5BEC42F000016F518B
:10265800030D010EF326000EF422880EF324D96E22
:10266800020EF420DA6EFE0EDE18D8A40CD0070E87
:10267800636F020EF6EC47F0880E0001686FFF0EDC
:10268800696F5BEC42F000016F51030D010EF326F8
:10269800000EF422880EF324D96E020EF420DA6EAE
:1026A800FD0EDE18D8A40CD0070E636F020EF6ECF0
:1026B80047F0930E0001686FFF0E696F5BEC42F004
:1026C80000016F51030D880EF324D96E020EF42019
:1026D800DA6E0201DFA094D000016F51030D020EE3
:1026E800F326000EF422880EF324D96E020EF4208D
:1026F800DA6E000EDBBE2ED06F51030D020EF326EC
:10270800000EF422880EF324D96E020EF420DA6E3D
:10271800DF50606F616B60BF6107EEEC3AF0070E47
:102728000001636F020EF6EC47F06B0E0001686F54
:10273800FD0E696F5BEC42F00D0E0001636F020E37
:10274800F6EC47F0910E0001686F010E696F5BECC3
:1027580042F056D000016F51030D020EF326000E11
:10276800F422880EF324D96E020EF420DA6EDE28E5
:10277800D8A40CD0070E636F020EF6EC47F09E0E3D
:102788000001686FFF0E696F5BEC42F000016F514A
:10279800030D020EF326000EF422880EF324D96EE0
:1027A800020EF420DA6EFE0EDE18D8A40CD0070E46
:1027B800636F020EF6EC47F0880E0001686FFF0E9B
:1027C800696F5BEC42F000016F51030D020EF326B6
:1027D800000EF422880EF324D96E020EF420DA6E6D
:1027E800FD0EDE18D8A40CD0070E636F020EF6ECAF
:1027F80047F0930E0001686FFF0E696F5BEC42F0C3
:1028080005B212008CD50001766F1ED0550E00015E
:10281800786FFD0E17D0460E786FFD0E13D0370E69
:10282800786FFD0E0FD0280E786FFD0E0BD0190EA5
:10283800786FFD0E07D00A0E786FFD0E03D0FB0EE1
:10284800786FFC0E796F17D00001EC51000AD8B4EC
:10285800DDD7010AD8B4DFD7030AD8B4E0D7010A14
:10286800D8B4E1D7070AD8B4E2D7010AD8B4E3D775
:10287800030AD8B4E4D704B6D8D03F04D8A427D0E4
:1028880005AE11D04F50E66E7151010D780EF3244C
:10289800F66EF30EF420F76E0800F550E66E405021
:1028A800E66E94EC47F005BE12D04F50E66E00017C
:1028B8007151010D780EF324F66EF30EF420F76EC5
:1028C8000800F550E66E4050E66E17EC4BF0020E2D
:1028D8003F18D8A428D005AE12D04F50E66E00019C
:1028E8007151010D690EF324F66EF30EF420F76EA4
:1028F8000800F550E66E4050E66E94EC47F005BED1
:1029080012D04F50E66E00017151010D690EF3248B
:10291800F66EF30EF420F76E0800F550E66E4050A0
:10292800E66E17EC4BF0030E3F18D8A47ED00001DA
:102938007151D8A433D005AE17D04F50E66E7151FF
:10294800010D78C072F079C073F0F3507227F4501B
:10295800732372C0F6FF73C0F7FF0800F550E66EE8
:102968004050E66E94EC47F005BE18D04F50E66E26
:1029780000017151010D78C072F079C073F0F35005
:102988007227F450732372C0F6FF73C0F7FF080074
:10299800F550E66E4050E66E17EC4BF000017151B1
:1029A800D8B443D005AE1FD04F50E66E7151010D1B
:1029B80078C072F079C073F0F3507227F450732323
:1029C80072C0F6FF73C0F7FF0800F5CF74F078C047
:1029D800F6FF79C0F7FF0800F5507425E66E405001
:1029E800E66E94EC47F005BE20D04F50E66E00012D
:1029F8007151010D78C072F079C073F0F3507227ED
:102A0800F450732372C0F6FF73C0F7FF0800F5CFC8
:102A180074F078C0F6FF79C0F7FF0800F550742508
:102A2800E66E4050E66E17EC4BF004A6E1D03F048A
:102A3800D8A40CD000017151010D780EF324F66E64
:102A4800F30EF420F76E0800F5CF77F0020E3F186A
:102A5800D8A40CD000017151010D690EF324F66E53
:102A6800F30EF420F76E0800F5CF77F0030E3F1849
:102A7800D8A431D000017151D8A411D07151010DE1
:102A880078C072F079C073F0F3507227F450732352
:102A980072C0F6FF73C0F7FF0800F5CF77F07151E9
:102AA800D8B419D07151010D78C072F079C073F0A3
:102AB800F3507227F450732372C0F6FF73C0F7FF08
:102AC8000800F5CF74F078C0F6FF79C0F7FF08006A
:102AD800F5507425776F05AE25D0D59E77C0E2F006
:102AE8003850D8B40BD0000E03B2010EACEC4BF04A
:102AF80002A0E0EC2EF0000E0001E06F3F04D8B415
:102B080008D0020E3F18D8B404D0030E3F18D8A43A
:102B180004D0000177514DEC35F004A0039A53EC32
:102B28004CF0D58E05AE04B063D0D59E3850D8B4DD
:102B38000BD0000E03B0010EACEC4BF002A0E0ECA1
:102B48002EF0000E0001E06F3F04D8B408D0020E4A
:102B58003F18D8B404D0030E3F18D8A404D00001FD
:102B6800775133EC4BF0E2C072F00001736B72BF27
:102B780073077751746F756B7251741906E173514D
:102B88007519D8A402D0000E386E03BC03AA01D070
:102B980004803F04D8B408D0020E3F18D8B404D03B
:102BA800030E3F18D8A407D003AE03AA04D0000E22
:102BB800386E000EE16F070E3F18D8B40CD0080E1F
:102BC8003F18D8B408D00A0E3F18D8B404D00B0E5A
:102BD8003F18D8A40AD003AE02D003AE06D003AA89
:102BE80004D0000E386E000EE16F53EC4CF0D58E19
:102BF800070E3F18D8A406D071C061F000017651C5
:102C08008BEC2CF0080E3F18D8A406D071C061F0E8
:102C180000017651BFEC23F00A0E3F18D8A406D065
:102C280071C061F000017651C0EC2BF00B0E3F181B
:102C3800D8A4120071C061F000017651F2EC24F0C2
:102C4800120031B034B60ED029B00CD0000E0001FD
:102C58007A6F000E7B6F058E7BC071F07A5107EC9E
:102C680014F0298031B434B60ED029B40CD0020E39
:102C780000017A6F010E7B6F058E7BC071F07A516F
:102C880007EC14F0298431B834B60ED029B80CD02A
:102C9800040E00017A6F020E7B6F058E7BC071F007
:102CA8007A5107EC14F0298831BA34B60ED029BA13
:102CB8000CD0050E00017A6F030E7B6F058E7BC06A
:102CC80071F07A5107EC14F0298A31BE34B60ED06F
:102CD80029BE0CD0070E00017A6F040E7B6F058E9B
:102CE8007BC071F07A5107EC14F0298E32B234B6F9
:102CF8000ED02AB20CD0090E00017A6F050E7B6F38
:102D0800058E7BC071F07A5107EC14F02A8232B636
:102D180034B60ED02AB60CD00B0E00017A6F060E10
:102D28007B6F058E7BC071F07A5107EC14F02A8610
:102D380032B834B60ED02AB80CD00C0E00017A6F17
:102D4800070E7B6F058E7BC071F07A5107EC14F08B
:102D58002A8832BC34B60ED02ABC0CD00E0E000124
:102D68007A6F080E7B6F058E7BC071F07A5107EC85
:102D780014F02A8C33B034B60ED02BB00CD0100E11
:102D880000017A6F090E7B6F058E7BC071F07A5156
:102D980007EC14F02B8033B234B60ED02BB20CD023
:102DA800110E00017A6F0A0E7B6F058E7BC071F0E1
:102DB8007A5107EC14F02B8233B634B60ED02BB60A
:102DC8000CD0130E00017A6F0B0E7B6F058E7BC043
:102DD80071F07A5107EC14F02B8633BA34B60ED062
:102DE8002BBA0CD0150E00017A6F0C0E7B6F058E76
:102DF8007BC071F07A5107EC14F02B8A33BE34B6DD
:102E08000ED02BBE0CD0170E00017A6F0D0E7B6F03
:102E1800058E7BC071F07A5107EC14F02B8E34B01C
:102E280034B60ED02CB00CD0180E00017A6F0E0EEE
:102E38007B6F058E7BC071F07A5107EC14F02C8003
:102E48002DB031B00ED029A00CD0000E00017A6F41
:102E5800000E7B6F059E7BC071F07A5107EC14F071
:102E680029902DB431B40ED029A40CD0020E000143
:102E78007A6F010E7B6F059E7BC071F07A5107EC6B
:102E880014F029942DB831B80ED029A80CD0040E0E
:102E980000017A6F020E7B6F059E7BC071F07A513C
:102EA80007EC14F029982DBA31BA0ED029AA0CD003
:102EB800050E00017A6F030E7B6F059E7BC071F0D3
:102EC8007A5107EC14F0299A2DBE31BE0ED029AEE6
:102ED8000CD0070E00017A6F040E7B6F059E7BC035
:102EE80071F07A5107EC14F0299E2EB232B20ED04E
:102EF8002AA20CD0090E00017A6F050E7B6F059E81
:102F08007BC071F07A5107EC14F02A922EB632B6D3
:102F18000ED02AA60CD00B0E00017A6F060E7B6F1E
:102F2800059E7BC071F07A5107EC14F02A962EB8F2
:102F380032B80ED02AA80CD00C0E00017A6F070EFA
:102F48007B6F059E7BC071F07A5107EC14F02A98CC
:102F58002EBC32BC0ED02AAC0CD00E0E00017A6FFB
:102F6800080E7B6F059E7BC071F07A5107EC14F058
:102F78002A9C2FB033B00ED02BA00CD0100E00011D
:102F88007A6F090E7B6F059E7BC071F07A5107EC52
:102F980014F02B902FB233B20ED02BA20CD0110EFE
:102FA80000017A6F0A0E7B6F059E7BC071F07A5123
:102FB80007EC14F02B922FB633B60ED02BA60CD0FC
:102FC800130E00017A6F0B0E7B6F059E7BC071F0AC
:102FD8007A5107EC14F02B962FBA33BA0ED02BAADD
:102FE8000CD0150E00017A6F0C0E7B6F059E7BC00E
:102FF80071F07A5107EC14F02B9A2FBE33BE0ED025
:103008002BAE0CD0170E00017A6F0D0E7B6F059E4C
:103018007BC071F07A5107EC14F02B9E30A012009F
:1030280034B012002CA01200000E00017A6F0E0EB0
:103038007B6F059E7BC071F07A5107EC14F02C90E1
:10304800120000017151800B7A6F71517125806FE8
:1030580070BF80818051D8B40DD08029D8A408D001
:10306800000E6E6F000E6F6F000E706F000E716FA6
:10307800708F08D0000E6E6F000E6F6F000E706FAD
:10308800000E716F7551800B7A1B755175257B6F1A
:1030980074BF7B817B51D8B40DD07B29D8A408D0CC
:1030A800000E726F000E736F000E746F000E756F56
:1030B800748F08D0000E726F000E736F000E746F5D
:1030C800000E756F7B51D8B403D08051D8A409D0B5
:1030D800000E6E6F000E6F6F000E706F000E716F36
:1030E800120074516E03F3CF85F0F4CF86F085514A
:1030F8007C6F7D6B7E6B7F6B8651816F826B836B80
:10310800846B73516F03F3CF85F0F4CF86F085514C
:103118007C27000E7D237E237F2386518127000E86
:1031280082238323842372517003F3CF85F0F4CF75
:1031380086F085517C27000E7D237E237F238651D0
:103148008127000E8223832384237EC07FF07DC0E5
:103158007EF07CC07DF07C6B72516F03F3CF85F0FD
:10316800F4CF86F085517C2786517D23000E7E237F
:10317800000E7F2373516E03F3CF85F0F4CF86F0F2
:1031880085517C2786517D23000E7E23000E7F23E8
:103198007EC07FF07DC07EF07CC07DF07C6B72517C
:1031A8006E03F3CF85F0F4CF86F085517C278651E6
:1031B8007D23000E7E23000E7F2374516F03F3CF0F
:1031C80085F0F4CF86F08551812786518223000E41
:1031D8008323000E842373517003F3CF85F0F4CF5B
:1031E80086F08551812786518223000E8323000EA5
:1031F800842374517003F3CF85F0F4CF86F08551A2
:10320800766F8651776F786B796B78C079F077C075
:1032180078F076C077F0766B7651812777518223E4
:1032280078518323795184237CC076F07DC077F070
:103238007EC078F07FC079F0190E05D0D890793328
:10324800783377337633E82EF9D77651812777515B
:10325800822378518323795184237EC07FF07DC0F7
:103268007EF07CC07DF07C6B7B5180C076F0776B04
:103278007627000E7723820E7625856FFF0E77213D
:10328800866F0FD0D89081378237833784377FBFD6
:103298008181D8907C377D377E377F378507D8A0E6
:1032A800860783AFEFD7000E7B6F7FAF16D0FF0E78
:1032B8007C15766FFF0E7D15776FFF0E7E15786F84
:1032C8007F0E7F15796F7651771178117911D8A40F
:1032D80002D081A102D0010E7B6F7B51D8B41FD0E0
:1032E800010E8127000E82238323842384A117D013
:1032F80081C076F082C077F083C078F084C079F01E
:103308007935793378337733763376C081F077C07F
:1033180082F078C083F079C084F0854B862B86BF15
:103328000DD0865103E18529D8A008D0000E816F01
:10333800000E826F800E836F7F0E20D086BF05D06F
:1033480086510EE18505D8B00BD0000E816F000EB6
:10335800826F000E836F000E846F000E7A6F0FD09D
:1033680085C080F0FF0E8117FF0E82177F0E83172E
:10337800000E841780B1838FD8908031846F7A5182
:10338800841381C06EF082C06FF083C070F084C077
:1033980071F012000001A751800BB46FA751A72547
:1033A800B66FA6BFB681B651D8B40DD0B629D8A489
:1033B80008D0000EA46F000EA56F000EA66F000EB9
:1033C800A76FA68F06D0000EA46F000EA56F000E83
:1033D800A66F000EA76FAB51800BB56FB451B5192E
:1033E800D8A4B48DAB51AB25B56FAABFB581B55183
:1033F800D8B40DD0B529D8A408D0000EA86F000EF7
:10340800A96F000EAA6F000EAB6FAA8F06D0000E30
:10341800A86F000EA96F000EAA6F000EAB6FB65111
:10342800B55DD8B022D0B4AD02D0800EB41BB6C002
:10343800B7F0B5C0B6F0B7C0B5F0A4C0B7F0A8C033
:10344800A4F0B7C0A8F0A5C0B7F0A9C0A5F0B7C050
:10345800A9F0A6C0B7F0AAC0A6F0B7C0AAF0A7C046
:10346800B7F0ABC0A7F0B7C0ABF0000EB76FB6515E
:10347800AC6FAD6BAC1FAD1FAC4BAD2BB551AE6F88
:10348800AF6BAC51AE27AD51AF23AFBF2CD0AF510E
:1034980004E11A0EAE5DD8A026D0A451A511A6113C
:1034A800A711D8B402D0010E01D0000EB76F000EDC
:1034B800A46F000EA56F000EA66F000EA76FB5C013
:1034C800B6F015D0B7A105D0D890B7310109B76FBC
:1034D80002D0D890B733A4B1B78FA735A733A63396
:1034E800A533A433B62BB551B65DD8A0EBD7B4BD80
:1034F80029D0B651D8A409D0000EA46F000EA56F2C
:10350800000EA66F000EA76F1200A851A427A9519C
:10351800A523AA51A623AB51A723A7A183D0B7A15E
:1035280006D0D890B733B7510109B76F02D0D890F9
:10353800B733A4B1B78FA735A733A633A533A433C0
:10354800B62B70D0A851A45DA951A559AA51A65966
:10355800A751800AAC6FAB51800AAC59D8B036D0AD
:10356800A4C0ACF0A5C0ADF0A6C0AEF0A7C0AFF047
:10357800AC1FAD1FAE1FAF1FAC2B000EAD23AE238B
:10358800AF23A851AC25B06FA951AD21B16FAA5195
:10359800AE21B26FAB51AF21B36FFF0EB025A46F50
:1035A800FF0EB121A56FFF0EB221A66FFF0EB3214A
:1035B800A76F800EB41BB76DB751D8A40FD0010EFA
:1035C800A427000EA523A623A72308D0A851A45FEB
:1035D800A951A55BAA51A65BAB51A75BA451A51144
:1035E800A611A711D8A41CD0B751D8A419D0000E81
:1035F800A46F000EA56F000EA66F000EA76F120035
:10360800D890A437A537A637A737B7BFA481B7A1E5
:1036180002D0D88001D0D890B737B651D8A4B60711
:10362800A6AFEED7000EB56FB7AF0AD0B7C0ACF0F3
:103638007F0EAC17D8A402D0A4A102D0010EB56F9A
:10364800B551D8B420D0010EA427000EA523A62377
:10365800A723A7A118D0A4C0ACF0A5C0ADF0A6C000
:10366800AEF0A7C0AFF0AF35AF33AE33AD33AC3348
:10367800ACC0A4F0ADC0A5F0AEC0A6F0AFC0A7F036
:10368800B629D8A4B62BB629D8B403D0B651D8A435
:103698000DD0000EA46F000EA56F000EA66F000ED1
:1036A800A76FB651D8A402D0000EB46FB6A102D04D
:1036B800A68F01D0A69FD890B631A76FB4BFA78FA9
:1036C800A4C0A4F0A5C0A5F0A6C0A6F0A7C0A7F006
:1036D800120004A640D034B63EA002D043EC4CF011
:1036E80034B63EA202D03DEC29F034B63EA417D041
:1036F800050E3C18D8B4B7EC45F0040E3C18D8B405
:1037080060EC3CF0010E0001E96FA70E606F010E3E
:10371800616FEB0E626FFF0E636F4DEC4BF034B6CA
:103728003EA619D0000E02BC010EACEC4BF0028094
:10373800E0EC2EF02EEC4AF0000E0001E06F010ED6
:10374800E96FA70E606F010E616FF50E626FFF0ED5
:10375800636F4DEC4BF0040E3418311032103310F7
:10376800D8A43ED0EDC07EF000017F6B7EBF7F07FE
:10377800FE51606F616B60BF6107000E636F0C0ED6
:10378800626FEAEC4BF000017E5160277F516123A4
:1037980061BF06D0615124E13D0E605DD8B020D0F4
:1037A80004A00ED03850D8B40BD0000E02BE010EC3
:1037B800ACEC4BF002A0E0EC2EF00286018E018CFE
:1037C8000001FE2BFE51800A780FD8A002D0070E08
:1037D800FE6FFE51606F616B60BF6107A0EC4CF03B
:1037E800020E3418311032103310D8A43BD0EDC07B
:1037F8007EF000017F6B7EBF7F07FE51606F616BBB
:1038080060BF6107000E636F0C0E626FEAEC4BF04D
:1038180000017E5160277F51612361BF23D0615130
:1038280004E10C0E605DD8A01DD004A00ED0385065
:10383800D8B40BD0000E02BE010EACEC4BF002A0C7
:10384800E0EC2EF00286018E018C0001FE07FEAF2F
:1038580002D0000EFE6FFE51606F616B60BF6107A2
:10386800A0EC4CF00C0E3418311032103310D8A4E0
:1038780058D0EDC07EF000017F6B7EBF7F07FE5100
:10388800606F616B60BF6107000E636F0C0E626F43
:10389800EAEC4BF000017E5160277F51612361BF44
:1038A80006D061513EE1480E605DD8B03AD004A020
:1038B8000ED03850D8B40BD0000E02BE010EACECBE
:1038C8004BF002A0E0EC2EF00286018E018C04BAC7
:1038D80009D00001ED2BED51800A730FD8A002D05A
:1038E8000C0EED6F04AA15D00C0EE66E000EE66EF7
:1038F800070E0001ED27EDC07EF07F6B7EBF7F07CE
:103908007EC0E6FF7FC0E6FFCDEC34F041500001F9
:10391800ED6F0001ED51606F616B60BF6107A0EC56
:103928004CF00A0E3418311032103310D8A412009B
:10393800EDC07EF000017F6B7EBF7F07FE51606F98
:10394800616B60BF6107000E636F0C0E626FEAEC7B
:103958004BF000017E5160277F51612361BF120047
:10396800615103E16005D8A0120004A00ED03850C0
:10397800D8B40BD0000E02BE010EACEC4BF002A086
:10398800E0EC2EF00286018E018C04BA09D0000109
:10399800ED07ED51800A8C0FD8B002D0F40EED6F10
:1039A80004AA15D00C0EE66E000EE66EF90E0001A4
:1039B800ED27EDC07EF07F6B7EBF7F077EC0E6FF00
:1039C8007FC0E6FFCDEC34F041500001ED6F0001FF
:1039D800ED51606F616B60BF6107A0EC4CF01200A5
:1039E80031040AE1080E341832103310D8A404D078
:1039F800F40E0001DF6F0184020E31180AE1080E8F
:103A0800341832103310D8A404D0F50E0001DF6F3B
:103A18000184040E31180AE1080E341832103310EC
:103A2800D8A404D0F60E0001DF6F0184080E311807
:103A38000AE1080E341832103310D8A404D0F70E57
:103A48000001DF6F0184100E31180AE1080E3418E6
:103A580032103310D8A404D0F80E0001DF6F0184AF
:103A6800200E31180AE1080E341832103310D8A489
:103A780004D0F90E0001DF6F0184400E31180AE10D
:103A8800080E341832103310D8A404D0FA0E0001EE
:103A9800DF6F0184800E31180AE1080E34183210E5
:103AA8003310D8A404D0FB0E0001DF6F0184320468
:103AB8000AE1080E341831103310D8A404D0FC0ED3
:103AC8000001DF6F0184020E32180AE1080E341873
:103AD80031103310D8A404D0FD0E0001DF6F01842B
:103AE800040E32180AE1080E341831103310D8A425
:103AF80004D0FE0E0001DF6F0184080E321809E1C0
:103B0800080E341831103310D8A403D00001DF692F
:103B18000184100E32180AE1080E341831103310DF
:103B2800D8A404D0000E0001DF6F0184200E3218E3
:103B38000AE1080E341831103310D8A404D0010E4D
:103B48000001DF6F0184400E32180AE1080E3418B4
:103B580031103310D8A404D0020E0001DF6F0184A5
:103B6800800E32180AE1080E341831103310D8A428
:103B780004D0030E0001DF6F018433040AE1080E4C
:103B8800341831103210D8A404D0040E0001DF6FAD
:103B98000184020E33180AE1080E3418311032106D
:103BA800D8A404D0050E0001DF6F0184040E331879
:103BB8000AE1080E341831103210D8A404D0060EC9
:103BC8000001DF6F0184080E33180AE1080E34186B
:103BD80031103210D8A404D0070E0001DF6F018421
:103BE800100E33180AE1080E341831103210D8A418
:103BF80004D0080E0001DF6F0184200E33180AE19B
:103C0800080E341831103210D8A404D0090E00015F
:103C1800DF6F0184400E33180AE1080E34183110A2
:103C28003210D8A404D00A0E0001DF6F0184800E80
:103C380033180AE1080E341831103210D8A404D011
:103C48000B0E0001DF6F0184090E34183110321099
:103C58003310D8A404D00C0E0001DF6F018401A436
:103C6800120004A00ED03850D8B40BD0000E02BEFB
:103C7800010EACEC4BF002A0E0EC2EF00286018EB7
:103C8800018C0001DF51800A730FD8A002D00C0EFE
:103C9800DF6FDF51800A8C0FD8B002D0F40EDF6FCF
:103CA800DFC0EDF0ED51606F616B60BF6107A0ECA4
:103CB8004CF00194120000018A51800B936F8A51D5
:103CC8008A259E6F89BF9E819E51D8B40DD09E29AA
:103CD800D8A408D0000E876F000E886F000E896F79
:103CE800000E8A6F898F06D0000E876F000E886FCE
:103CF800000E896F000E8A6F8E51800B931B8E51B8
:103D08008E259F6F8DBF9F819F51D8B40DD09F295D
:103D1800D8A408D0000E8B6F000E8C6F000E8D6F2C
:103D2800000E8E6F8D8F06D0000E8B6F000E8C6F7D
:103D3800000E8D6F000E8E6F8B518C118D118E11B0
:103D4800D8A415D0000E876F000E886F000E896FFB
:103D5800000E8A6F800E89137F0E8A1387C087F042
:103D680088C088F089C089F08AC08AF012009E5104
:103D7800D8A411D0000E876F000E886F000E896FCF
:103D8800000E8A6F87C087F088C088F089C089F0E4
:103D98008AC08AF012009F518F6F906B8F1F901FFF
:103DA8008F4B902B9E51916F926B8F519127905111
:103DB80092237F0E9125986F000E9221996F87C0EC
:103DC80094F088C095F089C096F08AC097F0000EEC
:103DD800876F000E886F000E896F000E8A6F000EC5
:103DE8009A6F000E9B6F000E9C6F000E9D6F000E69
:103DF8009F6F28D09F51D8B411D0D8909437953759
:103E080096379737D8908737883789378A379DBF4D
:103E18008781D8909A379B379C379D378B51945D13
:103E28008C5195598D5196598E519759D8A009D0D2
:103E38009D8D8B51945F8C51955B8D51965B8E5106
:103E4800975B9F2B190E9F65D5D7945195119611A5
:103E58009711D8B411D09A810FD0D8908737883766
:103E680089378A379DBF8781D8909A379B379C3787
:103E78009D379807D8A0990789AFEFD7000E9F6F95
:103E88009DAF16D0FF0E9A158F6FFF0E9B15906F82
:103E9800FF0E9C15916F7F0E9D15926F8F5190119B
:103EA80091119211D8A402D087A102D0010E9F6F60
:103EB8009F51D8B41FD0010E8727000E882389236D
:103EC8008A238AA117D087C08FF088C090F089C054
:103ED80091F08AC092F092359233913390338F33B8
:103EE8008FC087F090C088F091C089F092C08AF0A6
:103EF800984B992B99BF10D0995103E19829D8A0D4
:103F08000BD0000E996F9869000E876F000E886FAE
:103F1800000E896F000E8A6F99BF05D0995111E183
:103F28009805D8B00ED0000E996F000E986F000E4D
:103F3800876F000E886F000E896F000E8A6F000E63
:103F4800936F98C09EF09EA102D0898F01D0899F5F
:103F5800D8909E318A6F93518A1387C087F088C0A2
:103F680088F089C089F08AC08AF01200010177516F
:103F78000001F91906E1010178510001FA19D8B4D4
:103F8800B5D0E851D8A466D0FABF04D0F9C0DAF0A9
:103F9800FAC0DBF0FAAF0CD0F9C007F0FAC008F0AD
:103FA800071E081E074A082A07C0DAF008C0DBF017
:103FB8000A0EE66E000EE66EE80EE66E030EE66E7C
:103FC800DAC0E6FFDBC0E6FFF9EC30F041C0E6FFFF
:103FD80042C0E6FFCDEC34F041500001CA6F0A0E32
:103FE800E66E000EE66E640EE66E000EE66EDAC051
:103FF800E6FFDBC0E6FFF9EC30F041C0E6FF42C067
:10400800E6FFCDEC34F041500001CB6F0A0EE66EAE
:10401800000EE66E0A0EE66E000EE66EDAC0E6FFE9
:10402800DBC0E6FFF9EC30F041C0E6FF42C0E6FF36
:10403800CDEC34F041500001CC6F0A0EE66E000E54
:10404800E66EDAC0E6FFDBC0E6FFCDEC34F04150A7
:104058000001CD6FE805D8A422D0F9C007F0FAC056
:1040680008F00C0E096E083408320732092EFBD707
:1040780007500F0BCA6FFA510F0BCB6FF9C007F03F
:10408800FAC008F0040E096E083408320732092E07
:10409800FBD707500F0BCC6FF9510F0BCD6F020EEA
:1040A800E819D8A41FD0F9517F0B0A6EF9C007F0A0
:1040B800FAC008F0070E096E083408320732092ED4
:1040C800FBD707507F0B0B6E0B380F0B070BCA6F14
:1040D8000B500F0BCB6F0A380F0B070BCC6F0A5026
:1040E8000F0BCD6FF9C077F1FAC078F1E851D8B469
:1040F80007D0E805D8B404D0020EE819D8A48AD0AD
:10410800DE51D8A422D08296E851D8B4FAAF0AD0AA
:10411800CB51D8B403D0400E836E828006A015D050
:10412800838E13D0CA51010D590EF324F66EF30E87
:10413800F420F76E0800F5CF83FF06B0838ECA51CE
:10414800D8A402D0829001D08280DE05D8A424D0E1
:104158008290CB51010D590EF324F66EF30EF42024
:10416800F76E0800F5CF83FF06B0838ECA51D8A436
:1041780005D0CB51D8A402D0829201D08282E851D6
:10418800D8B4FAAF09D0CC51D8B406D0CB51D8A402
:1041980003D0400E836E8282020EDE19D8A427D087
:1041A8008292CC51010D590EF324F66EF30EF420D1
:1041B800F76E0800F5CF83FF06B0838ECA51D8A4E6
:1041C80008D0CB51D8A405D0CC51D8A402D0829421
:1041D80001D08284E851D8B4FAAF09D0CD51D8B40F
:1041E80006D0CC51D8A403D0400E836E8284030E2F
:1041F800DE19D8A40FD08294CD51010D590EF324A5
:10420800F66EF30EF420F76E0800F5CF83FF06B0C4
:10421800838E8286DE2B030EDE651200000EDE6FB3
:10422800120031B234B60ED029B20CD0010E000102
:10423800776F000E786F058E78C071F07751F0ECCB
:104248002AF0298231B634B60ED029B60CD0030E26
:104258000001776F010E786F058E78C071F0775185
:10426800F0EC2AF0298631BC34B60ED029BC0CD02B
:10427800060E0001776F020E786F058E78C071F018
:104288007751F0EC2AF0298C32B034B60ED02AB02F
:104298000CD0080E0001776F030E786F058E78C07A
:1042A80071F07751F0EC2AF02A8032B434B60ED08F
:1042B8002AB40CD00A0E0001776F040E786F058EB1
:1042C80078C071F07751F0EC2AF02A8432BA34B60B
:1042D8000ED02ABA0CD00D0E0001776F050E786F3C
:1042E800058E78C071F07751F0EC2AF02A8A32BE38
:1042F80034B60ED02ABE0CD00F0E0001776F060E12
:10430800786F058E78C071F07751F0EC2AF02A8E1C
:1043180033B434B60ED02BB40CD0120E0001776F24
:10432800070E786F058E78C071F07751F0EC2AF09F
:104338002B8433B834B60ED02BB80CD0140E000131
:10434800776F080E786F058E78C071F07751F0ECB2
:104358002AF02B8833BC34B60ED02BBC0CD0160EEA
:104368000001776F090E786F058E78C071F077516C
:10437800F0EC2AF02B8C2DB231B20ED029A20CD041
:10438800010E0001776F000E786F059E78C071F0FE
:104398007751F0EC2AF029922DB631B60ED029A625
:1043A8000CD0030E0001776F010E786F059E78C060
:1043B80071F07751F0EC2AF029962DBC31BC0ED063
:1043C80029AC0CD0060E0001776F020E786F059E9F
:1043D80078C071F07751F0EC2AF0299C2EB032B0F9
:1043E8000ED02AA00CD0080E0001776F030E786F4C
:1043F800059E78C071F07751F0EC2AF02A902EB41F
:1044080032B40ED02AA40CD00A0E0001776F040E25
:10441800786F059E78C071F07751F0EC2AF02A94F5
:104428002EBA32BA0ED02AAA0CD00D0E0001776F20
:10443800050E786F059E78C071F07751F0EC2AF080
:104448002A9A2EBE32BE0ED02AAE0CD00F0E000114
:10445800776F060E786F059E78C071F07751F0EC93
:104468002AF02A9E2FB433B40ED02BA40CD0120EEF
:104478000001776F070E786F059E78C071F077514D
:10448800F0EC2AF02B942FB833B80ED02BA80CD010
:10449800140E0001776F080E786F059E78C071F0D2
:1044A8007751F0EC2AF02B982FAC120033BC120095
:1044B8002BAC1200160E0001776F090E786F059E5F
:1044C80078C071F07751F0EC2AF02B9C12000001B3
:1044D800686F00016851020D200EF324D96E020E98
:1044E800F420DA6EDECFF9F0DDCFFAF06851030D73
:1044F800880EF324D96E020EF420DA6E0201DFB0C2
:1045080088D0000E0001E96F000EE86F6851030DB6
:10451800010EF326000EF422880EF324D96E020E43
:10452800F420DA6E000EDBBE1BD06851030D010EBD
:10453800F326000EF422880EF324D96E020EF4201E
:10454800DA6EDF50606F6851020D200EF324D96EC9
:10455800020EF420DA6EDF50616F4050C8EC49F06B
:1045680000016851030D010EF326000EF422880E97
:10457800F324D96E020EF420DA6EDE28D8A40AD00D
:104588006851020D200EF324D96E020EF420DA6E63
:10459800DF504F6E6851030D010EF326000EF42212
:1045A800880EF324D96E020EF420DA6EFE0EDE18A1
:1045B800D8A40FD0000E606F6851020D200EF324AE
:1045C800D96E020EF420DA6EDF50616F4050FBECBA
:1045D8004AF000016851030D010EF326000EF42283
:1045E800880EF324D96E020EF420DA6EFD0EDE1862
:1045F800D8A40FD0010E606F6851020D200EF3246D
:10460800D96E020EF420DA6EDF50616F4050C8ECAC
:1046180049F000016851030D880EF324D96E020E8B
:10462800F420DA6E0201DFA01200000E0001E96F2B
:10463800020EE86F6851020D200EF324D96E020EA7
:10464800F420DA6EDF507F0B666F6851020D200E82
:10465800F324D96E020EF420DA6EDECF63F0DDCFDC
:1046680064F0070E656F643564336333652FFBD7D9
:1046780063517F0B676F6851030D020EF326000E1E
:10468800F422880EF324D96E020EF420DA6E000E9E
:10469800DBBE28D06851030D020EF326000EF4226B
:1046A800880EF324D96E020EF420DA6EDF50606FA4
:1046B80067C061F04050C8EC49F000016851030D33
:1046C800020EF326000EF422880EF324D96E020E91
:1046D800F420DA6EDF50200F606F66C061F0405042
:1046E800C8EC49F000016851030D020EF326000ED4
:1046F800F422880EF324D96E020EF420DA6EDE2836
:10470800D8B467C04FF06851030D020EF326000EAF
:10471800F422880EF324D96E020EF420DA6EFE0E0F
:10472800DE18D8A407D066C060F067C061F04050BA
:10473800FBEC4AF000016851030D020EF326000E4F
:10474800F422880EF324D96E020EF420DA6EFD0EE0
:10475800DE18D8A41200010E606F67C061F04050E7
:10476800C8EC49F0210E0001606F66C061F040504E
:10477800C8EC49F012000001666F04B68FD0000E35
:104788000001676F020E676501D088D06751D8A411
:1047980027D005AE11D04F50E66E6151030DE30EE0
:1047A800F324F66EF20EF420F76E0800F550E66E6C
:1047B8004050E66E94EC47F005BE12D04F50E66EBE
:1047C80000016151030DE30EF324F66EF20EF4209E
:1047D800F76E0800F550E66E4050E66E17EC4BF0A9
:1047E80000016751D8B457D005AE29D04F50E66EB6
:1047F8006151030DE30E626FF20E636FF35062278F
:10480800F45063236751010DF3506227F45063237A
:1048180062C0F6FF63C0F7FF0800F5CF64F061518E
:10482800030DE30EF324F66EF20EF420F76E080083
:10483800F5506425E66E4050E66E94EC47F005BEF0
:104848002AD04F50E66E00016151030DE30E626FEE
:10485800F20E636FF3506227F45063236751010D22
:10486800F3506227F450632362C0F6FF63C0F7FF7A
:104878000800F5CF64F06151030DE30EF324F66EE2
:10488800F20EF420F76E0800F5506425E66E4050ED
:10489800E66E17EC4BF00001672B74D704A61200E4
:1048A80005AE66D0D59E66C0E2F03850D8B40BD0BD
:1048B800000E03B2010EACEC4BF002A0E0EC2EF0BF
:1048C800000E0001E06F000E0001686F020E6865BF
:1048D80001D046D06851D8A413D06151030DE30E1E
:1048E800F324F66EF20EF420F76E6851010D810E76
:1048F800F324D96E010EF420DA6E0800F5CFDFFF3D
:104908006851D8B42BD06851010D810EF324D96EAB
:10491800010EF420DA6E6151030DE30E626FF20EA0
:10492800636FF3506227F45063236851010DF3500D
:104938006227F450632362C0F6FF63C0F7FF0800E4
:10494800F5CF64F06151030DE30EF324F66EF20E19
:10495800F420F76E0800F5506425DF6E682BB6D793
:10496800030E386E04A0039A53EC4CF0D58E120057
:1049780005BE120004B012003850D8B40BD0000E97
:1049880003B0010EACEC4BF002A0E0EC2EF0000EF0
:104998000001E06FE2C062F00001636B62BF630771
:1049A8006651646F656B6251641906E1635165195C
:1049B800D8A402D0000E386E03BC03AA01D004802C
:1049C80003AE02D003AE06D003AA04D0000E386EA0
:1049D800000EE16F53EC4CF0D58E12000001666FAB
:1049E80004B68FD0000E0001676F030E676501D013
:1049F80088D06751D8A427D005AE11D04F50E66EA5
:104A08006151040D6B0EF324F66EF20EF420F76E6E
:104A18000800F550E66E4050E66E94EC47F005BE8F
:104A280012D04F50E66E00016151040D6B0EF32455
:104A3800F66EF20EF420F76E0800F550E66E405060
:104A4800E66E17EC4BF000016751D8B457D005AEAD
:104A580029D04F50E66E6151040D6B0E626FF20E55
:104A6800636FF3506227F45063236751010DF350CD
:104A78006227F450632362C0F6FF63C0F7FF0800A3
:104A8800F5CF64F06151040D6B0EF324F66EF20E4F
:104A9800F420F76E0800F5506425E66E4050E66E87
:104AA80094EC47F005BE2AD04F50E66E00016151E4
:104AB800040D6B0E626FF20E636FF3506227F450B1
:104AC80063236751010DF3506227F450632362C0DA
:104AD800F6FF63C0F7FF0800F5CF64F06151040DDD
:104AE8006B0EF324F66EF20EF420F76E0800F55004
:104AF8006425E66E4050E66E17EC4BF00001672B1C
:104B080074D704A6120005AE65D0D59E66C0E2F043
:104B18003850D8B40BD0000E03B2010EACEC4BF0F9
:104B280002A0E0EC2EF0000E0001E06F000E000184
:104B3800686F030E686501D046D06851D8A413D0B9
:104B48006151040D6B0EF324F66EF20EF420F76E2D
:104B58006851010D810EF324D96E010EF420DA6E2E
:104B68000800F5CFDFFF6851D8B42BD06851010D8C
:104B7800810EF324D96E010EF420DA6E6151040D12
:104B88006B0E626FF20E636FF3506227F45063236B
:104B98006851010DF3506227F450632362C0F6FF99
:104BA80063C0F7FF0800F5CF64F06151040D6B0E88
:104BB800F324F66EF20EF420F76E0800F550642523
:104BC800DF6E682BB6D7040E386E04A0039A53EC38
:104BD8004CF0D58E05BE120004B012003850D8B47F
:104BE8000BD0000E03B0010EACEC4BF002A0E0ECD1
:104BF8002EF0000E0001E06FE2C062F00001636B6E
:104C080062BF63076651646F656B6251641906E1A0
:104C180063516519D8A402D0000E386E03BC03AAEC
:104C280001D0048003AE02D003AE06D003AA04D09C
:104C3800000E386E000EE16F53EC4CF0D58E12006A
:104C48000301B66F000E0301B56F000EB46FB60511
:104C5800D8A404D0000EB56F800EB46F020EB6193A
:104C6800D8A404D0010EB56F000EB46F030EB619A8
:104C7800D8A404D0010EB56F800EB46F040EB61917
:104C8800D8A404D0020EB56F000EB46F000EB86F32
:104C9800000EB76FB8511CE117D0690EB725D96E51
:104CA800030EB821DA6EB451B7250001606F030115
:104CB800B551B8210001616F63EC4CF0DF6E030160
:104CC800B74BB82BB85104E14B0EB75DD8A0E5D768
:104CD80069C33FF06AC3ECF06BC3EBF06CC3EAF056
:104CE8006DA102D0048A01D0049A03016EA102D0FA
:104CF800018801D0019803016FA102D0018601D07B
:104D0800019670C396F171C397F172C398F173C39A
:104D180099F174C39AF175C39BF176C39CF177C37B
:104D28009DF178C3F1F079C3F2F07AC3F3F07BC355
:104D3800F4F07CC3F5F07DC3F6F07EC3F7F07FC3D3
:104D4800F8F0030180A102D0058A01D0059A81C339
:104D580089F282C38AF283C38CF284C38DF285C33D
:104D68008FF286C390F287C392F288C393F289C305
:104D780095F28AC396F28BC398F28CC399F28DC3CD
:104D88009BF28EC39CF28FC39EF290C39FF291C395
:104D9800A1F292C3A2F293C3A4F294C3A5F295C35D
:104DA800A7F296C3A8F297C3AAF298C3ABF299C325
:104DB800ADF29AC3AEF29BC3B0F29CC3B1F29DC3ED
:104DC800B3F29EC3B4F29FC3B6F2A0C3B7F2A1C3B5
:104DD80040F0A2C350F0A3C3FEF0A4C3EDF0A5C3F6
:104DE800EEF00301A6A102D0048601D00496A7C361
:104DF800FFF09CEC2FF0C2C079F1C3C07AF1A8C3D0
:104E08004DF0A9C33CF0AAC3FBF00301ABA102D04B
:104E1800048001D0049004B0038A0301ACA102D03D
:104E2800038C01D0039C0301ADA102D0038E01D0F5
:104E3800039E0301AEA102D0038801D003980301A9
:104E4800AFA102D0038601D003960301B0A102D01E
:104E5800038201D003920301B1A102D0038001D0E3
:104E680003900301B2A102D0028E01D0029E030179
:104E7800B3A102D0028C1200029C1200230E000182
:104E8800676F010E686F3CD06851030D010EF32661
:104E9800000EF422000EF324D96E030EF420DA6E0D
:104EA800FF0E6825606F616BFF0E6123000E636F54
:104EB800030E626FEAEC4BF0000E00016025E96E0C
:104EC800030E6121EA6EEF50666FFF0E6825606F72
:104ED800616BFF0E6123000E636F030E626FEAECD5
:104EE8004BF0010E00016027000E6123000E6025C3
:104EF800E96E030E6121EA6EEF506625DF6E682BBE
:104F08006751685DD8A0C0D700C374F101C375F1BB
:104F180002C376F103C3D7F004C3D8F005C3D9F0B0
:104F280006C371F107C372F108C373F109C36EF1C7
:104F38000AC36FF10BC370F10CC36BF10DC36CF1B5
:104F48000EC36DF10FC368F110C369F111C36AF1A3
:104F580012C365F113C366F114C367F115C362F197
:104F680016C363F117C364F118C35FF119C360F185
:104F78001AC361F11BC35CF11CC35DF11DC35EF173
:104F88001EC359F11FC35AF120C35BF121C356F167
:104F980022C357F123C358F124C350F125C351F15B
:104FA80026C352F127C34DF128C34EF129C34FF14F
:104FB8002AC34AF12BC34BF12CC34CF12DC347F143
:104FC8002EC348F12FC349F130C33BF131C33CF143
:104FD80032C33DF133C3D4F034C3D5F035C3D6F072
:104FE80036C338F137C339F138C33AF139C3D1F090
:104FF8003AC3D2F03BC3D3F03CC335F13DC336F1DD
:105008003EC337F13FC32CF140C32DF141C32EF10C
:1050180042C329F143C32AF144C32BF145C326F106
:1050280046C327F147C328F148C323F149C324F1F4
:105038004AC325F14BC320F14CC321F14DC322F1E2
:105048004EC31DF14FC31EF150C31FF151C31AF1D6
:1050580052C31BF153C31CF154C317F155C318F1C4
:1050680056C319F157C314F158C315F159C316F1B2
:105078005AC3CEF05BC3CFF05CC3D0F0120000017E
:10508800B16F000E0001B06F000EAF6FB105D8A46C
:1050980004D0000EB06F800EAF6F020EB119D8A405
:1050A80004D0010EB06F000EAF6F030EB119D8A473
:1050B80004D0010EB06F800EAF6F040EB119D8A4E2
:1050C80004D0020EB06F000EAF6F3FC064F0ECC0AA
:1050D80065F0EBC066F0EAC067F0000E04BA010E96
:1050E800686F000E01B8010E696F000E01B6010E5F
:1050F8006A6F96C16BF097C16CF098C16DF099C159
:105108006EF09AC16FF09BC170F09CC171F09DC1A7
:1051180072F0F1C073F0F2C074F0F3C075F0F4C02F
:1051280076F0F5C077F0F6C078F0F7C079F0F8C0FF
:105138007AF0000E05BA010E7B6F89C27CF08AC234
:105148007DF08CC27EF08DC27FF08FC280F090C25D
:1051580081F092C282F093C283F095C284F096C225
:1051680085F098C286F099C287F09BC288F09CC2ED
:1051780089F09EC28AF09FC28BF0A1C28CF0A2C2B5
:105188008DF0A4C28EF0A5C28FF0A7C290F0A8C27D
:1051980091F0AAC292F0ABC293F0ADC294F0AEC245
:1051A80095F0B0C296F0B1C297F0B3C298F0B4C20D
:1051B80099F0B6C29AF0B7C29BF040C09CF050C0BC
:1051C8009DF0FEC09EF0EDC09FF0EEC0A0F0000E76
:1051D80004B6010EA16FFFC0A2F04DC0A3F03CC001
:1051E800A4F0FBC0A5F0000E04B0010EA66F000EDF
:1051F80003BC010EA76F000E03BE010EA86F000EC0
:1052080003B8010EA96F000E03B6010EAA6F000EB7
:1052180003B2010EAB6F000E03B0010EAC6F000EAF
:1052280002BE010EAD6F000E02BC010EAE6F000E85
:10523800B36F000EB26FB3511BE14B0EB25DD8B025
:105248001200CAEC4CF00001AF51B225606FB051AA
:10525800B321616F640EB225D96E000EB321DA6EE8
:10526800DF50626F0DEC4AF00001B24BB32BE3D76D
:1052780012000490059E3850D8B47FD0190E000152
:10528800E26F3F50D8B408D0060E3F18D8B404D007
:10529800090E3F18D8A43DD0060E3C18D8B409D042
:1052A800050E3C18D8B405D0040E3C18D8B401B289
:1052B80005D001018151C6EC33F001823C50D8B4CD
:1052C80005D0020E3C18D8B401B205D002017851BD
:1052D800C6EC33F001823C04D8B405D0030E3C1868
:1052E800D8B401B216D0FF0E00017A6FFF0E7B6FA3
:1052F80038507C6F7D6B7A517C277B517D23780EEB
:105308007C25D96E020E7D21DA6EDF50C6EC33F0B3
:1053180001823F04D8B419D0020E3F18D8B415D072
:10532800030E3F18D8B411D0070E3F18D8B40DD0CB
:10533800080E3F18D8B409D00A0E3F18D8B405D0C3
:105348000B0E3F18D8B401B207D0000E0001716FE0
:10535800000E07EC14F00182040E3F18D8B405D0F3
:10536800050E3F18D8B401B207D0000E0001716FC6
:10537800000EF0EC2AF00182019203BE03AA10D0BD
:10538800010E38640DD0010E0001E96FA70E606FA1
:10539800010E616FE10E626FFF0E636F4DEC4BF013
:1053A80003AE10D03804D8A40DD0010E0001E96F67
:1053B800A70E606F010E616FFA0E626FFF0E636FCA
:1053C8004DEC4BF003BC03AA18D003AE02D003AED9
:1053D80014D03850D8A411D0000E386E000E000139
:1053E800E16F010EE96FA70E606F010E616FF00E9D
:1053F800626FFF0E636F4DEC4BF004B0120003AE0A
:1054080002D003AE12003850D8A41200000E386E35
:10541800000E0001E16F010EE96FA70E606F010E2B
:10542800616FDC0E626FFF0E636F4DEC4BF0120084
:105438000600E9CF13F0EACF14F0E1CF15F0E2CF80
:1054480016F0D9CF17F0DACF18F0F3CF19F0F4CF60
:105458001AF0F6CF1BF0F7CF1CF0F8CF1DF0F5CF00
:105468001EF041C01FF042C020F043C021F044C0EC
:1054780022F045C023F046C024F047C025F048C0BC
:1054880026F04BC027F04CC028F016EEE6F09EA29E
:1054980005D089EC4CF0830ECC6E9E929EA00CD069
:1054A800010E02016427000E652366236723EC0EB4
:1054B800CF6E780ECE6E9E90F2A20BD0410E126E79
:1054C800EE0EE82EFED7122EFCD700D081A0058262
:1054D800F292F2A003D01FEC43F0F290F2A44FD066
:1054E800F29A02BA2ED00001FB51E66EE051E66E48
:1054F80048EC41F04150D8A424D0060E3C18D8B44A
:105508000DD03C50D8B40AD03C04D8B407D0020E11
:105518003C18D8B403D0030E3C18D8B439C0E3F013
:105528000684FDEC08F0069402980296019E019C00
:10553800050E3C18D8B403D0040E3C18D8B439C0B2
:10554800E3F003B402AA0DD00001FB51E66EE0516E
:10555800E66E48EC41F04150D8A403D0029AFBC053
:10556800E0F00001E02BFB51E05DD8A002D0000E76
:10557800E06F79C1D6FF7AC1D7FFF294F28A28C0CA
:105588004CF027C04BF026C048F025C047F024C097
:1055980046F023C045F022C044F021C043F020C0AB
:1055A80042F01FC041F01EC0F5FF1DC0F8FF1CC02F
:1055B800F7FF1BC0F6FF1AC0F4FF19C0F3FF18C0AD
:1055C800DAFF17C0D9FF16C0E2FF15C0E1FF14C00B
:1055D800EAFF13C0E9FF110004B658D0040E3F18C3
:1055E800D8A428D005AE12D04F50E66E00017151F4
:1055F800010D920EF324F66EF30EF420F76E0800F8
:10560800F550E66E4050E66E94EC47F005BE12D0B9
:105618004F50E66E00017151010D920EF324F66EA3
:10562800F30EF420F76E0800F550E66E4050E66E73
:1056380017EC4BF0050E3F18D8A428D005AE12D0B1
:105648004F50E66E00017151010D870EF324F66E7E
:10565800F30EF420F76E0800F550E66E4050E66E43
:1056680094EC47F005BE12D04F50E66E0001715120
:10567800010D870EF324F66EF30EF420F76E080082
:10568800F550E66E4050E66E17EC4BF004A612009B
:10569800040E3F18D8A40CD000017151010D920ED0
:1056A800F324F66EF30EF420F76E0800F5CF76F0CB
:1056B800050E3F18D8A40CD000017151010D870EBA
:1056C800F324F66EF30EF420F76E0800F5CF76F0AB
:1056D80005AE1AD0D59E76C0E2F03850D8B40BD0BB
:1056E800000E03B2010EACEC4BF002A0E0EC2EF081
:1056F800000E0001E06F000176514DEC35F004A07A
:10570800039A53EC4CF0D58E05BE120004B012007B
:10571800D59E3850D8B40BD0000E03B0010EACECB7
:105728004BF002A0E0EC2EF0000E0001E06F00014B
:10573800765133EC4BF0E2C072F00001736B72BF2C
:1057480073077651746F756B7251741906E1735152
:105758007519D8A402D0000E386E03BC03AA01D074
:10576800048003AE03AA04D0000E386E000EE16F69
:1057780053EC4CF0D58E12000001686F04B64BD084
:10578800000E0001666F030E666501D044D005AEB9
:105798001ED04F50E66E6151040DA70E626FF20ED7
:1057A800636FF3506227F45063236651010DF35081
:1057B8006227F450632362C0F6FF63C0F7FF080056
:1057C800F5506825E66E4050E66E94EC47F005BE4D
:1057D8001FD04F50E66E00016151040DA70E626F95
:1057E800F20E636FF3506227F45063236651010D84
:1057F800F3506227F450632362C0F6FF63C0F7FFDB
:105808000800F5506825E66E4050E66E17EC4BF040
:105818000001662BB8D704A6120005AE42D0D59E6B
:1058280068C0E2F03850D8B40BD0000E03B2010EB5
:10583800ACEC4BF002A0E0EC2EF0000E0001E06FA3
:10584800000E0001676F030E676501D022D0675113
:10585800010D810EF324D96E010EF420DA6E615128
:10586800040DA70E626FF20E636FF3506227F450B7
:1058780063236751010DF3506227F450632362C01C
:10588800F6FF63C0F7FF0800F5506825DF6E672B49
:10589800DAD7040E386E04A0039A53EC4CF0D58E78
:1058A800120005BE120004B012003850D8B40BD054
:1058B800000E03B0010EACEC4BF002A0E0EC2EF0B1
:1058C800000E0001E06FE2C062F00001636B62BF8E
:1058D80063076851646F656B6251641906E163512F
:1058E8006519D8A402D0000E386E03BC03AA01D0F3
:1058F800048003AE02D003AE06D003AA04D0000E83
:10590800386E000EE16F53EC4CF0D58E120000019A
:10591800686F04B64BD0000E0001666F020E666514
:1059280001D044D005AE1ED04F50E66E6151030D34
:10593800100E626FF30E636FF3506227F450632307
:105948006651010DF3506227F450632362C0F6FFDD
:1059580063C0F7FF0800F5506825E66E4050E66E14
:1059680094EC47F005BE1FD04F50E66E0001615120
:10597800030D100E626FF30E636FF3506227F4503D
:1059880063236651010DF3506227F450632362C00C
:10599800F6FF63C0F7FF0800F5506825E66E405033
:1059A800E66E17EC4BF00001662BB8D704A6120080
:1059B80005AE41D0D59E68C0E2F03850D8B40BD0BF
:1059C800000E03B2010EACEC4BF002A0E0EC2EF09E
:1059D800000E0001E06F000E0001676F020E6765A0
:1059E80001D022D06751010D810EF324D96E010E2A
:1059F800F420DA6E6151030D100E626FF30E636FBF
:105A0800F3506227F45063236751010DF350622766
:105A1800F450632362C0F6FF63C0F7FF0800F55037
:105A28006825DF6E672BDAD7030E386E04A0039A59
:105A380053EC4CF0D58E05BE120004B0120038505D
:105A4800D8B40BD0000E03B0010EACEC4BF002A0A2
:105A5800E0EC2EF0000E0001E06FE2C062F0000101
:105A6800636B62BF63076851646F656B6251641949
:105A780006E163516519D8A402D0000E386E03BC44
:105A880003AA01D0048003AE02D003AE06D003AA55
:105A980004D0000E386E000EE16F53EC4CF0D58E3A
:105AA80012000001696F16D0D80E0001656F020E52
:105AB8000FD0D40E656F020E0BD0D00E656F020E9C
:105AC80007D0CC0E656F020E03D0C80E656F020EAC
:105AD800666F11D00001EA51000AD8B4E5D7010A6F
