:0400000007EF00F016
:100008004882DDED4DF091EF4EF01DD0BA0E2E6E08
:10001800FE0E17D0AB0E2E6EFE0E13D09C0E2E6E5B
:10002800FE0E0FD08D0E2E6EFE0E0BD07E0E2E6E97
:10003800FE0E07D06F0E2E6EFE0E03D0600E2E6ED3
:10004800FE0E2F6E17D00001DE51000AD8B4DED79D
:10005800010AD8B4DFD7030AD8B4E0D7010AD8B464
:10006800E1D7070AD8B4E2D7010AD8B4E3D7030A1C
:10007800D8B4E4D739B031B019D1000E306E40048D
:10008800D8A40CD0460EF66EF80EF76E0800F5CF21
:1000980027F046C028F0425014EC52F0020E4018E7
:1000A800D8A40CD0370EF66EF80EF76E0800F5CF10
:1000B80027F046C028F0425014EC52F0030E4018C6
:1000C800D8A40CD02EC0F6FF2FC0F7FF0800F5CF3C
:1000D80027F046C028F0425014EC52F0050E4018A4
:1000E800D8A427D0E10EF66EF70EF76E0800F5508B
:1000F8003024276E46C028F0425014EC52F0E20E2D
:10010800F66EF70EF76E0800F5503024276E46C0DD
:1001180028F0425014EC52F0E30EF66EF70EF76E2C
:100128000800F5503024276E46C028F0425014ECE1
:1001380052F0060E4018D8A434D0B70EF66EF70E5B
:10014800F76E0800F5CF27F046C028F0425014ECAF
:1001580052F0B70EF66EF70EF76E0800F5CF2BF0DB
:10016800B80EF66EF70EF76E0800F5502B24276EC2
:1001780046C028F0425014EC52F0B70EF66EF70E57
:10018800F76E0800F5CF2BF0B90EF66EF70EF76E86
:100198000800F5502B24276E46C028F0425014EC76
:1001A80052F0080E4018D8A434D07F0EF66EF70E21
:1001B800F76E0800F5503024276E46C028F04250EC
:1001C80014EC52F0800EF66EF70EF76E0800F5503C
:1001D8003024276E46C028F0425014EC52F0810EAD
:1001E800F66EF70EF76E0800F5503024276E46C0FD
:1001F80028F0425014EC52F0820EF66EF70EF76EAD
:100208000800F5503024276E46C028F0425014EC00
:1002180052F0090E4018D8A448D0470EF66EF70ED3
:10022800F76E0800F5CF27F046C028F0425014ECCE
:1002380052F0470EF66EF70EF76E0800F5CF2BF06A
:10024800480EF66EF70EF76E0800F5502B24276E51
:1002580046C028F0425014EC52F0470EF66EF70EE6
:10026800F76E0800F5CF2BF0490EF66EF70EF76E15
:100278000800F5502B24276E46C028F0425014EC95
:1002880052F0470EF66EF70EF76E0800F5CF2BF01A
:100298004A0EF66EF70EF76E0800F5502B24276EFF
:1002A80046C028F0425014EC52F0318039B431B4D1
:1002B80027D1020E306E4004D8A40CD0470EF66E3B
:1002C800F80EF76E0800F5CF27F046C028F0425028
:1002D80014EC52F0020E4018D8A40CD0380EF66E6A
:1002E800F80EF76E0800F5CF27F046C028F0425008
:1002F80014EC52F0030E4018D8A41AD0010E2E2484
:100308002B6E000E2F202C6E2BC0F6FF2CC0F7FF93
:100318000800F5CF2DF02EC0F6FF2FC0F7FF08001C
:10032800F5502D24276E46C028F0425014EC52F0A8
:10033800050E4018D8A427D0E40EF66EF70EF76E17
:100348000800F5503024276E46C028F0425014ECBF
:1003580052F0E50EF66EF70EF76E0800F5503024F1
:10036800276E46C028F0425014EC52F0E60EF66EA6
:10037800F70EF76E0800F5503024276E46C028F0B7
:10038800425014EC52F0060E4018D8A434D0BA0EDD
:10039800F66EF70EF76E0800F5CF27F046C028F086
:1003A800425014EC52F0BB0EF66EF70EF76E0800D2
:1003B800F5CF2BF0BA0EF66EF70EF76E0800F55073
:1003C8002B24276E46C028F0425014EC52F0BC0E85
:1003D800F66EF70EF76E0800F5CF2BF0BA0EF66E34
:1003E800F70EF76E0800F5502B24276E46C028F04C
:1003F800425014EC52F0080E4018D8A434D0830EA2
:10040800F66EF70EF76E0800F5503024276E46C0DA
:1004180028F0425014EC52F0840EF66EF70EF76E88
:100428000800F5503024276E46C028F0425014ECDE
:1004380052F0850EF66EF70EF76E0800F550302470
:10044800276E46C028F0425014EC52F0860EF66E25
:10045800F70EF76E0800F5503024276E46C028F0D6
:10046800425014EC52F0090E4018D8A448D04B0E54
:10047800F66EF70EF76E0800F5CF27F046C028F0A5
:10048800425014EC52F04C0EF66EF70EF76E080060
:10049800F5CF2BF04B0EF66EF70EF76E0800F55001
:1004A8002B24276E46C028F0425014EC52F04D0E13
:1004B800F66EF70EF76E0800F5CF2BF04B0EF66EC2
:1004C800F70EF76E0800F5502B24276E46C028F06B
:1004D800425014EC52F04E0EF66EF70EF76E08000E
:1004E800F5CF2BF04B0EF66EF70EF76E0800F550B1
:1004F8002B24276E46C028F0425014EC52F0318469
:1005080039B831B827D1040E306E4004D8A40CD0C5
:10051800480EF66EF80EF76E0800F5CF27F046C0C5
:1005280028F0425014EC52F0020E4018D8A40CD017
:10053800390EF66EF80EF76E0800F5CF27F046C0B4
:1005480028F0425014EC52F0030E4018D8A41AD0E8
:10055800020E2E242B6E000E2F202C6E2BC0F6FFC1
:100568002CC0F7FF0800F5CF2DF02EC0F6FF2FC0E6
:10057800F7FF0800F5502D24276E46C028F042509A
:1005880014EC52F0050E4018D8A427D0E70EF66EEA
:10059800F70EF76E0800F5503024276E46C028F095
:1005A800425014EC52F0E80EF66EF70EF76E0800A3
:1005B800F5503024276E46C028F0425014EC52F013
:1005C800E90EF66EF70EF76E0800F5503024276E28
:1005D80046C028F0425014EC52F0060E4018D8A439
:1005E80034D0BD0EF66EF70EF76E0800F5CF27F083
:1005F80046C028F0425014EC52F0BE0EF66EF70ECC
:10060800F76E0800F5CF2BF0BD0EF66EF70EF76EFD
:100618000800F5502B24276E46C028F0425014ECF1
:1006280052F0BF0EF66EF70EF76E0800F5CF2BF0FE
:10063800BD0EF66EF70EF76E0800F5502B24276EE8
:1006480046C028F0425014EC52F0080E4018D8A4C6
:1006580034D0870EF66EF70EF76E0800F55030248A
:10066800276E46C028F0425014EC52F0880EF66E01
:10067800F70EF76E0800F5503024276E46C028F0B4
:10068800425014EC52F0890EF66EF70EF76E080021
:10069800F5503024276E46C028F0425014EC52F032
:1006A8008A0EF66EF70EF76E0800F5503024276EA6
:1006B80046C028F0425014EC52F0090E4018D8A455
:1006C80048D04F0EF66EF70EF76E0800F5CF27F0FC
:1006D80046C028F0425014EC52F0500EF66EF70E59
:1006E800F76E0800F5CF2BF04F0EF66EF70EF76E8B
:1006F8000800F5502B24276E46C028F0425014EC11
:1007080052F0510EF66EF70EF76E0800F5CF2BF08B
:100718004F0EF66EF70EF76E0800F5502B24276E75
:1007280046C028F0425014EC52F0520EF66EF70E06
:10073800F76E0800F5CF2BF04F0EF66EF70EF76E3A
:100748000800F5502B24276E46C028F0425014ECC0
:1007580052F0318839BA31BA27D1050E306E4004CB
:10076800D8A40CD0490EF66EF80EF76E0800F5CF37
:1007780027F046C028F0425014EC52F0020E401800
:10078800D8A40CD03A0EF66EF80EF76E0800F5CF26
:1007980027F046C028F0425014EC52F0030E4018DF
:1007A800D8A41AD0030E2E242B6E000E2F202C6EE8
:1007B8002BC0F6FF2CC0F7FF0800F5CF2DF02EC098
:1007C800F6FF2FC0F7FF0800F5502D24276E46C00E
:1007D80028F0425014EC52F0050E4018D8A427D047
:1007E800EA0EF66EF70EF76E0800F5503024276E05
:1007F80046C028F0425014EC52F0EB0EF66EF70E9D
:10080800F76E0800F5503024276E46C028F0425095
:1008180014EC52F0EC0EF66EF70EF76E0800F55079
:100828003024276E46C028F0425014EC52F0060ED1
:100838004018D8A434D0C00EF66EF70EF76E080034
:10084800F5CF27F046C028F0425014EC52F0C10E04
:10085800F66EF70EF76E0800F5CF2BF0C00EF66EA9
:10086800F70EF76E0800F5502B24276E46C028F0C7
:10087800425014EC52F0C20EF66EF70EF76E0800F6
:10088800F5CF2BF0C00EF66EF70EF76E0800F55098
:100898002B24276E46C028F0425014EC52F0080E64
:1008A8004018D8A434D08B0EF66EF70EF76E0800F9
:1008B800F5503024276E46C028F0425014EC52F010
:1008C8008C0EF66EF70EF76E0800F5503024276E82
:1008D80046C028F0425014EC52F08D0EF66EF70E1A
:1008E800F76E0800F5503024276E46C028F04250B5
:1008F80014EC52F08E0EF66EF70EF76E0800F550F7
:100908003024276E46C028F0425014EC52F0090EED
:100918004018D8A448D0530EF66EF70EF76E0800AC
:10092800F5CF27F046C028F0425014EC52F0540E90
:10093800F66EF70EF76E0800F5CF2BF0530EF66E35
:10094800F70EF76E0800F5502B24276E46C028F0E6
:10095800425014EC52F0550EF66EF70EF76E080082
:10096800F5CF2BF0530EF66EF70EF76E0800F55024
:100978002B24276E46C028F0425014EC52F0560E35
:10098800F66EF70EF76E0800F5CF2BF0530EF66EE5
:10099800F70EF76E0800F5502B24276E46C028F096
:1009A800425014EC52F0318A39BE31BE27D1070EBD
:1009B800306E4004D8A40CD04A0EF66EF80EF76ECE
:1009C8000800F5CF27F046C028F0425014EC52F04A
:1009D800020E4018D8A40CD03B0EF66EF80EF76E37
:1009E8000800F5CF27F046C028F0425014EC52F02A
:1009F800030E4018D8A41AD0040E2E242B6E000E15
:100A08002F202C6E2BC0F6FF2CC0F7FF0800F5CF67
:100A18002DF02EC0F6FF2FC0F7FF0800F5502D244B
:100A2800276E46C028F0425014EC52F0050E4018CC
:100A3800D8A427D0ED0EF66EF70EF76E0800F55025
:100A48003024276E46C028F0425014EC52F0EE0EC7
:100A5800F66EF70EF76E0800F5503024276E46C084
:100A680028F0425014EC52F0EF0EF66EF70EF76EC7
:100A78000800F5503024276E46C028F0425014EC88
:100A880052F0060E4018D8A434D0C30EF66EF70EF6
:100A9800F76E0800F5CF27F046C028F0425014EC56
:100AA80052F0C40EF66EF70EF76E0800F5CF2BF075
:100AB800C30EF66EF70EF76E0800F5502B24276E5E
:100AC80046C028F0425014EC52F0C50EF66EF70EF0
:100AD800F76E0800F5CF2BF0C30EF66EF70EF76E23
:100AE8000800F5502B24276E46C028F0425014EC1D
:100AF80052F0080E4018D8A434D08F0EF66EF70EB8
:100B0800F76E0800F5503024276E46C028F0425092
:100B180014EC52F0900EF66EF70EF76E0800F550D2
:100B28003024276E46C028F0425014EC52F0910E43
:100B3800F66EF70EF76E0800F5503024276E46C0A3
:100B480028F0425014EC52F0920EF66EF70EF76E43
:100B58000800F5503024276E46C028F0425014ECA7
:100B680052F0090E4018D8A448D0570EF66EF70E6A
:100B7800F76E0800F5CF27F046C028F0425014EC75
:100B880052F0580EF66EF70EF76E0800F5CF2BF000
:100B9800570EF66EF70EF76E0800F5502B24276EE9
:100BA80046C028F0425014EC52F0590EF66EF70E7B
:100BB800F76E0800F5CF2BF0570EF66EF70EF76EAE
:100BC8000800F5502B24276E46C028F0425014EC3C
:100BD80052F05A0EF66EF70EF76E0800F5CF2BF0AE
:100BE800570EF66EF70EF76E0800F5502B24276E99
:100BF80046C028F0425014EC52F0318E3AB232B26C
:100C080027D1090E306E4004D8A40CD04B0EF66ED6
:100C1800F80EF76E0800F5CF27F046C028F04250CE
:100C280014EC52F0020E4018D8A40CD03C0EF66E0C
:100C3800F80EF76E0800F5CF27F046C028F04250AE
:100C480014EC52F0030E4018D8A41AD0050E2E2426
:100C58002B6E000E2F202C6E2BC0F6FF2CC0F7FF3A
:100C68000800F5CF2DF02EC0F6FF2FC0F7FF0800C3
:100C7800F5502D24276E46C028F0425014EC52F04F
:100C8800050E4018D8A427D0F00EF66EF70EF76EB2
:100C98000800F5503024276E46C028F0425014EC66
:100CA80052F0F10EF66EF70EF76E0800F55030248C
:100CB800276E46C028F0425014EC52F0F20EF66E41
:100CC800F70EF76E0800F5503024276E46C028F05E
:100CD800425014EC52F0060E4018D8A434D0C60E78
:100CE800F66EF70EF76E0800F5CF27F046C028F02D
:100CF800425014EC52F0C70EF66EF70EF76E08006D
:100D0800F5CF2BF0C60EF66EF70EF76E0800F5500D
:100D18002B24276E46C028F0425014EC52F0C80E1F
:100D2800F66EF70EF76E0800F5CF2BF0C60EF66ECE
:100D3800F70EF76E0800F5502B24276E46C028F0F2
:100D4800425014EC52F0080E4018D8A434D0930E38
:100D5800F66EF70EF76E0800F5503024276E46C081
:100D680028F0425014EC52F0940EF66EF70EF76E1F
:100D78000800F5503024276E46C028F0425014EC85
:100D880052F0950EF66EF70EF76E0800F550302407
:100D9800276E46C028F0425014EC52F0960EF66EBC
:100DA800F70EF76E0800F5503024276E46C028F07D
:100DB800425014EC52F0090E4018D8A448D05B0EEB
:100DC800F66EF70EF76E0800F5CF27F046C028F04C
:100DD800425014EC52F05C0EF66EF70EF76E0800F7
:100DE800F5CF2BF05B0EF66EF70EF76E0800F55098
:100DF8002B24276E46C028F0425014EC52F05D0EAA
:100E0800F66EF70EF76E0800F5CF2BF05B0EF66E58
:100E1800F70EF76E0800F5502B24276E46C028F011
:100E2800425014EC52F05E0EF66EF70EF76E0800A4
:100E3800F5CF2BF05B0EF66EF70EF76E0800F55047
:100E48002B24276E46C028F0425014EC52F0328210
:100E58003AB632B627D10B0E306E4004D8A40CD067
:100E68004C0EF66EF80EF76E0800F5CF27F046C068
:100E780028F0425014EC52F0020E4018D8A40CD0BE
:100E88003D0EF66EF80EF76E0800F5CF27F046C057
:100E980028F0425014EC52F0030E4018D8A41AD08F
:100EA800060E2E242B6E000E2F202C6E2BC0F6FF64
:100EB8002CC0F7FF0800F5CF2DF02EC0F6FF2FC08D
:100EC800F7FF0800F5502D24276E46C028F0425041
:100ED80014EC52F0050E4018D8A427D0F30EF66E85
:100EE800F70EF76E0800F5503024276E46C028F03C
:100EF800425014EC52F0F40EF66EF70EF76E08003E
:100F0800F5503024276E46C028F0425014EC52F0B9
:100F1800F50EF66EF70EF76E0800F5503024276EC2
:100F280046C028F0425014EC52F0060E4018D8A4DF
:100F380034D0C90EF66EF70EF76E0800F5CF27F01D
:100F480046C028F0425014EC52F0CA0EF66EF70E66
:100F5800F76E0800F5CF2BF0C90EF66EF70EF76E98
:100F68000800F5502B24276E46C028F0425014EC98
:100F780052F0CB0EF66EF70EF76E0800F5CF2BF099
:100F8800C90EF66EF70EF76E0800F5502B24276E83
:100F980046C028F0425014EC52F0080E4018D8A46D
:100FA80034D0970EF66EF70EF76E0800F550302421
:100FB800276E46C028F0425014EC52F0980EF66E98
:100FC800F70EF76E0800F5503024276E46C028F05B
:100FD800425014EC52F0990EF66EF70EF76E0800B8
:100FE800F5503024276E46C028F0425014EC52F0D9
:100FF8009A0EF66EF70EF76E0800F5503024276E3D
:1010080046C028F0425014EC52F0090E4018D8A4FB
:1010180048D05F0EF66EF70EF76E0800F5CF27F092
:1010280046C028F0425014EC52F0600EF66EF70EEF
:10103800F76E0800F5CF2BF05F0EF66EF70EF76E21
:101048000800F5502B24276E46C028F0425014ECB7
:1010580052F0610EF66EF70EF76E0800F5CF2BF022
:101068005F0EF66EF70EF76E0800F5502B24276E0C
:1010780046C028F0425014EC52F0620EF66EF70E9D
:10108800F76E0800F5CF2BF05F0EF66EF70EF76ED1
:101098000800F5502B24276E46C028F0425014EC67
:1010A80052F032863AB832B827D10C0E306E40046E
:1010B800D8A40CD04D0EF66EF80EF76E0800F5CFDA
:1010C80027F046C028F0425014EC52F0020E4018A7
:1010D800D8A40CD03E0EF66EF80EF76E0800F5CFC9
:1010E80027F046C028F0425014EC52F0030E401886
:1010F800D8A41AD0070E2E242B6E000E2F202C6E8B
:101108002BC0F6FF2CC0F7FF0800F5CF2DF02EC03E
:10111800F6FF2FC0F7FF0800F5502D24276E46C0B4
:1011280028F0425014EC52F0050E4018D8A427D0ED
:10113800F60EF66EF70EF76E0800F5503024276E9F
:1011480046C028F0425014EC52F0F70EF66EF70E37
:10115800F76E0800F5503024276E46C028F042503C
:1011680014EC52F0F80EF66EF70EF76E0800F55014
:101178003024276E46C028F0425014EC52F0060E78
:101188004018D8A434D0CC0EF66EF70EF76E0800CF
:10119800F5CF27F046C028F0425014EC52F0CD0E9F
:1011A800F66EF70EF76E0800F5CF2BF0CC0EF66E44
:1011B800F70EF76E0800F5502B24276E46C028F06E
:1011C800425014EC52F0CE0EF66EF70EF76E080091
:1011D800F5CF2BF0CC0EF66EF70EF76E0800F55033
:1011E8002B24276E46C028F0425014EC52F0080E0B
:1011F8004018D8A434D09B0EF66EF70EF76E080090
:10120800F5503024276E46C028F0425014EC52F0B6
:101218009C0EF66EF70EF76E0800F5503024276E18
:1012280046C028F0425014EC52F09D0EF66EF70EB0
:10123800F76E0800F5503024276E46C028F042505B
:1012480014EC52F09E0EF66EF70EF76E0800F5508D
:101258003024276E46C028F0425014EC52F0090E94
:101268004018D8A448D0630EF66EF70EF76E080043
:10127800F5CF27F046C028F0425014EC52F0640E27
:10128800F66EF70EF76E0800F5CF2BF0630EF66ECC
:10129800F70EF76E0800F5502B24276E46C028F08D
:1012A800425014EC52F0650EF66EF70EF76E080019
:1012B800F5CF2BF0630EF66EF70EF76E0800F550BB
:1012C8002B24276E46C028F0425014EC52F0660ECC
:1012D800F66EF70EF76E0800F5CF2BF0630EF66E7C
:1012E800F70EF76E0800F5502B24276E46C028F03D
:1012F800425014EC52F032883ABC32BC27D10E0E60
:10130800306E4004D8A40CD04E0EF66EF80EF76E70
:101318000800F5CF27F046C028F0425014EC52F0F0
:10132800020E4018D8A40CD03F0EF66EF80EF76ED9
:101338000800F5CF27F046C028F0425014EC52F0D0
:10134800030E4018D8A41AD0080E2E242B6E000EB7
:101358002F202C6E2BC0F6FF2CC0F7FF0800F5CF0E
:101368002DF02EC0F6FF2FC0F7FF0800F5502D24F2
:10137800276E46C028F0425014EC52F0050E401873
:10138800D8A427D0F90EF66EF70EF76E0800F550C0
:101398003024276E46C028F0425014EC52F0FA0E62
:1013A800F66EF70EF76E0800F5503024276E46C02B
:1013B80028F0425014EC52F0FB0EF66EF70EF76E62
:1013C8000800F5503024276E46C028F0425014EC2F
:1013D80052F0060E4018D8A434D0CF0EF66EF70E91
:1013E800F76E0800F5CF27F046C028F0425014ECFD
:1013F80052F0D00EF66EF70EF76E0800F5CF2BF010
:10140800CF0EF66EF70EF76E0800F5502B24276EF8
:1014180046C028F0425014EC52F0D10EF66EF70E8A
:10142800F76E0800F5CF2BF0CF0EF66EF70EF76EBD
:101438000800F5502B24276E46C028F0425014ECC3
:1014480052F0080E4018D8A434D09F0EF66EF70E4E
:10145800F76E0800F5503024276E46C028F0425039
:1014680014EC52F0A00EF66EF70EF76E0800F55069
:101478003024276E46C028F0425014EC52F0A10EDA
:10148800F66EF70EF76E0800F5503024276E46C04A
:1014980028F0425014EC52F0A20EF66EF70EF76EDA
:1014A8000800F5503024276E46C028F0425014EC4E
:1014B80052F0090E4018D8A448D0670EF66EF70E01
:1014C800F76E0800F5CF27F046C028F0425014EC1C
:1014D80052F0680EF66EF70EF76E0800F5CF2BF097
:1014E800670EF66EF70EF76E0800F5502B24276E80
:1014F80046C028F0425014EC52F0690EF66EF70E12
:10150800F76E0800F5CF2BF0670EF66EF70EF76E44
:101518000800F5502B24276E46C028F0425014ECE2
:1015280052F06A0EF66EF70EF76E0800F5CF2BF044
:10153800670EF66EF70EF76E0800F5502B24276E2F
:1015480046C028F0425014EC52F0328C3BB033B015
:1015580027D1100E306E4004D8A40CD04F0EF66E72
:10156800F80EF76E0800F5CF27F046C028F0425075
:1015780014EC52F0020E4018D8A40CD0400EF66EAF
:10158800F80EF76E0800F5CF27F046C028F0425055
:1015980014EC52F0030E4018D8A41AD0090E2E24C9
:1015A8002B6E000E2F202C6E2BC0F6FF2CC0F7FFE1
:1015B8000800F5CF2DF02EC0F6FF2FC0F7FF08006A
:1015C800F5502D24276E46C028F0425014EC52F0F6
:1015D800050E4018D8A427D0FC0EF66EF70EF76E4D
:1015E8000800F5503024276E46C028F0425014EC0D
:1015F80052F0FD0EF66EF70EF76E0800F550302427
:10160800276E46C028F0425014EC52F0FE0EF66EDB
:10161800F70EF76E0800F5503024276E46C028F004
:10162800425014EC52F0060E4018D8A434D0D20E12
:10163800F66EF70EF76E0800F5CF27F046C028F0D3
:10164800425014EC52F0D30EF66EF70EF76E080007
:10165800F5CF2BF0D20EF66EF70EF76E0800F550A8
:101668002B24276E46C028F0425014EC52F0D40EBA
:10167800F66EF70EF76E0800F5CF2BF0D20EF66E69
:10168800F70EF76E0800F5502B24276E46C028F099
:10169800425014EC52F0080E4018D8A434D0A30ECF
:1016A800F66EF70EF76E0800F5503024276E46C028
:1016B80028F0425014EC52F0A40EF66EF70EF76EB6
:1016C8000800F5503024276E46C028F0425014EC2C
:1016D80052F0A50EF66EF70EF76E0800F55030249E
:1016E800276E46C028F0425014EC52F0A60EF66E53
:1016F800F70EF76E0800F5503024276E46C028F024
:10170800425014EC52F0090E4018D8A448D06B0E81
:10171800F66EF70EF76E0800F5CF27F046C028F0F2
:10172800425014EC52F06C0EF66EF70EF76E08008D
:10173800F5CF2BF06B0EF66EF70EF76E0800F5502E
:101748002B24276E46C028F0425014EC52F06D0E40
:10175800F66EF70EF76E0800F5CF2BF06B0EF66EEF
:10176800F70EF76E0800F5502B24276E46C028F0B8
:10177800425014EC52F06E0EF66EF70EF76E08003B
:10178800F5CF2BF06B0EF66EF70EF76E0800F550DE
:101798002B24276E46C028F0425014EC52F03380B8
:1017A8003BB233B227D1110E306E4004D8A40CD00E
:1017B800500EF66EF80EF76E0800F5CF27F046C00B
:1017C80028F0425014EC52F0020E4018D8A40CD065
:1017D800410EF66EF80EF76E0800F5CF27F046C0FA
:1017E80028F0425014EC52F0030E4018D8A41AD036
:1017F8000A0E2E242B6E000E2F202C6E2BC0F6FF07
:101808002CC0F7FF0800F5CF2DF02EC0F6FF2FC033
:10181800F7FF0800F5502D24276E46C028F04250E7
:1018280014EC52F0050E4018D8A427D0FF0EF66E1F
:10183800F70EF76E0800F5503024276E46C028F0E2
:10184800425014EC52F0000EF66EF80EF76E0800D7
:10185800F5503024276E46C028F0425014EC52F060
:10186800010EF66EF80EF76E0800F5503024276E5C
:1018780046C028F0425014EC52F0060E4018D8A486
:1018880034D0D50EF66EF70EF76E0800F5CF27F0B8
:1018980046C028F0425014EC52F0D60EF66EF70E01
:1018A800F76E0800F5CF2BF0D50EF66EF70EF76E33
:1018B8000800F5502B24276E46C028F0425014EC3F
:1018C80052F0D70EF66EF70EF76E0800F5CF2BF034
:1018D800D50EF66EF70EF76E0800F5502B24276E1E
:1018E80046C028F0425014EC52F0080E4018D8A414
:1018F80034D0A70EF66EF70EF76E0800F5503024B8
:10190800276E46C028F0425014EC52F0A80EF66E2E
:10191800F70EF76E0800F5503024276E46C028F001
:10192800425014EC52F0A90EF66EF70EF76E08004E
:10193800F5503024276E46C028F0425014EC52F07F
:10194800AA0EF66EF70EF76E0800F5503024276ED3
:1019580046C028F0425014EC52F0090E4018D8A4A2
:1019680048D06F0EF66EF70EF76E0800F5CF27F029
:1019780046C028F0425014EC52F0700EF66EF70E86
:10198800F76E0800F5CF2BF06F0EF66EF70EF76EB8
:101998000800F5502B24276E46C028F0425014EC5E
:1019A80052F0710EF66EF70EF76E0800F5CF2BF0B9
:1019B8006F0EF66EF70EF76E0800F5502B24276EA3
:1019C80046C028F0425014EC52F0720EF66EF70E34
:1019D800F76E0800F5CF2BF06F0EF66EF70EF76E68
:1019E8000800F5502B24276E46C028F0425014EC0E
:1019F80052F033823BB633B627D1130E306E400413
:101A0800D8A40CD0510EF66EF80EF76E0800F5CF7C
:101A180027F046C028F0425014EC52F0020E40184D
:101A2800D8A40CD0420EF66EF80EF76E0800F5CF6B
:101A380027F046C028F0425014EC52F0030E40182C
:101A4800D8A41AD00B0E2E242B6E000E2F202C6E2D
:101A58002BC0F6FF2CC0F7FF0800F5CF2DF02EC0E5
:101A6800F6FF2FC0F7FF0800F5502D24276E46C05B
:101A780028F0425014EC52F0050E4018D8A427D094
:101A8800020EF66EF80EF76E0800F5503024276E39
:101A980046C028F0425014EC52F0030EF66EF80ED1
:101AA800F76E0800F5503024276E46C028F04250E3
:101AB80014EC52F0040EF66EF80EF76E0800F550AE
:101AC8003024276E46C028F0425014EC52F0060E1F
:101AD8004018D8A434D0D80EF66EF70EF76E08006A
:101AE800F5CF27F046C028F0425014EC52F0D90E3A
:101AF800F66EF70EF76E0800F5CF2BF0D80EF66EDF
:101B0800F70EF76E0800F5502B24276E46C028F014
:101B1800425014EC52F0DA0EF66EF70EF76E08002B
:101B2800F5CF2BF0D80EF66EF70EF76E0800F550CD
:101B38002B24276E46C028F0425014EC52F0080EB1
:101B48004018D8A434D0AB0EF66EF70EF76E080026
:101B5800F5503024276E46C028F0425014EC52F05D
:101B6800AC0EF66EF70EF76E0800F5503024276EAF
:101B780046C028F0425014EC52F0AD0EF66EF70E47
:101B8800F76E0800F5503024276E46C028F0425002
:101B980014EC52F0AE0EF66EF70EF76E0800F55024
:101BA8003024276E46C028F0425014EC52F0090E3B
:101BB8004018D8A448D0730EF66EF70EF76E0800DA
:101BC800F5CF27F046C028F0425014EC52F0740EBE
:101BD800F66EF70EF76E0800F5CF2BF0730EF66E63
:101BE800F70EF76E0800F5502B24276E46C028F034
:101BF800425014EC52F0750EF66EF70EF76E0800B0
:101C0800F5CF2BF0730EF66EF70EF76E0800F55051
:101C18002B24276E46C028F0425014EC52F0760E62
:101C2800F66EF70EF76E0800F5CF2BF0730EF66E12
:101C3800F70EF76E0800F5502B24276E46C028F0E3
:101C4800425014EC52F033863BBA33BA27D1150E02
:101C5800306E4004D8A40CD0520EF66EF80EF76E13
:101C68000800F5CF27F046C028F0425014EC52F097
:101C7800020E4018D8A40CD0430EF66EF80EF76E7C
:101C88000800F5CF27F046C028F0425014EC52F077
:101C9800030E4018D8A41AD00C0E2E242B6E000E5A
:101CA8002F202C6E2BC0F6FF2CC0F7FF0800F5CFB5
:101CB8002DF02EC0F6FF2FC0F7FF0800F5502D2499
:101CC800276E46C028F0425014EC52F0050E40181A
:101CD800D8A427D0050EF66EF80EF76E0800F5505A
:101CE8003024276E46C028F0425014EC52F0060EFD
:101CF800F66EF80EF76E0800F5503024276E46C0D1
:101D080028F0425014EC52F0070EF66EF80EF76EFB
:101D18000800F5503024276E46C028F0425014ECD5
:101D280052F0060E4018D8A434D0DB0EF66EF70E2B
:101D3800F76E0800F5CF27F046C028F0425014ECA3
:101D480052F0DC0EF66EF70EF76E0800F5CF2BF0AA
:101D5800DB0EF66EF70EF76E0800F5502B24276E93
:101D680046C028F0425014EC52F0DD0EF66EF70E25
:101D7800F76E0800F5CF2BF0DB0EF66EF70EF76E58
:101D88000800F5502B24276E46C028F0425014EC6A
:101D980052F0080E4018D8A434D0AF0EF66EF70EE5
:101DA800F76E0800F5503024276E46C028F04250E0
:101DB80014EC52F0B00EF66EF70EF76E0800F55000
:101DC8003024276E46C028F0425014EC52F0B10E71
:101DD800F66EF70EF76E0800F5503024276E46C0F1
:101DE80028F0425014EC52F0B20EF66EF70EF76E71
:101DF8000800F5503024276E46C028F0425014ECF5
:101E080052F0090E4018D8A448D0770EF66EF70E97
:101E1800F76E0800F5CF27F046C028F0425014ECC2
:101E280052F0780EF66EF70EF76E0800F5CF2BF02D
:101E3800770EF66EF70EF76E0800F5502B24276E16
:101E480046C028F0425014EC52F0790EF66EF70EA8
:101E5800F76E0800F5CF2BF0770EF66EF70EF76EDB
:101E68000800F5502B24276E46C028F0425014EC89
:101E780052F07A0EF66EF70EF76E0800F5CF2BF0DB
:101E8800770EF66EF70EF76E0800F5502B24276EC6
:101E980046C028F0425014EC52F0338A3BBE33BEA1
:101EA80027D1170E306E4004D8A40CD0530EF66E0E
:101EB800F80EF76E0800F5CF27F046C028F042501C
:101EC80014EC52F0020E4018D8A40CD0440EF66E52
:101ED800F80EF76E0800F5CF27F046C028F04250FC
:101EE80014EC52F0030E4018D8A41AD00D0E2E246C
:101EF8002B6E000E2F202C6E2BC0F6FF2CC0F7FF88
:101F08000800F5CF2DF02EC0F6FF2FC0F7FF080010
:101F1800F5502D24276E46C028F0425014EC52F09C
:101F2800050E4018D8A427D0080EF66EF80EF76EE6
:101F38000800F5503024276E46C028F0425014ECB3
:101F480052F0090EF66EF80EF76E0800F5503024C0
:101F5800276E46C028F0425014EC52F00A0EF66E76
:101F6800F80EF76E0800F5503024276E46C028F0AA
:101F7800425014EC52F0060E4018D8A434D0DE0EAD
:101F8800F66EF70EF76E0800F5CF27F046C028F07A
:101F9800425014EC52F0DF0EF66EF70EF76E0800A2
:101FA800F5CF2BF0DE0EF66EF70EF76E0800F55043
:101FB8002B24276E46C028F0425014EC52F0E00E55
:101FC800F66EF70EF76E0800F5CF2BF0DE0EF66E04
:101FD800F70EF76E0800F5502B24276E46C028F040
:101FE800425014EC52F0080E4018D8A434D0B30E66
:101FF800F66EF70EF76E0800F5503024276E46C0CF
:1020080028F0425014EC52F0B40EF66EF70EF76E4C
:102018000800F5503024276E46C028F0425014ECD2
:1020280052F0B50EF66EF70EF76E0800F550302434
:10203800276E46C028F0425014EC52F0B60EF66EE9
:10204800F70EF76E0800F5503024276E46C028F0CA
:10205800425014EC52F0090E4018D8A448D07B0E18
:10206800F66EF70EF76E0800F5CF27F046C028F099
:10207800425014EC52F07C0EF66EF70EF76E080024
:10208800F5CF2BF07B0EF66EF70EF76E0800F550C5
:102098002B24276E46C028F0425014EC52F07D0ED7
:1020A800F66EF70EF76E0800F5CF2BF07B0EF66E86
:1020B800F70EF76E0800F5502B24276E46C028F05F
:1020C800425014EC52F07E0EF66EF70EF76E0800D2
:1020D800F5CF2BF07B0EF66EF70EF76E0800F55075
:1020E8002B24276E46C028F0425014EC52F0338E51
:1020F8003CB034B040D0180E306E4004D8A40CD098
:10210800540EF66EF80EF76E0800F5CF27F046C0AD
:1021180028F0425014EC52F0020E4018D8A40CD00B
:10212800450EF66EF80EF76E0800F5CF27F046C09C
:1021380028F0425014EC52F0030E4018D8A41AD0DC
:102148000E0E2E242B6E000E2F202C6E2BC0F6FFA9
:102158002CC0F7FF0800F5CF2DF02EC0F6FF2FC0DA
:10216800F7FF0800F5502D24276E46C028F042508E
:1021780014EC52F0348035B039B018D131A016D1F2
:10218800000E306E4004D8A40CD0460EF66EF80E41
:10219800F76E0800F5CF23F046C024F0425036EC25
:1021A80055F0020E4018D8A40CD0370EF66EF80E73
:1021B800F76E0800F5CF23F046C024F0425036EC05
:1021C80055F0030E4018D8A40CD02EC0F6FF2FC02F
:1021D800F7FF0800F5CF23F046C024F0425036EC54
:1021E80055F0050E4018D8A424D0E10EF66EF70E6F
:1021F800F76E0800F5CF23F046C024F0425036ECC5
:1022080055F0E20EF66EF70EF76E0800F5CF23F0E4
:1022180046C024F0425036EC55F0E30EF66EF70E49
:10222800F76E0800F5CF23F046C024F0425036EC94
:1022380055F0060E4018D8A434D0B70EF66EF70E37
:10224800F76E0800F5CF23F046C024F0425036EC74
:1022580055F0B70EF66EF70EF76E0800F5CF2BF0B7
:10226800B80EF66EF70EF76E0800F5502B24236EA5
:1022780046C024F0425036EC55F0B70EF66EF70E15
:10228800F76E0800F5CF2BF0B90EF66EF70EF76E65
:102298000800F5502B24236E46C024F0425036EC3B
:1022A80055F0080E4018D8A434D07F0EF66EF70EFD
:1022B800F76E0800F5503024236E46C024F04250D3
:1022C80036EC55F0800EF66EF70EF76E0800F550F6
:1022D8003024236E46C024F0425036EC55F0810E6F
:1022E800F66EF70EF76E0800F5503024236E46C0E0
:1022F80024F0425036EC55F0820EF66EF70EF76E6B
:102308000800F5503024236E46C024F0425036ECC5
:1023180055F0090E4018D8A448D0470EF66EF70EAF
:10232800F76E0800F5CF23F046C024F0425036EC93
:1023380055F0470EF66EF70EF76E0800F5CF2BF046
:10234800480EF66EF70EF76E0800F5502B24236E34
:1023580046C024F0425036EC55F0470EF66EF70EA4
:10236800F76E0800F5CF2BF0490EF66EF70EF76EF4
:102378000800F5502B24236E46C024F0425036EC5A
:1023880055F0470EF66EF70EF76E0800F5CF2BF0F6
:102398004A0EF66EF70EF76E0800F5502B24236EE2
:1023A80046C024F0425036EC55F0319035B439B47B
:1023B80029D131A427D1020E306E4004D8A40CD004
:1023C800470EF66EF80EF76E0800F5CF23F046C0FC
:1023D80024F0425036EC55F0020E4018D8A40CD028
:1023E800380EF66EF80EF76E0800F5CF23F046C0EB
:1023F80024F0425036EC55F0030E4018D8A41AD0F9
:10240800010E2E242B6E000E2F202C6E2BC0F6FFF3
:102418002CC0F7FF0800F5CF2DF02EC0F6FF2FC017
:10242800F7FF0800F5502D24236E46C024F04250D3
:1024380036EC55F0050E4018D8A427D0E40EF66EF9
:10244800F70EF76E0800F5503024236E46C024F0CE
:10245800425036EC55F0E50EF66EF70EF76E0800B2
:10246800F5503024236E46C024F0425036EC55F027
:10247800E60EF66EF70EF76E0800F5503024236E60
:1024880046C024F0425036EC55F0060E4018D8A449
:1024980034D0BA0EF66EF70EF76E0800F5CF23F0BB
:1024A80046C024F0425036EC55F0BB0EF66EF70EDF
:1024B800F76E0800F5CF2BF0BA0EF66EF70EF76E32
:1024C8000800F5502B24236E46C024F0425036EC09
:1024D80055F0BC0EF66EF70EF76E0800F5CF2BF030
:1024E800BA0EF66EF70EF76E0800F5502B24236E21
:1024F80046C024F0425036EC55F0080E4018D8A4D7
:1025080034D0830EF66EF70EF76E0800F5503024BF
:10251800236E46C024F0425036EC55F0840EF66E19
:10252800F70EF76E0800F5503024236E46C024F0ED
:10253800425036EC55F0850EF66EF70EF76E080031
:10254800F5503024236E46C024F0425036EC55F046
:10255800860EF66EF70EF76E0800F5503024236EDF
:1025680046C024F0425036EC55F0090E4018D8A465
:1025780048D04B0EF66EF70EF76E0800F5CF23F035
:1025880046C024F0425036EC55F04C0EF66EF70E6D
:10259800F76E0800F5CF2BF04B0EF66EF70EF76EC0
:1025A8000800F5502B24236E46C024F0425036EC28
:1025B80055F04D0EF66EF70EF76E0800F5CF2BF0BE
:1025C8004B0EF66EF70EF76E0800F5502B24236EAF
:1025D80046C024F0425036EC55F04E0EF66EF70E1B
:1025E800F76E0800F5CF2BF04B0EF66EF70EF76E70
:1025F8000800F5502B24236E46C024F0425036ECD8
:1026080055F0319435B839B829D131A827D1040EFD
:10261800306E4004D8A40CD0480EF66EF80EF76E53
:102628000800F5CF23F046C024F0425036EC55F0B0
:10263800020E4018D8A40CD0390EF66EF80EF76EBC
:102648000800F5CF23F046C024F0425036EC55F090
:10265800030E4018D8A41AD0020E2E242B6E000E9A
:102668002F202C6E2BC0F6FF2CC0F7FF0800F5CFEB
:102678002DF02EC0F6FF2FC0F7FF0800F5502D24CF
:10268800236E46C024F0425036EC55F0050E401833
:10269800D8A427D0E70EF66EF70EF76E0800F550AF
:1026A8003024236E46C024F0425036EC55F0E80E34
:1026B800F66EF70EF76E0800F5503024236E46C00C
:1026C80024F0425036EC55F0E90EF66EF70EF76E30
:1026D8000800F5503024236E46C024F0425036ECF2
:1026E80055F0060E4018D8A434D0BD0EF66EF70E7D
:1026F800F76E0800F5CF23F046C024F0425036ECC0
:1027080055F0BE0EF66EF70EF76E0800F5CF2BF0FB
:10271800BD0EF66EF70EF76E0800F5502B24236EEB
:1027280046C024F0425036EC55F0BF0EF66EF70E58
:10273800F76E0800F5CF2BF0BD0EF66EF70EF76EAC
:102748000800F5502B24236E46C024F0425036EC86
:1027580055F0080E4018D8A434D0870EF66EF70E40
:10276800F76E0800F5503024236E46C024F042501E
:1027780036EC55F0880EF66EF70EF76E0800F55039
:102788003024236E46C024F0425036EC55F0890EB2
:10279800F66EF70EF76E0800F5503024236E46C02B
:1027A80024F0425036EC55F08A0EF66EF70EF76EAE
:1027B8000800F5503024236E46C024F0425036EC11
:1027C80055F0090E4018D8A448D04F0EF66EF70EF3
:1027D800F76E0800F5CF23F046C024F0425036ECDF
:1027E80055F0500EF66EF70EF76E0800F5CF2BF089
:1027F8004F0EF66EF70EF76E0800F5502B24236E79
:1028080046C024F0425036EC55F0510EF66EF70EE5
:10281800F76E0800F5CF2BF04F0EF66EF70EF76E39
:102828000800F5502B24236E46C024F0425036ECA5
:1028380055F0520EF66EF70EF76E0800F5CF2BF036
:102848004F0EF66EF70EF76E0800F5502B24236E28
:1028580046C024F0425036EC55F0319835BA39BAB2
:1028680029D131AA27D1050E306E4004D8A40CD046
:10287800490EF66EF80EF76E0800F5CF23F046C045
:1028880024F0425036EC55F0020E4018D8A40CD073
:102898003A0EF66EF80EF76E0800F5CF23F046C034
:1028A80024F0425036EC55F0030E4018D8A41AD044
:1028B800030E2E242B6E000E2F202C6E2BC0F6FF3D
:1028C8002CC0F7FF0800F5CF2DF02EC0F6FF2FC063
:1028D800F7FF0800F5502D24236E46C024F042501F
:1028E80036EC55F0050E4018D8A427D0EA0EF66E3F
:1028F800F70EF76E0800F5503024236E46C024F01A
:10290800425036EC55F0EB0EF66EF70EF76E0800F7
:10291800F5503024236E46C024F0425036EC55F072
:10292800EC0EF66EF70EF76E0800F5503024236EA5
:1029380046C024F0425036EC55F0060E4018D8A494
:1029480034D0C00EF66EF70EF76E0800F5CF23F000
:1029580046C024F0425036EC55F0C10EF66EF70E24
:10296800F76E0800F5CF2BF0C00EF66EF70EF76E77
:102978000800F5502B24236E46C024F0425036EC54
:1029880055F0C20EF66EF70EF76E0800F5CF2BF075
:10299800C00EF66EF70EF76E0800F5502B24236E66
:1029A80046C024F0425036EC55F0080E4018D8A422
:1029B80034D08B0EF66EF70EF76E0800F550302403
:1029C800236E46C024F0425036EC55F08C0EF66E5D
:1029D800F70EF76E0800F5503024236E46C024F039
:1029E800425036EC55F08D0EF66EF70EF76E080075
:1029F800F5503024236E46C024F0425036EC55F092
:102A08008E0EF66EF70EF76E0800F5503024236E22
:102A180046C024F0425036EC55F0090E4018D8A4B0
:102A280048D0530EF66EF70EF76E0800F5CF23F078
:102A380046C024F0425036EC55F0540EF66EF70EB0
:102A4800F76E0800F5CF2BF0530EF66EF70EF76E03
:102A58000800F5502B24236E46C024F0425036EC73
:102A680055F0550EF66EF70EF76E0800F5CF2BF001
:102A7800530EF66EF70EF76E0800F5502B24236EF2
:102A880046C024F0425036EC55F0560EF66EF70E5E
:102A9800F76E0800F5CF2BF0530EF66EF70EF76EB3
:102AA8000800F5502B24236E46C024F0425036EC23
:102AB80055F0319A35BE39BE29D131AE27D1070E2E
:102AC800306E4004D8A40CD04A0EF66EF80EF76E9D
:102AD8000800F5CF23F046C024F0425036EC55F0FC
:102AE800020E4018D8A40CD03B0EF66EF80EF76E06
:102AF8000800F5CF23F046C024F0425036EC55F0DC
:102B0800030E4018D8A41AD0040E2E242B6E000EE3
:102B18002F202C6E2BC0F6FF2CC0F7FF0800F5CF36
:102B28002DF02EC0F6FF2FC0F7FF0800F5502D241A
:102B3800236E46C024F0425036EC55F0050E40187E
:102B4800D8A427D0ED0EF66EF70EF76E0800F550F4
:102B58003024236E46C024F0425036EC55F0EE0E79
:102B6800F66EF70EF76E0800F5503024236E46C057
:102B780024F0425036EC55F0EF0EF66EF70EF76E75
:102B88000800F5503024236E46C024F0425036EC3D
:102B980055F0060E4018D8A434D0C30EF66EF70EC2
:102BA800F76E0800F5CF23F046C024F0425036EC0B
:102BB80055F0C40EF66EF70EF76E0800F5CF2BF041
:102BC800C30EF66EF70EF76E0800F5502B24236E31
:102BD80046C024F0425036EC55F0C50EF66EF70E9E
:102BE800F76E0800F5CF2BF0C30EF66EF70EF76EF2
:102BF8000800F5502B24236E46C024F0425036ECD2
:102C080055F0080E4018D8A434D08F0EF66EF70E83
:102C1800F76E0800F5503024236E46C024F0425069
:102C280036EC55F0900EF66EF70EF76E0800F5507C
:102C38003024236E46C024F0425036EC55F0910EF5
:102C4800F66EF70EF76E0800F5503024236E46C076
:102C580024F0425036EC55F0920EF66EF70EF76EF1
:102C68000800F5503024236E46C024F0425036EC5C
:102C780055F0090E4018D8A448D0570EF66EF70E36
:102C8800F76E0800F5CF23F046C024F0425036EC2A
:102C980055F0580EF66EF70EF76E0800F5CF2BF0CC
:102CA800570EF66EF70EF76E0800F5502B24236EBC
:102CB80046C024F0425036EC55F0590EF66EF70E29
:102CC800F76E0800F5CF2BF0570EF66EF70EF76E7D
:102CD8000800F5502B24236E46C024F0425036ECF1
:102CE80055F05A0EF66EF70EF76E0800F5CF2BF07A
:102CF800570EF66EF70EF76E0800F5502B24236E6C
:102D080046C024F0425036EC55F0319E36B23AB205
:102D180029D132A227D1090E306E4004D8A40CD094
:102D28004B0EF66EF80EF76E0800F5CF23F046C08E
:102D380024F0425036EC55F0020E4018D8A40CD0BE
:102D48003C0EF66EF80EF76E0800F5CF23F046C07D
:102D580024F0425036EC55F0030E4018D8A41AD08F
:102D6800050E2E242B6E000E2F202C6E2BC0F6FF86
:102D78002CC0F7FF0800F5CF2DF02EC0F6FF2FC0AE
:102D8800F7FF0800F5502D24236E46C024F042506A
:102D980036EC55F0050E4018D8A427D0F00EF66E84
:102DA800F70EF76E0800F5503024236E46C024F065
:102DB800425036EC55F0F10EF66EF70EF76E08003D
:102DC800F5503024236E46C024F0425036EC55F0BE
:102DD800F20EF66EF70EF76E0800F5503024236EEB
:102DE80046C024F0425036EC55F0060E4018D8A4E0
:102DF80034D0C60EF66EF70EF76E0800F5CF23F046
:102E080046C024F0425036EC55F0C70EF66EF70E69
:102E1800F76E0800F5CF2BF0C60EF66EF70EF76EBC
:102E28000800F5502B24236E46C024F0425036EC9F
:102E380055F0C80EF66EF70EF76E0800F5CF2BF0BA
:102E4800C60EF66EF70EF76E0800F5502B24236EAB
:102E580046C024F0425036EC55F0080E4018D8A46D
:102E680034D0930EF66EF70EF76E0800F550302446
:102E7800236E46C024F0425036EC55F0940EF66EA0
:102E8800F70EF76E0800F5503024236E46C024F084
:102E9800425036EC55F0950EF66EF70EF76E0800B8
:102EA800F5503024236E46C024F0425036EC55F0DD
:102EB800960EF66EF70EF76E0800F5503024236E66
:102EC80046C024F0425036EC55F0090E4018D8A4FC
:102ED80048D05B0EF66EF70EF76E0800F5CF23F0BC
:102EE80046C024F0425036EC55F05C0EF66EF70EF4
:102EF800F76E0800F5CF2BF05B0EF66EF70EF76E47
:102F08000800F5502B24236E46C024F0425036ECBE
:102F180055F05D0EF66EF70EF76E0800F5CF2BF044
:102F28005B0EF66EF70EF76E0800F5502B24236E35
:102F380046C024F0425036EC55F05E0EF66EF70EA1
:102F4800F76E0800F5CF2BF05B0EF66EF70EF76EF6
:102F58000800F5502B24236E46C024F0425036EC6E
:102F680055F0329236B63AB629D132A627D10B0E91
:102F7800306E4004D8A40CD04C0EF66EF80EF76EE6
:102F88000800F5CF23F046C024F0425036EC55F047
:102F9800020E4018D8A40CD03D0EF66EF80EF76E4F
:102FA8000800F5CF23F046C024F0425036EC55F027
:102FB800030E4018D8A41AD0060E2E242B6E000E2D
:102FC8002F202C6E2BC0F6FF2CC0F7FF0800F5CF82
:102FD8002DF02EC0F6FF2FC0F7FF0800F5502D2466
:102FE800236E46C024F0425036EC55F0050E4018CA
:102FF800D8A427D0F30EF66EF70EF76E0800F5503A
:103008003024236E46C024F0425036EC55F0F40EBE
:10301800F66EF70EF76E0800F5503024236E46C0A2
:1030280024F0425036EC55F0F50EF66EF70EF76EBA
:103038000800F5503024236E46C024F0425036EC88
:1030480055F0060E4018D8A434D0C90EF66EF70E07
:10305800F76E0800F5CF23F046C024F0425036EC56
:1030680055F0CA0EF66EF70EF76E0800F5CF2BF086
:10307800C90EF66EF70EF76E0800F5502B24236E76
:1030880046C024F0425036EC55F0CB0EF66EF70EE3
:10309800F76E0800F5CF2BF0C90EF66EF70EF76E37
:1030A8000800F5502B24236E46C024F0425036EC1D
:1030B80055F0080E4018D8A434D0970EF66EF70EC7
:1030C800F76E0800F5503024236E46C024F04250B5
:1030D80036EC55F0980EF66EF70EF76E0800F550C0
:1030E8003024236E46C024F0425036EC55F0990E39
:1030F800F66EF70EF76E0800F5503024236E46C0C2
:1031080024F0425036EC55F09A0EF66EF70EF76E34
:103118000800F5503024236E46C024F0425036ECA7
:1031280055F0090E4018D8A448D05F0EF66EF70E79
:10313800F76E0800F5CF23F046C024F0425036EC75
:1031480055F0600EF66EF70EF76E0800F5CF2BF00F
:103158005F0EF66EF70EF76E0800F5502B24236EFF
:1031680046C024F0425036EC55F0610EF66EF70E6C
:10317800F76E0800F5CF2BF05F0EF66EF70EF76EC0
:103188000800F5502B24236E46C024F0425036EC3C
:1031980055F0620EF66EF70EF76E0800F5CF2BF0BD
:1031A8005F0EF66EF70EF76E0800F5502B24236EAF
:1031B80046C024F0425036EC55F0329636B83AB84C
:1031C80029D132A827D10C0E306E4004D8A40CD0D7
:1031D8004D0EF66EF80EF76E0800F5CF23F046C0D8
:1031E80024F0425036EC55F0020E4018D8A40CD00A
:1031F8003E0EF66EF80EF76E0800F5CF23F046C0C7
:1032080024F0425036EC55F0030E4018D8A41AD0DA
:10321800070E2E242B6E000E2F202C6E2BC0F6FFCF
:103228002CC0F7FF0800F5CF2DF02EC0F6FF2FC0F9
:10323800F7FF0800F5502D24236E46C024F04250B5
:1032480036EC55F0050E4018D8A427D0F60EF66EC9
:10325800F70EF76E0800F5503024236E46C024F0B0
:10326800425036EC55F0F70EF66EF70EF76E080082
:10327800F5503024236E46C024F0425036EC55F009
:10328800F80EF66EF70EF76E0800F5503024236E30
:1032980046C024F0425036EC55F0060E4018D8A42B
:1032A80034D0CC0EF66EF70EF76E0800F5CF23F08B
:1032B80046C024F0425036EC55F0CD0EF66EF70EAF
:1032C800F76E0800F5CF2BF0CC0EF66EF70EF76E02
:1032D8000800F5502B24236E46C024F0425036ECEB
:1032E80055F0CE0EF66EF70EF76E0800F5CF2BF000
:1032F800CC0EF66EF70EF76E0800F5502B24236EF1
:1033080046C024F0425036EC55F0080E4018D8A4B8
:1033180034D09B0EF66EF70EF76E0800F550302489
:10332800236E46C024F0425036EC55F09C0EF66EE3
:10333800F70EF76E0800F5503024236E46C024F0CF
:10334800425036EC55F09D0EF66EF70EF76E0800FB
:10335800F5503024236E46C024F0425036EC55F028
:103368009E0EF66EF70EF76E0800F5503024236EA9
:1033780046C024F0425036EC55F0090E4018D8A447
:1033880048D0630EF66EF70EF76E0800F5CF23F0FF
:1033980046C024F0425036EC55F0640EF66EF70E37
:1033A800F76E0800F5CF2BF0630EF66EF70EF76E8A
:1033B8000800F5502B24236E46C024F0425036EC0A
:1033C80055F0650EF66EF70EF76E0800F5CF2BF088
:1033D800630EF66EF70EF76E0800F5502B24236E79
:1033E80046C024F0425036EC55F0660EF66EF70EE5
:1033F800F76E0800F5CF2BF0630EF66EF70EF76E3A
:103408000800F5502B24236E46C024F0425036ECB9
:1034180055F0329836BC3ABC29D132AC27D10E0EC1
:10342800306E4004D8A40CD04E0EF66EF80EF76E2F
:103438000800F5CF23F046C024F0425036EC55F092
:10344800020E4018D8A40CD03F0EF66EF80EF76E98
:103458000800F5CF23F046C024F0425036EC55F072
:10346800030E4018D8A41AD0080E2E242B6E000E76
:103478002F202C6E2BC0F6FF2CC0F7FF0800F5CFCD
:103488002DF02EC0F6FF2FC0F7FF0800F5502D24B1
:10349800236E46C024F0425036EC55F0050E401815
:1034A800D8A427D0F90EF66EF70EF76E0800F5507F
:1034B8003024236E46C024F0425036EC55F0FA0E04
:1034C800F66EF70EF76E0800F5503024236E46C0EE
:1034D80024F0425036EC55F0FB0EF66EF70EF76E00
:1034E8000800F5503024236E46C024F0425036ECD4
:1034F80055F0060E4018D8A434D0CF0EF66EF70E4D
:10350800F76E0800F5CF23F046C024F0425036ECA1
:1035180055F0D00EF66EF70EF76E0800F5CF2BF0CB
:10352800CF0EF66EF70EF76E0800F5502B24236EBB
:1035380046C024F0425036EC55F0D10EF66EF70E28
:10354800F76E0800F5CF2BF0CF0EF66EF70EF76E7C
:103558000800F5502B24236E46C024F0425036EC68
:1035680055F0080E4018D8A434D09F0EF66EF70E0A
:10357800F76E0800F5503024236E46C024F0425000
:1035880036EC55F0A00EF66EF70EF76E0800F55003
:103598003024236E46C024F0425036EC55F0A10E7C
:1035A800F66EF70EF76E0800F5503024236E46C00D
:1035B80024F0425036EC55F0A20EF66EF70EF76E78
:1035C8000800F5503024236E46C024F0425036ECF3
:1035D80055F0090E4018D8A448D0670EF66EF70EBD
:1035E800F76E0800F5CF23F046C024F0425036ECC1
:1035F80055F0680EF66EF70EF76E0800F5CF2BF053
:10360800670EF66EF70EF76E0800F5502B24236E42
:1036180046C024F0425036EC55F0690EF66EF70EAF
:10362800F76E0800F5CF2BF0670EF66EF70EF76E03
:103638000800F5502B24236E46C024F0425036EC87
:1036480055F06A0EF66EF70EF76E0800F5CF2BF000
:10365800670EF66EF70EF76E0800F5502B24236EF2
:1036680046C024F0425036EC55F0329C37B03BB09F
:1036780029D133A027D1100E306E4004D8A40CD025
:103688004F0EF66EF80EF76E0800F5CF23F046C021
:1036980024F0425036EC55F0020E4018D8A40CD055
:1036A800400EF66EF80EF76E0800F5CF23F046C010
:1036B80024F0425036EC55F0030E4018D8A41AD026
:1036C800090E2E242B6E000E2F202C6E2BC0F6FF19
:1036D8002CC0F7FF0800F5CF2DF02EC0F6FF2FC045
:1036E800F7FF0800F5502D24236E46C024F0425001
:1036F80036EC55F0050E4018D8A427D0FC0EF66E0F
:10370800F70EF76E0800F5503024236E46C024F0FB
:10371800425036EC55F0FD0EF66EF70EF76E0800C7
:10372800F5503024236E46C024F0425036EC55F054
:10373800FE0EF66EF70EF76E0800F5503024236E75
:1037480046C024F0425036EC55F0060E4018D8A476
:1037580034D0D20EF66EF70EF76E0800F5CF23F0D0
:1037680046C024F0425036EC55F0D30EF66EF70EF4
:10377800F76E0800F5CF2BF0D20EF66EF70EF76E47
:103788000800F5502B24236E46C024F0425036EC36
:1037980055F0D40EF66EF70EF76E0800F5CF2BF045
:1037A800D20EF66EF70EF76E0800F5502B24236E36
:1037B80046C024F0425036EC55F0080E4018D8A404
:1037C80034D0A30EF66EF70EF76E0800F5503024CD
:1037D800236E46C024F0425036EC55F0A40EF66E27
:1037E800F70EF76E0800F5503024236E46C024F01B
:1037F800425036EC55F0A50EF66EF70EF76E08003F
:10380800F5503024236E46C024F0425036EC55F073
:10381800A60EF66EF70EF76E0800F5503024236EEC
:1038280046C024F0425036EC55F0090E4018D8A492
:1038380048D06B0EF66EF70EF76E0800F5CF23F042
:1038480046C024F0425036EC55F06C0EF66EF70E7A
:10385800F76E0800F5CF2BF06B0EF66EF70EF76ECD
:103868000800F5502B24236E46C024F0425036EC55
:1038780055F06D0EF66EF70EF76E0800F5CF2BF0CB
:103888006B0EF66EF70EF76E0800F5502B24236EBC
:1038980046C024F0425036EC55F06E0EF66EF70E28
:1038A800F76E0800F5CF2BF06B0EF66EF70EF76E7D
:1038B8000800F5502B24236E46C024F0425036EC05
:1038C80055F0339037B23BB229D133A227D1110E2C
:1038D800306E4004D8A40CD0500EF66EF80EF76E79
:1038E8000800F5CF23F046C024F0425036EC55F0DE
:1038F800020E4018D8A40CD0410EF66EF80EF76EE2
:103908000800F5CF23F046C024F0425036EC55F0BD
:10391800030E4018D8A41AD00A0E2E242B6E000EBF
:103928002F202C6E2BC0F6FF2CC0F7FF0800F5CF18
:103938002DF02EC0F6FF2FC0F7FF0800F5502D24FC
:10394800236E46C024F0425036EC55F0050E401860
:10395800D8A427D0FF0EF66EF70EF76E0800F550C4
:103968003024236E46C024F0425036EC55F0000E49
:10397800F66EF80EF76E0800F5503024236E46C038
:1039880024F0425036EC55F0010EF66EF80EF76E44
:103998000800F5503024236E46C024F0425036EC1F
:1039A80055F0060E4018D8A434D0D50EF66EF70E92
:1039B800F76E0800F5CF23F046C024F0425036ECED
:1039C80055F0D60EF66EF70EF76E0800F5CF2BF011
:1039D800D50EF66EF70EF76E0800F5502B24236E01
:1039E80046C024F0425036EC55F0D70EF66EF70E6E
:1039F800F76E0800F5CF2BF0D50EF66EF70EF76EC2
:103A08000800F5502B24236E46C024F0425036ECB3
:103A180055F0080E4018D8A434D0A70EF66EF70E4D
:103A2800F76E0800F5503024236E46C024F042504B
:103A380036EC55F0A80EF66EF70EF76E0800F55046
:103A48003024236E46C024F0425036EC55F0A90EBF
:103A5800F66EF70EF76E0800F5503024236E46C058
:103A680024F0425036EC55F0AA0EF66EF70EF76EBB
:103A78000800F5503024236E46C024F0425036EC3E
:103A880055F0090E4018D8A448D06F0EF66EF70E00
:103A9800F76E0800F5CF23F046C024F0425036EC0C
:103AA80055F0700EF66EF70EF76E0800F5CF2BF096
:103AB8006F0EF66EF70EF76E0800F5502B24236E86
:103AC80046C024F0425036EC55F0710EF66EF70EF3
:103AD800F76E0800F5CF2BF06F0EF66EF70EF76E47
:103AE8000800F5502B24236E46C024F0425036ECD3
:103AF80055F0720EF66EF70EF76E0800F5CF2BF044
:103B08006F0EF66EF70EF76E0800F5502B24236E35
:103B180046C024F0425036EC55F0339237B63BB6E7
:103B280029D133A627D1130E306E4004D8A40CD067
:103B3800510EF66EF80EF76E0800F5CF23F046C06A
:103B480024F0425036EC55F0020E4018D8A40CD0A0
:103B5800420EF66EF80EF76E0800F5CF23F046C059
:103B680024F0425036EC55F0030E4018D8A41AD071
:103B78000B0E2E242B6E000E2F202C6E2BC0F6FF62
:103B88002CC0F7FF0800F5CF2DF02EC0F6FF2FC090
:103B9800F7FF0800F5502D24236E46C024F042504C
:103BA80036EC55F0050E4018D8A427D0020EF66E54
:103BB800F80EF76E0800F5503024236E46C024F046
:103BC800425036EC55F0030EF66EF80EF76E08000C
:103BD800F5503024236E46C024F0425036EC55F0A0
:103BE800040EF66EF80EF76E0800F5503024236EBA
:103BF80046C024F0425036EC55F0060E4018D8A4C2
:103C080034D0D80EF66EF70EF76E0800F5CF23F015
:103C180046C024F0425036EC55F0D90EF66EF70E39
:103C2800F76E0800F5CF2BF0D80EF66EF70EF76E8C
:103C38000800F5502B24236E46C024F0425036EC81
:103C480055F0DA0EF66EF70EF76E0800F5CF2BF08A
:103C5800D80EF66EF70EF76E0800F5502B24236E7B
:103C680046C024F0425036EC55F0080E4018D8A44F
:103C780034D0AB0EF66EF70EF76E0800F550302410
:103C8800236E46C024F0425036EC55F0AC0EF66E6A
:103C9800F70EF76E0800F5503024236E46C024F066
:103CA800425036EC55F0AD0EF66EF70EF76E080082
:103CB800F5503024236E46C024F0425036EC55F0BF
:103CC800AE0EF66EF70EF76E0800F5503024236E30
:103CD80046C024F0425036EC55F0090E4018D8A4DE
:103CE80048D0730EF66EF70EF76E0800F5CF23F086
:103CF80046C024F0425036EC55F0740EF66EF70EBE
:103D0800F76E0800F5CF2BF0730EF66EF70EF76E10
:103D18000800F5502B24236E46C024F0425036ECA0
:103D280055F0750EF66EF70EF76E0800F5CF2BF00E
:103D3800730EF66EF70EF76E0800F5502B24236EFF
:103D480046C024F0425036EC55F0760EF66EF70E6B
:103D5800F76E0800F5CF2BF0730EF66EF70EF76EC0
:103D68000800F5502B24236E46C024F0425036EC50
:103D780055F0339637BA3BBA29D133AA27D1150E55
:103D8800306E4004D8A40CD0520EF66EF80EF76EC2
:103D98000800F5CF23F046C024F0425036EC55F029
:103DA800020E4018D8A40CD0430EF66EF80EF76E2B
:103DB8000800F5CF23F046C024F0425036EC55F009
:103DC800030E4018D8A41AD00C0E2E242B6E000E09
:103DD8002F202C6E2BC0F6FF2CC0F7FF0800F5CF64
:103DE8002DF02EC0F6FF2FC0F7FF0800F5502D2448
:103DF800236E46C024F0425036EC55F0050E4018AC
:103E0800D8A427D0050EF66EF80EF76E0800F55008
:103E18003024236E46C024F0425036EC55F0060E8E
:103E2800F66EF80EF76E0800F5503024236E46C083
:103E380024F0425036EC55F0070EF66EF80EF76E89
:103E48000800F5503024236E46C024F0425036EC6A
:103E580055F0060E4018D8A434D0DB0EF66EF70ED7
:103E6800F76E0800F5CF23F046C024F0425036EC38
:103E780055F0DC0EF66EF70EF76E0800F5CF2BF056
:103E8800DB0EF66EF70EF76E0800F5502B24236E46
:103E980046C024F0425036EC55F0DD0EF66EF70EB3
:103EA800F76E0800F5CF2BF0DB0EF66EF70EF76E07
:103EB8000800F5502B24236E46C024F0425036ECFF
:103EC80055F0080E4018D8A434D0AF0EF66EF70E91
:103ED800F76E0800F5503024236E46C024F0425097
:103EE80036EC55F0B00EF66EF70EF76E0800F5508A
:103EF8003024236E46C024F0425036EC55F0B10E03
:103F0800F66EF70EF76E0800F5503024236E46C0A3
:103F180024F0425036EC55F0B20EF66EF70EF76EFE
:103F28000800F5503024236E46C024F0425036EC89
:103F380055F0090E4018D8A448D0370EF66EF90E81
:103F4800F76E0800F5CF23F046C024F0425036EC57
:103F580055F0780EF66EF70EF76E0800F5CF2BF0D9
:103F6800770EF66EF70EF76E0800F5502B24236EC9
:103F780046C024F0425036EC55F0790EF66EF70E36
:103F8800F76E0800F5CF2BF0770EF66EF70EF76E8A
:103F98000800F5502B24236E46C024F0425036EC1E
:103FA80055F07A0EF66EF70EF76E0800F5CF2BF087
:103FB800770EF66EF70EF76E0800F5502B24236E79
:103FC80046C024F0425036EC55F0339A37BE3BBE1B
:103FD80029D133AE27D1170E306E4004D8A40CD0A7
:103FE800530EF66EF80EF76E0800F5CF23F046C0B4
:103FF80024F0425036EC55F0020E4018D8A40CD0EC
:10400800440EF66EF80EF76E0800F5CF23F046C0A2
:1040180024F0425036EC55F0030E4018D8A41AD0BC
:104028000D0E2E242B6E000E2F202C6E2BC0F6FFAB
:104038002CC0F7FF0800F5CF2DF02EC0F6FF2FC0DB
:10404800F7FF0800F5502D24236E46C024F0425097
:1040580036EC55F0050E4018D8A427D0080EF66E99
:10406800F80EF76E0800F5503024236E46C024F091
:10407800425036EC55F0090EF66EF80EF76E080051
:10408800F5503024236E46C024F0425036EC55F0EB
:104098000A0EF66EF80EF76E0800F5503024236EFF
:1040A80046C024F0425036EC55F0060E4018D8A40D
:1040B80034D0DE0EF66EF70EF76E0800F5CF23F05B
:1040C80046C024F0425036EC55F0DF0EF66EF70E7F
:1040D800F76E0800F5CF2BF0DE0EF66EF70EF76ED2
:1040E8000800F5502B24236E46C024F0425036ECCD
:1040F80055F0E00EF66EF70EF76E0800F5CF2BF0D0
:10410800DE0EF66EF70EF76E0800F5502B24236EC0
:1041180046C024F0425036EC55F0080E4018D8A49A
:1041280034D0B30EF66EF70EF76E0800F550302453
:10413800236E46C024F0425036EC55F0B40EF66EAD
:10414800F70EF76E0800F5503024236E46C024F0B1
:10415800425036EC55F0B50EF66EF70EF76E0800C5
:10416800F5503024236E46C024F0425036EC55F00A
:10417800B60EF66EF70EF76E0800F5503024236E73
:1041880046C024F0425036EC55F0090E4018D8A429
:1041980048D07B0EF66EF70EF76E0800F5CF23F0C9
:1041A80046C024F0425036EC55F07C0EF66EF70E01
:1041B800F76E0800F5CF2BF07B0EF66EF70EF76E54
:1041C8000800F5502B24236E46C024F0425036ECEC
:1041D80055F07D0EF66EF70EF76E0800F5CF2BF052
:1041E8007B0EF66EF70EF76E0800F5502B24236E43
:1041F80046C024F0425036EC55F07E0EF66EF70EAF
:10420800F76E0800F5CF2BF07B0EF66EF70EF76E03
:104218000800F5502B24236E46C024F0425036EC9B
:1042280055F0339E38A012003CB0120034A01200A2
:10423800180E306E4004D8A40CD0540EF66EF80E4A
:10424800F76E0800F5CF23F046C024F0425036EC54
:1042580055F0020E4018D8A40CD0450EF66EF80E94
:10426800F76E0800F5CF23F046C024F0425036EC34
:1042780055F0030E4018D8A41AD00E0E2E242B6E1B
:10428800000E2F202C6E2BC0F6FF2CC0F7FF080065
:10429800F5CF2DF02EC0F6FF2FC0F7FF0800F55020
:1042A8002D24236E46C024F0425036EC55F034904D
:1042B800120011D08B0E2B6E010E0BD0880E2B6EB8
:1042C800010E07D0850E2B6E010E03D0820E2B6EC9
:1042D800010E2C6E24D00001DD51000AD8B4EAD7B3
:1042E800010AD8B4EBD7030AD8B4ECD7010AD8B47A
:1042F800EDD715D07E0E2D6E010E0FD07A0E2D6ED5
:10430800010E0BD0760E2D6E010E07D0720E2D6E9B
:10431800010E03D06E0E2D6E010E2E6E11D000010F
:10432800DC51000AD8B4E6D7010AD8B4E7D7030AA3
:10433800D8B4E8D7010AD8B4E9D7070AD8B4EAD775
:1043480039B031B06CD0000E2F6E4050D8A407D0D1
:104358002FC027F046C028F0425014EC52F0040E4B
:104368004018D8A425D02BC0D9FF2CC0DAFFDF50C5
:10437800276E46C028F0425014EC52F020EE01F0AF
:104388002B50D9262C50DA22DF50276E46C028F051
:10439800425014EC52F020EE02F02B50D9262C504B
:1043A800DA22DF50276E46C028F0425014EC52F053
:1043B800070E4018D8A432D02DC0D9FF2EC0DAFF7E
:1043C800DF50276E46C028F0425014EC52F020EE21
:1043D80001F02D50D9262E50DA22DF50276E46C024
:1043E80028F0425014EC52F020EE02F02D50D9265D
:1043F8002E50DA22DF50276E46C028F0425014ECC7
:1044080052F020EE03F02D50D9262E50DA22DF503C
:10441800276E46C028F0425014EC52F0318039B271
:1044280031B273D0010E2F6E4050D8A407D02FC0E0
:1044380027F046C028F0425014EC52F0040E401801
:10444800D8A428D02BC0D9FF2CC0DAFFDF502F24E6
:10445800276E46C028F0425014EC52F020EE01F0CE
:104468002B50D9262C50DA22DF502F24276E46C035
:1044780028F0425014EC52F020EE02F02B50D926CE
:104488002C50DA22DF502F24276E46C028F04250E5
:1044980014EC52F0070E4018D8A436D02DC0D9FF1E
:1044A8002EC0DAFFDF502F24276E46C028F0425076
:1044B80014EC52F020EE01F02D50D9262E50DA22BD
:1044C800DF502F24276E46C028F0425014EC52F0DB
:1044D80020EE02F02D50D9262E50DA22DF502F245C
:1044E800276E46C028F0425014EC52F020EE03F03C
:1044F8002D50D9262E50DA22DF502F24276E46C0A1
:1045080028F0425014EC52F0318239B431B473D0EF
:10451800020E2F6E4050D8A407D02FC027F046C0F7
:1045280028F0425014EC52F0040E4018D8A428D0B9
:104538002BC0D9FF2CC0DAFFDF502F24276E46C0CE
:1045480028F0425014EC52F020EE01F02B50D926FE
:104558002C50DA22DF502F24276E46C028F0425014
:1045680014EC52F020EE02F02B50D9262C50DA220F
:10457800DF502F24276E46C028F0425014EC52F02A
:10458800070E4018D8A436D02DC0D9FF2EC0DAFFA8
:10459800DF502F24276E46C028F0425014EC52F00A
:1045A80020EE01F02D50D9262E50DA22DF502F248C
:1045B800276E46C028F0425014EC52F020EE02F06C
:1045C8002D50D9262E50DA22DF502F24276E46C0D0
:1045D80028F0425014EC52F020EE03F02D50D9266A
:1045E8002E50DA22DF502F24276E46C028F0425082
:1045F80014EC52F0318439B631B673D0030E2F6EF5
:104608004050D8A407D02FC027F046C028F0425009
:1046180014EC52F0040E4018D8A428D02BC0D9FFAF
:104628002CC0DAFFDF502F24276E46C028F04250F6
:1046380014EC52F020EE01F02B50D9262C50DA223F
:10464800DF502F24276E46C028F0425014EC52F059
:1046580020EE02F02B50D9262C50DA22DF502F24DE
:10466800276E46C028F0425014EC52F0070E40184E
:10467800D8A436D02DC0D9FF2EC0DAFFDF502F24A2
:10468800276E46C028F0425014EC52F020EE01F09C
:104698002D50D9262E50DA22DF502F24276E46C0FF
:1046A80028F0425014EC52F020EE02F02D50D9269A
:1046B8002E50DA22DF502F24276E46C028F04250B1
:1046C80014EC52F020EE03F02D50D9262E50DA22A9
:1046D800DF502F24276E46C028F0425014EC52F0C9
:1046E800318639B831B873D0040E2F6E4050D8A433
:1046F80007D02FC027F046C028F0425014EC52F0E3
:10470800040E4018D8A428D02BC0D9FF2CC0DAFF3B
:10471800DF502F24276E46C028F0425014EC52F088
:1047280020EE01F02B50D9262C50DA22DF502F240E
:10473800276E46C028F0425014EC52F020EE02F0EA
:104748002B50D9262C50DA22DF502F24276E46C052
:1047580028F0425014EC52F0070E4018D8A436D076
:104768002DC0D9FF2EC0DAFFDF502F24276E46C098
:1047780028F0425014EC52F020EE01F02D50D926CA
:104788002E50DA22DF502F24276E46C028F04250E0
:1047980014EC52F020EE02F02D50D9262E50DA22D9
:1047A800DF502F24276E46C028F0425014EC52F0F8
:1047B80020EE03F02D50D9262E50DA22DF502F2478
:1047C800276E46C028F0425014EC52F0318839BAAE
:1047D80031BA73D0050E2F6E4050D8A407D02FC021
:1047E80027F046C028F0425014EC52F0040E40184E
:1047F800D8A428D02BC0D9FF2CC0DAFFDF502F2433
:10480800276E46C028F0425014EC52F020EE01F01A
:104818002B50D9262C50DA22DF502F24276E46C081
:1048280028F0425014EC52F020EE02F02B50D9261A
:104838002C50DA22DF502F24276E46C028F0425031
:1048480014EC52F0070E4018D8A436D02DC0D9FF6A
:104858002EC0DAFFDF502F24276E46C028F04250C2
:1048680014EC52F020EE01F02D50D9262E50DA2209
:10487800DF502F24276E46C028F0425014EC52F027
:1048880020EE02F02D50D9262E50DA22DF502F24A8
:10489800276E46C028F0425014EC52F020EE03F088
:1048A8002D50D9262E50DA22DF502F24276E46C0ED
:1048B80028F0425014EC52F0318A39BC31BC73D024
:1048C800060E2F6E4050D8A407D02FC027F046C040
:1048D80028F0425014EC52F0040E4018D8A428D006
:1048E8002BC0D9FF2CC0DAFFDF502F24276E46C01B
:1048F80028F0425014EC52F020EE01F02B50D9264B
:104908002C50DA22DF502F24276E46C028F0425060
:1049180014EC52F020EE02F02B50D9262C50DA225B
:10492800DF502F24276E46C028F0425014EC52F076
:10493800070E4018D8A436D02DC0D9FF2EC0DAFFF4
:10494800DF502F24276E46C028F0425014EC52F056
:1049580020EE01F02D50D9262E50DA22DF502F24D8
:10496800276E46C028F0425014EC52F020EE02F0B8
:104978002D50D9262E50DA22DF502F24276E46C01C
:1049880028F0425014EC52F020EE03F02D50D926B6
:104998002E50DA22DF502F24276E46C028F04250CE
:1049A80014EC52F0318C39BE31BE73D0070E2F6E25
:1049B8004050D8A407D02FC027F046C028F0425056
:1049C80014EC52F0040E4018D8A428D02BC0D9FFFC
:1049D8002CC0DAFFDF502F24276E46C028F0425043
:1049E80014EC52F020EE01F02B50D9262C50DA228C
:1049F800DF502F24276E46C028F0425014EC52F0A6
:104A080020EE02F02B50D9262C50DA22DF502F242A
:104A1800276E46C028F0425014EC52F0070E40189A
:104A2800D8A436D02DC0D9FF2EC0DAFFDF502F24EE
:104A3800276E46C028F0425014EC52F020EE01F0E8
:104A48002D50D9262E50DA22DF502F24276E46C04B
:104A580028F0425014EC52F020EE02F02D50D926E6
:104A68002E50DA22DF502F24276E46C028F04250FD
:104A780014EC52F020EE03F02D50D9262E50DA22F5
:104A8800DF502F24276E46C028F0425014EC52F015
:104A9800318E3AB032B073D0080E2F6E4050D8A481
:104AA80007D02FC027F046C028F0425014EC52F02F
:104AB800040E4018D8A428D02BC0D9FF2CC0DAFF88
:104AC800DF502F24276E46C028F0425014EC52F0D5
:104AD80020EE01F02B50D9262C50DA22DF502F245B
:104AE800276E46C028F0425014EC52F020EE02F037
:104AF8002B50D9262C50DA22DF502F24276E46C09F
:104B080028F0425014EC52F0070E4018D8A436D0C2
:104B18002DC0D9FF2EC0DAFFDF502F24276E46C0E4
:104B280028F0425014EC52F020EE01F02D50D92616
:104B38002E50DA22DF502F24276E46C028F042502C
:104B480014EC52F020EE02F02D50D9262E50DA2225
:104B5800DF502F24276E46C028F0425014EC52F044
:104B680020EE03F02D50D9262E50DA22DF502F24C4
:104B7800276E46C028F0425014EC52F032803AB208
:104B880032B273D0090E2F6E4050D8A407D02FC070
:104B980027F046C028F0425014EC52F0040E40189A
:104BA800D8A428D02BC0D9FF2CC0DAFFDF502F247F
:104BB800276E46C028F0425014EC52F020EE01F067
:104BC8002B50D9262C50DA22DF502F24276E46C0CE
:104BD80028F0425014EC52F020EE02F02B50D92667
:104BE8002C50DA22DF502F24276E46C028F042507E
:104BF80014EC52F0070E4018D8A436D02DC0D9FFB7
:104C08002EC0DAFFDF502F24276E46C028F042500E
:104C180014EC52F020EE01F02D50D9262E50DA2255
:104C2800DF502F24276E46C028F0425014EC52F073
:104C380020EE02F02D50D9262E50DA22DF502F24F4
:104C4800276E46C028F0425014EC52F020EE03F0D4
:104C58002D50D9262E50DA22DF502F24276E46C039
:104C680028F0425014EC52F032823AB432B473D085
:104C78000A0E2F6E4050D8A407D02FC027F046C088
:104C880028F0425014EC52F0040E4018D8A428D052
:104C98002BC0D9FF2CC0DAFFDF502F24276E46C067
:104CA80028F0425014EC52F020EE01F02B50D92697
:104CB8002C50DA22DF502F24276E46C028F04250AD
:104CC80014EC52F020EE02F02B50D9262C50DA22A8
:104CD800DF502F24276E46C028F0425014EC52F0C3
:104CE800070E4018D8A436D02DC0D9FF2EC0DAFF41
:104CF800DF502F24276E46C028F0425014EC52F0A3
:104D080020EE01F02D50D9262E50DA22DF502F2424
:104D1800276E46C028F0425014EC52F020EE02F004
:104D28002D50D9262E50DA22DF502F24276E46C068
:104D380028F0425014EC52F020EE03F02D50D92602
:104D48002E50DA22DF502F24276E46C028F042501A
:104D580014EC52F032843AB632B673D00B0E2F6E82
:104D68004050D8A407D02FC027F046C028F04250A2
:104D780014EC52F0040E4018D8A428D02BC0D9FF48
:104D88002CC0DAFFDF502F24276E46C028F042508F
:104D980014EC52F020EE01F02B50D9262C50DA22D8
:104DA800DF502F24276E46C028F0425014EC52F0F2
:104DB80020EE02F02B50D9262C50DA22DF502F2477
:104DC800276E46C028F0425014EC52F0070E4018E7
:104DD800D8A436D02DC0D9FF2EC0DAFFDF502F243B
:104DE800276E46C028F0425014EC52F020EE01F035
:104DF8002D50D9262E50DA22DF502F24276E46C098
:104E080028F0425014EC52F020EE02F02D50D92632
:104E18002E50DA22DF502F24276E46C028F0425049
:104E280014EC52F020EE03F02D50D9262E50DA2241
:104E3800DF502F24276E46C028F0425014EC52F061
:104E480032863AB832B873D00C0E2F6E4050D8A4C0
:104E580007D02FC027F046C028F0425014EC52F07B
:104E6800040E4018D8A428D02BC0D9FF2CC0DAFFD4
:104E7800DF502F24276E46C028F0425014EC52F021
:104E880020EE01F02B50D9262C50DA22DF502F24A7
:104E9800276E46C028F0425014EC52F020EE02F083
:104EA8002B50D9262C50DA22DF502F24276E46C0EB
:104EB80028F0425014EC52F0070E4018D8A436D00F
:104EC8002DC0D9FF2EC0DAFFDF502F24276E46C031
:104ED80028F0425014EC52F020EE01F02D50D92663
:104EE8002E50DA22DF502F24276E46C028F0425079
:104EF80014EC52F020EE02F02D50D9262E50DA2272
:104F0800DF502F24276E46C028F0425014EC52F090
:104F180020EE03F02D50D9262E50DA22DF502F2410
:104F2800276E46C028F0425014EC52F032883ABA44
:104F380032BA6CD00D0E2F6E4050D8A407D02FC0B7
:104F480027F046C028F0425014EC52F0040E4018E6
:104F5800D8A425D02BC0D9FF2CC0DAFFDF50276E8C
:104F680046C028F0425014EC52F020EE01F02B50CD
:104F7800D9262C50DA22DF50276E46C028F042503E
:104F880014EC52F020EE02F02B50D9262C50DA22E5
:104F9800DF50276E46C028F0425014EC52F0070E3E
:104FA8004018D8A432D02DC0D9FF2EC0DAFFDF5068
:104FB800276E46C028F0425014EC52F020EE01F063
:104FC8002D50D9262E50DA22DF50276E46C028F001
:104FD800425014EC52F020EE02F02D50D9262E50FB
:104FE800DA22DF50276E46C028F0425014EC52F007
:104FF80020EE03F02D50D9262E50DA22DF50276EEE
:1050080046C028F0425014EC52F0328A3ABC32BC06
:1050180073D00E0E2F6E4050D8A407D02FC027F0A3
:1050280046C028F0425014EC52F0040E4018D8A4A0
:1050380028D02BC0D9FF2CC0DAFFDF502F24276ED1
:1050480046C028F0425014EC52F020EE01F02B50EC
:10505800D9262C50DA22DF502F24276E46C028F09C
:10506800425014EC52F020EE02F02B50D9262C506E
:10507800DA22DF502F24276E46C028F0425014EC65
:1050880052F0070E4018D8A436D02DC0D9FF2EC034
:10509800DAFFDF502F24276E46C028F0425014EC68
:1050A80052F020EE01F02D50D9262E50DA22DF5092
:1050B8002F24276E46C028F0425014EC52F020EE00
:1050C80002F02D50D9262E50DA22DF502F24276ED9
:1050D80046C028F0425014EC52F020EE03F02D5058
:1050E800D9262E50DA22DF502F24276E46C028F00A
:1050F800425014EC52F0328C3ABE32BE73D00F0ECE
:105108002F6E4050D8A407D02FC027F046C028F0F3
:10511800425014EC52F0040E4018D8A428D02BC0EA
:10512800D9FF2CC0DAFFDF502F24276E46C028F0A5
:10513800425014EC52F020EE01F02B50D9262C509E
:10514800DA22DF502F24276E46C028F0425014EC94
:1051580052F020EE02F02B50D9262C50DA22DF50E4
:105168002F24276E46C028F0425014EC52F0070E48
:105178004018D8A436D02DC0D9FF2EC0DAFFDF5092
:105188002F24276E46C028F0425014EC52F020EE2F
:1051980001F02D50D9262E50DA22DF502F24276E09
:1051A80046C028F0425014EC52F020EE02F02D5088
:1051B800D9262E50DA22DF502F24276E46C028F039
:1051C800425014EC52F020EE03F02D50D9262E5008
:1051D800DA22DF502F24276E46C028F0425014EC04
:1051E80052F0328E3BB033B073D0100E2F6E405059
:1051F800D8A407D02FC027F046C028F0425014EC9E
:1052080052F0040E4018D8A428D02BC0D9FF2CC0C7
:10521800DAFFDF502F24276E46C028F0425014ECE6
:1052280052F020EE01F02B50D9262C50DA22DF5014
:105238002F24276E46C028F0425014EC52F020EE7E
:1052480002F02B50D9262C50DA22DF502F24276E5B
:1052580046C028F0425014EC52F0070E4018D8A46B
:1052680036D02DC0D9FF2EC0DAFFDF502F24276E8D
:1052780046C028F0425014EC52F020EE01F02D50B8
:10528800D9262E50DA22DF502F24276E46C028F068
:10529800425014EC52F020EE02F02D50D9262E5038
:1052A800DA22DF502F24276E46C028F0425014EC33
:1052B80052F020EE03F02D50D9262E50DA22DF507E
:1052C8002F24276E46C028F0425014EC52F0338049
:1052D8003BB233B273D0110E2F6E4050D8A407D012
:1052E8002FC027F046C028F0425014EC52F0040EAC
:1052F8004018D8A428D02BC0D9FF2CC0DAFFDF5023
:105308002F24276E46C028F0425014EC52F020EEAD
:1053180001F02B50D9262C50DA22DF502F24276E8B
:1053280046C028F0425014EC52F020EE02F02B5008
:10533800D9262C50DA22DF502F24276E46C028F0B9
:10534800425014EC52F0070E4018D8A436D02DC0A5
:10535800D9FF2EC0DAFFDF502F24276E46C028F071
:10536800425014EC52F020EE01F02D50D9262E5068
:10537800DA22DF502F24276E46C028F0425014EC62
:1053880052F020EE02F02D50D9262E50DA22DF50AE
:105398002F24276E46C028F0425014EC52F020EE1D
:1053A80003F02D50D9262E50DA22DF502F24276EF5
:1053B80046C028F0425014EC52F033823BB433B468
:1053C80073D0120E2F6E4050D8A407D02FC027F0EC
:1053D80046C028F0425014EC52F0040E4018D8A4ED
:1053E80028D02BC0D9FF2CC0DAFFDF502F24276E1E
:1053F80046C028F0425014EC52F020EE01F02B5039
:10540800D9262C50DA22DF502F24276E46C028F0E8
:10541800425014EC52F020EE02F02B50D9262C50BA
:10542800DA22DF502F24276E46C028F0425014ECB1
:1054380052F0070E4018D8A436D02DC0D9FF2EC080
:10544800DAFFDF502F24276E46C028F0425014ECB4
:1054580052F020EE01F02D50D9262E50DA22DF50DE
:105468002F24276E46C028F0425014EC52F020EE4C
:1054780002F02D50D9262E50DA22DF502F24276E25
:1054880046C028F0425014EC52F020EE03F02D50A4
:10549800D9262E50DA22DF502F24276E46C028F056
:1054A800425014EC52F033843BB633B673D0130E2B
:1054B8002F6E4050D8A407D02FC027F046C028F040
:1054C800425014EC52F0040E4018D8A428D02BC037
:1054D800D9FF2CC0DAFFDF502F24276E46C028F0F2
:1054E800425014EC52F020EE01F02B50D9262C50EB
:1054F800DA22DF502F24276E46C028F0425014ECE1
:1055080052F020EE02F02B50D9262C50DA22DF5030
:105518002F24276E46C028F0425014EC52F0070E94
:105528004018D8A436D02DC0D9FF2EC0DAFFDF50DE
:105538002F24276E46C028F0425014EC52F020EE7B
:1055480001F02D50D9262E50DA22DF502F24276E55
:1055580046C028F0425014EC52F020EE02F02D50D4
:10556800D9262E50DA22DF502F24276E46C028F085
:10557800425014EC52F020EE03F02D50D9262E5054
:10558800DA22DF502F24276E46C028F0425014EC50
:1055980052F033863BB833B873D0140E2F6E405098
:1055A800D8A407D02FC027F046C028F0425014ECEA
:1055B80052F0040E4018D8A428D02BC0D9FF2CC014
:1055C800DAFFDF502F24276E46C028F0425014EC33
:1055D80052F020EE01F02B50D9262C50DA22DF5061
:1055E8002F24276E46C028F0425014EC52F020EECB
:1055F80002F02B50D9262C50DA22DF502F24276EA8
:1056080046C028F0425014EC52F0070E4018D8A4B7
:1056180036D02DC0D9FF2EC0DAFFDF502F24276ED9
:1056280046C028F0425014EC52F020EE01F02D5004
:10563800D9262E50DA22DF502F24276E46C028F0B4
:10564800425014EC52F020EE02F02D50D9262E5084
:10565800DA22DF502F24276E46C028F0425014EC7F
:1056680052F020EE03F02D50D9262E50DA22DF50CA
:105678002F24276E46C028F0425014EC52F033888D
:105688003BBA33BA73D0150E2F6E4050D8A407D04A
:105698002FC027F046C028F0425014EC52F0040EF8
:1056A8004018D8A428D02BC0D9FF2CC0DAFFDF506F
:1056B8002F24276E46C028F0425014EC52F020EEFA
:1056C80001F02B50D9262C50DA22DF502F24276ED8
:1056D80046C028F0425014EC52F020EE02F02B5055
:1056E800D9262C50DA22DF502F24276E46C028F006
:1056F800425014EC52F0070E4018D8A436D02DC0F2
:10570800D9FF2EC0DAFFDF502F24276E46C028F0BD
:10571800425014EC52F020EE01F02D50D9262E50B4
:10572800DA22DF502F24276E46C028F0425014ECAE
:1057380052F020EE02F02D50D9262E50DA22DF50FA
:105748002F24276E46C028F0425014EC52F020EE69
:1057580003F02D50D9262E50DA22DF502F24276E41
:1057680046C028F0425014EC52F0338A3BBC33BC9C
:1057780073D0160E2F6E4050D8A407D02FC027F034
:1057880046C028F0425014EC52F0040E4018D8A439
:1057980028D02BC0D9FF2CC0DAFFDF502F24276E6A
:1057A80046C028F0425014EC52F020EE01F02B5085
:1057B800D9262C50DA22DF502F24276E46C028F035
:1057C800425014EC52F020EE02F02B50D9262C5007
:1057D800DA22DF502F24276E46C028F0425014ECFE
:1057E80052F0070E4018D8A436D02DC0D9FF2EC0CD
:1057F800DAFFDF502F24276E46C028F0425014EC01
:1058080052F020EE01F02D50D9262E50DA22DF502A
:105818002F24276E46C028F0425014EC52F020EE98
:1058280002F02D50D9262E50DA22DF502F24276E71
:1058380046C028F0425014EC52F020EE03F02D50F0
:10584800D9262E50DA22DF502F24276E46C028F0A2
:10585800425014EC52F0338C3BBE33BE73D0170E5B
:105868002F6E4050D8A407D02FC027F046C028F08C
:10587800425014EC52F0040E4018D8A428D02BC083
:10588800D9FF2CC0DAFFDF502F24276E46C028F03E
:10589800425014EC52F020EE01F02B50D9262C5037
:1058A800DA22DF502F24276E46C028F0425014EC2D
:1058B80052F020EE02F02B50D9262C50DA22DF507D
:1058C8002F24276E46C028F0425014EC52F0070EE1
:1058D8004018D8A436D02DC0D9FF2EC0DAFFDF502B
:1058E8002F24276E46C028F0425014EC52F020EEC8
:1058F80001F02D50D9262E50DA22DF502F24276EA2
:1059080046C028F0425014EC52F020EE02F02D5020
:10591800D9262E50DA22DF502F24276E46C028F0D1
:10592800425014EC52F020EE03F02D50D9262E50A0
:10593800DA22DF502F24276E46C028F0425014EC9C
:1059480052F0338E3CB034B073D0180E2F6E4050E6
:10595800D8A407D02FC027F046C028F0425014EC36
:1059680052F0040E4018D8A428D02BC0D9FF2CC060
:10597800DAFFDF502F24276E46C028F0425014EC7F
:1059880052F020EE01F02B50D9262C50DA22DF50AD
:105998002F24276E46C028F0425014EC52F020EE17
:1059A80002F02B50D9262C50DA22DF502F24276EF4
:1059B80046C028F0425014EC52F0070E4018D8A404
:1059C80036D02DC0D9FF2EC0DAFFDF502F24276E26
:1059D80046C028F0425014EC52F020EE01F02D5051
:1059E800D9262E50DA22DF502F24276E46C028F001
:1059F800425014EC52F020EE02F02D50D9262E50D1
:105A0800DA22DF502F24276E46C028F0425014ECCB
:105A180052F020EE03F02D50D9262E50DA22DF5016
:105A28002F24276E46C028F0425014EC52F03480E0
:105A380035B039B072D031A070D0000E2F6E405002
:105A4800D8A407D02FC023F046C024F0425036EC2B
:105A580055F0040E4018D8A425D02BC0D9FF2CC06F
:105A6800DAFFDF50236E46C024F0425036EC55F082
:105A780020EE01F02B50D9262C50DA22DF50236E6D
:105A880046C024F0425036EC55F020EE02F02B5080
:105A9800D9262C50DA22DF50236E46C024F042501B
:105AA80036EC55F0070E4018D8A436D02DC0D9FFD3
:105AB8002EC0DAFFDF502F24236E46C024F0425058
:105AC80036EC55F020EE01F02D50D9262E50DA2272
:105AD800DF502F24236E46C024F0425036EC55F098
