:1000000000180020C1000000D90600009D06000075
:100010009D0600009D0600009D0600009D06000054
:100020009D0600009D0600009D060000D906000008
:10003000D90600009D0600000D19000015190000EA
:10004000D9060000D9060000D9060000D906000034
:10005000D9060000D9060000D9060000D906000024
:10006000D9060000D9060000D9060000D906000014
:10007000D9060000D9060000D9060000D906000004
:10008000D9060000D9060000D9060000D9060000F4
:10009000D9060000D9060000D9060000D9060000E4
:1000A000550A0000D9060000D9060000D906000054
:1000B000D9060000D9060000D9060000D9060000C4
:1000C000F8B500F00DFB0821474A484B1A60484A32
:1000D000484B1A60484A494B1A60494B1A780A4201
:1000E00002D01A780A431A702A22464B46481A70E0
:1000F00000234649464C1A188A4203D2E558043375
:100100001560F8E70021434B434A934201D202C3F2
:10011000FBE70023414A424958589446985004331B
:10012000C02BF9D100210326FF2580248A083D4BEE
:100130009200D2180B002F003340DB009F40106864
:100140000131B84307002000984003003B4313608F
:100150002029EBD16246344B1A608A22334B1A7045
:10016000334B663A5A707C321A709E3A9979114232
:10017000FCD0102299791142FCD10C209A792C499B
:100180000240082AFAD1053A0A713D324A71203AF2
:1001900099791142FCD0402299791142FCD025492D
:1001A000254A11602021224A117014399A790A4097
:1001B0000C2AFBD1214A224B1A60224A224B1A6098
:1001C0000022224B1A60224B07321A60214A224B2E
:1001D0001A6062B600F012FB01F0F4FD00F086FA3E
:1001E00001F0E9FBFEE7C046300004F03480044033
:1001F000823F0000388004400100000F3C80044032
:1002000002D0074000E00740300200204C030020ED
:10021000042000004C0300206405002000F9FF1FAB
:100220000000000000E400E008ED00E0005006409F
:10023000004006400000011044800440C000050555
:10024000048004407FBB000014E000E018E000E000
:1002500010E000E00000202020ED00E0FFFFFFFFA5
:10026000FFFFFFFFFFFFFFFFFFFFFFFFFFFFFFFF9E
:10027000FFFFFFFFFFFFFFFFFFFFFFFFFFFFFFFF8E
:10028000FFFFFFFFFFFFFFFFFFFFFFFFFFFFFFFF7E
:10029000FFFFFFFFFFFFFFFFFFFFFFFFFFFFFFFF6E
:1002A000FFFFFFFFFFFFFFFFFFFFFFFFFFFFFFFF5E
:1002B000FFFFFFFFFFFFFFFFFFFFFFFFFFFFFFFF4E
:1002C000FFFFFFFFFFFFFFFFFFFFFFFFFFFFFFFF3E
:1002D000FFFFFFFFFFFFFFFFFFFFFFFFFFFFFFFF2E
:1002E000FFFFFFFFFFFFFFFFFFFFFFFFFFFFFFFF1E
:1002F000FFFFFFFFFFFFFFFFFFFFFFFFFFFFFFFF0E
:10030000FFFFFFFFFFFFFFFFFFFFFFFFFFFFFFFFFD
:10031000FFFFFFFFFFFFFFFFFFFFFFFFFFFFFFFFED
:10032000FFFFFFFFFFFFFFFFFFFFFFFFFFFFFFFFDD
:10033000FFFFFFFFFFFFFFFFFFFFFFFFFFFFFFFFCD
:10034000FFFFFFFFFFFFFFFFFFFFFFFFFFFFFFFFBD
:10035000FFFFFFFFFFFFFFFFFFFFFFFFFFFFFFFFAD
:10036000FFFFFFFFFFFFFFFFFFFFFFFFFFFFFFFF9D
:10037000FFFFFFFFFFFFFFFFFFFFFFFFFFFFFFFF8D
:10038000FFFFFFFFFFFFFFFFFFFFFFFFFFFFFFFF7D
:10039000FFFFFFFFFFFFFFFFFFFFFFFFFFFFFFFF6D
:1003A000FFFFFFFFFFFFFFFFFFFFFFFFFFFFFFFF5D
:1003B000FFFFFFFFFFFFFFFFFFFFFFFFFFFFFFFF4D
:1003C000FFFFFFFFFFFFFFFFFFFFFFFFFFFFFFFF3D
:1003D000FFFFFFFFFFFFFFFFFFFFFFFFFFFFFFFF2D
:1003E000FFFFFFFFFFFFFFFFFFFFFFFFFFFFFFFF1D
:1003F000FFFFFFFFFFFFFFFFFFFFFFFFFFFFFFFF0D
:10040000FFFFFFFFFFFFFFFFFFFFFFFFDEF9FFFF23
:1004100010B5064C2378002B07D1054B002B02D0DA
:10042000044800E000BF0123237010BD4C030020EE
:100430000000000004200000084B10B5002B03D082
:100440000749084800E000BF07480368002B00D1B7
:1004500010BD064B002BFBD09847F9E700000000C9
:1004600050030020042000004C0300200000000086
:10047000094B10B518680021C0B200F04BF9074BCA
:1004800000211868C0B200F045F9054B002118683A
:10049000C0B200F03FF910BD3C020020380200203D
:1004A000340200200023F7B5664C23706370A370FC
:1004B000654D287800F01CF901950028F8D000253A
:1004C0000026624F387800F013F90028F9D0604B0D
:1004D0001868C0B200F00CF9B040635D1843605575
:1004E000387800F005F90128FAD00136082EE8D155
:1004F0000135032DE4D1019B1B6800936B461878EE
:1005000000F0F6F80128F6D022780F211300514DA3
:100510000B408A43504901332B700A70B02A2FD008
:1005200015D8802A18D0902A00D084E062784B49F0
:100530004B480A70A17812040170FE20C0031040DD
:100540000A06FE21C9050A400243464828E0C02A9F
:100550002DD0E02A3CD06EE062784049013B0A7021
:10056000A0783F49120408701802F0210300090125
:100570000B40FE213C48C9030A401043184358E091
:1005800062783A493A480A70A17812040170FE2054
:10059000C00310400A06FE21C9050A40024335483F
:1005A000F0210243581E00020901084040E0FE21EC
:1005B0006078314AC90310700004304A0840024391
:1005C000F020013B00011B0203401A43100030E001
:1005D00062782B4B2B4E1A70A1782B4B2B4C197039
:1005E0002B4BC901C9183000216001F0DBF9300044
:1005F00001F098F92068274B984200DD1800244B41
:10060000984200DA180080239B01C018F0232A7852
:100610001B01013A12021A40FE231F49DB0311435A
:10062000020413400A001A43FE234004DB0518406D
:10063000104300F0C3FD002000F020FE0028FAD196
:10064000F7BDC04675030020340200203C020020A4
:10065000380200206A0300206803002031020020D5
:100660003002002009900000088000006B03002089
:100670006D0300200BB00000740300200CC00000CC
:100680006C03002044020020690300207003002056
:1006900000E0FFFFFF1F00000EE0000070B58025A6
:1006A0008026ED02F6000B4C23682B4201D000F0AF
:1006B000D1F92368334201D000F00EF823681B05FE
:1006C00001D500F009F82368DB04ECD500F004F84C
:1006D000E9E7C0463480044010B5FFF7DFFFFFFFB5
:1006E0000022014B1A607047008104407047FFFFF1
:1006F00000231A280AD80C335843054A8358101887
:10070000007A1B7C0340581E8341DBB218007047FF
:10071000241E0000F0B51A282FD80C2217004743DA
:10072000164CE5196B682600012901D0042911D166
:10073000504334583018257D027A20202A432275F0
:10074000A22252001A601A68042901D1024313E060
:10075000824311E038592C7A027DA243027580222F
:10076000002908D0022902D10422FF3204E000222D
:10077000032901D1812252001A60F0BD241E00001D
:1007800072B60C4B1A680C4B18680C4B1B6862B69F
:100790005B0104D5322393429B415B42C018084B56
:1007A0009A1A084B5A43FA239B005843920D10188B
:1007B0007047C04618E000E07803002004ED00E038
:1007C0007FBB00005555010070B50400FFF7D8FF4E
:1007D0000500002C0FD0FFF7D3FF074B401B9842BA
:1007E00006D9013C002C06D0FA239B00ED18F2E755
:1007F00001F00CF9EFE770BDE703000080221E4B0B
:10080000D20510B51A608022002012061A601B4B18
:100810001B4918601B4B1C4A1960282313601B4A94
:100820001B4C13601B4A13601B4A13601B4A136066
:100830001B4A1360092222601A4C20601A4C216066
:100840001A4C23601A4C23601A4C22601A4C206008
:100850001A4801601A490B601A490B601A4B1A605A
:1008600001F044F91920FFF7AFFF00F0EBFB142073
:10087000FF30FFF7A9FF10BD00E100E00480034056
:10088000FFBF0000088003400C8003401480034039
:10089000008003401C800340248003402C800340E0
:1008A0003480034004900340089003400C900340C0
:1008B000149003400090034004A0034008A00340AC
:1008C0000CA0034014A0034000A003400223F0B595
:1008D0000A4A0B4E1478C8272343DB00F5186860DA
:1008E00008480578002D00D1403F09040F43F75018
:1008F00001235D405C4005701470F0BDF0030020E2
:1009000000F8FF1F70040020431E10B50020042BC8
:100910000ED872B6074A99008858002807D0446854
:100920005B008C50044904885A5A121B5A5262B612
:1009300010BDC046DC0300200A050020431E002035
:10094000042B09D872B6054A9B009B58002B02D095
:1009500001305B68FAE762B67047C0463404002095
:10096000F8B572B60123174A082594461E001649A9
:1009700064465A1EA25C2A421AD05F017C589A0033
:10098000002C05D1CB1908305860104BCB5109E031
:100990003243D2005458002C0AD18B1808305860CA
:1009A0000B4B8B500B4A1378013B137062B608E077
:1009B0000133062BDCD162B60022064B1A7000F020
:1009C000B7FBF8BD941F000000F8FF1F880040002F
:1009D000C800400066040020421E10B5042A30D82A
:1009E000022380001843174BC0001B1872B6164C28
:1009F000A05C03280BD801F027F916040207052094
:100A000012E0083302200FE0083304200CE00F4806
:100A1000920014580E4B002C01D1115001E098584F
:100A2000416099500CE00320A0540A0008325A603B
:100A3000C822180700D4403A098809040A431A60FA
:100A400062B610BD00F8FF1F94030020340400209C
:100A500048040020F7B5BA4B1C781D000423E4B20B
:100A60001C421FD0B74B1B78002B18D0B64A137806
:100A7000DBB2002B05D0013BDBB21370002B00D1A1
:100A800000BEB24A1378DBB2002B06D0013BDBB2CA
:100A90001370002B01D100F0E9FE00F0D7FB042217
:100AA000A74B1A700822224000D161E2A84BA94F3F
:100AB0001B78DBB29C08E4001D093C19002D00D016
:100AC000E7E1236862689806000F01380C2800D916
:100AD000DBE101F0C3F89C019C01DA01DA01DA01E3
:100AE000DA01DA01DA01B701DA01DA01DA010D001F
:100AF0001168536800229848984E02600120736084
:100B0000974B31602360974C89B22070964C3A61C4
:100B1000BA610193A14218D8D023DB00994200D3D7
:100B2000E7E081235B00994200D1C4E006D8802928
:100B300000D1A9E0822900D1ABE0FAE08B4B9942C9
:100B400000D1C7E0FF33FF331AE0894B994200D14F
:100B50005AE110D888231B01994200D18EE08033DE
:100B6000994200D0E5E03C003D00B278754B20345E
:100B70001A70C03508E07F4B994200D1CEE07E4B21
:100B8000994200D1D9E0D4E080222368134203D0F7
:100B90006068083800F0CCFA0834AC42F4D1002484
:100BA0002500764BE058002805D04368009300F0FC
:100BB000BFFA0098F7E7714B1851714BE050714B39
:100BC000E058002805D04368009300F0B1FA00987F
:100BD000F7E76C4B6C4A18516C4BE0506B00D052ED
:100BE0006B4BE85C0238032807D801F02DF80204AB
:100BF0000204002200E001225A5501350434052D7B
:100C0000CFD100230124634D2B70634B6349621ED7
:100C1000E3188A5C9B001A7008231A4220D000F067
:100C200069FA6301002805D0FA18083050605C4A60
:100C3000FA5003E0F8502B7801332B7000F05AFA89
:100C40000122A3001343DB00002805D0FA18083066
:100C50005060019AFA5003E0F8502B789B182B70E3
:100C600002210023A2001143C9007B5003210A4343
:100C70008A400134BB50062CC7D1A0E0314B494C0F
:100C80001B78237003009BE0464C022322706270A5
:100C900096E07F23B1880B40052B4AD8414C9B003E
:100CA00022706270404A9B181A7802231A4200D1BF
:100CB00086E0207084E07F23B2881A40052A38D865
:100CC0007388002B35D102203749920052181178D1
:100CD00081432CE07F23B2881A40052A29D87388E3
:100CE000002B26D10220304992005218117801437E
:100CF0001DE07288B1882D4B5C68002C19D01888D3
:100D0000904209D15888884206D1120A032A01D19B
:100D1000237855E01B8953E00C33EDE7B388002BB3
:100D20004CD1234A1168234A1160B178224A1170CC
:100D300045E00F221C4B1A7066E000233FE0C046DE
:100D4000802007406F040020F1030020D40400201D
:100D50009020074000F8FF1F7C0300205C04002067
:100D6000C80040007004002081060000020300005B
:100D7000212000002122000021230000DC030020AC
:100D800080030020340400200A05002048040020CD
:100D9000940300206604002030C80110941F000056
:100DA0008800400067040020C02007409C1F00000E
:100DB0007803002060050020E404002013001C00DC
:100DC000F5889D4200D91D002E00402D00D94026F7
:100DD00020003100FFF77AFDA419AD1B03D12F00CD
:100DE000402E04D010E04027AF4200D92F00200051
:100DF0003900FFF76BFDE419ED1B01D1402F03D142
:100E0000774B1C60774B1D800122774B3CE0774B82
:100E100077491888884212D19B88002B0BD17549DD
:100E2000D05CC8540133072BFAD10B68862B02D152
:100E30000F22714B1A7000210800FFF747FD6F4B1E
:100E4000236022E0664F3E68002E13D0654B1C885D
:100E50002500402C00D9402529003000FFF736FD41
:100E6000641B604BA4B21C80002C01D1402D00D12A
:100E700074193C60A0225D4BD2001988914204D1C4
:100E800000225A709A785E4B1A700122564B1A70E3
:100E90006AE008226068013D0838EDB2134037D09F
:100EA00000F046F95749A8004258574B002A1CD079
:100EB000566846501100585D0831616003280BD810
:100EC00000F0C2FE02040608032104E0022102E051
:100ED000052100E0042159550821C8230C4200D106
:100EE000403B1288120413433DE0585D032808D8A4
:100EF00000F0AAFE3A3A0204002200E001225A550C
:100F000032E008221440621E944102345C552BE00A
:100F10002268110C8AB2028000291ED03B4943800E
:100F20004360AB005F583A4E002F01D1585001E0AA
:100F3000F158486037496D00F0506B5AD2186A5228
:100F400000F0D8F8002802D00830606005E0324A8E
:100F5000206013780133137006E008231C4201D18E
:100F60002E4B00E0254B236008222D4B1A7072E5B2
:100F7000012004421ED002231B49284C0B70294B30
:100F8000294E1A70294B1C609C60294C1A61DC6048
:100F90000D249A615E60274B1C70FF23264C237042
:100FA000174C2B702270254A13709F22244B1A7005
:100FB000087013E063B2002B04DA0D221D4B1A7087
:100FC00080232B700222144204D01B490B78DBB221
:100FD0000B702A7010231C4200D02B70F7BDC04646
:100FE0007C03002064040020942007405C0400205F
:100FF0002120000058050020F1030020C800400017
:10100000982007403404002094030020DC030020D3
:10101000800300200A0500206604002088004000AC
:1010200080200740F00300209C03002000F8FF1FF1
:10103000F4030020C0200740882007408C20074090
:101040008420074010B500F0C1FD002211001B4BA9
:10105000D150981808324160C02AF9D1802018492F
:10106000C0020A6802430A601A0A1649D2B20A701C
:101070001A0C1549D2B20A70144A1B0E1370FF23C2
:10108000134A00201370134A13491370134A137044
:1010900001220A701249087012490A70124A116836
:1010A00099430B0070210B43136080220F4B5204B5
:1010B0001A6010220E4B1A7010BDC04600F8FF1FB8
:1010C000348004409C200740B0200740B4200740F3
:1010D00080200740882007409420074010200740C8
:1010E000002107408420074018E400E000E100E010
:1010F0000821074070B572B60B4D2C68200000F037
:1011000043FE1D2802DD62B600200CE080231B0692
:10111000C3409C432C6062B648235843034B1818C5
:1011200000230360436070BD40020020C0F9FF1F30
:1011300010B504000E484821201A00F099FD1D2822
:1011400014D80C4B1B78002B07D00B4B1B78002BB3
:1011500003D02000FFF704FC08E072B680231B06D2
:10116000C340064A11680B43136062B610BDC04607
:10117000C0F9FF1F660400206F0400204002002019
:101180000B4B70B51B6805000A4C002B07D021885B
:101190003B2904D90022084898470023238023884C
:1011A0003B2B03D85A1C2280034AD55470BDC0463D
:1011B00098040020160500201C050020F8B5012326
:1011C0001D4D1E4C2B7023680700002B1DD11C4E9B
:1011D0001C4B1B78002B2DD00420FFF7AFFB0528FC
:1011E00004D9013E184B002E06D108E0FFF782FF1C
:1011F00020600028F5D008E01A78002A02D00122E9
:101200001A7017E000F002FCE2E700260E4B21689E
:101210001E704B885A1C9B00CB189F600F2A01D868
:101220004A8005E0402304200B80FFF7D5FB2660B1
:1012300000232B70F8BDC04688040020B4040020B1
:10124000E14200006F040020B804002070B5094B93
:101250001D78002D0CD1084C2168002908D04B883E
:10126000002B05D09B000B800420FFF7B5FB256009
:1012700070BDC04688040020B4040020F7B5B44E09
:10128000019033683500002B13D1B24B1B78002B33
:1012900000D1A7E10520FFF737FB3060002800D11F
:1012A000A0E10488002C04D1FFF742FF3460200045
:1012B00099E1286843889A08920082189468028805
:1012C0000433934201D2438005E0FFF731FF05204C
:1012D000FFF71AFB28600F23250022099E491A40B8
:1012E0001D40260A37000A702A001F40083A0137BD
:1012F000062A7FD8019A002A02D0974200D071E1D5
:10130000220B1340082D07D1082B00D06AE1802260
:10131000924B1A70924B21E0092D16D1092B00D067
:1013200060E1220E8D4B210C002A07D0902018700E
:101330008C4BD2B21B68002B15D152E08020187064
:10134000874B1B68002B0ED14BE00A2D0FD10A2BC7
:1013500000D047E1A022814B1A70834B1B68002B01
:101360003FD0220E210CC9B2F8B2984739E00B2DBC
:1013700007D10B2B00D035E1B022784B1A707B4B94
:10138000ECE70C2D07D10C2B00D02BE1C022734BC6
:101390001A70774B08E00D2D0ED10D2B00D021E1F6
:1013A000D0226E4B1A70734B1B68002B19D0210C86
:1013B000C9B2F8B2984714E00E2B00D012E1E02237
:1013C000664B1A706C4B1B68002B0AD0FE22610220
:1013D000480E9201610C1140684A01438918F8B225
:1013E0009847674B220C1F70664B240E1A70664B91
:1013F0001C70AAE0AB1EF0B2012B05D9052D6DD1F2
:10140000F02879D9F72877D0F1380E2800D9E9E00B
:1014100000F01AFC080A17E8E81EE823E82D374117
:10142000E84B5500594B0DE0594B1A68002A52D031
:10143000FE236002410E9B01600C18400843904758
:1014400049E0544B1B68200CC0B2002B42D142E053
:10145000514B1B68002B36D13DE0504B1B68002BD5
:1014600031D14F4BF8201B68002B33D133E04D4B6B
:101470001B68002B27D14A4BFA201B68002B29D16F
:1014800029E0494B1B68002B1DD1454BFB201B68F5
:10149000002B1FD11FE0454B1B68002B13D1404B85
:1014A000FC201B68002B15D115E0414B1B68002B5D
:1014B00009D13B4BFE201B68002B0BD10BE03D4BB1
:1014C0001B68002B01D0984705E0354B1B68002BAB
:1014D00001D0FF209847214B1E7082E7042D08D1D0
:1014E000F0B2FFF74DFE200CC0B2FFF749FE200E10
:1014F00076E06B1F022B67D8F0B2FFF741FE052D97
:1015000008D0200CC0B2FFF73BFE072D02D1200E01
:10151000FFF736FE284B1B4A198811701A4A080A31
:10152000107000221A800D4BF0321A70234B1B688A
:10153000002B03D0EF3A2248984706E0214B0120C8
:101540001B68002B4FD01E48984701204BE0C04637
:10155000C00400206F0400201A050020140500209C
:10156000C8040020D00400209C040020CC040020EB
:101570008C040020A00400209004002000E0FFFF65
:101580001B0500201805002019050020A8040020D4
:1015900094040020C4040020AC0400207404002043
:1015A00080040020A404002084040020BC04002047
:1015B0007C040020780400201605002098040020F8
:1015C0001C050020B00400200F2D0BD1F72800D9F6
:1015D0001AE7F02803D0044B1B88002B02D0F0B28E
:1015E000FFF7CEFD0020FEBD1605002070B5114DA1
:1015F0002B68002B0CD0286843885A1CC3181C7A0F
:1016000003889A4212D3FFF793FD00232B600EE06C
:10161000094B1B78002B02D10120404208E0022038
:10162000FFF772F928600028E5D1F5E74280200035
:1016300070BDC046E00400206F04002010B50D4CC2
:101640002368002B03D02268002A0ED103E00A4B46
:101650001B78002B02D10120404209E00220FFF755
:1016600053F920600028EED1F5E75388D318187A93
:1016700010BDC046E00400206F040020054B5888D0
:10168000054B1A68002A03D0138852889B1AC01889
:101690007047C0460A050020E004002010B50A4B40
:1016A0001B78002B0FD0094C2068002803D0FFF7CF
:1016B0003FFD002323600220FFF726F9002802D017
:1016C000FFF736FDF7E710BD6F040020E0040020AF
:1016D000314A0123F0B50C00170085B0019002914A
:1016E00013700393002C53D02C4D2B68002B25D165
:1016F0002B4E2C4B1B78DBB2002B01D13B7017E03B
:101700000320FFF71BF9072809D86B461B7B3B70AA
:10171000FFF7F0FC214B186000280FD13870013E14
:10172000214B002E02D01A78002A04D001221A7010
:10173000012040422EE000F069F9DAE700221A4B5E
:1017400029681A7040234A88981A2300844200D9D5
:101750000300080008308018D2184A800022E41ADA
:10176000934204D0019EB65C86540132F8E7019A98
:10177000D31801934B883F2B06D9402303200B80BD
:10178000FFF72AF900232B600522084B1A70A9E7FE
:1017900002983C7005B0F0BDD5040020D8040020AC
:1017A000097500006F040020DC040020D404002030
:1017B00007B56B46D871073301211800FFF788FF82
:1017C0000EBDFFFF012370B50E4C0F4D23702B682B
:1017D000002B10D10D4B1B78002B02D10020207064
:1017E0000FE00320FFF7AAF80728F7D8FFF782FCDD
:1017F00028600028F2D02B6858884023181A00234C
:10180000237070BDD5040020D80400206F04002090
:10181000F7B5124B1B78002B1FD00126104F114B30
:101820003C681E700193104D002C09D000262E70CC
:101830006388210023800320FFF7CEF83E6009E093
:10184000FFF758FC011E04D003202C70FFF7C4F8EA
:1018500000E02E700023019A1370F7BD6F04002082
:10186000D8040020D5040020D404002070B50E4B0D
:101870001C78E4B2002C15D10C4D2968002906D043
:101880004B8803200B80FFF7A7F82C600AE0FFF7D6
:1018900031FC011E03D00320FFF79EF802E0012275
:1018A000034B1A7070BDC046D5040020D804002038
:1018B000D4040020EFF3108072B643425841C0B206
:1018C0007047002800D062B67047FFFF10B5FFF7E1
:1018D000F1FF0C4A1468002C10D063691360002BD0
:1018E00002D000229A6101E0074A1360FFF7E9FF86
:1018F000002320006377A3689847E8E7FFF7E1FF3C
:1019000010BDC046E8040020EC04002010B5FFF72D
:10191000DDFF10BD024A1368013313607047C046F3
:101920007803002037B5022504002A00054901A8E4
:1019300000F06EFA23682A005B6801A9200098472E
:101940003EBDC046681F0000F0B50D000F2185B0F8
:101950009446134A6944ACB22F0C574301345443A4
:10196000BBB2260C1C19A4193B0C240CDB19E31880
:101970000A245B085C432D1B303501390D701D1E98
:10198000E9D16346002B02D02D2301390B70CA43E5
:1019900004ABD21803685B68984705B0F0BDC04639
:1019A00033330000002210B5914201DA49422D3252
:1019B000FFF7CAFF10BD10B5FEF75AFDFEF772FD26
:1019C00000F024F8FAE710B5FFF768FE10BD10B577
:1019D000FFF734FE10BD10B5FFF708FE10BD10B5BF
:1019E000FFF74CFE10BD10B5FFF712FF10BD10B58C
:1019F000FFF7E8FE10BD10B508001100FFF768FE04
:101A000010BD10B50800FFF7D3FE10BDF8B52F4C80
:101A10002278002A58D02E4E3378002B54D101332F
:101A200033701A420DD0FFF729FE002801D000F0D4
:101A300009F9284B1B78002B03D00122237893430C
:101A4000237023789B0712D50025234B1B78AB42CC
:101A50000DD9224BAA00D7583B6838001B6998471C
:101A6000002801D03B6998470135EDB2EDE700232E
:101A7000337023785B0727D519490B68002B23D0D7
:101A8000EFF30583002B1FD1EFF3108272B60868C5
:101A9000002803D0134C2578002D03D0002A13D141
:101AA00062B611E00123237043690B60002B01D063
:101AB0009D6101E00C490B60002A00D162B600254F
:101AC0008368457798472570F8BDC04654020020CA
:101AD000F90400204A03002008050020FC0400202F
:101AE000F4040020F8040020F00400201B4B1C4AE2
:101AF00019781C4B082901D1002102E00A2903D1E1
:101B00002E311160132206E00C2901D1283100E0AA
:101B10003C21116012221A60134B1A78134B002AD1
:101B200001D0002200E001221A60114B1A78114BFB
:101B3000012A01D880220CE0042A01D8842208E07E
:101B4000082A01D8852204E0102A01D8862200E064
:101B500087221A600122084B1A7070475502002034
:101B600008B003400CB00340FB04002020B0034049
:101B70005602002024B00340FA040020F8B5060005
:101B80000D00170000243900300000F0F7F80B00BA
:101B90003733DBB2092901D83031CBB230002B55B5
:101BA000390000F065F8061E01D00134EBE72B196F
:101BB00058702B005A1B944206DD1A78295D197063
:101BC0002A550133013CF5E72800F8BD30B585B052
:101BD00072B670224121154B1A70154A1170154AC0
:101BE0003239117080221A701A7852B2002AFBDA48
:101BF000114B186862B6114B984201D80A2358431A
:101C000001AC0A222100FFF7B9FF00230C48E15C78
:101C10000500002905D05A008218013351800A2B93
:101C2000F5D101335B002B7005B030BD00000240E0
:101C30000700024006000240080002407F9698001C
:101C4000340300207047FFFF02B471464908490081
:101C5000095C49008E4402BC7047C04603B471461B
:101C6000490840004900095A49008E4403BC7047A6
:101C7000002243088B4274D303098B425FD3030ACB
:101C80008B4244D3030B8B4228D3030C8B420DD3DE
:101C9000FF22090212BA030C8B4202D3121209026C
:101CA00065D0030B8B4219D300E0090AC30B8B42AA
:101CB00001D3CB03C01A5241830B8B4201D38B0358
:101CC000C01A5241430B8B4201D34B03C01A5241FD
:101CD000030B8B4201D30B03C01A5241C30A8B4240
:101CE00001D3CB02C01A5241830A8B4201D38B022B
:101CF000C01A5241430A8B4201D34B02C01A5241CF
:101D0000030A8B4201D30B02C01A5241CDD2C30940
:101D10008B4201D3CB01C01A524183098B4201D3BC
:101D20008B01C01A524143098B4201D34B01C01AA7
:101D3000524103098B4201D30B01C01A5241C3081F
:101D40008B4201D3CB00C01A524183088B4201D38E
:101D50008B00C01A524143088B4201D34B00C01A7A
:101D60005241411A00D20146524110467047FFE7E6
:101D700001B5002000F006F802BDC0460029F7D0EA
:101D800076E770477047C0461C2101231B04984228
:101D900001D3000C10391B0A984201D3000A0839FC
:101DA0001B09984201D30009043902A2105C4018B3
:101DB0007047C04604030202010101010000000057
:101DC000000000000E4B70B500251E000D4CE41AFB
:101DD000A410A54204D0AB00F35898470135F8E7AA
:101DE00000F006F9084B00251E00084CE41AA41068
:101DF000A54204D0AB00F35898470135F8E770BD11
:101E0000FC1F0000FC1F0000FC1F00000020000061
:101E1000002310B59A4203D0CC5CC4540133F9E7D7
:101E200010BDFFFF420000F840A004400100000088
:101E3000420000F844A0044002000000C00000F886
:101E400000C0044001000000000000F804900440BD
:101E500002000000000000F80890044004000000A8
:101E6000C00000F81CC0044080000000C00000F862
:101E700010C0044010000000C00000F808C004407A
:101E800004000000C00000F80CC00440080000007E
:101E9000800000F80CB0044008000000800000F84A
:101EA00010B0044010000000800000F818B004409A
:101EB00040000000800000F81CB0044080000000DA
:101EC000800000F814B0044020000000C00000F8BA
:101ED00004C0044002000000800000F800B004408C
:101EE00001000000400000F800A0044001000000D4
:101EF000400000F804A0044002000000400000F888
:101F00000CA0044008000000400000F808A00440B5
:101F100004000000C00000F814C0044020000000CD
:101F2000C00000F818C0044040000000800000F825
:101F300004B0044002000000800000F808B0044033
:101F400004000000020100F850D00440100000001E
:101F5000020100F854D0044020000000030100F802
:101F600078D00440400000000D0AFFFF0000000090
:101F700000000000031A0000F7190000EF1900002C
:101F8000E7190000DF190000D7190000CF19000081
:101F9000C71900001519151519FFFFFF00010000F2
:101FA0005702002012000000000200008202002000
:101FB0009500000000030000300300200000000036
:101FC000010309046A020020000000000203090462
:101FD000180300200000000003030904340300205C
:101FE00000000000000000000000000000000000F1
:101FF000F8B5C046F8BC08BC9E46704739040000DE
:04200000F8B5C04629
:102004007F40000004000000030000000200000004
:10201400FFFFFFFF741F000000000000E803000042
:1020240000000000010A041201100100000040C079
:1020340016890473020102030100180354006500A9
:1020440065006E00730079006400750069006E001D
:102054006F0009029500030100C032080B00020260
:10206400020100090400000102020100052400101D
:1020740001052401010104240206052406000107C8
:1020840005810310004009040100020A0000000752
:102094000502024000000705830240000009040213
:1020A40000020103000007240100012500062402A8
:1020B40001010006240202020009240301030102B3
:1020C400010009240302040101010009050502407D
:1020D40000000000052501010109058402400000FB
:1020E4000000052501010300180354006500650084
:1020F4006E007300790020004D004900440049003F
:10210400040309040C0300000000000000000000A8
:0C211400000000000000000000000100BE
:00000001FF
