:1000000000180020C1000000B90600007D060000B5
:100010007D0600007D0600007D0600007D060000D4
:100020007D0600007D0600007D060000B906000088
:10003000B90600007D0600008D1600009516000030
:10004000B9060000B9060000B9060000B9060000B4
:10005000B9060000B9060000B9060000B9060000A4
:10006000B9060000B9060000B9060000B906000094
:10007000B9060000B9060000B9060000B906000084
:10008000B9060000B9060000B9060000B906000074
:10009000B9060000B9060000B9060000B906000064
:1000A000350A0000B9060000B9060000B9060000D4
:1000B000B9060000B9060000B9060000B906000044
:1000C000F8B500F0FDFA0821474A484B1A60484A43
:1000D000484B1A60484A494B1A60494B1A780A4201
:1000E00002D01A780A431A702A22464B46481A70E0
:1000F00000234649464C1A188A4203D2E558043375
:100100001560F8E70021434B434A934201D202C3F2
:10011000FBE70023414A424958589446985004331B
:10012000C02BF9D100210326FF2580248A083D4BEE
:100130009200D2180B002F003340DB009F40106864
:100140000131B84307002000984003003B4313608F
:100150002029EBD16246344B1A608A22334B1A7045
:10016000334B663A5A707C321A709E3A9979114232
:10017000FCD0102299791142FCD10C209A792C499B
:100180000240082AFAD1053A0A713D324A71203AF2
:1001900099791142FCD0402299791142FCD025492D
:1001A000254A11602021224A117014399A790A4097
:1001B0000C2AFBD1214A224B1A60224A224B1A6098
:1001C0000022224B1A60224B07321A60214A224B2E
:1001D0001A6062B600F002FB01F048FC00F076FA0B
:1001E00001F060FAFEE7C046300004F034800440BD
:1001F000823F0000388004400100000F3C80044032
:1002000002D0074000E00740300200203C030020FD
:100210006C1C00003C0300205005002000F9FF1F6B
:100220000000000000E400E008ED00E0005006409F
:10023000004006400000011044800440C000050555
:10024000048004407FBB000014E000E018E000E000
:1002500010E000E00000202020ED00E0FFFFFFFFA5
:10026000FFFFFFFFFFFFFFFFFFFFFFFFFFFFFFFF9E
:10027000FFFFFFFFFFFFFFFFFFFFFFFFFFFFFFFF8E
:10028000FFFFFFFFFFFFFFFFFFFFFFFFFFFFFFFF7E
:10029000FFFFFFFFFFFFFFFFFFFFFFFFFFFFFFFF6E
:1002A000FFFFFFFFFFFFFFFFFFFFFFFFFFFFFFFF5E
:1002B000FFFFFFFFFFFFFFFFFFFFFFFFFFFFFFFF4E
:1002C000FFFFFFFFFFFFFFFFFFFFFFFFFFFFFFFF3E
:1002D000FFFFFFFFFFFFFFFFFFFFFFFFFFFFFFFF2E
:1002E000FFFFFFFFFFFFFFFFFFFFFFFFFFFFFFFF1E
:1002F000FFFFFFFFFFFFFFFFFFFFFFFFFFFFFFFF0E
:10030000FFFFFFFFFFFFFFFFFFFFFFFFFFFFFFFFFD
:10031000FFFFFFFFFFFFFFFFFFFFFFFFFFFFFFFFED
:10032000FFFFFFFFFFFFFFFFFFFFFFFFFFFFFFFFDD
:10033000FFFFFFFFFFFFFFFFFFFFFFFFFFFFFFFFCD
:10034000FFFFFFFFFFFFFFFFFFFFFFFFFFFFFFFFBD
:10035000FFFFFFFFFFFFFFFFFFFFFFFFFFFFFFFFAD
:10036000FFFFFFFFFFFFFFFFFFFFFFFFFFFFFFFF9D
:10037000FFFFFFFFFFFFFFFFFFFFFFFFFFFFFFFF8D
:10038000FFFFFFFFFFFFFFFFFFFFFFFFFFFFFFFF7D
:10039000FFFFFFFFFFFFFFFFFFFFFFFFFFFFFFFF6D
:1003A000FFFFFFFFFFFFFFFFFFFFFFFFFFFFFFFF5D
:1003B000FFFFFFFFFFFFFFFFFFFFFFFFFFFFFFFF4D
:1003C000FFFFFFFFFFFFFFFFFFFFFFFFFFFFFFFF3D
:1003D000FFFFFFFFFFFFFFFFFFFFFFFFFFFFFFFF2D
:1003E000FFFFFFFFFFFFFFFFFFFFFFFFFFFFFFFF1D
:1003F000FFFFFFFFFFFFFFFFFFFFFFFFFFFFFFFF0D
:10040000FFFFFFFFFFFFFFFFFFFFFFFFDEF9FFFF23
:1004100010B5064C2378002B07D1054B002B02D0DA
:10042000044800E000BF0123237010BD3C030020FE
:10043000000000006C1C0000084B10B5002B03D01E
:100440000749084800E000BF07480368002B00D1B7
:1004500010BD064B002BFBD09847F9E700000000C9
:10046000400300206C1C00003C0300200000000042
:10047000094B10B518680021C0B200F03BF9074BDA
:1004800000211868C0B200F035F9054B002118684A
:10049000C0B200F02FF910BD3C020020380200204D
:1004A000340200200023F7B55F4C23706370A37003
:1004B0005E4D287800F00CF901950028F8D0002551
:1004C00000265B4F387800F003F90028F9D0594B2B
:1004D0001868C0B200F0FCF8B040635D1843605586
:1004E000387800F0F5F80128FAD00136082EE8D166
:1004F0000135032DE4D1019B1B6800936B461878EE
:1005000000F0E6F80128F6D022780F2113004A48BF
:100510000B408A434949013303700A70B02A2DD039
:1005200014D8802A17D0902A77D162784449454858
:100530000A70A17812040170FE20C00310400A0660
:10054000FE21C9050A4002433F4827E0C02A2DD0BA
:10055000E02A3DD061E062783949013B0A70A07819
:100560003849120408701802F021030009010B40F9
:10057000FE213648C9030A4010434BE062783449F3
:1005800034480A70A17812040170FE20C0031040A4
:100590000A06FE21C9050A4002432F48F021024302
:1005A000581E000209010840104334E060782B4ACD
:1005B0002B491070FE220004D2031040013B01437E
:1005C000F02218020300120113401943080022E030
:1005D0006178244A1170A078234A1070234AC00120
:1005E0008018234A1060234A904200DD10008022C8
:1005F00092018018F022013B12011B0213401E4A97
:1006000001041343FE22D2030A401343FE22400496
:10061000D2051040184300F0C1FD002000F01EFE7E
:100620000028FAD1F7BDC04665030020340200203F
:100630003C020020380200205A030020580300200A
:1006400031020020300200200990000008800000E4
:100650005B0300205D0300200BB00000640300205A
:100660000CC000005C0300205903002000E0FFFFE5
:1006700060030020FF1F00000EE0000070B5802521
:100680008026ED02F6000B4C23682B4201D000F0CF
:10069000D1F92368334201D000F00EF823681B051E
:1006A00001D500F009F82368DB04ECD500F004F86C
:1006B000E9E7C0463480044010B5FFF7DFFFFFFFD5
:1006C0000022014B1A607047008104407047FFFF11
:1006D00000231A280AD80C335843054A83581018A7
:1006E000007A1B7C0340581E8341DBB21800704720
:1006F000B81A0000F0B51A282FD80C22170047436B
:10070000164CE5196B682600012901D0042911D186
:10071000504334583018257D027A20202A43227510
:10072000A22252001A601A68042901D1024313E080
:10073000824311E038592C7A027DA243027580224F
:10074000002908D0022902D10422FF3204E000224D
:10075000032901D1812252001A60F0BDB81A0000AD
:1007600072B60C4B1A680C4B18680C4B1B6862B6BF
:100770005B0104D5322393429B415B42C018084B76
:100780009A1A084B5A43FA239B005843920D1018AB
:100790007047C04618E000E06803002004ED00E068
:1007A0007FBB00005555010070B50400FFF7D8FF6E
:1007B0000500002C0FD0FFF7D3FF074B401B9842DA
:1007C00006D9013C002C06D0FA239B00ED18F2E775
:1007D00000F070FFEFE770BDE703000080221E4BC2
:1007E000D20510B51A608022002012061A601B4B39
:1007F0001B4918601B4B1C4A1960282313601B4AB5
:100800001B4C13601B4A13601B4A13601B4A136086
:100810001B4A1360092222601A4C20601A4C216086
:100820001A4C23601A4C23601A4C22601A4C206028
:100830001A4801601A490B601A490B601A4B1A607A
:1008400000F0A8FF1920FFF7AFFF00F0EBFB14202A
:10085000FF30FFF7A9FF10BD00E100E00480034076
:10086000FFBF0000088003400C8003401480034059
:10087000008003401C800340248003402C80034000
:100880003480034004900340089003400C900340E0
:10089000149003400090034004A0034008A00340CC
:1008A0000CA0034014A0034000A003400223F0B5B5
:1008B0000A4A0B4E1478C8272343DB00F5186860FA
:1008C00008480578002D00D1403F09040F43F75038
:1008D00001235D405C4005701470F0BDE003002012
:1008E00000F8FF1F60040020431E10B50020042BF9
:1008F0000ED872B6074A99008858002807D0446875
:100900005B008C50044904885A5A121B5A5262B632
:1009100010BDC046CC030020F6040020431E00207A
:10092000042B09D872B6054A9B009B58002B02D0B5
:1009300001305B68FAE762B67047C04624040020C5
:10094000F8B572B60123174A082594461E001649C9
:1009500064465A1EA25C2A421AD05F017C589A0053
:10096000002C05D1CB1908305860104BCB5109E051
:100970003243D2005458002C0AD18B1808305860EA
:100980000B4B8B500B4A1378013B137062B608E097
:100990000133062BDCD162B60022064B1A7000F040
:1009A000B7FBF8BDFC1B000000F8FF1F88004000EB
:1009B000C800400056040020421E10B5042A30D85A
:1009C000022380001843174BC0001B1872B6164C48
:1009D000A05C03280BD800F08BFF1604020705204B
:1009E00012E0083302200FE0083304200CE00F4827
:1009F000920014580E4B002C01D1115001E0985870
:100A0000416099500CE00320A0540A0008325A605B
:100A1000C822180700D4403A098809040A431A601A
:100A200062B610BD00F8FF1F8403002024040020DC
:100A300038040020F7B5BA4B1C781D000423E4B23B
:100A40001C421FD0B74B1B78002B18D0B64A137826
:100A5000DBB2002B05D0013BDBB21370002B00D1C1
:100A600000BEB24A1378DBB2002B06D0013BDBB2EA
:100A70001370002B01D100F0B9FD00F0D7FB042268
:100A8000A74B1A700822224000D161E2A84BA94F5F
:100A90001B78DBB29C08E4001D093C19002D00D036
:100AA000E7E1236862689806000F01380C2800D936
:100AB000DBE100F027FF9C019C01DA01DA01DA0199
:100AC000DA01DA01DA01B701DA01DA01DA010D003F
:100AD0001168536800229848984E026001207360A4
:100AE000974B31602360974C89B22070964C3A61E5
:100AF000BA610193A14218D8D023DB00994200D3F8
:100B0000E7E081235B00994200D1C4E006D8802948
:100B100000D1A9E0822900D1ABE0FAE08B4B9942E9
:100B200000D1C7E0FF33FF331AE0894B994200D16F
:100B30005AE110D888231B01994200D18EE08033FE
:100B4000994200D0E5E03C003D00B278754B20347E
:100B50001A70C03508E07F4B994200D1CEE07E4B41
:100B6000994200D1D9E0D4E080222368134203D017
:100B70006068083800F0CCFA0834AC42F4D10024A4
:100B80002500764BE058002805D04368009300F01C
:100B9000BFFA0098F7E7714B1851714BE050714B59
:100BA000E058002805D04368009300F0B1FA00989F
:100BB000F7E76C4B6C4A18516C4BE0506B00D0520D
:100BC0006B4BE85C0238032807D800F091FE020462
:100BD0000204002200E001225A5501350434052D9B
:100BE000CFD100230124634D2B70634B6349621EF8
:100BF000E3188A5C9B001A7008231A4220D000F088
:100C000069FA6301002805D0FA18083050605C4A80
:100C1000FA5003E0F8502B7801332B7000F05AFAA9
:100C20000122A3001343DB00002805D0FA18083086
:100C30005060019AFA5003E0F8502B789B182B7003
:100C400002210023A2001143C9007B5003210A4363
:100C50008A400134BB50062CC7D1A0E0314B494C2F
:100C60001B78237003009BE0464C022322706270C5
:100C700096E07F23B1880B40052B4AD8414C9B005E
:100C800022706270404A9B181A7802231A4200D1DF
:100C900086E0207084E07F23B2881A40052A38D885
:100CA0007388002B35D102203749920052181178F1
:100CB00081432CE07F23B2881A40052A29D8738803
:100CC000002B26D10220304992005218117801439E
:100CD0001DE07288B1882D4B5C68002C19D01888F3
:100CE000904209D15888884206D1120A032A01D1BC
:100CF000237855E01B8953E00C33EDE7B388002BD4
:100D00004CD1234A1168234A1160B178224A1170EC
:100D100045E00F221C4B1A7066E000233FE0C046FE
:100D2000802007405F040020E1030020C40400206D
:100D30009020074000F8FF1F6C0300204C040020A7
:100D4000C80040006004002081060000020300008B
:100D5000212000002122000021230000CC030020DC
:100D60007003002024040020F60400203804002032
:100D7000840300205604002030C80110FC1B000032
:100D80008800400057040020C0200740041C0000D9
:100D9000680300204C050020D004002013001C0034
:100DA000F5889D4200D91D002E00402D00D9402617
:100DB00020003100FFF77AFDA419AD1B03D12F00ED
:100DC000402E04D010E04027AF4200D92F00200071
:100DD0003900FFF76BFDE419ED1B01D1402F03D162
:100DE000774B1C60774B1D800122774B3CE0774BA3
:100DF00077491888884212D19B88002B0BD17549FE
:100E0000D05CC8540133072BFAD10B68862B02D172
:100E10000F22714B1A7000210800FFF747FD6F4B3E
:100E2000236022E0664F3E68002E13D0654B1C887D
:100E30002500402C00D9402529003000FFF736FD61
:100E4000641B604BA4B21C80002C01D1402D00D14A
:100E500074193C60A0225D4BD2001988914204D1E4
:100E600000225A709A785E4B1A700122564B1A7003
:100E70006AE008226068013D0838EDB2134037D0BF
:100E800000F046F95749A8004258574B002A1CD099
:100E9000566846501100585D0831616003280BD830
:100EA00000F026FD02040608032104E0022102E00E
:100EB000052100E0042159550821C8230C4200D126
:100EC000403B1288120413433DE0585D032808D8C4
:100ED00000F00EFD3A3A0204002200E001225A55C9
:100EE00032E008221440621E944102345C552BE02B
:100EF0002268110C8AB2028000291ED03B4943802F
:100F00004360AB005F583A4E002F01D1585001E0CA
:100F1000F158486037496D00F0506B5AD2186A5248
:100F200000F0D8F8002802D00830606005E0324AAE
:100F3000206013780133137006E008231C4201D1AE
:100F40002E4B00E0254B236008222D4B1A7072E5D2
:100F5000012004421ED002231B49284C0B70294B50
:100F6000294E1A70294B1C609C60294C1A61DC6068
:100F70000D249A615E60274B1C70FF23264C237062
:100F8000174C2B702270254A13709F22244B1A7025
:100F9000087013E063B2002B04DA0D221D4B1A70A7
:100FA00080232B700222144204D01B490B78DBB241
:100FB0000B702A7010231C4200D02B70F7BDC04666
:100FC0006C03002054040020942007404C040020AF
:100FD0002120000044050020E1030020C80040005B
:100FE000982007402404002084030020CC03002024
:100FF00070030020F6040020560400208800400002
:1010000080200740E00300208C03002000F8FF1F31
:10101000E4030020C0200740882007408C200740C0
:101020008420074010B500F0FDFB002211001B4B8F
:10103000D150981808324160C02AF9D1802018494F
:10104000C0020A6802430A601A0A1649D2B20A703C
:101050001A0C1549D2B20A70144A1B0E1370FF23E2
:10106000134A00201370134A13491370134A137064
:1010700001220A701249087012490A70124A116856
:1010800099430B0070210B43136080220F4B5204D5
:101090001A6010220E4B1A7010BDC04600F8FF1FD8
:1010A000348004409C200740B0200740B420074013
:1010B00080200740882007409420074010200740E8
:1010C000002107408420074018E400E000E100E030
:1010D0000821074070B572B60B4D2C68200000F057
:1010E000A7FC1D2802DD62B600200CE080231B0651
:1010F000C3409C432C6062B648235843034B1818E6
:1011000000230360436070BD40020020C0F9FF1F50
:1011100010B504000E484821201A00F0FDFB1D28E0
:1011200014D80C4B1B78002B07D00B4B1B78002BD3
:1011300003D02000FFF704FC08E072B680231B06F2
:10114000C340064A11680B43136062B610BDC04627
:10115000C0F9FF1F560400205F0400204002002059
:101160000B4B70B51B6805000A4C002B07D021887B
:101170003B2904D90022084898470023238023886C
:101180003B2B03D85A1C2280034AD55470BDC0465D
:10119000880400200205002008050020F8B501237E
:1011A0001D4D1E4C2B7023680700002B1DD11C4EBB
:1011B0001C4B1B78002B2DD00420FFF7AFFB05281C
:1011C00004D9013E184B002E06D108E0FFF782FF3C
:1011D00020600028F5D008E01A78002A02D0012209
:1011E0001A7017E000F066FAE2E700260E4B21685D
:1011F0001E704B885A1C9B00CB189F600F2A01D889
:101200004A8005E0402304200B80FFF7D5FB2660D1
:1012100000232B70F8BDC04678040020A4040020F1
:10122000E14200005F040020A804002070B5094BD3
:101230001D78002D0CD1084C2168002908D04B885E
:10124000002B05D09B000B800420FFF7B5FB256029
:1012500070BDC04678040020A4040020F7B5B44E49
:10126000019033683500002B13D1B24B1B78002B53
:1012700000D1A7E10520FFF737FB3060002800D13F
:10128000A0E10488002C04D1FFF742FF3460200065
:1012900099E1286843889A08920082189468028825
:1012A0000433934201D2438005E0FFF731FF05206C
:1012B000FFF71AFB28600F23250022099E491A40D8
:1012C0001D40260A37000A702A001F40083A0137DD
:1012D000062A7FD8019A002A02D0974200D071E1F5
:1012E000220B1340082D07D1082B00D06AE1802281
:1012F000924B1A70924B21E0092D16D1092B00D088
:1013000060E1220E8D4B210C002A07D0902018702E
:101310008C4BD2B21B68002B15D152E08020187084
:10132000874B1B68002B0ED14BE00A2D0FD10A2BE7
:1013300000D047E1A022814B1A70834B1B68002B21
:101340003FD0220E210CC9B2F8B2984739E00B2DDC
:1013500007D10B2B00D035E1B022784B1A707B4BB4
:10136000ECE70C2D07D10C2B00D02BE1C022734BE6
:101370001A70774B08E00D2D0ED10D2B00D021E116
:10138000D0226E4B1A70734B1B68002B19D0210CA6
:10139000C9B2F8B2984714E00E2B00D012E1E02257
:1013A000664B1A706C4B1B68002B0AD0FE22610240
:1013B000480E9201610C1140684A01438918F8B245
:1013C0009847674B220C1F70664B240E1A70664BB1
:1013D0001C70AAE0AB1EF0B2012B05D9052D6DD112
:1013E000F02879D9F72877D0F1380E2800D9E9E02C
:1013F00000F07EFA080A17E8E81EE823E82D3741D6
:10140000E84B5500594B0DE0594B1A68002A52D051
:10141000FE236002410E9B01600C18400843904778
:1014200049E0544B1B68200CC0B2002B42D142E073
:10143000514B1B68002B36D13DE0504B1B68002BF5
:1014400031D14F4BF8201B68002B33D133E04D4B8B
:101450001B68002B27D14A4BFA201B68002B29D18F
:1014600029E0494B1B68002B1DD1454BFB201B6815
:10147000002B1FD11FE0454B1B68002B13D1404BA5
:10148000FC201B68002B15D115E0414B1B68002B7D
:1014900009D13B4BFE201B68002B0BD10BE03D4BD1
:1014A0001B68002B01D0984705E0354B1B68002BCB
:1014B00001D0FF209847214B1E7082E7042D08D1F0
:1014C000F0B2FFF74DFE200CC0B2FFF749FE200E30
:1014D00076E06B1F022B67D8F0B2FFF741FE052DB7
:1014E00008D0200CC0B2FFF73BFE072D02D1200E22
:1014F000FFF736FE284B1B4A198811701A4A080A52
:10150000107000221A800D4BF0321A70234B1B68AA
:10151000002B03D0EF3A2248984706E0214B0120E8
:101520001B68002B4FD01E48984701204BE0C04657
:10153000B00400205F040020060500200005002004
:10154000B8040020C00400208C040020BC0400204B
:101550007C040020900400208004002000E0FFFFB5
:101560000705002004050020050500209804002040
:1015700084040020B40400209C04002064040020A3
:10158000700400209404002074040020AC040020A7
:101590006C0400206804002002050020880400205C
:1015A00008050020A00400200F2D0BD1F72800D93A
:1015B0001AE7F02803D0044B1B88002B02D0F0B2AE
:1015C000FFF7CEFD0020FEBD02050020054B588828
:1015D000054B1A68002A03D0138852889B1AC0183A
:1015E0007047C046F6040020CC04002070B50E4BB6
:1015F0001C78E4B2002C15D10C4D2968002906D0C6
:101600004B8803200B80FFF7D7F92C600AE0FFF727
:1016100061FD011E03D00320FFF7CEF902E0012295
:10162000034B1A7070BDC046C5040020C8040020DA
:10163000C4040020EFF3108072B643425841C0B298
:101640007047002800D062B67047FFFF10B5FFF763
:10165000F1FF0C4A1468002C10D063691360002B52
:1016600002D000229A6101E0074A1360FFF7E9FF08
:10167000002320006377A3689847E8E7FFF7E1FFBE
:1016800010BDC046D4040020D804002010B5FFF7D8
:10169000DDFF10BD024A1368013313607047C04676
:1016A0006803002010B5FEF7E3FEFEF7FBFE00F036
:1016B00001F8FAE7F8B52F4C2278002A58D02E4EC0
:1016C0003378002B54D1013333701A420DD0FFF719
:1016D0007DFF002801D000F0E1F8284B1B78002B9B
:1016E00003D0012223789343237023789B0712D5DC
:1016F0000025234B1B78AB420DD9224BAA00D758AB
:101700003B6838001B699847002801D03B6998471F
:101710000135EDB2EDE70023337023785B0727D561
:1017200019490B68002B23D0EFF30583002B1FD141
:10173000EFF3108272B60868002803D0134C2578A6
:10174000002D03D0002A13D162B611E001232370CB
:1017500043690B60002B01D09D6101E00C490B60D7
:10176000002A00D162B60025836845779847257026
:10177000F8BDC04644020020E50400203A030020E2
:10178000F4040020E8040020E0040020E404002029
:10179000DC0400201B4B1C4A19781C4B082901D182
:1017A000002102E00A2903D12E311160132206E044
:1017B0000C2901D1283100E03C21116012221A606D
:1017C000134B1A78134B002A01D0002200E00122AB
:1017D0001A60114B1A78114B012A01D880220CE0B3
:1017E000042A01D8842208E0082A01D8852204E0CE
:1017F000102A01D8862200E087221A600122084BB5
:101800001A7070474502002008B003400CB0034036
:10181000E704002020B003404602002024B003402B
:10182000E604002030B585B072B670224121154B18
:101830001A70154A1170154A3239117080221A70C7
:101840001A7852B2002AFBDA114B186862B6114BB3
:10185000984201D80A23584301AC0A22210000F023
:101860001EF800230C48E15C0500002905D05A0051
:101870008218013351800A2BF5D101335B002B70A4
:1018800005B030BD000002400700024006000240E3
:10189000080002407F969800240300207047F8B5A6
:1018A00006000D00170000243900300000F0BAF8DF
:1018B0000B003733DBB2092901D83031CBB230000D
:1018C0002B55390000F028F8061E01D00134EBE753
:1018D0002B1958702B005A1B944206DD1A78295D8B
:1018E00019702A550133013CF5E72800F8BDFFFFC8
:1018F00002B4714649084900095C49008E4402BCA3
:101900007047C04603B47146490840004900095A6F
:1019100049008E4403BC7047002243088B4274D3B5
:1019200003098B425FD3030A8B4244D3030B8B42E0
:1019300028D3030C8B420DD3FF22090212BA030CE9
:101940008B4202D31212090265D0030B8B4219D3CA
:1019500000E0090AC30B8B4201D3CB03C01A5241EA
:10196000830B8B4201D38B03C01A5241430B8B4232
:1019700001D34B03C01A5241030B8B4201D30B031B
:10198000C01A5241C30A8B4201D3CB02C01A524142
:10199000830A8B4201D38B02C01A5241430A8B4205
:1019A00001D34B02C01A5241030A8B4201D30B02EE
:1019B000C01A5241CDD2C3098B4201D3CB01C01A08
:1019C000524183098B4201D38B01C01A5241430912
:1019D0008B4201D34B01C01A524103098B4201D300
:1019E0000B01C01A5241C3088B4201D3CB00C01A6D
:1019F000524183088B4201D38B00C01A52414308E5
:101A00008B4201D34B00C01A5241411A00D2014609
:101A1000524110467047FFE701B5002000F006F87C
:101A200002BDC0460029F7D076E770477047C04630
:101A30001C2101231B04984201D3000C10391B0AFE
:101A4000984201D3000A08391B09984201D30009C2
:101A5000043902A2105C40187047C0460403020219
:101A60000101010100000000000000000E4B70B5F4
:101A700000251E000D4CE41AA410A54204D0AB00B2
:101A8000F35898470135F8E700F0E6F8084B0025D1
:101A90001E00084CE41AA410A54204D0AB00F35871
:101AA00098470135F8E770BD641C0000641C000015
:101AB000641C0000681C0000420000F840A00440C4
:101AC00001000000420000F844A0044002000000B1
:101AD000C00000F800C0044001000000000000F851
:101AE0000490044002000000000000F80890044048
:101AF00004000000C00000F81CC00440800000008A
:101B0000C00000F810C0044010000000C00000F841
:101B100008C0044004000000C00000F80CC00440ED
:101B200008000000800000F80CB00440080000002D
:101B3000800000F810B0044010000000800000F8A1
:101B400018B0044040000000800000F81CB00440C1
:101B500080000000800000F814B004402000000065
:101B6000C00000F804C0044002000000800000F83B
:101B700000B0044001000000400000F800A0044054
:101B800001000000400000F804A004400200000032
:101B9000400000F80CA0044008000000400000F8DD
:101BA00008A0044004000000C00000F814C0044075
:101BB00020000000C00000F818C0044040000000F1
:101BC000800000F804B0044002000000800000F82B
:101BD00008B0044004000000020100F850D00440A6
:101BE00010000000020100F854D004402000000062
:101BF000030100F878D004404000000015191515C5
:101C000019FFFFFF00010000470200201200000042
:101C10000002000072020020950000000003000096
:101C20002003002000000000010309045A020020E4
:101C30000000000002030904080300200000000067
:101C4000030309042403002000000000000000003A
:101C50000000000000000000F8B5C046F8BC08BC59
:081C60009E46704739040000A4
:041C6800F8B5C046C5
:101C6C007F400000040000000300000002000000A0
:101C7C00FFFFFFFF010A041201100100000040C029
:101C8C001689047302010203010018035400650055
:101C9C0065006E00730079006400750069006E00C9
:101CAC006F0009029500030100C032080B0002020C
:101CBC0002010009040000010202010005240010C9
:101CCC000105240101010424020605240600010774
:101CDC0005810310004009040100020A00000007FE
:101CEC0005020240000007058302400000090402BF
:101CFC000002010300000724010001250006240254
:101D0C00010100062402020200092403010301025E
:101D1C000100092403020401010100090505024028
:101D2C0000000000052501010109058402400000A6
:101D3C00000005250101030018035400650065002F
:101D4C006E007300790020004D00490044004900EA
:101D5C00040309040C030000000000000000000054
:0C1D6C000000000000000000000001006A
:00000001FF
